:020000040800F2
:1000000000000820952F0008852D00088D2D000880
:10001000952D00089D2D0008A52D0008000000006A
:10002000000000000000000000000000AD2D0008EE
:10003000BB2D000800000000C92D0008D72D0008C6
:10004000E52F0008E52F0008E52F0008E52F000840
:10005000E52F0008E52F0008E52F0008E52F000830
:10006000E52F0008E52F0008E52F0008E52F000820
:10007000BD730008E52F0008E52F0008E52F0008F4
:10008000E52F0008E52F0008E52F0008E52F000800
:10009000E52F0008E52F0008E52F0008E52F0008F0
:1000A000E52F000801750008E52F0008E52F00087E
:1000B0004D750008E52F0008E52F0008E52F000822
:1000C000E52F0008E52F0008E52F0008E52F0008C0
:1000D000E52F0008E52F0008E52F0008E52F0008B0
:1000E000E52F0008E52F0008E52F0008E52F0008A0
:1000F000E52F0008E52F0008E52F0008E52F000890
:10010000E52F0008E52F0008E52F0008E52F00087F
:10011000E52F0008E52F0008E52F0008E52F00086F
:100120004D6A0008E52F000801690008E52F000866
:10013000E52F0008E52F0008E52F0008E52F00084F
:10014000E52F0008E52F0008E52F0008E52F00083F
:10015000E52F0008F9760008E52F00085D5000083B
:10016000E52F0008E52F0008E52F0008E52F00081F
:10017000E52F0008E52F0008E52F0008000000002B
:10018000E52F0008E52F00080D390008E52F0008CD
:10019000E52F0008E52F0008E52F0008E52F0008EF
:1001A0000000000000000000E52F0008E52F000817
:1001B000E52F0008E52F0008E52F0008E52F0008CF
:1001C000E52F0008E52F000800000000E52F0008DB
:1001D000E52F0008E52F0008E52F0008E52F0008AF
:1001E000E52F0008E52F0008E52F0008E52F00089F
:0801F00000000000E52F0008EB
:1002000010B5054C237833B9044B13B10448AFF350
:1002100000800123237010BDA043002000000000D7
:10022000D8FE000808B5034B1BB103490348AFF3E0
:10023000008008BD00000000A4430020D8FE000894
:1002400010F8012B11F8013B012A28BF9A42F7D080
:10025000D01A7047000000000000000000000000FD
:1002600001F0FF01102A2BDB10F0070F08D010F867
:10027000013B013A8B422DD010F0070F42B3F6D16B
:10028000F0B441EA012141EA014122F007047FF084
:1002900000070023F0E80256083C85EA010586EADB
:1002A000010685FA47F5A3FA87F586FA47F6A5FA17
:1002B00087F68EB9EED1F0BC01F0FF0102F0070223
:1002C00032B110F8013B013A83EA010313B1F8D1CE
:1002D0000020704701387047002D06BF35460338AF
:1002E000073815F0010F07D1013015F4807F02BFE8
:1002F000013015F4C03F0130F0BC0138704700BF39
:10030000034613F8012B002AFBD1181A0138704755
:100310007BB972B90029BEBF00204FF0004106E052
:1003200008BF00281CBF6FF000414FF0FF3000F005
:10033000BBB9ADF1080C6DE904CE002909DB002B37
:100340001ADB00F035F8DDF804E0DDE9022304B043
:100350007047404261EB4101002B1BDB00F028F8A5
:10036000DDF804E0DDE9022304B0404261EB410125
:10037000524263EB43037047524263EB430300F086
:1003800017F8DDF804E0DDE9022304B0404261EB38
:1003900041017047524263EB430300F009F8DDF876
:1003A00004E0DDE9022304B0524263EB43037047EB
:1003B0002DE9F047089D8E4604468846002B4AD119
:1003C0008A42174662D9B2FA82F64EB1C6F12003CC
:1003D00001FA06F820FA03F3B74043EA0808B440EC
:1003E0004FEA174E1FFA87FCB8FBFEF1230C0EFBF9
:1003F000118843EA084301FB0CF29A4209D9FB1821
:1004000001F1FF3080F0EA809A4240F2E780023941
:100410003B449A1AA3B2B2FBFEF00EFB102243EA51
:10042000024300FB0CFC9C4509D9FB1800F1FF328C
:1004300080F0D6809C4540F2D3803B44023840EAAD
:100440000140A3EB0C0300211DB1F3400022C5E9DC
:100450000032BDE8F0878B4205D90DB1C5E9000136
:1004600000210846F5E7B3FA83F1002946D1734528
:1004700002D3824200F20581841A6EEB030201204E
:100480009046002DE5D0C5E90048E2E7002A00F0DB
:100490009080B2FA82F6002E40F0A4808A1A030CF3
:1004A0004FEA174E80B2BCB20121B2FBFEFC0EFB3C
:1004B0001C2243EA024304FB0CF29A4207D9FB18C0
:1004C0000CF1FF3802D29A4200F2E080C4469B1A37
:1004D000B3FBFEF20EFB123340EA034302FB04F4CB
:1004E0009C4207D9FB1802F1FF3002D29C4200F275
:1004F000CA8002461B1B42EA0C40A5E7C1F1200658
:100500008B4022FA06F71F430EFA01F420FA06F395
:100510002EFA06FE4FEA1749234300FA01F81FFAA4
:1005200087FCBEFBF9F01C0C09FB10EE44EA0E44FC
:1005300000FB0CFEA64502FA01F209D93C1900F1B4
:10054000FF3A80F09C80A64540F2998002383C44F6
:10055000A4EB0E041FFA83FEB4FBF9F309FB13446A
:100560004EEA044403FB0CFCA44508D93C1903F1F2
:10057000FF3E80F08280A4457FD9023B3C4443EAA1
:100580000040A4EB0C04A0FB02EC64457346E1467A
:1005900062D35FD05DB1B8EB030264EB090404FAE7
:1005A00006F622FA01F31E43CC40C5E9006400219F
:1005B0004FE7B1FBF2FC010C41EA0E4180B240EA88
:1005C00001423B4638463C46B846BE462026B1FB73
:1005D000F7F1A2EB080241EA0C4166E7014618E791
:1005E00010462CE7C6F120022EFA02F3B740B140C4
:1005F00020FA02F24FEA174E0A43B3FBFEF8BCB2F0
:100600000EFB1833110C41EA034108FB04F9B0401A
:1006100089454FEA104380B23ED9791808F1FF3C72
:1006200001D289451FD8A1EB0901B1FBFEF909FBF5
:1006300004F80EFB191192B242EA0142424529D256
:10064000BA1809F1FF31C4D24245C2D2A9F1020160
:100650003A44BEE7F0459DD2BEEB02036CEB070CBB
:100660000138E14696E7A7EB09094944A8F1020CD5
:10067000B1FBFEF909FB04F8DBE773467FE7504660
:1006800066E70846FDE63B44023A33E7ACF1020C6C
:100690003B441CE749469CE7A1EB0901C446B1FB7A
:1006A000FEF909FB04F8C4E7704700BF80B485B0C9
:1006B00000AF78607B6803F00703FB600B4BDB68DF
:1006C000BB60BA684FF6FF031340BB60FB681A02B9
:1006D000BB681A43064B1343BB60044ABB68D36034
:1006E00000BF1437BD465DF8047B704700ED00E0A5
:1006F0000000FA0580B400AF044BDB681B0A03F06E
:1007000007031846BD465DF8047B704700ED00E026
:1007100080B483B000AF0346FB7197F90730002B1C
:100720000BDBFB7903F01F02074997F907305B09E0
:10073000012000FA02F241F8232000BF0C37BD4629
:100740005DF8047B704700BF00E100E080B483B037
:1007500000AF03463960FB7197F90730002B0ADBC5
:100760003B68DAB20C4997F907301201D2B20B4458
:1007700083F800230AE03B68DAB20849FB7903F00A
:100780000F03043B1201D2B20B441A7600BF0C37A0
:10079000BD465DF8047B704700E100E000ED00E03D
:1007A00080B489B000AFF860B9607A60FB6803F08C
:1007B0000703FB61FB69C3F10703042B28BF042374
:1007C000BB61FB690433062B02D9FB69033B00E0E4
:1007D00000237B614FF0FF32BB6902FA03F3DA4377
:1007E000BB681A407B699A404FF0FF317B6901FA80
:1007F00003F3D9437B680B40134318462437BD46A7
:100800005DF8047B704780B489B000AFF860B960D0
:100810007A60FB682C331946BB6803F440734FF4CD
:100820004072BA61BA6992FAA2F27A617A69B2FA4E
:1008300082F2D2B2D3409B000B44FB61FB691A6881
:10084000BB6803F01F031F2101FA03F3DB431A40C7
:100850007B6803F01F01BB6803F01F0301FA03F379
:100860001A43FB691A6000BF2437BD465DF8047B5C
:10087000704780B483B000AF786039607B689B6854
:1008800023F480623B681A437B689A6000BF0C3790
:10089000BD465DF8047B704780B48DB000AFF86052
:1008A000B9607A60FB680C331946BB6803F00073CB
:1008B0004FF00072BA61BA6992FAA2F27A617A696B
:1008C000B2FA82F2D2B2D3409B000B44FB62FB6AC5
:1008D0001A68BB6803F0F8734FF0F8713962396A2F
:1008E00091FAA1F1F961F969B1FA81F1C9B2CB408C
:1008F000072101FA03F3DB431A40BB6803F0F873E6
:100900004FF0F871B962B96A91FAA1F17962796A26
:10091000B1FA81F1C9B2CB40796801FA03F31A4305
:10092000FB6A1A6000BF3437BD465DF8047B704730
:1009300080B485B000AFF860B9607A600D4ABB68DA
:1009400013441B781A46FB6813441B6823F0C0024B
:100950000849BB680B441B781946FB680B441946D1
:100960007B6813430B6000BF1437BD465DF8047B02
:10097000704700BFA812010880B485B000AFF860CE
:10098000B9607A600D4ABB6813441B781A46FB684D
:1009900013441B6823F490720849BB680B441B780E
:1009A0001946FB680B4419467B6813430B6000BF74
:1009B0001437BD465DF8047B704700BFA8120108DC
:1009C00080B485B000AFF860B9607A600D4ABB684A
:1009D00013441B781A46FB6813441B6823F4007207
:1009E0000849BB680B441B781946FB680B44194641
:1009F0007B6813430B6000BF1437BD465DF8047B72
:100A0000704700BFA812010880B485B000AFF8603D
:100A1000B9607A600D4ABB6813441B781A46FB68BC
:100A200013441B6823F480620849BB680B441B789D
:100A30001946FB680B4419467B6813430B6000BFE3
:100A40001437BD465DF8047B704700BFA81201084B
:100A500080B485B000AFF860B9607A600D4ABB68B9
:100A600013441B781A46FB6813441B6823F4C052D6
:100A70000849BB680B441B781946FB680B441946B0
:100A80007B6813430B6000BF1437BD465DF8047BE1
:100A9000704700BFA812010880B485B000AFF860AD
:100AA000B9607A600D4ABB6813441B781A46FB682C
:100AB00013441B6823F4C0420849BB680B441B78ED
:100AC0001946FB680B4419467B6813430B6000BF53
:100AD0001437BD465DF8047B704700BFA8120108BB
:100AE00080B485B000AFF860B9607A600D4ABB6829
:100AF00013441B781A46FB6813441B6823F44032E6
:100B00000849BB680B441B781946FB680B4419461F
:100B10007B6813430B6000BF1437BD465DF8047B50
:100B2000704700BFA812010880B485B000AFF8601C
:100B3000B9607A600D4ABB6813441B781A46FB689B
:100B400013441B6823F0F0520849BB680B441B7820
:100B50001946FB680B4419467B6813430B6000BFC2
:100B60001437BD465DF8047B704700BFA81201082A
:100B700080B483B000AF786039600C4A3B6813449E
:100B80001B781A467B6813445B6908493A680A4433
:100B9000127811467A680A4423F00403536100BFB7
:100BA0000C37BD465DF8047B704700BFA8120108F2
:100BB00080B483B000AF78607B681B6843F00102AB
:100BC0007B681A6000BF0C37BD465DF8047B704738
:100BD00080B483B000AF78607B681B6823F4003278
:100BE0007B681A6000BF0C37BD465DF8047B704718
:100BF00080B483B000AF78607B681B6823F4002268
:100C00007B681A6000BF0C37BD465DF8047B7047F7
:100C100080B485B000AFF860B9607A60FB68DA68CC
:100C2000064B1340B9687A680A431A43FB68DA60D6
:100C300000BF1437BD465DF8047B704701F8FFFF25
:100C400080B483B000AF78607B68DB6823F4004237
:100C50007B68DA6000BF0C37BD465DF8047B7047E7
:100C600080B483B000AF78607B685B6843F000724B
:100C70007B685A6000BF0C37BD465DF8047B704747
:100C800080B400AF054B1B68044A43F48033136003
:100C900000BFBD465DF8047B704700BF00380240CE
:100CA00080B400AF074B1B6803F40033B3F5003F7B
:100CB0000CBF01230023DBB21846BD465DF8047B60
:100CC000704700BF0038024080B483B000AF786046
:100CD000064B9B6823F0030204497B6813438B6037
:100CE00000BF0C37BD465DF8047B704700380240FA
:100CF00080B400AF044B9B6803F00C031846BD465C
:100D00005DF8047B704700BF0038024080B483B0B8
:100D100000AF7860064B9B6823F0F00204497B68C3
:100D200013438B6000BF0C37BD465DF8047B7047F2
:100D30000038024080B483B000AF7860064B9B68F7
:100D400023F4E05204497B6813438B6000BF0C37E7
:100D5000BD465DF8047B70470038024080B483B024
:100D600000AF7860064B9B6823F4604204497B68BF
:100D700013438B6000BF0C37BD465DF8047B7047A2
:100D80000038024080B483B000AF7860094BD3F8DC
:100D900090207B681B0CDB431A407B689BB20549A3
:100DA0001343C1F8903000BF0C37BD465DF8047B9B
:100DB000704700BF0038024080B483B000AF786055
:100DC000094BD3F890207B681B0CDB431A407B68EF
:100DD0009BB205491343C1F8903000BF0C37BD46A4
:100DE0005DF8047B704700BF0038024080B483B0D8
:100DF00000AF7860094BD3F890207968084B0B401E
:100E0000DB431A407B681B0404491343C1F890304C
:100E100000BF0C37BD465DF8047B704700380240C8
:100E20000000FFFF80B483B000AF7860074BD3F8B9
:100E30008C3023F0807205497B681343C1F88C30F5
:100E400000BF0C37BD465DF8047B70470038024098
:100E500080B400AF054B1B68044A43F080731360F5
:100E600000BFBD465DF8047B704700BF00380240FC
:100E700080B400AF074B1B6803F00073B3F1007F31
:100E80000CBF01230023DBB21846BD465DF8047B8E
:100E9000704700BF0038024080B485B000AFF860F2
:100EA000B9607A603B600A4B5A680A4B1340F96894
:100EB000BA6811437A68920111433A680A430449B7
:100EC00013434B6000BF1437BD465DF8047B704789
:100ED000003802400080BCFF80B485B000AF78606D
:100EE000084B1A6B07497B6813430B63054B1A6B5E
:100EF0007B681340FB60FB6800BF1437BD465DF89C
:100F0000047B70470038024080B485B000AF786041
:100F1000084B1A6C07497B6813430B64054B1A6C2A
:100F20007B681340FB60FB6800BF1437BD465DF86B
:100F3000047B70470038024080B485B000AF786011
:100F4000084B5A6C07497B6813434B64054B5A6C3A
:100F50007B681340FB60FB6800BF1437BD465DF83B
:100F6000047B70470038024080B483B000AF7860E3
:100F7000064B1B6823F00F0204497B6813430B6088
:100F800000BF0C37BD465DF8047B7047003C024053
:100F900080B400AF044B1B6803F00F031846BD4636
:100FA0005DF8047B704700BF003C024080B400AF96
:100FB000054B1B68044A43F48033136000BFBD46F1
:100FC0005DF8047B704700BF0070004080B483B0C0
:100FD00000AF7860064B1B6823F4404204497B68ED
:100FE00013430B6000BF0C37BD465DF8047B7047B0
:100FF0000070004080B400AF074B5B6803F480438F
:10100000B3F5804F0CBF01230023DBB21846BD4669
:101010005DF8047B704700BF0070004080B483B06F
:1010200000AF78607B681B6843F040027B681A6001
:1010300000BF0C37BD465DF8047B704780B483B0B9
:1010400000AF786039607B685B6823F010023B6812
:101050001A437B685A6000BF0C37BD465DF8047BBD
:10106000704780B483B000AF78607B685B6843F002
:1010700008027B685A6000BF0C37BD465DF8047BF0
:10108000704780B483B000AF78607B685B6823F002
:1010900008027B685A6000BF0C37BD465DF8047BD0
:1010A000704780B483B000AF78607B681B6823F022
:1010B00080027B681A6000BF0C37BD465DF8047B78
:1010C0007047000080B485B000AF786039603B683D
:1010D000012B28D03B68042B23D03B68102B1ED05B
:1010E0003B68402B19D03B68B3F5807F13D03B6839
:1010F000B3F5806F0DD03B68B3F5805F07D03B68D8
:10110000B3F5803F01D107230EE008230CE006234E
:101110000AE0052308E0042306E0032304E0022399
:1011200002E0012300E00023FB737B6818331946BB
:10113000FB7B0B4AD35C0B44BB60BB681A68FB7B30
:101140000849CB5C194604238B40DB431A40BB683B
:101150001A6000BF1437BD465DF8047B704700BFBE
:10116000B0120108BC12010880B485B000AF7860ED
:1011700039603B68012B28D03B68042B23D03B68A7
:10118000102B1ED03B68402B19D03B68B3F5807FF5
:1011900013D03B68B3F5806F0DD03B68B3F5805F2B
:1011A00007D03B68B3F5803F01D107230EE0082349
:1011B0000CE006230AE0052308E0042306E00323ED
:1011C00004E0022302E0012300E00023FB737B68BC
:1011D00018331946FB7B0A4AD35C0B44BB60BB68DF
:1011E0001A68FB7B0749CB5C194608238B401A43DE
:1011F000BB681A6000BF1437BD465DF8047B7047BA
:10120000B0120108BC12010880B483B000AF78604E
:1012100039607B689A68064B13403A681A437B68CA
:101220009A6000BF0C37BD465DF8047B704700BF75
:10123000F8BFFEFF80B483B000AF786039607B6890
:101240005B6823F070023B681A437B685A6000BFFA
:101250000C37BD465DF8047B704780B483B000AFA7
:10126000786039607B685B6823F470023B681A43DE
:101270007B685A6000BF0C37BD465DF8047B704741
:1012800080B483B000AF78607B689B6823F08002F5
:101290007B689A6000BF0C37BD465DF8047B7047E1
:1012A00080B483B000AF78607B681B6843F00102B4
:1012B0007B681A6000BF0C37BD465DF8047B704741
:1012C00080B483B000AF786039607B681B6823F41A
:1012D000F8123B681B041A437B681A6000BF0C3786
:1012E000BD465DF8047B704780B483B000AF786082
:1012F00039607B681B6823F078723B685B051A4392
:101300007B681A6000BF0C37BD465DF8047B7047F0
:1013100080B483B000AF78607B689B6843F4804200
:101320007B689A6000BF0C37BD465DF8047B704750
:1013300080B483B000AF786039607B689B6823F429
:1013400000423B681A437B689A6000BF0C37BD4679
:101350005DF8047B704780B483B000AF78607B6831
:101360005B6823F490427B685A607B689B6823F03B
:101370002A027B689A6000BF0C37BD465DF8047B8B
:10138000704780B483B000AF786039607B683A689A
:101390009A6100BF0C37BD465DF8047B704780B48E
:1013A00083B000AF786039603B681A047B689A614B
:1013B00000BF0C37BD465DF8047B704780B500AFB9
:1013C0004FF08050FFF7A0FD4FF48040FFF7B4FDD1
:1013D0000320FFF76BF9FFF78DF9034600220F2179
:1013E0001846FFF7DDF9034619464FF0FF30FFF7C7
:1013F000ADF900F02DF801F00FFA01F0B1F900F0AD
:10140000DDFA00F04FFB00F0C1FB00F04BFC00F0F8
:10141000FBFC00F06DF800F075FD00F055FF01F0E9
:101420002DF800F0EDFD01F09FF801F025F900F036
:10143000B3F900F061FA00F0BFFE00F003FF01F025
:10144000AFFE01F0B9FE01F0C7FE00BFFDE70000EE
:1014500080B500AF0620FFF787FD00BFFFF798FDBE
:101460000346062BFAD14FF44040FFF7AFFDFFF7DC
:101470009DFDFFF705FC00BFFFF712FC0346012BA3
:10148000FAD10023C0220C214FF48000FFF704FDA5
:10149000FFF7DEFC00BFFFF7EBFC0346012BFAD1A0
:1014A00000BFFFF7A7FD0346002BFAD00020FFF78F
:1014B0002DFC4FF4A050FFF73DFC4FF40040FFF728
:1014C0004DFC0220FFF700FC00BFFFF711FC0346B4
:1014D000082BFAD105480BF0A1FD04480BF0D2FD12
:1014E0000020FFF79FFC00BF80BD00BF00C2EB0BD8
:1014F00080B592B000AF07F13C0300221A605A6039
:101500009A6007F1280300221A605A609A60DA6034
:101510001A6107F1180300221A605A609A60DA60B3
:101520003B4600221A605A609A60DA601A615A617A
:101530004FF48070FFF700FD0420FFF7CDFC022080
:10154000FFF7CAFC01233B6003237B6000233B6160
:101550003B46194684480AF00AFB02233B600323FA
:101560007B6000233B613B4619467F480AF0FFFA47
:1015700004233B6003237B6000233B613B46194609
:1015800079480AF0F4FA08233B6003237B600023C8
:101590003B613B46194674480AF0E9FA10233B6068
:1015A00003237B6000233B613B4619466E480AF0EB
:1015B000DEFA20233B6003237B6000233B613B4634
:1015C000194669480AF0D3FA01233B6003237B6084
:1015D00000233B613B46194664480AF0C8FA0223DF
:1015E0003B6003237B6000233B613B4619465F4819
:1015F0000AF0BDFA002200215D48FFF795FA0022AB
:1016000000215B48FFF794F9002200215848FFF7BA
:1016100067FA4FF4807200215548FFF7ADF90022B8
:1016200000215348FFF7CCF94FF480620021504865
:10163000FFF7EAF94FF4006200214D48FFF708FA7E
:101640004FF4005200214A48FFF726FA002148488B
:10165000FFF78EFA0023FB6300233B644FF4807393
:101660007B6407F13C03194642480AF007F900235E
:10167000BB624FF4E003FB6200233B6300237B6308
:101680004FF44073BB6307F12803194639480AF049
:1016900021F900213748FFF7ECF84FF48033BB61A4
:1016A0000023FB6107F11803194633480AF09EF83E
:1016B0000A224FF400712F48FFF7A5F801220A21F2
:1016C0002C48FFF7E9F82D4A40F205212948FFF799
:1016D0009AF8012229492748FFF7DEF8284A40F204
:1016E0000A212448FFF78FF8012225492148FFF7F6
:1016F000D3F8244A40F20F211E48FFF784F8012254
:1017000020491C48FFF7C8F81F4A4FF405711948D3
:10171000FFF779F801221C491648FFF7BDF81B4A6C
:1017200040F219211348FFF76EF8012217491148BA
:10173000FFF7B2F8164A4FF480710E48FFF763F8CE
:10174000012213490B48FFF7A7F8124A40F205118E
:101750000848FFF758F801220E490648FFF79CF8A1
:1017600000BF4837BD4680BD00080240000402406B
:101770000064024000200140002301400B003000C3
:101780000C0060000D0090000E00C0000F00F00083
:10179000080080030900B00380B58EB000AF07F1E8
:1017A0002C0300221A605A609A6007F11803002285
:1017B0001A605A609A60DA601A613B4600221A6029
:1017C0005A609A60DA601A615A614FF40070FFF74C
:1017D000B3FB0120FFF780FB04233B6003237B6006
:1017E00000233B613B4619463E480AF0C0F90823F6
:1017F0003B6003237B6000233B613B46194639482D
:101800000AF0B5F94FF0007202213748FFF78CF962
:10181000002202213448FFF78BF8002202213248CF
:10182000FFF75EF94FF4807202212F48FFF7A4F80A
:10183000002202212C48FFF7C3F84FF480620221F6
:101840002948FFF7E1F84FF4006202212648FFF72C
:10185000FFF84FF4005202212348FFF71DF902213F
:101860002148FFF785F90023FB6200233B634FF417
:1018700080737B6307F12C0319461C4809F0FEFFB7
:101880000023BB614FF48013FB6100233B62002304
:101890007B624FF44073BB6207F11803194613488B
:1018A0000AF018F84FF480611048FEF7E2FF104A82
:1018B0004FF400710D48FEF7A6FF01220C490B48BA
:1018C000FEF7EAFF0B4A40F205210848FEF79BFFAE
:1018D000012208490548FEF7DFFF00BF3837BD4643
:1018E00080BD00BF000002400064024000210140B2
:1018F000030090020200600280B58EB000AF07F1D5
:101900002C0300221A605A609A6007F11803002223
:101910001A605A609A60DA601A613B4600221A60C7
:101920005A609A60DA601A615A614FF48060FFF77A
:1019300003FB0120FFF7D0FA02233B6003237B6007
:1019400000233B613B46194619480AF010F9002371
:10195000FB6200233B6300237B6307F12C031946E2
:10196000144809F08BFF0023BB610023FB610023B7
:101970003B6200237B620023BB6207F11803194618
:101980000C4809F0A7FF4FF480610A48FEF771FF89
:10199000094A4FF400710748FEF735FF0022064957
:1019A0000448FEF779FF00BF3837BD4680BD00BF51
:1019B00000000240002201400100300280B58EB0DC
:1019C00000AF07F11C0300221A605A609A60DA60C7
:1019D0001A615A619A613B1D00221A605A609A602E
:1019E000DA601A615A614FF44030FFF7FFF90220C4
:1019F000FFF772FA40237B600223BB600323FB6086
:101A000001233B6100237B610423BB613B1D19461D
:101A100021480AF0ACF880237B600223BB600323DB
:101A2000FB6001233B6100237B610423BB613B1D01
:101A3000194619480AF09BF84FF40010FFF764FAB2
:101A40001648FFF70DF9002200211448FFF7E0F8CF
:101A50001248FFF7F5F81148FFF7CAF80F48FFF7EB
:101A6000B7F80023FB610E4B3B6200237B6200232F
:101A7000BB620023FB6200233B6300237B6307F10F
:101A80001C03194605480AF089F90448FFF790F845
:101A900000BF3837BD4680BD0004024000540040FE
:101AA000FF63106080B58EB000AF07F11C03002209
:101AB0001A605A609A60DA601A615A619A613B1D35
:101AC00000221A605A609A60DA601A615A614FF413
:101AD0004020FFF78BF90220FFF7FEF94FF48063F7
:101AE0007B600223BB600323FB6001233B61002377
:101AF0007B610423BB613B1D194621480AF037F87E
:101B00004FF400637B600223BB600323FB6001236F
:101B10003B6100237B610423BB613B1D19461848D0
:101B20000AF025F84FF48000FFF7EEF91548FFF7AB
:101B300097F8002200211348FFF76AF81148FFF7D1
:101B40007FF81048FFF754F80E48FFF741F80023DC
:101B5000FB610D4B3B6200237B620023BB620023D1
:101B6000FB6200233B6300237B6307F11C031946E0
:101B700004480AF013F900BF3837BD4680BD00BFE6
:101B80000004024000580040FFEAC00080B590B059
:101B900000AF07F118032822002118460CF0E0F9E5
:101BA0003B4600221A605A609A60DA601A615A61F4
:101BB0004FF48050FFF7C0F90120FFF78DF9102393
:101BC0003B6002237B600323BB600023FB60002398
:101BD0003B6105237B613B461946304809F0C7FF4E
:101BE00020233B6002237B600323BB600023FB6058
:101BF00000233B6105237B613B461946274809F0DA
:101C0000B6FF40233B6002237B600323BB600023BD
:101C1000FB6000233B6105237B613B4619461F485F
:101C200009F0A5FF80233B6002237B600323BB6098
:101C30000023FB6000233B6105237B613B46194683
:101C4000164809F094FF0023BB614FF48273FB61D7
:101C50004FF4E0633B6200237B620023BB620023FE
:101C6000FB6200233B6300237B630023BB630723EA
:101C7000FB6307F11803194609480AF067FC0021C5
:101C80000748FFF7DBF90648FFF7EBF90448FFF7D1
:101C9000C5F900BF4037BD4680BD00BF000002400F
:101CA0000030014080B590B000AF07F11803282242
:101CB000002118460CF054F93B4600221A605A6085
:101CC0009A60DA601A615A614FF48040FFF71CF99C
:101CD0000220FFF701F94FF400533B6002237B60C1
:101CE0000323BB600023FB6000233B6105237B6172
:101CF0003B461946414809F03AFF4FF480433B60A8
:101D000002237B600323BB600023FB6000233B6155
:101D100005237B613B461946384809F028FF4FF4FC
:101D200000433B6002237B600323BB600023FB6016
:101D300000233B6105237B613B4619462F4809F090
:101D400016FF4FF0905201212D48FEF7EDFE0022C4
:101D500001212B48FEF7ECFD4FF4403201212848C9
:101D6000FEF7BEFE4FF4807201212548FEF704FE07
:101D7000002201212248FEF723FE4FF48062012158
:101D80001F48FEF741FE4FF4006201211C48FEF798
:101D90005FFE4FF4005201211948FEF77DFE01213C
:101DA0001748FEF7E5FE0023BB614FF48273FB6129
:101DB0004FF470633B6200237B620023BB624FF4ED
:101DC0000073FB6200233B6300237B630023BB6340
:101DD0000723FB6307F1180319460A480AF0B6FB0C
:101DE00000210848FFF72AF90648FFF73AF90548A5
:101DF000FFF714F900BF4037BD4680BD0004024024
:101E0000006002400038004080B590B000AF07F19C
:101E100018032822002118460CF0A2F83B460022A5
:101E20001A605A609A60DA601A615A614FF4004091
:101E3000FFF76AF80420FFF74FF84FF480633B6028
:101E400002237B600323BB600023FB6000233B6114
:101E500006237B613B461946284809F088FE4FF46B
:101E600000633B6002237B600323BB600023FB60B5
:101E700000233B6106237B613B4619461F4809F05E
:101E800076FE4FF480533B6002237B600323BB60EC
:101E90000023FB6000233B6106237B613B46194620
:101EA000164809F064FE0023BB614FF48273FB61A6
:101EB0004FF4E0633B6200237B620023BB624FF47C
:101EC0000073FB6200233B6300237B630023BB633F
:101ED0000723FB6307F11803194609480AF036FB8C
:101EE00000210748FFF7AAF80548FFF7BAF80448A9
:101EF000FFF794F800BF4037BD4680BD00080240A0
:101F0000003C004080B590B000AF07F118032822D4
:101F1000002118460CF024F83B4600221A605A6053
:101F20009A60DA601A615A614FF40050FFF704F8C2
:101F30001020FEF7D1FF4FF480533B6002237B60FB
:101F40000323BB600023FB6000233B6105237B610F
:101F50003B461946284809F00AFE4FF400533B60FF
:101F600002237B600323BB600023FB6000233B61F3
:101F700005237B613B4619461F4809F0F8FD4FF4E5
:101F800080433B6002237B600323BB600023FB6034
:101F900000233B6105237B613B461946164809F047
:101FA000E6FD0023BB614FF48273FB614FF4E063F5
:101FB0003B6200237B620123BB624FF40073FB6230
:101FC00020233B6300237B630023BB630723FB6366
:101FD00007F11803194609480AF0B8FA0021074822
:101FE000FFF72CF80548FFF74CF80448FFF716F800
:101FF00000BF4037BD4680BD0010024000340140A4
:1020000080B590B000AF07F11803282200211846D0
:102010000BF0A6FF3B4600221A605A609A60DA6015
:102020001A615A614FF40010FEF786FF0220FEF796
:1020300053FF08233B6002237B600323BB60002324
:10204000FB6000233B6108237B613B4619465748F0
:1020500009F08DFD10233B6002237B600323BB60EE
:102060000023FB6000233B6108237B613B4619464C
:102070004E4809F07CFD20233B6002237B60032354
:10208000BB600023FB6000233B6108237B613B4670
:102090001946464809F06BFD4FF00072052144488F
:1020A000FEF742FD402205214148FEF741FC4FF476
:1020B000403205213E48FEF713FD002205213C4831
:1020C000FEF75AFC002205213948FEF779FC4FF44F
:1020D000806205213648FEF797FC0022052134482E
:1020E000FEF7B6FC002205213148FEF7D5FC05219C
:1020F0002F48FEF73DFD4FF0007206212C48FEF7F9
:1021000013FD002206212A48FEF712FC4FF440324C
:1021100006212748FEF7E4FC002206212448FEF7AA
:102120002BFC002206212248FEF74AFC4FF4806275
:1021300006211F48FEF768FC002206211C48FEF716
:1021400087FC002206211A48FEF7A6FC0621184843
:10215000FEF70EFD0023BB614FF48273FB614FF469
:10216000E0633B6200237B620023BB624FF4007399
:10217000FB6200233B6300237B630023BB630723D5
:10218000FB6307F1180319460A480AF0DFF900213A
:102190000848FEF753FF0748FEF763FF0548FEF7C0
:1021A0003DFF00BF4037BD4680BD00BF0004024078
:1021B000006402400054014080B586B000AF3B1D72
:1021C00000221A605A609A60DA601A610120FEF7F4
:1021D000B3FEFEF78FFA0346002200211846FEF7F1
:1021E000DFFA034619461920FEF7B0FA1920FEF768
:1021F0008FFA0023BB800023BB604FF6FF73FB60A8
:1022000000233B6100237B613B1D19460C480AF00B
:1022100091FA0B48FEF745FF00210948FEF7F4FF4D
:1022200000210748FFF706F800210548FFF715F8D9
:102230000348FFF725F800BF1837BD4680BD00BF33
:102240000000014080B586B000AF3B1D00221A603F
:102250005A609A60DA601A610120FEF755FEFEF7B7
:1022600049FA0346002202211846FEF799FA03466E
:1022700019461C20FEF76AFA1C20FEF749FA0023D3
:10228000BB800023BB604FF0FF33FB6000233B614A
:102290003B1D19464FF080400AF04CFA4FF0804049
:1022A000FEF7FFFE00214FF08040FEF7ADFF00215A
:1022B0004FF08040FEF7BEFF4FF08040FEF7E0FF9A
:1022C00000BF1837BD4680BD80B594B000AF07F1A0
:1022D0003C0300221A605A609A60DA601A6107F1C2
:1022E0001C032022002118460BF03AFE3B1D002261
:1022F0001A605A609A60DA601A615A610420FEF727
:1023000003FE0A23BB8700233B644CF250337B64FB
:102310004FF40073BB6407F13C03194655480AF0BB
:1023200009FA5448FEF7BDFE00215248FEF76CFF43
:1023300001215048FEF718FF6023FB6100233B6238
:1023400000237B620023BB620023FB6207F11C03B6
:102350001A46012147480AF087FA01214548FEF74D
:10236000B1FE10214348FEF7FFFE07F11C031A4699
:10237000102140480AF078FA10213E48FEF7A2FEEC
:102380004FF480713B48FEF7EFFE07F11C031A463D
:102390004FF4807137480AF067FA4FF4807135487E
:1023A000FEF790FE4FF480513248FEF7DDFE07F154
:1023B0001C031A464FF480512E480AF055FA4FF488
:1023C00080512C48FEF77EFE00212A48FEF732FF9E
:1023D0002848FEF755FF0820FEF77EFD4FF4805396
:1023E0007B600223BB600023FB6000233B61002372
:1023F0007B610223BB613B1D19461F4809F0B7FBF7
:102400004FF400537B600223BB600023FB6000237A
:102410003B6100237B610223BB613B1D19461648CB
:1024200009F0A5FB4FF480437B600223BB600023CF
:10243000FB6000233B6100237B610223BB613B1DEA
:1024400019460D4809F093FB4FF400437B600223CB
:10245000BB600023FB6000233B6100237B61022300
:10246000BB613B1D1946044809F081FB00BF503792
:10247000BD4680BD00080040000C024080B58EB013
:1024800000AF07F11C0300221A605A609A60DA60FC
:102490001A615A619A613B1D00221A605A609A6063
:1024A000DA601A615A614FF04050FEF785FC4FF038
:1024B0008040FEF729FD1020FEF70EFD80237B6093
:1024C0000223BB600323FB6000233B6100237B618D
:1024D0000823BB613B1D1946214809F048FB4FF416
:1024E00080737B600223BB600323FB6000233B619E
:1024F00000237B610823BB613B1D1946184809F086
:1025000036FBFEF7F7F8034600220B211846FEF7CC
:1025100047F9034619465220FEF718F95220FEF7F4
:10252000F7F84FF4E133FB6100233B6200237B6249
:102530000023BB620C23FB6200233B6300237B630D
:1025400007F11C03194607480AF0AEFC0548FEF7E0
:1025500002FF0448FEF7A4FE00BF3837BD4680BD29
:10256000001002400078004080B58EB000AF07F147
:102570001C0300221A605A609A60DA601A615A617C
:102580009A613B1D00221A605A609A60DA601A61F3
:102590005A614FF44030FEF7F5FB1020FEF7CCFCFB
:1025A0000120FEF799FC4FF400737B600223BB60AF
:1025B0000323FB6000233B6100237B610723BB6196
:1025C0003B1D19462A4809F0D2FA4FF480637B601C
:1025D0000223BB600323FB6000233B6100237B617C
:1025E0000723BB613B1D1946214809F0C0FA4FF48F
:1025F00080537B600223BB600323FB6000233B61AD
:1026000000237B610723BB613B1D1946184809F075
:10261000AEFA4FF4E133FB6100233B6200237B629F
:102620000023BB620C23FB6200233B6300237B631C
:1026300007F11C0319460F480AF036FC0D48FEF757
:1026400067FE00210B48FEF773FE00210948FEF7E4
:102650004BFE00210748FEF733FE0648FEF77BFEDF
:102660000448FEF71DFE00BF3837BD4680BD00BFE1
:10267000000002400010014080B58EB000AF07F1AD
:102680001C0300221A605A609A60DA601A615A616B
:102690009A613B1D00221A605A609A60DA601A61E2
:1026A0005A614FF04060FEF76DFB2020FEF744FCBE
:1026B0000420FEF711FC40237B600223BB60032350
:1026C000FB6000233B6100237B610823BB613B1D52
:1026D0001946214809F04BFA80237B600223BB6036
:1026E0000323FB6000233B6100237B610823BB6164
:1026F0003B1D1946184809F03AFAFDF7FBFF03465F
:1027000000220B211846FEF74BF8034619464720D6
:10271000FEF71CF84720FDF7FBFF4FF46123FB6138
:1027200000233B6200237B620023BB620C23FB621D
:1027300000233B6300237B6307F11C031946074812
:102740000AF0B2FB0548FEF706FE0448FEF7A8FDB6
:1027500000BF3837BD4680BD00080240001401406C
:1027600080B500AF4FF48000FEF7B6FB4FF40010C9
:10277000FEF7B2FBFDF7BEFF03460022002118461C
:10278000FEF70EF8034619460C20FDF7DFFF0C207C
:10279000FDF7BEFFFDF7AEFF034600220A211846F3
:1027A000FDF7FEFF034619463820FDF7CFFF38201E
:1027B000FDF7AEFFFDF79EFF034600220A211846F3
:1027C000FDF7EEFF034619463A20FDF7BFFF3A201A
:1027D000FDF79EFFFDF78EFF0346002209211846F4
:1027E000FDF7DEFF034619464420FDF7AFFF442006
:1027F000FDF78EFFFDF77EFF0346002201211846FC
:10280000FDF7CEFF034619464520FDF79FFF452003
:10281000FDF77EFF00BF80BD80B586B000AF3B46B0
:1028200000221A605A609A60DA601A615A611020B8
:10283000FEF752FB0420FEF74FFB8020FEF74CFB17
:102840000120FEF749FB0220FEF746FB0820FEF7B9
:1028500043FB0421BF48FEF7A2FD0821BD48FEF757
:102860009EFD1021BB48FEF79AFD2021B948FEF7D6
:1028700096FD4021B748FEF792FD4FF40051B6484F
:10288000FEF78DFD4FF48041B348FEF788FD4FF40D
:102890000041B148FEF783FD4FF40061AD48FEF7FB
:1028A0007EFD4FF40061AD48FEF779FD4FF4004125
:1028B000AA48FEF774FD0121A948FEF770FD022128
:1028C000A748FEF76CFD1021A548FEF768FD202102
:1028D000A348FEF764FD4021A148FEF760FD0421F6
:1028E000A048FEF74EFD4FF480619A48FEF749FD7F
:1028F0004FF400419748FEF744FD4FF4805199484A
:10290000FEF73FFD4FF480719548FEF73AFD4FF416
:1029100000719348FEF735FD4FF480619048FEF753
:1029200030FD04218E48FEF72CFD80218C48FEF7F7
:1029300028FD4FF480718B48FEF723FD4FF40071A2
:102940008848FEF71EFD01218248FEF71AFD02218C
:102950008048FEF716FD04233B6001237B600023C3
:10296000BB600023FB6000233B613B46194679486E
:1029700009F0FDF808233B6001237B600023BB6066
:102980000023FB6000233B613B461946714809F078
:10299000EEF810233B6001237B600023BB60002323
:1029A000FB6000233B613B4619466A4809F0DFF8AB
:1029B00020233B6001237B600023BB600023FB607E
:1029C00000233B613B461946624809F0D0F840239A
:1029D0003B6001237B600023BB600023FB6000237E
:1029E0003B613B4619465B4809F0C1F84FF4005380
:1029F0003B6001237B600023BB600023FB6000235E
:102A00003B613B461946544809F0B1F84FF4804306
:102A10003B6001237B600023BB600023FB6000233D
:102A20003B613B4619464C4809F0A1F84FF400437E
:102A30003B6001237B600023BB600023FB6000231D
:102A40003B613B461946444809F091F804233B603A
:102A500001237B600023BB600023FB6000233B61FC
:102A60003B4619463F4809F082F84FF480633B60CB
:102A700001237B600023BB600023FB6000233B61DC
:102A80003B461946334809F072F84FF400633B6047
:102A900001237B600023BB600023FB6000233B61BC
:102AA0003B4619462B4809F062F84FF400433B605F
:102AB00001237B600023BB600023FB6000233B619C
:102AC0003B461946234809F052F84FF480533B60C7
:102AD00001237B600023BB600023FB6000233B617C
:102AE0003B4619461F4809F042F84FF480733B609B
:102AF00001237B600323BB600023FB6000233B6159
:102B00003B461946164809F032F84FF400733B6013
:102B100001237B600323BB600023FB6000233B6138
:102B20003B4619460E4809F022F84FF480633B609B
:102B300001237B600323BB600023FB6000233B6118
:102B40003B461946064809F012F84FF400633B6013
:102B50000AE000BF001002400008024000000240EE
:102B6000000C02400004024000237B6000233B6114
:102B70003B4619467E4808F0FAFF4FF480733B60ED
:102B800000237B6000233B613B461946794808F0EF
:102B9000EEFF4FF400733B6000237B6000233B613A
:102BA0003B461946734808F0E2FF4FF480733B60E0
:102BB00000237B6000233B613B4619466E4808F0CA
:102BC000D6FF4FF400633B6001237B600023BB60B2
:102BD0000023FB6000233B613B461946664808F032
:102BE000C6FF4FF400433B6001237B600023BB60C2
:102BF0000023FB6000233B613B4619465E4808F01A
:102C0000B6FF01233B6001237B600023BB600023F0
:102C1000FB6000233B613B461946554808F0A7FF7F
:102C200002233B6001237B600023BB600023FB6029
:102C300000233B613B4619464D4808F098FF0423AA
:102C40003B6001237B600023BB600023FB6000230B
:102C50003B613B461946464808F089FF08233B6024
:102C600000237B6000233B613B461946404808F047
:102C70007EFF10233B6001237B600023BB600023A9
:102C8000FB6000233B613B461946394808F06FFF63
:102C900020233B6001237B600023BB600023FB609B
:102CA00000233B613B461946314808F060FF402352
:102CB0003B6001237B600023BB600023FB6000239B
:102CC0003B613B4619462A4808F051FF80233B6090
:102CD00001237B600023BB600023FB6000233B617A
:102CE0003B461946224808F042FF4FF480733B6090
:102CF00001237B600023BB600023FB6000233B615A
:102D00003B4619461D4808F032FF4FF400733B6004
:102D100001237B600023BB600023FB6000233B6139
:102D20003B461946154808F022FF01233B6001236A
:102D30007B600023BB600023FB6000233B613B46BC
:102D400019460F4808F013FF02233B6001237B6004
:102D50000023BB600023FB6000233B613B46194618
:102D6000074808F004FF00BF1837BD4680BD00BF0C
:102D7000000C024000080240000002400004024033
:102D80000010024080B400AF00BFFDE780B400AF88
:102D900000BFFDE780B400AF00BFFDE780B400AF27
:102DA00000BFFDE780B400AF00BFFDE780B400AF17
:102DB00000BFBD465DF8047B704780B400AF00BF24
:102DC000BD465DF8047B704780B400AF00BFBD46D0
:102DD0005DF8047B704780B500AF08F093FC00BF3E
:102DE00080BD80B400AF01231846BD465DF8047B6A
:102DF000704780B582B000AF786039600BF010F991
:102E0000034616221A604FF0FF3318460837BD46B6
:102E100080BD80B582B000AF78604FF0FF31786838
:102E2000FFF7E7FF00BFFDE780B586B000AFF860B1
:102E3000B9607A6000237B610AE0AFF3008001464D
:102E4000BB685A1CBA60CAB21A707B6901337B61D5
:102E50007A697B689A42F0DB7B6818461837BD4672
:102E600080BD80B586B000AFF860B9607A6000239D
:102E70007B6109E0BB685A1CBA601B781846AFF347
:102E800000807B6901337B617A697B689A42F1DB60
:102E90007B6818461837BD4680BD80B483B000AF4C
:102EA00078604FF0FF3318460C37BD465DF8047B61
:102EB000704780B483B000AF786039603B684FF4EE
:102EC00000525A60002318460C37BD465DF8047B5B
:102ED000704780B483B000AF7860012318460C3788
:102EE000BD465DF8047B704780B485B000AFF860E4
:102EF000B9607A60002318461437BD465DF8047B3C
:102F00007047000080B586B000AF7860144A154B5A
:102F1000D31A7B617B693B61134B1B68002B02D189
:102F2000114B124A1A60104B1A687B6813443A69B5
:102F30009A4207D20BF074F803460C221A604FF045
:102F4000FF3309E0084B1B68FB60074B1A687B687E
:102F50001344054A1360FB6818461837BD4680BD08
:102F60000000082000040000BC430020280E0120BF
:102F700080B400AF064BD3F88830054A43F47003A1
:102F8000C2F8883000BFBD465DF8047B704700BFC3
:102F900000ED00E0DFF834D0FFF7EAFF0C480D4900
:102FA0000D4A002302E0D458C4500433C4188C42A4
:102FB000F9D30A4A0A4C002301E013600432A2420A
:102FC000FBD30BF033F8FEF7F9F970470000082047
:102FD00000000020A0430020601B0108A043002047
:102FE000280E0120FEE780B582B000AF786039601E
:102FF00003F00AFD03F036FC7B6814330A220A2131
:10300000184608F03BFB00BF0837BD4680BD0000F6
:1030100080B584B002AF786039607B68002B03D143
:1030200000210E4803F04EF878683B685A683B6808
:103030009B68009313460A4A0A4908F091FA7B6894
:1030400014337A681221184608F0F6FA3B681A68B9
:103050007B685A6200BF0837BD4680BDE012010898
:10306000CD300008E72F000880B586B002AF0223FC
:103070000093042308220949094807F0F5FF094A8B
:103080003B1D07CA83E807003B1D19460648FFF7AA
:10309000BFFF00BF1037BD4680BD00BF0044002009
:1030A00008440020F0FE0008C043002080B582B034
:1030B00000AF0346FB71FB791946034808F06AFA32
:1030C00000BF0837BD4680BDC043002090B585B025
:1030D00000AF786039603B681B88122B06D0122B3A
:1030E00035DC102B08D0112B1DD030E003F096FCFE
:1030F00003F0FCFB01232BE00023FB730EE0FB7BC2
:10310000FC7B184603F090FC034619467B6804F1EB
:10311000140223F81210FB7B0133FB73FB7B072B9C
:10312000EDD9012314E00023BB730DE0BB7B1846EF
:1031300003F084FB0346BA7B19B27B681C3223F888
:103140001210BB7B0133BB73BB7B012BEED9022377
:1031500018461437BD4690BD80B483B000AF786088
:10316000054A7B681C3332F9133018460C37BD46CC
:103170005DF8047B704700BFC043002080B483B07B
:1031800000AF7860054A7B68143332F91330184673
:103190000C37BD465DF8047B704700BFC04300207C
:1031A00080B500AF01F04EFE02F00EF9FFF75CFFB4
:1031B00000F08AF800BF80BD80B500AF012000F0AC
:1031C000A5F8042001F070FE022002F023F903208C
:1031D000FFF76CFF00BF80BD80B500AF08F072F94B
:1031E00000BF80BD80B582B000AF7860396003F069
:1031F00067FA04F033FA03F0EDFE7B68012283F8EE
:1032000051207B68002283F8562000BF0837BD4656
:1032100080BD000080B584B000AF786039607B6805
:103220005B69FB607B685B6939687868984703462F
:10323000FB72FB7A002B08D1FB6806497868984737
:103240007B685B6904497868984700BF1037BD46C2
:1032500080BD00BF10130108FC12010880B584B0C6
:1032600002AF786039607B68002B03D100211348DE
:1032700002F028FF78683B685A683B689B680093B7
:1032800013460F4A0F4908F06BF93B681A687B68D0
:103290005A617B6818337A681321184608F0CCF914
:1032A0007B681833184608F009FA3B681A7B7B687C
:1032B00083F84C2000BF0837BD4680BDEC120108E2
:1032C00015320008E531000890B587B002AF12232F
:1032D0000093022324220949094807F0C5FE094B3F
:1032E0003C460FCB84E80F003B4619460648FFF7E3
:1032F000B5FF00BF1437BD4690BD00BFA0640020DD
:10330000C4640020FCFE00082444002080B582B084
:1033100000AF0346FB71FB791946034808F03AF900
:1033200000BF0837BD4680BD2444002080B582B070
:1033300000AF786039603B681B88152B12D0152BC5
:1033400015DC012B02D0142B07D010E07B6818335A
:10335000184608F0B3F901230AE07B68064A5A616F
:10336000002305E07B68054A5A61002300E0022340
:1033700018460837BD4680BD81330008FD3400087B
:1033800080B588B000AF786039603B681B88013B2E
:10339000172B00F2AB8001A252F823F0FD33000896
:1033A000ED34000867340008ED340008ED340008FF
:1033B000ED340008ED340008ED340008ED34000869
:1033C000ED340008ED340008ED340008ED34000859
:1033D000ED340008ED340008ED340008ED34000849
:1033E000ED340008DB340008ED340008ED3400084B
:1033F0007534000895340008B53400087B6818332C
:10340000002242F21071184608F038F97B6893F8F0
:103410002A301946786800F0ACF9786800F0C2F9F3
:103420007B68DB6AFB607B681B6B3B617B685B6B6B
:103430007B617B681B8DBB617B6893F82A30FB61E5
:103440007B6893F82B30184603F0A4F907F10C03BE
:10345000184603F087FD03F071FF7B68002283F8B4
:103460004C20012343E07B681833184608F026F906
:1034700001233CE07B6893F84C30002B04D17B683F
:10348000012283F84C2003E07B68032283F84C2060
:1034900001232CE07B6893F84C30012B04D17B682E
:1034A000022283F84C2003E07B68032283F84C203F
:1034B00001231CE07B6893F84C30022B04D17B681D
:1034C000052283F84C2003E07B68032283F84C201C
:1034D0007B68094A5A61002309E07B68042283F86B
:1034E0004C207B68044A5A61002300E002231846FE
:1034F0002037BD4680BD00BF2D33000880B582B0A7
:1035000000AF786039603B681B881A2B34D01A2BC7
:1035100060DC012B02D0192B24D05BE07B681833D0
:10352000184608F0CBF87B685B6C2D4A53607B68CB
:103530001B6C2B4A13602A4B5B68B3F5FA6F28BFEC
:103540004FF4FA639AB2274B1A80254B1B685B0035
:10355000244A128852001146234A184604F0AAF859
:10356000012338E0214B1B681E4A12881E49184669
:1035700001F07AFE01232EE0194B5B68194A12888C
:103580009B1A174A5360164B1B68164A128813443D
:10359000134A1360124B5B68002B16D0104B5B680C
:1035A000B3F5FA6F28BF4FF4FA639AB20D4B1A8045
:1035B0000B4B1B685B000B4A1288520011460A4AEB
:1035C000184604F077F8012305E07B68084A5A6141
:1035D000002300E0022318460837BD4680BD00BF27
:1035E0007C440020886400208844002004000020DF
:1035F0002D33000880B584B000AFF860B9607A6000
:10360000FB68BA681A64FB687A685A64FB68044904
:10361000184607F0E9FF002318461037BD4680BD65
:103620003813010880B584B000AFF860B9607A60E3
:10363000BB68012B02D87B68642B01D9062318E0F4
:10364000FB6893F85130002B06D0002002F0F4FF05
:10365000FB68002283F851207968B86803F0DAF833
:103660007B68D9B2FA68BB6813444D330A461A70B6
:10367000002318461037BD4680BD80B582B000AF2C
:10368000786039603B68242B01D9062314E07B68FD
:1036900093F85130012B06D0012002F0CDFF7B685A
:1036A000012283F85120386803F040F83B68DAB211
:1036B0007B6883F84F20002318460837BD4680BD3D
:1036C00080B582B000AF78607B6893F85130012BF1
:1036D00006D0012002F0B0FF7B68012283F8512060
:1036E00003F034F87B68FF2283F84F20002318464C
:1036F0000837BD4680BD80B582B000AF78603960C4
:103700003B68082B01D9062314E07B6893F85130FD
:10371000012B06D0012002F08FFF7B68012283F885
:103720005120386803F01CF83B68DAB27B6883F8F4
:103730005020002318460837BD4680BD80B582B0B2
:1037400000AF78607B6893F85130012B06D00120E0
:1037500002F072FF7B68012283F8512003F010F819
:103760007B68FF2283F85020002318460837BD46A7
:1037700080BD80B582B000AF786039603B68242B93
:1037800001D906230AE003F0B5FC386803F0DAFC3F
:103790003B68DAB27B6883F852200023184608376A
:1037A000BD4680BD80B582B000AF786003F0B6FC46
:1037B000002318460837BD4680BDB0B483B000AFC3
:1037C000786039603B681B88002B04D03B681B88FD
:1037D000B3F57A7F01D9062328E03B689B78002B5C
:1037E00003D03B689B78242B01D906231EE03B685D
:1037F000DB78642B01D9062318E03B681B69B3F51D
:10380000006F01D9062311E03B685B69002B01D1F1
:1038100006230BE07B683A6803F1280415460FCDB8
:103820000FC495E8030084E80300002318460C3712
:10383000BD46B0BC7047B0B483B000AF78603960AB
:103840003A687B68154603F128040FCC0FC594E84D
:10385000030085E8030000BF0C37BD46B0BC7047CD
:1038600080B584B000AF78607B682833FB60FB686C
:103870001B88002B04D0FB681B88B3F57A7F01D925
:1038800006231CE0FB689B78002B03D0FB689B7829
:10389000242B01D9062312E0FB68DB78642B01D9C5
:1038A00006230CE0FB681B69B3F5006F01D9062302
:1038B00005E07B680449184607F096FE0023184689
:1038C0001037BD4680BD00BF2413010880B483B00B
:1038D00000AF78607B68DB6903F02003202B01D107
:1038E000012300E0002318460C37BD465DF8047B39
:1038F000704780B483B000AF78607B685B6ADBB2EE
:1039000018460C37BD465DF8047B704780B500AFA4
:1039100000F008F8024807F074FB00BF80BD00BF4C
:103920001466002080B500AF0A48FFF7CFFF0346BA
:10393000002B0DD00748FFF7DCFF03461A46064B65
:103940001A70064B01229A600449054807F04CFEA4
:1039500000BF80BD007800401465002008000020F2
:10396000E064002080B400AFBFF34F8F00BF064B70
:10397000DB6803F4E0620449044B1343CB60BFF3FC
:103980004F8F00BF00BFFDE700ED00E00400FA0527
:1039900080B588B000AFF860B9607A6007F11403B1
:1039A000074A0A2118460AF055F907F11403194687
:1039B000F86805F0ADFF00BF2037BD4680BD00BFF1
:1039C000C807010880B584B000AFF860B9607A60BC
:1039D000FFF7C8FF80B588B000AFF860B9607A60C3
:1039E0000023BB610023FB82B86806F081F8034620
:1039F0007B757B7D012B04D02E49F86807F0A8F970
:103A000054E00121B86806F03DF838613B691B7845
:103A1000612B22D10023FB771BE0FB7F1846FFF7C9
:103A2000ADFB0346FB82B7F9163013F5004F06D104
:103A3000FB7F1A462049F86807F08AF906E0FA7F0A
:103A4000B7F916301D49F86807F082F9FB7F01339A
:103A5000FB77FB7F072BE0D928E03B691B782F2BF6
:103A600020D93B691B78372B1CD8386909F01AFB21
:103A70000346BB61B869FFF781FB0346FB82B7F9D8
:103A8000163013F5004F05D1BA690B49F86807F0F5
:103A90005FF90BE0B7F91630BA690849F86807F022
:103AA00057F903E00649F86807F052F92037BD4698
:103AB00080BD00BFD0070108F00701080408010815
:103AC0001808010880B588B000AFF860B9607A6066
:103AD000B86806F00DF80346FB61FB69012B04D0C2
:103AE0001549F86807F034F923E0144B1B681846B1
:103AF00001F0FAFF034683F00103DBB2002B04D090
:103B00000F49F86807F024F913E00121B86805F0BF
:103B1000B9FFB861B86909F0C5FA03467B61074B84
:103B20001B687969184602F089FA0649F86807F0B7
:103B30000FF92037BD4680BDD007010814000020D2
:103B40002C0801087808010880B584B000AFF8603F
:103B5000B9607A600A4B1B68184602F088FA03467F
:103B6000002B04D00749F86807F0F2F803E0064993
:103B7000F86807F0EDF800BF1037BD4680BD00BF04
:103B800014000020780801088008010880B588B07A
:103B900000AFF860B9607A60B86805F0A9FF034625
:103BA000BB61BB69012B04D03849F86807F0D0F835
:103BB00069E0374B1B68184601F096FF034683F017
:103BC0000103DBB2002B04D03249F86807F0C0F8DB
:103BD00059E00121B86805F055FF786100233B6189
:103BE0007B691B78612B25D10023FB611EE0284BEC
:103BF0001B68F969184601F032FF38613B69002BF8
:103C00000CD1234B1B680022F969184601F047FFCD
:103C1000FA692149F86807F09BF804E0FA691F493E
:103C2000F86807F095F8FB690133FB61FB69032B2A
:103C3000DDD928E07B691B782F2B24D97B691B7881
:103C4000332B20D8786909F02DFA0346FB61104B1D
:103C50001B68F969184601F002FF38613B69002BC7
:103C60000CD10B4B1B680022F969184601F017FFB5
:103C7000FA690949F86807F06BF804E0FA6907493E
:103C8000F86807F065F82037BD4680BDD007010809
:103C90001400002088080108D0080108E408010881
:103CA00080B588B000AFF860B9607A60B86805F098
:103CB0001FFF0346FB61FB69012B04D01549F8681F
:103CC00007F046F822E00121B86805F0DBFEB86194
:103CD000B86909F0E7F90346FB82FB8AB3F5FA7F7E
:103CE00004D3FB8A40F6B832934204D90A49F868F3
:103CF00007F02EF80AE0094B1B68FA8A11461846AD
:103D000002F04CF80649F86807F022F82037BD4663
:103D100080BD00BFFC080108240901081400002030
:103D20007808010880B586B000AFF860B9607A60A5
:103D3000084B1B68184601F082FD0346FB82FB8A94
:103D40001A460549F86807F003F800BF1837BD4662
:103D500080BD00BF140000205809010880B588B05C
:103D600000AFF860B9607A60B86805F0C1FE03463C
:103D7000BB61BB69042B04D02F49F86806F0E8FF4B
:103D800057E02E4B1B68184601F09DFF0346FB755C
:103D90000023FB614AE0FB699BB201339BB21946E9
:103DA000B86805F06FFE0346184609F07BF9034634
:103DB000D9B207F11002FB6913440A461A7007F1E1
:103DC0001002FB6913441B78012B05D9FA691C49C1
:103DD000F86806F0BDFF2CE007F11002FB69134400
:103DE0001B78002B08D1154B1B68FA69D2B211461B
:103DF000184601F0A3FF16E0FB7DFA699A4205D14F
:103E0000FA691049F86806F0A3FF0CE00B4B1B6839
:103E1000FA69D2B21146184601F06FFFFA690A49F1
:103E2000F86806F095FFFB690133FB61FB69032B22
:103E3000B1D92037BD4680BD7C090108140000209F
:103E4000A0090108C8090108EC09010880B586B07D
:103E500000AFF860B9607A60134B1B68184601F038
:103E600090FF0346FB7400237B6115E0FA7C7B69BD
:103E700042FA03F303F00103002B05D07A690B49E2
:103E8000F86806F065FF04E07A690949F86806F009
:103E90005FFF7B6901337B617B69032BE6D900BF40
:103EA00000BF1837BD4680BD14000020EC09010892
:103EB000040A010880B58CB000AFF860B9607A6080
:103EC000354B1B68184601F00FFE034683F00103D3
:103ED000DBB2002B04D03149F86806F039FF58E016
:103EE000B86805F005FE0346FB62FB6A032B04D0AD
:103EF0002B49F86806F02CFF4BE00121B86805F06B
:103F0000C1FDB862B86A09F0CDF803467B627B6AEE
:103F1000032B04D92349F86806F01AFF39E002217F
:103F2000B86805F0AFFD3862386A09F0BBF803469F
:103F3000FB61FB69012B04D91B49F86806F008FFF7
:103F400027E00321B86805F09DFDB861B86909F064
:103F5000A9F80346FB82FB8A40F6B832934204D9A3
:103F60001249F86806F0F4FE13E00B4B1868FB8A60
:103F7000FA69796A01F0E2FF38613B69002B04D0ED
:103F80000B49F86806F0E4FE03E00A49F86806F019
:103F9000DFFE3037BD4680BD140000201C0A01083A
:103FA000400A01086C0A0108900A0108B40A0108D5
:103FB000800801087808010880B58AB000AFF86071
:103FC000B9607A602A4B1B68184601F08DFD0346E4
:103FD00083F00103DBB2002B04D02649F86806F019
:103FE000B7FE41E0B86805F083FD03467B627B6A5B
:103FF000022B04D02049F86806F0AAFE34E0012123
:10400000B86805F03FFD3862386A09F04BF803469E
:10401000FB61FB69032B04D91849F86806F098FE88
:1040200022E00221B86805F02DFDB861B86909F0F9
:1040300039F803467B610E4B18687B69002B14BF6F
:1040400001230023DBB21A46F96901F028FD38612B
:104050003B69002B04D00A49F86806F079FE03E0BA
:104060000849F86806F074FE2837BD4680BD00BFD9
:10407000140000201C0A0108E00A01086C0A01086B
:10408000800801087808010880B58AB000AFF860A0
:10409000B9607A60B86805F02BFD03467B627B6AE5
:1040A000022B04D02949F86806F052FE4AE00121AB
:1040B000B86805F0E7FC3862386A08F0F3FF034699
:1040C000FB61234B1B68184601F05BFE0346FB7641
:1040D000FA7EFB6942FA03F303F00103002B05D0DB
:1040E000FA691C49F86806F033FE2BE00221B86833
:1040F00005F0C8FC7861786908F0D4FF03463B619D
:104100003B69B3F5FA7F04D33B6940F6B83293427A
:1041100004D91149F86806F01BFE13E00C4B1B682C
:10412000FA69D2B21146184601F0F2FC084B1B683E
:104130003A6992B21146184601F000FD0749F86845
:1041400006F006FE2837BD4680BD00BF000B010803
:1041500014000020280B0108240901087808010830
:1041600080B584B000AFF860B9607A60064B1B6818
:10417000184601F0FFFC0549F86806F0E9FD00BFAC
:104180001037BD4680BD00BF14000020780801082C
:1041900080B584B000AFF860B9607A60064B1B68E8
:1041A000184601F071FD0549F86806F0D1FD00BF21
:1041B0001037BD4680BD00BF1400002078080108FC
:1041C00080B586B000AFF860B9607A600B4B1B68B1
:1041D000184601F078FD0346FB75084B1B6818462E
:1041E00001F07EFD0346BB82FA7DBB8A0449F86874
:1041F00006F0AEFD00BF1837BD4680BD140000209C
:104200004C0B010880B588B000AFF860B9607A60E7
:10421000B86805F06DFC0346FB61FB69012B04D017
:104220001249F86806F094FD1CE00121B86805F019
:1042300029FCB861B86908F035FF0346FB75FB7DC2
:10424000642B04D90A49F86806F082FD0AE0094B9C
:104250001B68FA7D1146184601F0BCFD0649F86856
:1042600006F076FD2037BD4680BD00BF780B010803
:104270009C0B0108140000207808010880B586B066
:1042800000AFF860B9607A60084B1B68184601F00F
:10429000B7FD0346FB75FB7D1A460549F86806F035
:1042A00057FD00BF1837BD4680BD00BF1400002079
:1042B000C00B010880B588B000AFF860B9607A60C3
:1042C000B86805F015FC0346BB61BB69042B04D03C
:1042D0002649F86806F03CFD45E00023FB613BE021
:1042E000FB699BB201339BB21946B86805F0CAFB63
:1042F0000346184608F0D6FE0346D9B207F1140269
:10430000FB6913440A461A7007F11402FB6913444F
:104310001B78012B05D9FA691549F86806F018FDD4
:1043200021E007F11402FB6913441B78002B08D12C
:10433000104B1B68FA69D2B21146184601F08EFD87
:1043400007E00C4B1B68FA69D2B21146184601F01F
:1043500064FDFB690133FB61FB69032BC0D906498E
:10436000F86806F0F5FC2037BD4680BDDC0B01087F
:10437000A0090108140000207808010880B586B063
:1043800000AFF860B9607A60124B1B68184601F004
:1043900088FD0346FB7400237B6113E0FA7C7B6994
:1043A00042FA03F303F00103002B04D00A49F86832
:1043B00006F0CEFC03E00949F86806F0C9FC7B6909
:1043C00001337B617B69032BE8D900BF00BF18373D
:1043D000BD4680BD14000020040C01081C0C01081F
:1043E00080B588B000AFF860B9607A60B86805F051
:1043F0007FFB0346FB61FB69012B04D00E49F86883
:1044000006F0A6FC15E00121B86805F03BFBB86199
:10441000B86908F047FE0346FB82084B1B68B7F9F2
:1044200016201146184601F05FFD0549F86806F0B0
:104430008FFC2037BD4680BD380C010814000020D9
:104440007808010880B586B000AFF860B9607A607E
:104450000E4B1B68184601F057FD0346FB82B7F967
:10446000163007EE903AB8EEE77AF2EE046AC7EE3D
:10447000267AB7EEE77A53EC172B0549F86806F071
:1044800067FC00BF1837BD4680BD00BF1400002088
:10449000600C010880B588B000AFF860B9607A6040
:1044A000B86805F025FB0346FB61FB69012B04D0CE
:1044B0001249F86806F04CFC1DE00121B86805F0CF
:1044C000E1FAB861B86908F0EDFD03467B617B69EC
:1044D000072B04D90A49F86806F03AFC0BE0094BAF
:1044E0001B687A69D2B21146184601F0E7FC06490A
:1044F000F86806F02DFC2037BD4680BD840C01080D
:104500009C0C0108140000207808010880B586B0D2
:1045100000AFF860B9607A600023FB75084B1B6838
:10452000184601F0FEFC0346FB75FB7D1A46054963
:10453000F86806F00DFC00BF1837BD4680BD00BF0F
:1045400014000020BC0C010880B584B000AFF860F6
:10455000B9607A60064B1B68184601F07DF9054981
:10456000F86806F0F5FB00BF1037BD4680BD00BF00
:10457000140000207808010880B584B000AFF8600E
:10458000B9607A60064B1B68184601F081F905494D
:10459000F86806F0DDFB00BF1037BD4680BD00BFE8
:1045A000140000207808010880B588B000AFF860DA
:1045B000B9607A60B86805F09BFA0346FB61FB6955
:1045C000012B04D01349F86806F0C2FB1EE001215C
:1045D000B86805F057FAB861B86908F063FD03469A
:1045E000FB82B7F91630642B04DD0B49F86806F03E
:1045F000AFFB0BE0094B1B68B7F9162000211846EA
:10460000FFF710F80649F86806F0A2FB2037BD4610
:1046100080BD00BFCC0C0108F40C0108180000207C
:104620007808010880B588B000AFF860B9607A609A
:10463000B86805F05DFA0346FB61FB69012B04D005
:104640001349F86806F084FB1EE00121B86805F004
:1046500019FAB861B86908F025FD0346FB82B7F97D
:104660001630642B04DD0B49F86806F071FB0BE093
:10467000094B1B68B7F9162001211846FEF7D2FF37
:104680000649F86806F064FB2037BD4680BD00BFD0
:10469000180D0108F40C0108180000207808010822
:1046A00080B588B000AFF860B9607A600023BB8342
:1046B000B86805F01DFA0346FB76FB7E012B04D09B
:1046C0002749F86806F044FB46E00121B86805F088
:1046D000D9F978617B691B78612B1AD10023FB77AC
:1046E00013E0FB7F1846FEF737FD0346BB83FB7FD5
:1046F000002B01D11B4A00E01B4ABB8B1B49F86809
:1047000006F026FBFB7F0133FB77FB7F012BE8D90B
:1047100022E07B691B782F2B1AD97B691B78312B00
:1047200016D8786908F0BEFC0346FB74FB7C18467B
:10473000FEF712FD0346BB83FB7C002B01D1094A27
:1047400000E0094ABB8B0949F86806F001FB03E069
:104750000749F86806F0FCFA2037BD4680BD00BF67
:10476000D0070108600D0108640D0108680D0108FB
:104770001808010880B588B000AFF860B9607A60A9
:10478000B86805F0B5F90346FB61FB69012B04D05D
:104790001349F86806F0DCFA1EE00121B86805F05C
:1047A00071F9B861B86908F07DFC78617B69242BE8
:1047B00002DC7B69002B04DC0A49F86806F0C8FAC1
:1047C0000AE0094B1B687A6911461846FEF755FF47
:1047D0000649F86806F0BCFA2037BD4680BD00BF28
:1047E000840D0108A80D01081800002078080108B0
:1047F00080B588B000AFF860B9607A60B86805F03D
:1048000077F90346FB61FB69012B04D01349F86873
:1048100006F09EFA1EE00121B86805F033F9B86190
:10482000B86908F03FFC78617B69082B02DC7B6982
:10483000002B04DC0A49F86806F08AFA0AE0094B02
:104840001B687A6911461846FEF755FF0649F86855
:1048500006F07EFA2037BD4680BD00BFCC0D0108B2
:10486000F00D0108180000207808010880B584B018
:1048700000AFF860B9607A60064B1B681846FEF717
:104880001FFF0549F86806F063FA00BF1037BD4600
:1048900080BD00BF180000207808010880B584B0F2
:1048A00000AFF860B9607A60064B1B681846FEF7E7
:1048B00045FF0549F86806F04BFA00BF1037BD46C2
:1048C00080BD00BF180000207808010880B592B0B4
:1048D00000AFF860B9607A60B86805F009F903467E
:1048E0007B647B6C062B04D06949F86806F030FACB
:1048F000CBE00121B86805F0C5F80346184608F07A
:10490000D1FB03463B643B6CB3F57A7F03D33B6C2E
:10491000604A934204D96049F86806F019FAB4E095
:104920003B6C5E4AA2FB03239B093B640221B868EF
:1049300005F0A8F80346184608F0B4FB0346FB63ED
:10494000FB6B002B02D0FB6B242B04D95449F86875
:1049500006F0FEF999E00321B86805F093F80346E4
:10496000184608F09FFB0346BB63BB6B642B04D95E
:104970004C49F86806F0ECF987E00421B86805F0C6
:1049800081F80346184608F08DFB03467B637B6B7A
:10499000002B04D14449F86806F0DAF975E07B6B26
:1049A0004FF47A7202FB03F37B630521B86805F0CC
:1049B00069F80346184608F075FB03463B633B6BFA
:1049C000002B04D13949F86806F0C2F95DE03B6B71
:1049D0004FF47A7202FB03F33B630621B86805F0DB
:1049E00051F80346184608F05DFB0346FB62FB6A7C
:1049F000002B04D12E49F86806F0AAF945E0FB6ABD
:104A00004FF47A7202FB03F3FB627A6B3B6B1A443E
:104A1000FB6A13443A6C02FB03F3264AA2FB03230E
:104A20009B0CBB62BB6AB3F5006F04D92249F868DE
:104A300006F08EF929E03B6C9BB23B82FB6BDBB24C
:104A4000BB74BB6BDBB2FB747B6B7B613B6BBB6191
:104A5000FB6AFB61BB6A3B62184A3B6CB2FBF3F337
:104A60007B62174B1B6807F1100211461846FEF7D0
:104A7000A4FE0346002B04D11249F86806F068F939
:104A800003E01149F86806F063F94837BD4680BD78
:104A9000100E010800350C00700E0108D34D621095
:104AA000980E0108B80E0108D80E0108FC0E010886
:104AB000240F010883DE1B43480F010840420F000A
:104AC000180000207808010880080108F0B591B0AE
:104AD00006AFF860B9607A60184B1B6807F11002E6
:104AE00011461846FEF7A7FE3B8A1A464FF47A7322
:104AF00003FB02F4BB7C1E46FB7C1D467B69104A0F
:104B0000A2FB03239B09BA690D49A1FB021292097A
:104B1000F9690B48A0FB01018909386A04900391E7
:104B2000029201930095334622460649F86806F042
:104B30000FF900BF2C37BD46F0BD00BF18000020A4
:104B4000D34D6210700F010880B584B000AFF860DB
:104B5000B9607A600A4B1B681846FEF781FE03466F
:104B6000002B04D00749F86806F0F2F803E0064984
:104B7000F86806F0EDF800BF1037BD4680BD00BFF5
:104B8000180000200C1001082C10010880B588B016
:104B900000AFF860B9607A60B86804F0A9FF034616
:104BA000FB61FB69022B04D02E49F86806F0D0F8AF
:104BB00055E02D4B1B6893F84C30052B10D02A4B39
:104BC0001B6893F84C30032B0AD0274B1B6893F8D3
:104BD0004C30042B04D02549F86806F0B9F83EE0C3
:104BE0000121B86804F04EFF0346184608F05AFA4F
:104BF0000346BB61BB69B3F5001F04D31C49F868C9
:104C000006F0A6F82BE00221B86804F03BFF03464B
:104C1000184608F047FA03467B61BB69C3F50013E9
:104C20007A699A4203D87B69B3F5007F08D2BB69E1
:104C3000C3F500131A460F49F86806F089F80EE02C
:104C40000D49F86806F084F8074B1B687A69B96962
:104C50001846FEF7CFFC0849F86806F079F82037C7
:104C6000BD4680BD481001081800002078100108DA
:104C700098100108C4100108F010010880B400AFBA
:104C8000024B1846BD465DF8047B70474C13010883
:104C900080B400AF26231846BD465DF8047B7047FC
:104CA00080B483B000AF78607B68DB6903F02003D9
:104CB000202B01D1012300E0002318460C37BD460C
:104CC0005DF8047B704780B483B000AF78607B6888
:104CD0005B6ADBB218460C37BD465DF8047B704753
:104CE00080B500AF4FF480620849094806F0E2FA47
:104CF0004FF480520749084806F0DCFA064B044A94
:104D00000649074806F0FBF800BF80BDD0660020CA
:104D1000A8660020D06A0020BC6600200014014074
:104D200098660020B0B588B000AF1B4B3C1D1D46F7
:104D30000FCD0FC495E8070084E80700FFF79EFF3A
:104D40000346BB61FFF7A4FF0346BB833B1D184628
:104D500004F09FFC0346114A1360104B1B68002BA4
:104D600005D101210E4801F0ADF9012310E00B4BF4
:104D70001B680C4A1A60094B1C683B1D184604F05E
:104D800057FC03461A460849204605F0E1FF002378
:104D900018462037BD46B0BD14110108D07A002056
:104DA000DC160108AD4D0008F410010880B582B092
:104DB00000AF78600B46FB70FB781946034806F09D
:104DC000DAF800BF0837BD4680BD00BF98660020F6
:104DD00080B584B002AF786039607B68002B03D166
:104DE0000021154801F06EF978683B68DA683B6885
:104DF0001B6900931346114A114906F0B1FB7B6809
:104E000020337A680621184606F016FC3B685A687B
:104E10007B68DA613B689A687B689A613B681A68CC
:104E20007B685A617B682033184606F047FC00BF58
:104E30000837BD4680BD00BFDC160108054F0008DD
:104E4000C94E000880B588B002AFFFF749FF0223C2
:104E500000930A2314220D490D4806F005F9FFF7C7
:104E600061FF0C4B7B600C4B1B68BB600B4BFB600A
:104E70000B4B3B61064B7B613B1D19460948FFF715
:104E8000A7FF00BF1837BD4680BD00BF6866002081
:104E90007C6600204D4F0008D07A002098660020E4
:104EA000646600202466002080B582B000AF03460F
:104EB000FB71FB791946034806F06CFB00BF08370D
:104EC000BD4680BD2466002080B582B000AF78600A
:104ED00039607B68002B03D10721094801F0F2F803
:104EE0007B689B69184606F026F87B6820330A2207
:104EF0000A21184606F0C2FB00BF0837BD4680BD38
:104F0000DC16010880B584B000AF786039607B683A
:104F10005B69FB607B685B69396878689847034622
:104F2000FB72FB7A002B08D1FB680649786898472A
:104F30007B685B6904497868984700BF1037BD46B5
:104F400080BD00BFE8160108E416010880B582B0F4
:104F500000AF786039607B68002B03D103212148C2
:104F600001F0B0F83B68002B03D104211D4801F08B
:104F7000A9F83B681B88013B062B2DD801A252F8EB
:104F800023F000BFA14F0008D94F0008B34F00081D
:104F9000D94F0008D94F0008C14F0008CF4F000873
:104FA0007B6820330A220A21184606F067FB01239A
:104FB00013E07B682033184606F080FB01230CE0E9
:104FC000094B1B68184604F013FC012305E07B68BD
:104FD000064A5A61002300E0022318460837BD46FE
:104FE00080BD00BFDC160108D07A00207550000893
:104FF00080B582B000AF0B48FFF752FE0346002B8E
:105000000BD00848FFF75FFE0346FB71064B1B6899
:10501000FA791146184604F0C8FB00BF0837BD46B0
:1050200080BD00BF00140140D07A002080B584B05C
:1050300000AF78607B689B69184605F0E2FFF86076
:10504000FB68002B04D07B680349184606F0CCFAB5
:1050500000BF1037BD4680BD1C00002080B500AFEA
:10506000FFF7C6FF0248FFF7E1FF00BF80BD00BFAA
:105070002466002080B584B000AF786039600023DA
:10508000FB603B681B88012B27D0082B51D084E0A4
:10509000786800F089F81BE07B689A697B6893F870
:1050A0003D3019467B680B4493F83830194610465A
:1050B00005F061FFF860FB68002B01D001236DE073
:1050C0007B6893F83D300133DAB27B6883F83D208A
:1050D0007B6893F83D30042BDED97B685B6B002B3B
:1050E000D6D17B682F4A5A617B6820330A220A2175
:1050F000184606F0C3FA002350E07B689A697B6883
:1051000093F83D3019467B680B4493F838301946C4
:10511000104605F030FFF860FB68002B01D001233A
:105120003CE07B6893F83D300133DAB27B6883F86A
:105130003D207B6893F83D30042BDED924E078686D
:1051400000F032F81BE07B689A697B6893F83D3089
:1051500019467B680B4493F838301946104605F021
:105160000AFFF860FB68002B01D0012316E07B6882
:1051700093F83D300133DAB27B6883F83D207B68D9
:1051800093F83D30042BDED97B685B6B002BD6D1C6
:105190007B68044A5A61002300E002231846103756
:1051A000BD4680BD4D4F0008B0B588B000AF7860F7
:1051B0002A4B07F10C041D460FCD0FC42B6823703A
:1051C0007B681B6B991C7A6811631B88FB837B6867
:1051D0005B6B5A1E7B685A63FB8B1B0B9BB203F005
:1051E0000F0320333B4413F8142C7B6883F83820DA
:1051F000FB8B1B0A9BB203F00F0320333B4413F8D5
:10520000142C7B6883F83920FB8B1B099BB203F0BD
:105210000F0320333B4413F8142C7B6883F83A20A7
:10522000FB8B03F00F0320333B4413F8142C7B68F3
:1052300083F83B207B68202283F83C207B68002297
:1052400083F83D207B685B6B002B03D10449054844
:1052500006F0CAF900BF2037BD46B0BD30110108C5
:10526000EC1601082444002080B584B000AFF8603B
:10527000B9607A60FB68BA681A63FB687A685A6337
:10528000FB680449184606F0AFF900BF1037BD4669
:1052900080BD00BF2000002080B582B000AF7860E4
:1052A000396002F091FA7B68012283F83020786837
:1052B00000F0BAFB786800F09BFB786800F0A9FA70
:1052C0007B682033184606F0F9F900BF0837BD4661
:1052D00080BD000080B584B000AF786039607B6825
:1052E0005B69FB607B685B6939687868984703464F
:1052F000FB72FB7A002B08D1FB6806497868984757
:105300007B685B6904497868984700BF1037BD46E1
:1053100080BD00BF201701080C17010880B586B0BA
:1053200002AF786039607B68002B03D100212348ED
:1053300000F0C8FE78683B685A683B689B68009339
:1053400013461F4A1F4906F00BF97B6820337A6821
:105350000E21184606F070F93B681A687B685A619E
:105360007B68002283F830207B68002283F8442089
:105370007B68002283F847207B68002283F848205E
:105380000023FB600EE03A68FB6802339B00134485
:105390005A687968FB680C339B000B445A60FB68C1
:1053A0000133FB60FB68032BEDD97B682033184683
:1053B00006F084F900BF1037BD4680BD0017010814
:1053C000D552000899520008B0B58AB002AF122336
:1053D0000093022324220B490B4805F045FE0B4B9A
:1053E0003C1D1D460FCD0FC495E8070084E807005B
:1053F0003B1D19460648FFF791FF00BF2037BD4609
:10540000B0BD00BF3C8B0020608B00204411010820
:10541000D48A002080B582B000AF0346FB71FB79CF
:105420001946034806F0B6F800BF0837BD4680BDF0
:10543000D48A002080B584B000AF786039603B68C2
:105440001B88012B02D00F2B0ED041E07B6820334C
:10545000184606F033F9786800F0CAFA786800F068
:10546000D8F97B6801229A613B689B78042B2DD187
:105470007B6893F83030002B09D10121786800F067
:10548000DDFD786800F0D0FA786800F0B1FA7B684A
:1054900093F846301846FDF771FE0346FB817B68A2
:1054A000B3F94A30B7F90E209A4203DD7B680B4A04
:1054B0005A6102E07B680A4A5A617B6820336422A1
:1054C0006421184606F0DAF8002302E0022300E027
:1054D000012318461037BD4680BD00BFE5540008C3
:1054E0007155000880B584B000AF786039603B68C2
:1054F0001B880F2B28D00F2B31DC012B02D00E2B59
:105500000CD02CE07B680022DA610021786800F082
:10551000DBF9786800F01CF9012321E07B6893F83F
:1055200046301846FDF72AFE0346FB817B68B3F937
:105530004A30B7F90E209A4201DD012310E07B6862
:10554000094A5A6100230BE03B689B78052B04D184
:105550007B68064A5A61002302E0022300E002232E
:1055600018461037BD4680BD7155000835540008F7
:1055700080B584B000AF786039603B681B880F2B22
:105580003CD00F2B45DC012B02D00E2B0BD040E082
:105590007B680022DA61786800F02AFA786800F007
:1055A00038F9012336E07B6893F846301846FDF75A
:1055B000E5FD0346FB817B68B3F94A30B7F90E205D
:1055C0009A4204DD7B68154A5A61002322E07B6819
:1055D000DB695A1C7B68DA617B68DB691D2B08D8A4
:1055E0007B68B3F94A301A46B7F90E30D31A0A2B42
:1055F00004DD7B680A4A5A6100230BE03B689B7814
:10560000052B04D17B68074A5A61002302E002237C
:1056100000E0022318461037BD4680BDE55400085F
:10562000295600083554000880B584B000AF786072
:1056300039603B681B880F2B24D00F2B2DDC012BEE
:1056400002D00E2B08D028E07B680022DA6178684F
:1056500000F0B1F8012321E07B6893F8463018464A
:10566000FDF78CFD0346FB817B68B3F94A30B7F93F
:105670000E209A4201DA012310E07B68094A5A6140
:1056800000230BE03B689B78052B04D17B68064A1E
:105690005A61002302E0022300E00223184610377B
:1056A000BD4680BDAD5600083554000880B584B0B5
:1056B00000AF786039603B681B880F2B32D00F2B0E
:1056C0003BDC012B02D00E2B08D036E0786800F0CE
:1056D0008FF9786800F09DF801232FE07B6893F83C
:1056E00046301846FDF74AFD0346FB817B68B3F957
:1056F0004A30B7F90E209A4204DA7B68114A5A619F
:1057000000231BE07B68DB695A1C7B68DA617B68DD
:10571000DB691D2B04D97B680B4A5A6100230DE01D
:1057200001230BE03B689B78052B04D17B68074A7B
:105730005A61002302E0022300E0022318461037DA
:10574000BD4680BD29560008E554000835540008C0
:1057500080B584B000AF78607B6893F84730BB7346
:105760000023FB731FE0BA7BFB7B42FA03F303F0D9
:105770000103002B0AD0FB7B7A680C339B00134497
:105780005B680121184603F0D3F809E0FB7B7A68D7
:105790000C339B0013445B680021184603F0C8F8E3
:1057A000FB7B0133FB73FB7B032BDCD900BF00BF0A
:1057B0001037BD4680BD80B584B000AF78607B688F
:1057C00093F84930BB737B6893F848307B730023B0
:1057D000FB7316E07A7BFB7B42FA03F303F00103D1
:1057E000002B07D0FB7BBA7B92B21146184600F023
:1057F000ADFC03E0FB7B184600F0EAFCFB7B0133C9
:10580000FB73FB7B032BE5D900BF00BF1037BD4600
:1058100080BD80B584B000AF78600023FB7306E0E4
:10582000FB7B184600F0D4FCFB7B0133FB73FB7B56
:10583000032BF5D900BF00BF1037BD4680BD80B433
:1058400083B000AF78607B68B3F84C3018460C37F3
:10585000BD465DF8047B704780B588B000AF7860C6
:1058600007F10C0300221A605A609A60DA601A820B
:105870000F23BB810423BB737B6807F10C02114625
:10588000184605F0B1FE002318462037BD4680BDFE
:1058900080B588B000AF786007F10C0300221A6071
:1058A0005A609A60DA601A820F23BB810523BB73AA
:1058B0007B6807F10C021146184605F095FE00239F
:1058C00018462037BD4680BD2DE9F04F8DB000AFA2
:1058D000F861B961FB6993F8473087F82B30FB69B1
:1058E000B3F84C303B850023FB6278E097F82B201F
:1058F000FB6A42FA03F303F00103002B6CD0FA6950
:10590000FB6A0C339B0013445B689B7E87F827304F
:1059100097F82730DBB203F00103002B08D1FA69B6
:10592000FB6A0C339B0013445B68184603F065F870
:10593000FA69FB6A0C339B0013445B689B7E87F813
:105940002730FA69FB6A0C339B0013445B687B6069
:10595000BB69DEB23B8D00229A46934652465B46B7
:105960004FF000004FF00001590141EAD2615001AF
:1059700002460B46B2EB0A0463EB0B054FF0000244
:105980004FF000036B0243EAD453620214461D46F3
:1059900014EB0A0845EB0B094FF000024FF000032F
:1059A0004FEA891343EA98634FEA8812B2EB080181
:1059B000B96063EB0902FA60D7E90201024612EB13
:1059C0000A023A610A4642EB0B027A61D7E90423E4
:1059D0003146786803F0F0F8FB6A0133FB62FB6A3A
:1059E000032B83D900BF00BF3437BD46BDE8F08F1D
:1059F00080B584B000AF78600023FB600CE07A686B
:105A0000FB680C339B0013445B680021184602F0CE
:105A10008FFFFB680133FB60FB68032BEFD900BFEE
:105A200000BF1037BD4680BD80B584B000AF786040
:105A30000023FB600BE07A68FB680C339B00134487
:105A40005B68184602F0D9FFFB680133FB60FB6816
:105A5000032BF0D900BF00BF1037BD4680BD80B515
:105A600084B000AF786039603B68032B01D906230E
:105A700011E07A683B680C339B0013445B6818465E
:105A800002F0BBFF0346FB7397F90F30002B01D0E8
:105A9000012300E0002318461037BD4680BD80B5C5
:105AA00086B000AFF860B9601346FB71BB68032B8A
:105AB00001D9062313E0FA68BB680C339B0013443A
:105AC0005B68FA791146184602F032FF0346FB750F
:105AD00097F91730002B01D0012300E0002318466E
