:020000040800F2
:1000000000000820952F0008852D00088D2D000880
:10001000952D00089D2D0008A52D0008000000006A
:10002000000000000000000000000000AD2D0008EE
:10003000BB2D000800000000C92D0008D72D0008C6
:10004000E52F0008E52F0008E52F0008E52F000840
:10005000E52F0008E52F0008E52F0008E52F000830
:10006000E52F0008E52F0008E52F0008E52F000820
:10007000B5780008E52F0008E52F0008E52F0008F7
:10008000E52F0008E52F0008E52F0008E52F000800
:10009000E52F0008E52F0008E52F0008E52F0008F0
:1000A000E52F0008F9790008E52F0008E52F000882
:1000B000457A0008E52F0008E52F0008E52F000825
:1000C000E52F0008E52F0008E52F0008E52F0008C0
:1000D000E52F0008E52F0008E52F0008E52F0008B0
:1000E000E52F0008E52F0008E52F0008E52F0008A0
:1000F000E52F0008E52F0008E52F0008E52F000890
:10010000E52F0008E52F0008E52F0008E52F00087F
:10011000E52F0008E52F0008E52F0008E52F00086F
:100120002D6F0008E52F0008E16D0008E52F00089D
:10013000E52F0008E52F0008E52F0008E52F00084F
:10014000E52F0008E52F0008E52F0008E52F00083F
:10015000E52F0008097C0008E52F0008F151000890
:10016000E52F0008E52F0008E52F0008E52F00081F
:10017000E52F0008E52F0008E52F0008000000002B
:10018000E52F0008E52F00081D3A0008E52F0008BC
:10019000E52F0008E52F0008E52F0008E52F0008EF
:1001A0000000000000000000E52F0008E52F000817
:1001B000E52F0008E52F0008E52F0008E52F0008CF
:1001C000E52F0008E52F000800000000E52F0008DB
:1001D000E52F0008E52F0008E52F0008E52F0008AF
:1001E000E52F0008E52F0008E52F0008E52F00089F
:0801F00000000000E52F0008EB
:1002000010B5054C237833B9044B13B10448AFF350
:1002100000800123237010BD8843002000000000EF
:100220006405010808B5034B1BB103490348AFF34C
:10023000008008BD000000008C4300206405010818
:1002400010F8012B11F8013B012A28BF9A42F7D080
:10025000D01A7047000000000000000000000000FD
:1002600001F0FF01102A2BDB10F0070F08D010F867
:10027000013B013A8B422DD010F0070F42B3F6D16B
:10028000F0B441EA012141EA014122F007047FF084
:1002900000070023F0E80256083C85EA010586EADB
:1002A000010685FA47F5A3FA87F586FA47F6A5FA17
:1002B00087F68EB9EED1F0BC01F0FF0102F0070223
:1002C00032B110F8013B013A83EA010313B1F8D1CE
:1002D0000020704701387047002D06BF35460338AF
:1002E000073815F0010F07D1013015F4807F02BFE8
:1002F000013015F4C03F0130F0BC0138704700BF39
:10030000034613F8012B002AFBD1181A0138704755
:100310007BB972B90029BEBF00204FF0004106E052
:1003200008BF00281CBF6FF000414FF0FF3000F005
:10033000BBB9ADF1080C6DE904CE002909DB002B37
:100340001ADB00F035F8DDF804E0DDE9022304B043
:100350007047404261EB4101002B1BDB00F028F8A5
:10036000DDF804E0DDE9022304B0404261EB410125
:10037000524263EB43037047524263EB430300F086
:1003800017F8DDF804E0DDE9022304B0404261EB38
:1003900041017047524263EB430300F009F8DDF876
:1003A00004E0DDE9022304B0524263EB43037047EB
:1003B0002DE9F047089D8E4604468846002B4AD119
:1003C0008A42174662D9B2FA82F64EB1C6F12003CC
:1003D00001FA06F820FA03F3B74043EA0808B440EC
:1003E0004FEA174E1FFA87FCB8FBFEF1230C0EFBF9
:1003F000118843EA084301FB0CF29A4209D9FB1821
:1004000001F1FF3080F0EA809A4240F2E780023941
:100410003B449A1AA3B2B2FBFEF00EFB102243EA51
:10042000024300FB0CFC9C4509D9FB1800F1FF328C
:1004300080F0D6809C4540F2D3803B44023840EAAD
:100440000140A3EB0C0300211DB1F3400022C5E9DC
:100450000032BDE8F0878B4205D90DB1C5E9000136
:1004600000210846F5E7B3FA83F1002946D1734528
:1004700002D3824200F20581841A6EEB030201204E
:100480009046002DE5D0C5E90048E2E7002A00F0DB
:100490009080B2FA82F6002E40F0A4808A1A030CF3
:1004A0004FEA174E80B2BCB20121B2FBFEFC0EFB3C
:1004B0001C2243EA024304FB0CF29A4207D9FB18C0
:1004C0000CF1FF3802D29A4200F2E080C4469B1A37
:1004D000B3FBFEF20EFB123340EA034302FB04F4CB
:1004E0009C4207D9FB1802F1FF3002D29C4200F275
:1004F000CA8002461B1B42EA0C40A5E7C1F1200658
:100500008B4022FA06F71F430EFA01F420FA06F395
:100510002EFA06FE4FEA1749234300FA01F81FFAA4
:1005200087FCBEFBF9F01C0C09FB10EE44EA0E44FC
:1005300000FB0CFEA64502FA01F209D93C1900F1B4
:10054000FF3A80F09C80A64540F2998002383C44F6
:10055000A4EB0E041FFA83FEB4FBF9F309FB13446A
:100560004EEA044403FB0CFCA44508D93C1903F1F2
:10057000FF3E80F08280A4457FD9023B3C4443EAA1
:100580000040A4EB0C04A0FB02EC64457346E1467A
:1005900062D35FD05DB1B8EB030264EB090404FAE7
:1005A00006F622FA01F31E43CC40C5E9006400219F
:1005B0004FE7B1FBF2FC010C41EA0E4180B240EA88
:1005C00001423B4638463C46B846BE462026B1FB73
:1005D000F7F1A2EB080241EA0C4166E7014618E791
:1005E00010462CE7C6F120022EFA02F3B740B140C4
:1005F00020FA02F24FEA174E0A43B3FBFEF8BCB2F0
:100600000EFB1833110C41EA034108FB04F9B0401A
:1006100089454FEA104380B23ED9791808F1FF3C72
:1006200001D289451FD8A1EB0901B1FBFEF909FBF5
:1006300004F80EFB191192B242EA0142424529D256
:10064000BA1809F1FF31C4D24245C2D2A9F1020160
:100650003A44BEE7F0459DD2BEEB02036CEB070CBB
:100660000138E14696E7A7EB09094944A8F1020CD5
:10067000B1FBFEF909FB04F8DBE773467FE7504660
:1006800066E70846FDE63B44023A33E7ACF1020C6C
:100690003B441CE749469CE7A1EB0901C446B1FB7A
:1006A000FEF909FB04F8C4E7704700BF80B485B0C9
:1006B00000AF78607B6803F00703FB600B4BDB68DF
:1006C000BB60BA684FF6FF031340BB60FB681A02B9
:1006D000BB681A43064B1343BB60044ABB68D36034
:1006E00000BF1437BD465DF8047B704700ED00E0A5
:1006F0000000FA0580B400AF044BDB681B0A03F06E
:1007000007031846BD465DF8047B704700ED00E026
:1007100080B483B000AF0346FB7197F90730002B1C
:100720000BDBFB7903F01F02074997F907305B09E0
:10073000012000FA02F241F8232000BF0C37BD4629
:100740005DF8047B704700BF00E100E080B483B037
:1007500000AF03463960FB7197F90730002B0ADBC5
:100760003B68DAB20C4997F907301201D2B20B4458
:1007700083F800230AE03B68DAB20849FB7903F00A
:100780000F03043B1201D2B20B441A7600BF0C37A0
:10079000BD465DF8047B704700E100E000ED00E03D
:1007A00080B489B000AFF860B9607A60FB6803F08C
:1007B0000703FB61FB69C3F10703042B28BF042374
:1007C000BB61FB690433062B02D9FB69033B00E0E4
:1007D00000237B614FF0FF32BB6902FA03F3DA4377
:1007E000BB681A407B699A404FF0FF317B6901FA80
:1007F00003F3D9437B680B40134318462437BD46A7
:100800005DF8047B704780B489B000AFF860B960D0
:100810007A60FB682C331946BB6803F440734FF4CD
:100820004072BA61BA6992FAA2F27A617A69B2FA4E
:1008300082F2D2B2D3409B000B44FB61FB691A6881
:10084000BB6803F01F031F2101FA03F3DB431A40C7
:100850007B6803F01F01BB6803F01F0301FA03F379
:100860001A43FB691A6000BF2437BD465DF8047B5C
:10087000704780B483B000AF786039607B689B6854
:1008800023F480623B681A437B689A6000BF0C3790
:10089000BD465DF8047B704780B48DB000AFF86052
:1008A000B9607A60FB680C331946BB6803F00073CB
:1008B0004FF00072BA61BA6992FAA2F27A617A696B
:1008C000B2FA82F2D2B2D3409B000B44FB62FB6AC5
:1008D0001A68BB6803F0F8734FF0F8713962396A2F
:1008E00091FAA1F1F961F969B1FA81F1C9B2CB408C
:1008F000072101FA03F3DB431A40BB6803F0F873E6
:100900004FF0F871B962B96A91FAA1F17962796A26
:10091000B1FA81F1C9B2CB40796801FA03F31A4305
:10092000FB6A1A6000BF3437BD465DF8047B704730
:1009300080B485B000AFF860B9607A600D4ABB68DA
:1009400013441B781A46FB6813441B6823F0C0024B
:100950000849BB680B441B781946FB680B441946D1
:100960007B6813430B6000BF1437BD465DF8047B02
:10097000704700BF341A010880B485B000AFF8603A
:10098000B9607A600D4ABB6813441B781A46FB684D
:1009900013441B6823F490720849BB680B441B780E
:1009A0001946FB680B4419467B6813430B6000BF74
:1009B0001437BD465DF8047B704700BF341A010848
:1009C00080B485B000AFF860B9607A600D4ABB684A
:1009D00013441B781A46FB6813441B6823F4007207
:1009E0000849BB680B441B781946FB680B44194641
:1009F0007B6813430B6000BF1437BD465DF8047B72
:100A0000704700BF341A010880B485B000AFF860A9
:100A1000B9607A600D4ABB6813441B781A46FB68BC
:100A200013441B6823F480620849BB680B441B789D
:100A30001946FB680B4419467B6813430B6000BFE3
:100A40001437BD465DF8047B704700BF341A0108B7
:100A500080B485B000AFF860B9607A600D4ABB68B9
:100A600013441B781A46FB6813441B6823F4C052D6
:100A70000849BB680B441B781946FB680B441946B0
:100A80007B6813430B6000BF1437BD465DF8047BE1
:100A9000704700BF341A010880B485B000AFF86019
:100AA000B9607A600D4ABB6813441B781A46FB682C
:100AB00013441B6823F4C0420849BB680B441B78ED
:100AC0001946FB680B4419467B6813430B6000BF53
:100AD0001437BD465DF8047B704700BF341A010827
:100AE00080B485B000AFF860B9607A600D4ABB6829
:100AF00013441B781A46FB6813441B6823F44032E6
:100B00000849BB680B441B781946FB680B4419461F
:100B10007B6813430B6000BF1437BD465DF8047B50
:100B2000704700BF341A010880B485B000AFF86088
:100B3000B9607A600D4ABB6813441B781A46FB689B
:100B400013441B6823F0F0520849BB680B441B7820
:100B50001946FB680B4419467B6813430B6000BFC2
:100B60001437BD465DF8047B704700BF341A010896
:100B700080B483B000AF786039600C4A3B6813449E
:100B80001B781A467B6813445B6908493A680A4433
:100B9000127811467A680A4423F00403536100BFB7
:100BA0000C37BD465DF8047B704700BF341A01085E
:100BB00080B483B000AF78607B681B6843F00102AB
:100BC0007B681A6000BF0C37BD465DF8047B704738
:100BD00080B483B000AF78607B681B6823F4003278
:100BE0007B681A6000BF0C37BD465DF8047B704718
:100BF00080B483B000AF78607B681B6823F4002268
:100C00007B681A6000BF0C37BD465DF8047B7047F7
:100C100080B485B000AFF860B9607A60FB68DA68CC
:100C2000064B1340B9687A680A431A43FB68DA60D6
:100C300000BF1437BD465DF8047B704701F8FFFF25
:100C400080B483B000AF78607B68DB6823F4004237
:100C50007B68DA6000BF0C37BD465DF8047B7047E7
:100C600080B483B000AF78607B685B6843F000724B
:100C70007B685A6000BF0C37BD465DF8047B704747
:100C800080B400AF054B1B68044A43F48033136003
:100C900000BFBD465DF8047B704700BF00380240CE
:100CA00080B400AF074B1B6803F40033B3F5003F7B
:100CB0000CBF01230023DBB21846BD465DF8047B60
:100CC000704700BF0038024080B483B000AF786046
:100CD000064B9B6823F0030204497B6813438B6037
:100CE00000BF0C37BD465DF8047B704700380240FA
:100CF00080B400AF044B9B6803F00C031846BD465C
:100D00005DF8047B704700BF0038024080B483B0B8
:100D100000AF7860064B9B6823F0F00204497B68C3
:100D200013438B6000BF0C37BD465DF8047B7047F2
:100D30000038024080B483B000AF7860064B9B68F7
:100D400023F4E05204497B6813438B6000BF0C37E7
:100D5000BD465DF8047B70470038024080B483B024
:100D600000AF7860064B9B6823F4604204497B68BF
:100D700013438B6000BF0C37BD465DF8047B7047A2
:100D80000038024080B483B000AF7860094BD3F8DC
:100D900090207B681B0CDB431A407B689BB20549A3
:100DA0001343C1F8903000BF0C37BD465DF8047B9B
:100DB000704700BF0038024080B483B000AF786055
:100DC000094BD3F890207B681B0CDB431A407B68EF
:100DD0009BB205491343C1F8903000BF0C37BD46A4
:100DE0005DF8047B704700BF0038024080B483B0D8
:100DF00000AF7860094BD3F890207968084B0B401E
:100E0000DB431A407B681B0404491343C1F890304C
:100E100000BF0C37BD465DF8047B704700380240C8
:100E20000000FFFF80B483B000AF7860074BD3F8B9
:100E30008C3023F0807205497B681343C1F88C30F5
:100E400000BF0C37BD465DF8047B70470038024098
:100E500080B400AF054B1B68044A43F080731360F5
:100E600000BFBD465DF8047B704700BF00380240FC
:100E700080B400AF074B1B6803F00073B3F1007F31
:100E80000CBF01230023DBB21846BD465DF8047B8E
:100E9000704700BF0038024080B485B000AFF860F2
:100EA000B9607A603B600A4B5A680A4B1340F96894
:100EB000BA6811437A68920111433A680A430449B7
:100EC00013434B6000BF1437BD465DF8047B704789
:100ED000003802400080BCFF80B485B000AF78606D
:100EE000084B1A6B07497B6813430B63054B1A6B5E
:100EF0007B681340FB60FB6800BF1437BD465DF89C
:100F0000047B70470038024080B485B000AF786041
:100F1000084B1A6C07497B6813430B64054B1A6C2A
:100F20007B681340FB60FB6800BF1437BD465DF86B
:100F3000047B70470038024080B485B000AF786011
:100F4000084B5A6C07497B6813434B64054B5A6C3A
:100F50007B681340FB60FB6800BF1437BD465DF83B
:100F6000047B70470038024080B483B000AF7860E3
:100F7000064B1B6823F00F0204497B6813430B6088
:100F800000BF0C37BD465DF8047B7047003C024053
:100F900080B400AF044B1B6803F00F031846BD4636
:100FA0005DF8047B704700BF003C024080B400AF96
:100FB000054B1B68044A43F48033136000BFBD46F1
:100FC0005DF8047B704700BF0070004080B483B0C0
:100FD00000AF7860064B1B6823F4404204497B68ED
:100FE00013430B6000BF0C37BD465DF8047B7047B0
:100FF0000070004080B400AF074B5B6803F480438F
:10100000B3F5804F0CBF01230023DBB21846BD4669
:101010005DF8047B704700BF0070004080B483B06F
:1010200000AF78607B681B6843F040027B681A6001
:1010300000BF0C37BD465DF8047B704780B483B0B9
:1010400000AF786039607B685B6823F010023B6812
:101050001A437B685A6000BF0C37BD465DF8047BBD
:10106000704780B483B000AF78607B685B6843F002
:1010700008027B685A6000BF0C37BD465DF8047BF0
:10108000704780B483B000AF78607B685B6823F002
:1010900008027B685A6000BF0C37BD465DF8047BD0
:1010A000704780B483B000AF78607B681B6823F022
:1010B00080027B681A6000BF0C37BD465DF8047B78
:1010C0007047000080B485B000AF786039603B683D
:1010D000012B28D03B68042B23D03B68102B1ED05B
:1010E0003B68402B19D03B68B3F5807F13D03B6839
:1010F000B3F5806F0DD03B68B3F5805F07D03B68D8
:10110000B3F5803F01D107230EE008230CE006234E
:101110000AE0052308E0042306E0032304E0022399
:1011200002E0012300E00023FB737B6818331946BB
:10113000FB7B0B4AD35C0B44BB60BB681A68FB7B30
:101140000849CB5C194604238B40DB431A40BB683B
:101150001A6000BF1437BD465DF8047B704700BFBE
:101160003C1A0108481A010880B485B000AF7860C5
:1011700039603B68012B28D03B68042B23D03B68A7
:10118000102B1ED03B68402B19D03B68B3F5807FF5
:1011900013D03B68B3F5806F0DD03B68B3F5805F2B
:1011A00007D03B68B3F5803F01D107230EE0082349
:1011B0000CE006230AE0052308E0042306E00323ED
:1011C00004E0022302E0012300E00023FB737B68BC
:1011D00018331946FB7B0A4AD35C0B44BB60BB68DF
:1011E0001A68FB7B0749CB5C194608238B401A43DE
:1011F000BB681A6000BF1437BD465DF8047B7047BA
:101200003C1A0108481A010880B483B000AF786026
:1012100039607B689A68064B13403A681A437B68CA
:101220009A6000BF0C37BD465DF8047B704700BF75
:10123000F8BFFEFF80B483B000AF786039607B6890
:101240005B6823F070023B681A437B685A6000BFFA
:101250000C37BD465DF8047B704780B483B000AFA7
:10126000786039607B685B6823F470023B681A43DE
:101270007B685A6000BF0C37BD465DF8047B704741
:1012800080B483B000AF78607B689B6823F08002F5
:101290007B689A6000BF0C37BD465DF8047B7047E1
:1012A00080B483B000AF78607B681B6843F00102B4
:1012B0007B681A6000BF0C37BD465DF8047B704741
:1012C00080B483B000AF786039607B681B6823F41A
:1012D000F8123B681B041A437B681A6000BF0C3786
:1012E000BD465DF8047B704780B483B000AF786082
:1012F00039607B681B6823F078723B685B051A4392
:101300007B681A6000BF0C37BD465DF8047B7047F0
:1013100080B483B000AF78607B689B6843F4804200
:101320007B689A6000BF0C37BD465DF8047B704750
:1013300080B483B000AF786039607B689B6823F429
:1013400000423B681A437B689A6000BF0C37BD4679
:101350005DF8047B704780B483B000AF78607B6831
:101360005B6823F490427B685A607B689B6823F03B
:101370002A027B689A6000BF0C37BD465DF8047B8B
:10138000704780B483B000AF786039607B683A689A
:101390009A6100BF0C37BD465DF8047B704780B48E
:1013A00083B000AF786039603B681A047B689A614B
:1013B00000BF0C37BD465DF8047B704780B500AFB9
:1013C0004FF08050FFF7A0FD4FF48040FFF7B4FDD1
:1013D0000320FFF76BF9FFF78DF9034600220F2179
:1013E0001846FFF7DDF9034619464FF0FF30FFF7C7
:1013F000ADF900F02DF801F00FFA01F0B1F900F0AD
:10140000DDFA00F04FFB00F0C1FB00F04BFC00F0F8
:10141000FBFC00F06DF800F075FD00F055FF01F0E9
:101420002DF800F0EDFD01F09FF801F025F900F036
:10143000B3F900F061FA00F0BFFE00F003FF01F025
:10144000AFFE01F0B9FE01F0C7FE00BFFDE70000EE
:1014500080B500AF0620FFF787FD00BFFFF798FDBE
:101460000346062BFAD14FF44040FFF7AFFDFFF7DC
:101470009DFDFFF705FC00BFFFF712FC0346012BA3
:10148000FAD10023C0220C214FF48000FFF704FDA5
:10149000FFF7DEFC00BFFFF7EBFC0346012BFAD1A0
:1014A00000BFFFF7A7FD0346002BFAD00020FFF78F
:1014B0002DFC4FF4A050FFF73DFC4FF40040FFF728
:1014C0004DFC0220FFF700FC00BFFFF711FC0346B4
:1014D000082BFAD105480CF0E7F804480CF018F98D
:1014E0000020FFF79FFC00BF80BD00BF00C2EB0BD8
:1014F00080B592B000AF07F13C0300221A605A6039
:101500009A6007F1280300221A605A609A60DA6034
:101510001A6107F1180300221A605A609A60DA60B3
:101520003B4600221A605A609A60DA601A615A617A
:101530004FF48070FFF700FD0420FFF7CDFC022080
:10154000FFF7CAFC01233B6003237B6000233B6160
:101550003B46194684480AF050FE02233B600323B1
:101560007B6000233B613B4619467F480AF045FEFD
:1015700004233B6003237B6000233B613B46194609
:1015800079480AF03AFE08233B6003237B6000237E
:101590003B613B46194674480AF02FFE10233B601E
:1015A00003237B6000233B613B4619466E480AF0EB
:1015B00024FE20233B6003237B6000233B613B46EA
:1015C000194669480AF019FE01233B6003237B603A
:1015D00000233B613B46194664480AF00EFE022395
:1015E0003B6003237B6000233B613B4619465F4819
:1015F0000AF003FE002200215D48FFF795FA002261
:1016000000215B48FFF794F9002200215848FFF7BA
:1016100067FA4FF4807200215548FFF7ADF90022B8
:1016200000215348FFF7CCF94FF480620021504865
:10163000FFF7EAF94FF4006200214D48FFF708FA7E
:101640004FF4005200214A48FFF726FA002148488B
:10165000FFF78EFA0023FB6300233B644FF4807393
:101660007B6407F13C03194642480AF04DFC002315
:10167000BB624FF4E003FB6200233B6300237B6308
:101680004FF44073BB6307F12803194639480AF049
:1016900067FC00213748FFF7ECF84FF48033BB615B
:1016A0000023FB6107F11803194633480AF0E4FBF5
:1016B0000A224FF400712F48FFF7A5F801220A21F2
:1016C0002C48FFF7E9F82D4A40F205212948FFF799
:1016D0009AF8012229492748FFF7DEF8284A40F204
:1016E0000A212448FFF78FF8012225492148FFF7F6
:1016F000D3F8244A40F20F211E48FFF784F8012254
:1017000020491C48FFF7C8F81F4A4FF405711948D3
:10171000FFF779F801221C491648FFF7BDF81B4A6C
:1017200040F219211348FFF76EF8012217491148BA
:10173000FFF7B2F8164A4FF480710E48FFF763F8CE
:10174000012213490B48FFF7A7F8124A40F205118E
:101750000848FFF758F801220E490648FFF79CF8A1
:1017600000BF4837BD4680BD00080240000402406B
:101770000064024000200140002301400B003000C3
:101780000C0060000D0090000E00C0000F00F00083
:10179000080080030900B00380B58EB000AF07F1E8
:1017A0002C0300221A605A609A6007F11803002285
:1017B0001A605A609A60DA601A613B4600221A6029
:1017C0005A609A60DA601A615A614FF40070FFF74C
:1017D000B3FB0120FFF780FB04233B6003237B6006
:1017E00000233B613B4619463E480AF006FD0823AC
:1017F0003B6003237B6000233B613B46194639482D
:101800000AF0FBFC4FF0007202213748FFF78CF919
:10181000002202213448FFF78BF8002202213248CF
:10182000FFF75EF94FF4807202212F48FFF7A4F80A
:10183000002202212C48FFF7C3F84FF480620221F6
:101840002948FFF7E1F84FF4006202212648FFF72C
:10185000FFF84FF4005202212348FFF71DF902213F
:101860002148FFF785F90023FB6200233B634FF417
:1018700080737B6307F12C0319461C480AF044FB74
:101880000023BB614FF48013FB6100233B62002304
:101890007B624FF44073BB6207F11803194613488B
:1018A0000AF05EFB4FF480611048FEF7E2FF104A39
:1018B0004FF400710D48FEF7A6FF01220C490B48BA
:1018C000FEF7EAFF0B4A40F205210848FEF79BFFAE
:1018D000012208490548FEF7DFFF00BF3837BD4643
:1018E00080BD00BF000002400064024000210140B2
:1018F000030090020200600280B58EB000AF07F1D5
:101900002C0300221A605A609A6007F11803002223
:101910001A605A609A60DA601A613B4600221A60C7
:101920005A609A60DA601A615A614FF48060FFF77A
:1019300003FB0120FFF7D0FA02233B6003237B6007
:1019400000233B613B46194619480AF056FC002328
:10195000FB6200233B6300237B6307F12C031946E2
:1019600014480AF0D1FA0023BB610023FB61002375
:101970003B6200237B620023BB6207F11803194618
:101980000C480AF0EDFA4FF480610A48FEF771FF47
:10199000094A4FF400710748FEF735FF0022064957
:1019A0000448FEF779FF00BF3837BD4680BD00BF51
:1019B00000000240002201400100300280B58EB0DC
:1019C00000AF07F11C0300221A605A609A60DA60C7
:1019D0001A615A619A613B1D00221A605A609A602E
:1019E000DA601A615A614FF44030FFF7FFF90220C4
:1019F000FFF772FA40237B600223BB600323FB6086
:101A000001233B6100237B610423BB613B1D19461D
:101A100021480AF0F2FB80237B600223BB60032392
:101A2000FB6001233B6100237B610423BB613B1D01
:101A3000194619480AF0E1FB4FF40010FFF764FA69
:101A40001648FFF70DF9002200211448FFF7E0F8CF
:101A50001248FFF7F5F81148FFF7CAF80F48FFF7EB
:101A6000B7F80023FB610E4B3B6200237B6200232F
:101A7000BB620023FB6200233B6300237B6307F10F
:101A80001C03194605480AF0CFFC0448FFF790F8FC
:101A900000BF3837BD4680BD0004024000540040FE
:101AA000FF63106080B58EB000AF07F11C03002209
:101AB0001A605A609A60DA601A615A619A613B1D35
:101AC00000221A605A609A60DA601A615A614FF413
:101AD0004020FFF78BF90220FFF7FEF94FF48063F7
:101AE0007B600223BB600323FB6001233B61002377
:101AF0007B610423BB613B1D194621480AF07DFB35
:101B00004FF400637B600223BB600323FB6001236F
:101B10003B6100237B610423BB613B1D19461848D0
:101B20000AF06BFB4FF48000FFF7EEF91548FFF762
:101B300097F8002200211348FFF76AF81148FFF7D1
:101B40007FF81048FFF754F80E48FFF741F80023DC
:101B5000FB610D4B3B6200237B620023BB620023D1
:101B6000FB6200233B6300237B6307F11C031946E0
:101B700004480AF059FC00BF3837BD4680BD00BF9D
:101B80000004024000580040FFEAC00080B590B059
:101B900000AF07F118032822002118460CF028FD99
:101BA0003B4600221A605A609A60DA601A615A61F4
:101BB0004FF48050FFF7C0F90120FFF78DF9102393
:101BC0003B6002237B600323BB600023FB60002398
:101BD0003B6105237B613B46194630480AF00DFB0B
:101BE00020233B6002237B600323BB600023FB6058
:101BF00000233B6105237B613B46194627480AF0D9
:101C0000FCFA40233B6002237B600323BB6000237C
:101C1000FB6000233B6105237B613B4619461F485F
:101C20000AF0EBFA80233B6002237B600323BB6056
:101C30000023FB6000233B6105237B613B46194683
:101C400016480AF0DAFA0023BB614FF48273FB6195
:101C50004FF4E0633B6200237B620023BB620023FE
:101C6000FB6200233B6300237B630023BB630723EA
:101C7000FB6307F11803194609480AF0ADFF00217C
:101C80000748FFF7DBF90648FFF7EBF90448FFF7D1
:101C9000C5F900BF4037BD4680BD00BF000002400F
:101CA0000030014080B590B000AF07F11803282242
:101CB000002118460CF09CFC3B4600221A605A603A
:101CC0009A60DA601A615A614FF48040FFF71CF99C
:101CD0000220FFF701F94FF400533B6002237B60C1
:101CE0000323BB600023FB6000233B6105237B6172
:101CF0003B46194641480AF080FA4FF480433B6066
:101D000002237B600323BB600023FB6000233B6155
:101D100005237B613B46194638480AF06EFA4FF4BA
:101D200000433B6002237B600323BB600023FB6016
:101D300000233B6105237B613B4619462F480AF08F
:101D40005CFA4FF0905201212D48FEF7EDFE002283
:101D500001212B48FEF7ECFD4FF4403201212848C9
:101D6000FEF7BEFE4FF4807201212548FEF704FE07
:101D7000002201212248FEF723FE4FF48062012158
:101D80001F48FEF741FE4FF4006201211C48FEF798
:101D90005FFE4FF4005201211948FEF77DFE01213C
:101DA0001748FEF7E5FE0023BB614FF48273FB6129
:101DB0004FF470633B6200237B620023BB624FF4ED
:101DC0000073FB6200233B6300237B630023BB6340
:101DD0000723FB6307F1180319460A480AF0FCFEC3
:101DE00000210848FFF72AF90648FFF73AF90548A5
:101DF000FFF714F900BF4037BD4680BD0004024024
:101E0000006002400038004080B590B000AF07F19C
:101E100018032822002118460CF0EAFB3B4600225A
:101E20001A605A609A60DA601A615A614FF4004091
:101E3000FFF76AF80420FFF74FF84FF480633B6028
:101E400002237B600323BB600023FB6000233B6114
:101E500006237B613B46194628480AF0CEF94FF429
:101E600000633B6002237B600323BB600023FB60B5
:101E700000233B6106237B613B4619461F480AF05D
:101E8000BCF94FF480533B6002237B600323BB60AB
:101E90000023FB6000233B6106237B613B46194620
:101EA00016480AF0AAF90023BB614FF48273FB6164
:101EB0004FF4E0633B6200237B620023BB624FF47C
:101EC0000073FB6200233B6300237B630023BB633F
:101ED0000723FB6307F11803194609480AF07CFE43
:101EE00000210748FFF7AAF80548FFF7BAF80448A9
:101EF000FFF794F800BF4037BD4680BD00080240A0
:101F0000003C004080B590B000AF07F118032822D4
:101F1000002118460CF06CFB3B4600221A605A6008
:101F20009A60DA601A615A614FF40050FFF704F8C2
:101F30001020FEF7D1FF4FF480533B6002237B60FB
:101F40000323BB600023FB6000233B6105237B610F
:101F50003B46194628480AF050F94FF400533B60BD
:101F600002237B600323BB600023FB6000233B61F3
:101F700005237B613B4619461F480AF03EF94FF4A2
:101F800080433B6002237B600323BB600023FB6034
:101F900000233B6105237B613B46194616480AF046
:101FA0002CF90023BB614FF48273FB614FF4E063B3
:101FB0003B6200237B620123BB624FF40073FB6230
:101FC00020233B6300237B630023BB630723FB6366
:101FD00007F11803194609480AF0FEFD00210748D9
:101FE000FFF72CF80548FFF74CF80448FFF716F800
:101FF00000BF4037BD4680BD0010024000340140A4
:1020000080B590B000AF07F11803282200211846D0
:102010000CF0EEFA3B4600221A605A609A60DA60D1
:102020001A615A614FF40010FEF786FF0220FEF796
:1020300053FF08233B6002237B600323BB60002324
:10204000FB6000233B6108237B613B4619465748F0
:102050000AF0D3F810233B6002237B600323BB60AC
:102060000023FB6000233B6108237B613B4619464C
:102070004E480AF0C2F820233B6002237B60032312
:10208000BB600023FB6000233B6108237B613B4670
:10209000194646480AF0B1F84FF00072052144484D
:1020A000FEF742FD402205214148FEF741FC4FF476
:1020B000403205213E48FEF713FD002205213C4831
:1020C000FEF75AFC002205213948FEF779FC4FF44F
:1020D000806205213648FEF797FC0022052134482E
:1020E000FEF7B6FC002205213148FEF7D5FC05219C
:1020F0002F48FEF73DFD4FF0007206212C48FEF7F9
:1021000013FD002206212A48FEF712FC4FF440324C
:1021100006212748FEF7E4FC002206212448FEF7AA
:102120002BFC002206212248FEF74AFC4FF4806275
:1021300006211F48FEF768FC002206211C48FEF716
:1021400087FC002206211A48FEF7A6FC0621184843
:10215000FEF70EFD0023BB614FF48273FB614FF469
:10216000E0633B6200237B620023BB624FF4007399
:10217000FB6200233B6300237B630023BB630723D5
:10218000FB6307F1180319460A480AF025FD0021F0
:102190000848FEF753FF0748FEF763FF0548FEF7C0
:1021A0003DFF00BF4037BD4680BD00BF0004024078
:1021B000006402400054014080B586B000AF3B1D72
:1021C00000221A605A609A60DA601A610120FEF7F4
:1021D000B3FEFEF78FFA0346002200211846FEF7F1
:1021E000DFFA034619461920FEF7B0FA1920FEF768
:1021F0008FFA0023BB800023BB604FF6FF73FB60A8
:1022000000233B6100237B613B1D19460C480AF00B
:10221000D7FD0B48FEF745FF00210948FEF7F4FF04
:1022200000210748FFF706F800210548FFF715F8D9
:102230000348FFF725F800BF1837BD4680BD00BF33
:102240000000014080B586B000AF3B1D00221A603F
:102250005A609A60DA601A610120FEF755FEFEF7B7
:1022600049FA0346002202211846FEF799FA03466E
:1022700019461C20FEF76AFA1C20FEF749FA0023D3
:10228000BB800023BB604FF0FF33FB6000233B614A
:102290003B1D19464FF080400AF092FD4FF0804000
:1022A000FEF7FFFE00214FF08040FEF7ADFF00215A
:1022B0004FF08040FEF7BEFF4FF08040FEF7E0FF9A
:1022C00000BF1837BD4680BD80B594B000AF07F1A0
:1022D0003C0300221A605A609A60DA601A6107F1C2
:1022E0001C032022002118460CF082F93B1D00221D
:1022F0001A605A609A60DA601A615A610420FEF727
:1023000003FE0A23BB8700233B644CF250337B64FB
:102310004FF40073BB6407F13C03194655480AF0BB
:102320004FFD5448FEF7BDFE00215248FEF76CFFFA
:1023300001215048FEF718FF6023FB6100233B6238
:1023400000237B620023BB620023FB6207F11C03B6
:102350001A46012147480AF0CDFD01214548FEF704
:10236000B1FE10214348FEF7FFFE07F11C031A4699
:10237000102140480AF0BEFD10213E48FEF7A2FEA3
:102380004FF480713B48FEF7EFFE07F11C031A463D
:102390004FF4807137480AF0ADFD4FF48071354835
:1023A000FEF790FE4FF480513248FEF7DDFE07F154
:1023B0001C031A464FF480512E480AF09BFD4FF43F
:1023C00080512C48FEF77EFE00212A48FEF732FF9E
:1023D0002848FEF755FF0820FEF77EFD4FF4805396
:1023E0007B600223BB600023FB6000233B61002372
:1023F0007B610223BB613B1D19461F4809F0FDFEAE
:102400004FF400537B600223BB600023FB6000237A
:102410003B6100237B610223BB613B1D19461648CB
:1024200009F0EBFE4FF480437B600223BB60002386
:10243000FB6000233B6100237B610223BB613B1DEA
:1024400019460D4809F0D9FE4FF400437B60022382
:10245000BB600023FB6000233B6100237B61022300
:10246000BB613B1D1946044809F0C7FE00BF503749
:10247000BD4680BD00080040000C024080B58EB013
:1024800000AF07F11C0300221A605A609A60DA60FC
:102490001A615A619A613B1D00221A605A609A6063
:1024A000DA601A615A614FF04050FEF785FC4FF038
:1024B0008040FEF729FD1020FEF70EFD80237B6093
:1024C0000223BB600323FB6000233B6100237B618D
:1024D0000823BB613B1D1946214809F08EFE4FF4CD
:1024E00080737B600223BB600323FB6000233B619E
:1024F00000237B610823BB613B1D1946184809F086
:102500007CFEFEF7F7F8034600220B211846FEF783
:1025100047F9034619465220FEF718F95220FEF7F4
:10252000F7F84FF4E133FB6100233B6200237B6249
:102530000023BB620C23FB6200233B6300237B630D
:1025400007F11C03194607480AF0F4FF0548FEF797
:1025500002FF0448FEF7A4FE00BF3837BD4680BD29
:10256000001002400078004080B58EB000AF07F147
:102570001C0300221A605A609A60DA601A615A617C
:102580009A613B1D00221A605A609A60DA601A61F3
:102590005A614FF44030FEF7F5FB1020FEF7CCFCFB
:1025A0000120FEF799FC4FF400737B600223BB60AF
:1025B0000323FB6000233B6100237B610723BB6196
:1025C0003B1D19462A4809F018FE4FF480637B60D2
:1025D0000223BB600323FB6000233B6100237B617C
:1025E0000723BB613B1D1946214809F006FE4FF445
:1025F00080537B600223BB600323FB6000233B61AD
:1026000000237B610723BB613B1D1946184809F075
:10261000F4FD4FF4E133FB6100233B6200237B6256
:102620000023BB620C23FB6200233B6300237B631C
:1026300007F11C0319460F480AF07CFF0D48FEF70E
:1026400067FE00210B48FEF773FE00210948FEF7E4
:102650004BFE00210748FEF733FE0648FEF77BFEDF
:102660000448FEF71DFE00BF3837BD4680BD00BFE1
:10267000000002400010014080B58EB000AF07F1AD
:102680001C0300221A605A609A60DA601A615A616B
:102690009A613B1D00221A605A609A60DA601A61E2
:1026A0005A614FF04060FEF76DFB2020FEF744FCBE
:1026B0000420FEF711FC40237B600223BB60032350
:1026C000FB6000233B6100237B610823BB613B1D52
:1026D0001946214809F091FD80237B600223BB60ED
:1026E0000323FB6000233B6100237B610823BB6164
:1026F0003B1D1946184809F080FDFDF7FBFF034616
:1027000000220B211846FEF74BF8034619464720D6
:10271000FEF71CF84720FDF7FBFF4FF46123FB6138
:1027200000233B6200237B620023BB620C23FB621D
:1027300000233B6300237B6307F11C031946074812
:102740000AF0F8FE0548FEF706FE0448FEF7A8FD6D
:1027500000BF3837BD4680BD00080240001401406C
:1027600080B500AF4FF48000FEF7B6FB4FF40010C9
:10277000FEF7B2FBFDF7BEFF03460022002118461C
:10278000FEF70EF8034619460C20FDF7DFFF0C207C
:10279000FDF7BEFFFDF7AEFF034600220A211846F3
:1027A000FDF7FEFF034619463820FDF7CFFF38201E
:1027B000FDF7AEFFFDF79EFF034600220A211846F3
:1027C000FDF7EEFF034619463A20FDF7BFFF3A201A
:1027D000FDF79EFFFDF78EFF0346002209211846F4
:1027E000FDF7DEFF034619464420FDF7AFFF442006
:1027F000FDF78EFFFDF77EFF0346002201211846FC
:10280000FDF7CEFF034619464520FDF79FFF452003
:10281000FDF77EFF00BF80BD80B586B000AF3B46B0
:1028200000221A605A609A60DA601A615A611020B8
:10283000FEF752FB0420FEF74FFB8020FEF74CFB17
:102840000120FEF749FB0220FEF746FB0820FEF7B9
:1028500043FB0421BF48FEF7A2FD0821BD48FEF757
:102860009EFD1021BB48FEF79AFD2021B948FEF7D6
:1028700096FD4021B748FEF792FD4FF40051B6484F
:10288000FEF78DFD4FF48041B348FEF788FD4FF40D
:102890000041B148FEF783FD4FF40061AD48FEF7FB
:1028A0007EFD4FF40061AD48FEF779FD4FF4004125
:1028B000AA48FEF774FD0121A948FEF770FD022128
:1028C000A748FEF76CFD1021A548FEF768FD202102
:1028D000A348FEF764FD4021A148FEF760FD0421F6
:1028E000A048FEF74EFD4FF480619A48FEF749FD7F
:1028F0004FF400419748FEF744FD4FF4805199484A
:10290000FEF73FFD4FF480719548FEF73AFD4FF416
:1029100000719348FEF735FD4FF480619048FEF753
:1029200030FD04218E48FEF72CFD80218C48FEF7F7
:1029300028FD4FF480718B48FEF723FD4FF40071A2
:102940008848FEF71EFD01218248FEF71AFD02218C
:102950008048FEF716FD04233B6001237B600023C3
:10296000BB600023FB6000233B613B46194679486E
:1029700009F043FC08233B6001237B600023BB601C
:102980000023FB6000233B613B461946714809F078
:1029900034FC10233B6001237B600023BB600023D9
:1029A000FB6000233B613B4619466A4809F025FC61
:1029B00020233B6001237B600023BB600023FB607E
:1029C00000233B613B461946624809F016FC402350
:1029D0003B6001237B600023BB600023FB6000237E
:1029E0003B613B4619465B4809F007FC4FF4005336
:1029F0003B6001237B600023BB600023FB6000235E
:102A00003B613B461946544809F0F7FB4FF48043BD
:102A10003B6001237B600023BB600023FB6000233D
:102A20003B613B4619464C4809F0E7FB4FF4004335
:102A30003B6001237B600023BB600023FB6000231D
:102A40003B613B461946444809F0D7FB04233B60F1
:102A500001237B600023BB600023FB6000233B61FC
:102A60003B4619463F4809F0C8FB4FF480633B6082
:102A700001237B600023BB600023FB6000233B61DC
:102A80003B461946334809F0B8FB4FF400633B60FE
:102A900001237B600023BB600023FB6000233B61BC
:102AA0003B4619462B4809F0A8FB4FF400433B6016
:102AB00001237B600023BB600023FB6000233B619C
:102AC0003B461946234809F098FB4FF480533B607E
:102AD00001237B600023BB600023FB6000233B617C
:102AE0003B4619461F4809F088FB4FF480733B6052
:102AF00001237B600323BB600023FB6000233B6159
:102B00003B461946164809F078FB4FF400733B60CA
:102B100001237B600323BB600023FB6000233B6138
:102B20003B4619460E4809F068FB4FF480633B6052
:102B300001237B600323BB600023FB6000233B6118
:102B40003B461946064809F058FB4FF400633B60CA
:102B50000AE000BF001002400008024000000240EE
:102B6000000C02400004024000237B6000233B6114
:102B70003B4619467E4809F040FB4FF480733B60AA
:102B800000237B6000233B613B461946794809F0EE
:102B900034FB4FF400733B6000237B6000233B61F8
:102BA0003B461946734809F028FB4FF480733B609D
:102BB00000237B6000233B613B4619466E4809F0C9
:102BC0001CFB4FF400633B6001237B600023BB6070
:102BD0000023FB6000233B613B461946664809F031
:102BE0000CFB4FF400433B6001237B600023BB6080
:102BF0000023FB6000233B613B4619465E4809F019
:102C0000FCFA01233B6001237B600023BB600023AF
:102C1000FB6000233B613B461946554809F0EDFA3D
:102C200002233B6001237B600023BB600023FB6029
:102C300000233B613B4619464D4809F0DEFA042368
:102C40003B6001237B600023BB600023FB6000230B
:102C50003B613B461946464809F0CFFA08233B60E2
:102C600000237B6000233B613B461946404809F046
:102C7000C4FA10233B6001237B600023BB60002368
:102C8000FB6000233B613B461946394809F0B5FA21
:102C900020233B6001237B600023BB600023FB609B
:102CA00000233B613B461946314809F0A6FA402310
:102CB0003B6001237B600023BB600023FB6000239B
:102CC0003B613B4619462A4809F097FA80233B604E
:102CD00001237B600023BB600023FB6000233B617A
:102CE0003B461946224809F088FA4FF480733B604E
:102CF00001237B600023BB600023FB6000233B615A
:102D00003B4619461D4809F078FA4FF400733B60C2
:102D100001237B600023BB600023FB6000233B6139
:102D20003B461946154809F068FA01233B60012328
:102D30007B600023BB600023FB6000233B613B46BC
:102D400019460F4809F059FA02233B6001237B60C2
:102D50000023BB600023FB6000233B613B46194618
:102D6000074809F04AFA00BF1837BD4680BD00BFCA
:102D7000000C024000080240000002400004024033
:102D80000010024080B400AF00BFFDE780B400AF88
:102D900000BFFDE780B400AF00BFFDE780B400AF27
:102DA00000BFFDE780B400AF00BFFDE780B400AF17
:102DB00000BFBD465DF8047B704780B400AF00BF24
:102DC000BD465DF8047B704780B400AF00BFBD46D0
:102DD0005DF8047B704780B500AF08F0D9FF00BFF5
:102DE00080BD80B400AF01231846BD465DF8047B6A
:102DF000704780B582B000AF786039600BF058FC46
:102E0000034616221A604FF0FF3318460837BD46B6
:102E100080BD80B582B000AF78604FF0FF31786838
:102E2000FFF7E7FF00BFFDE780B586B000AFF860B1
:102E3000B9607A6000237B610AE0AFF3008001464D
:102E4000BB685A1CBA60CAB21A707B6901337B61D5
:102E50007A697B689A42F0DB7B6818461837BD4672
:102E600080BD80B586B000AFF860B9607A6000239D
:102E70007B6109E0BB685A1CBA601B781846AFF347
:102E800000807B6901337B617A697B689A42F1DB60
:102E90007B6818461837BD4680BD80B483B000AF4C
:102EA00078604FF0FF3318460C37BD465DF8047B61
:102EB000704780B483B000AF786039603B684FF4EE
:102EC00000525A60002318460C37BD465DF8047B5B
:102ED000704780B483B000AF7860012318460C3788
:102EE000BD465DF8047B704780B485B000AFF860E4
:102EF000B9607A60002318461437BD465DF8047B3C
:102F00007047000080B586B000AF7860144A154B5A
:102F1000D31A7B617B693B61134B1B68002B02D189
:102F2000114B124A1A60104B1A687B6813443A69B5
:102F30009A4207D20BF0BCFB03460C221A604FF0FA
:102F4000FF3309E0084B1B68FB60074B1A687B687E
:102F50001344054A1360FB6818461837BD4680BD08
:102F60000000082000040000A4430020480D0120B8
:102F700080B400AF064BD3F88830054A43F47003A1
:102F8000C2F8883000BFBD465DF8047B704700BFC3
:102F900000ED00E0DFF834D0FFF7EAFF0C480D4900
:102FA0000D4A002302E0D458C4500433C4188C42A4
:102FB000F9D30A4A0A4C002301E013600432A2420A
:102FC000FBD30BF07BFBFEF7F9F9704700000820FC
:102FD000000000208843002030230108884300209F
:102FE000440D0120FEE780B582B000AF7860396003
:102FF00003F07AFF03F0A6FE7B6814330A220A214D
:10300000184608F081FE00BF0837BD4680BD0000AD
:1030100080B584B002AF786039607B68002B03D143
:1030200000210E4803F0BEFA78683B685A683B6896
:103030009B68009313460A4A0A4908F0D7FD7B684B
:1030400014337A681521184608F03CFE3B681A686C
:103050007B685A6200BF0837BD4680BD6C1A010804
:10306000CD300008E72F000880B586B002AF0223FC
:103070000093042308220949094808F03BFB094A48
:103080003B1D07CA83E807003B1D19460648FFF7AA
:10309000BFFF00BF1037BD4680BD00BFE843002022
:1030A000F043002080050108A843002080B582B0CD
:1030B00000AF0346FB71FB791946034808F0B0FDE9
:1030C00000BF0837BD4680BDA843002090B585B03D
:1030D00000AF786039603B681B88152B06D0152B34
:1030E00035DC132B08D0142B1DD030E003F006FF85
:1030F00003F06CFE01232BE00023FB730EE0FB7B4F
:10310000FC7B184603F000FF034619467B6804F178
:10311000140223F81210FB7B0133FB73FB7B072B9C
:10312000EDD9012314E00023BB730DE0BB7B1846EF
:1031300003F0F4FD0346BA7B19B27B681C3223F816
:103140001210BB7B0133BB73BB7B012BEED9022377
:1031500018461437BD4690BD80B483B000AF786088
:10316000054A7B681C3332F9133018460C37BD46CC
:103170005DF8047B704700BFA843002080B483B093
:1031800000AF7860054A7B68143332F91330184673
:103190000C37BD465DF8047B704700BFA843002094
:1031A00080B500AF01F00AFF02F06AFBFFF75CFF99
:1031B00000F08AF800BF80BD80B500AF012000F0AC
:1031C000A5F8042001F02CFF022002F07FFB032071
:1031D000FFF76CFF00BF80BD80B500AF08F0B8FC02
:1031E00000BF80BD80B582B000AF7860396003F069
:1031F000D7FC04F0AFFC04F05DF97B68012283F892
:1032000055207B68002283F85A2000BF0837BD464E
:1032100080BD000080B584B000AF786039607B6805
:103220005B69FB607B685B6939687868984703462F
:10323000FB72FB7A002B08D1FB6806497868984737
:103240007B685B6904497868984700BF1037BD46C2
:1032500080BD00BF9C1A0108881A010880B584B09F
:1032600002AF786039607B68002B03D100211348DE
:1032700003F098F978683B685A683B689B6800934C
:1032800013460F4A0F4908F0B1FC3B681A687B6887
:103290005A617B6818337A681621184608F012FDC7
:1032A0007B681833184608F04FFD3B681A7B7B6833
:1032B00083F8502000BF0837BD4680BD781A01084A
:1032C00015320008E531000890B587B002AF12232F
:1032D0000093022324220949094808F00BFA094BFC
:1032E0003C460FCB84E80F003B4619460648FFF7E3
:1032F000B5FF00BF1437BD4690BD00BF98640020E5
:10330000BC6400208C0501080C44002080B582B00C
:1033100000AF0346FB71FB791946034808F080FCB7
:1033200000BF0837BD4680BD0C44002080B582B088
:1033300000AF786039603B681B88182B12D0182BBF
:1033400015DC012B02D0172B07D010E07B68183357
:10335000184608F0F9FC01230AE07B68064A5A6126
:10336000002305E07B68054A5A61002300E0022340
:1033700018460837BD4680BD813300084535000832
:1033800080B58CB002AF786039603B681B88013B28
:103390001A2B00F2C58001A252F823F0093400086C
:1033A0002135000887340008213500082135000840
:1033B0002135000821350008213500082135000895
:1033C0002135000821350008213500082135000885
:1033D0002135000821350008213500082135000875
:1033E0002135000821350008213500082135000865
:1033F0000F350008213500082135000895340008F4
:10340000B5340008D5340008484B3B628423009350
:10341000474B3A6A4749484808F0E2F87B68183356
:10342000002244F62061184608F06EFC7B6893F891
:103430002A301946786800F044FA786800F05AFAA1
:103440007B68DB6AFB607B681B6B3B617B685B6B4B
:103450007B617B681B8DBB617B6893F82A30FB61C5
:103460007B6893F82B30184603F004FC07F10C033B
:10347000184603F0E7FF04F0D1F97B68002283F8D7
:10348000502001234DE07B681833184608F05CFC9F
:10349000012346E07B6893F85030002B04D17B6811
:1034A000012283F8502003E07B68032283F8502038
:1034B000012336E07B6893F85030012B04D17B6800
:1034C000022283F8502003E07B68032283F8502017
:1034D000012326E07B6893F85030022B04D17B68EF
:1034E000052283F8502003E07B68032283F85020F4
:1034F0000E4B7B62BC2300930D4B7A6A0F490E483A
:1035000008F06EF87B680E4A5A61002309E07B6878
:10351000042283F850207B68094A5A61002300E0A6
:10352000022318462837BD4680BD00BF9C05010810
:10353000A4050108CC050108B0650020EC050108D0
:103540002D33000880B582B000AF786039603B68E9
:103550001B88013B1D2B00F2A88001A252F823F02A
:10356000D9350008AB360008AB360008AB3600088A
:10357000AB360008AB360008AB360008AB360008A7
:10358000AB360008AB360008AB360008AB36000897
:10359000AB360008AB360008AB360008AB36000887
:1035A000AB360008AB360008AB360008AB36000877
:1035B000AB360008AB360008AB360008AB36000867
:1035C000AB360008AB360008AB3600082D360008D5
:1035D00047360008FF3500087B681833184608F0A6
:1035E000B3FB7B689B6C334A93607B685B6C314AAE
:1035F00053603149314808F03DFB012356E02D4B23
:103600009B68B3F5805F28BF4FF480539AB22C4B70
:103610001A80284B5B685B00294A128852001146C9
:10362000284A184604F0C8FA01233FE0264B1868E0
:10363000234B1B881A467B6893F84D30214902F0D2
:103640005FF8012332E01B4B9B681D4A12889B1ACE
:10365000184A9360174B5B68194A12881344154A3D
:103660005360144B9B68002B16D0124B9B68B3F52C
:10367000805F28BF4FF480539AB2114B1A800D4BD4
:103680005B685B000E4A1288520011460D4A1846CC
:1036900004F092FA012309E00C49084808F0EAFA1C
:1036A0007B680B4A5A61002300E002231846083762
:1036B000BD4680BD70440020D81A01081065002066
:1036C000806400208044002004000020DC1A0108EF
:1036D0002D33000880B584B000AFF860B9607A601F
:1036E000FB70FB687A681A64FB68BA685A64FB6806
:1036F0007A689A64FB68FA7883F84D20074B1B6858
:103700004FF6FF72A3F84220FB680549184608F0FF
:10371000B1FA002318461037BD4680BD04000020D2
:10372000C41A010880B582B000AF78607B68DA6D9A
:103730007B681A647B6800225A647B68DA6D7B6858
:103740009A647B68012283F84D20084B1B684FF672
:10375000FF72A3F842207B680549184608F08AFAF0
:10376000002318460837BD4680BD00BF0400002076
:10377000C41A010880B584B000AFF860B9607A60FF
:10378000BB68012B02D87B68642B01D9062318E0A3
:10379000FB6893F85530002B06D0002003F0BCF9ED
:1037A000FB68002283F855207968B86803F0A2FA14
:1037B0007B68D9B2FA68BB68134451330A461A7061
:1037C000002318461037BD4680BD80B582B000AFDB
:1037D000786039603B68242B01D9062314E07B68AC
:1037E00093F85530012B06D0012003F095F97B6842
:1037F000012283F85520386803F008FA3B68DAB2F2
:103800007B6883F85320002318460837BD4680BDE7
:1038100080B582B000AF78607B6893F85530012B9B
:1038200006D0012003F078F97B68012283F8552047
:1038300003F0FCF97B68FF2283F85320002318462D
:103840000837BD4680BD80B582B000AF7860396072
:103850003B68082B01D9062314E07B6893F85530A8
:10386000012B06D0012003F057F97B68012283F871
:103870005520386803F0E4F93B68DAB27B6883F8D6
:103880005420002318460837BD4680BD80B582B05D
:1038900000AF78607B6893F85530012B06D001208B
:1038A00003F03AF97B68012283F8552003F0D8F938
:1038B0007B68FF2283F85420002318460837BD4652
:1038C00080BD80B582B000AF786039603B68242B42
:1038D00001D906230AE003F07DFE386803F0A2FE5A
:1038E0003B68DAB27B6883F8562000231846083715
:1038F000BD4680BD80B582B000AF786003F07EFE2B
:10390000002318460837BD4680BDB0B483B000AF71
:10391000786039603B681B88002B04D03B681B88AB
:10392000B3F57A7F01D9062328E03B689B78002B0A
:1039300003D03B689B78242B01D906231EE03B680B
:10394000DB78642B01D9062318E03B681B69B3F5CB
:10395000006F01D9062311E03B685B69002B01D1A0
:1039600006230BE07B683A6803F1280415460FCD67
:103970000FC495E8030084E80300002318460C37C1
:10398000BD46B0BC7047B0B483B000AF786039605A
:103990003A687B68154603F128040FCC0FC594E8FC
:1039A000030085E8030000BF0C37BD46B0BC70477C
:1039B00080B584B000AF78607B682833FB60FB681B
:1039C0001B88002B04D0FB681B88B3F57A7F01D9D4
:1039D00006231CE0FB689B78002B03D0FB689B78D8
:1039E000242B01D9062312E0FB68DB78642B01D974
:1039F00006230CE0FB681B69B3F5006F01D90623B1
:103A000005E07B680449184608F034F9002318469D
:103A10001037BD4680BD00BFB01A010880B500AFA9
:103A2000054BDB69184607F010FE034BDB691846AF
:103A300007F02DFE00BF80BDD864002080B400AF29
:103A4000BFF34F8F00BF064BDB6803F4E06204490D
:103A5000044B1343CB60BFF34F8F00BF00BFFDE7A4
:103A600000ED00E00400FA0580B588B000AFF86012
:103A7000B9607A6007F11403074A0A2118460AF070
:103A800031FC07F114031946F86806F0C9F900BFC4
:103A90002037BD4680BD00BFFC0E010880B584B054
:103AA00000AFF860B9607A60FFF7C8FF80B588B0F2
:103AB00000AFF860B9607A600023BB610023FB822D
:103AC000B86806F09DFA03467B757B7D012B04D018
:103AD0002E49F86807F0C4FB54E00121B86806F0ED
:103AE00059FA38613B691B78612B22D10023FB779F
:103AF0001BE0FB7F1846FFF741FB0346FB82B7F94B
:103B0000163013F5004F06D1FB7F1A462049F8689E
:103B100007F0A6FB06E0FA7FB7F916301D49F868F2
:103B200007F09EFBFB7F0133FB77FB7F072BE0D980
:103B300028E03B691B782F2B20D93B691B78372B5A
:103B40001CD8386909F0F4FD0346BB61B869FFF77A
:103B500015FB0346FB82B7F9163013F5004F05D16C
:103B6000BA690B49F86807F07BFB0BE0B7F9163030
:103B7000BA690849F86807F073FB03E00649F8687A
:103B800007F06EFB2037BD4680BD00BF040F010863
:103B9000240F0108380F01084C0F010880B588B0C8
:103BA00000AFF860B9607A60B86806F029FA034699
:103BB000FB61FB69012B04D01549F86807F050FB45
:103BC00023E0144B1B68184602F0EAF9034683F021
:103BD0000103DBB2002B04D00F49F86807F040FB6B
:103BE00013E00121B86806F0D5F9B861B86909F0A9
:103BF0009FFD03467B61074B1B687969184602F0FD
:103C00008EFC0649F86807F02BFB2037BD4680BDC7
:103C1000040F010808000020600F0108AC0F010824
:103C200080B584B000AFF860B9607A600A4B1B6859
:103C3000184602F08DFC0346002B04D00749F868B3
:103C400007F00EFB03E00649F86807F009FB00BF28
:103C50001037BD4680BD00BF08000020AC0F010832
:103C6000B40F010880B588B000AFF860B9607A6021
:103C7000B86806F0C5F90346BB61BB69012B04D0E7
:103C80003849F86807F0ECFA69E0374B1B681846CA
:103C900002F086F9034683F00103DBB2002B04D067
:103CA0003249F86807F0DCFA59E00121B86806F0FB
:103CB00071F9786100233B617B691B78612B25D109
:103CC0000023FB611EE0284B1B68F969184602F0CF
:103CD00022F938613B69002B0CD1234B1B68002271
:103CE000F969184602F037F9FA692149F86807F0CE
:103CF000B7FA04E0FA691F49F86807F0B1FAFB69FE
:103D00000133FB61FB69032BDDD928E07B691B785C
:103D10002F2B24D97B691B78332B20D8786909F0A5
:103D200007FD0346FB61104B1B68F969184602F05A
:103D3000F2F838613B69002B0CD10B4B1B68002259
:103D4000F969184602F007F9FA690949F86807F0B5
:103D500087FA04E0FA690749F86807F081FA203722
:103D6000BD4680BD040F010808000020BC0F0108FB
:103D7000041001081810010880B588B000AFF86081
:103D8000B9607A60B86806F03BF90346FB61FB69ED
:103D9000012B04D01549F86807F062FA22E00121EE
:103DA000B86806F0F7F8B861B86909F0C1FC0346D5
:103DB000FB82FB8AB3F5FA7F04D3FB8A40F6B83264
:103DC000934204D90A49F86807F04AFA0AE0094B15
:103DD0001B68FA8A1146184602F051FA0649F8683B
:103DE00007F03EFA2037BD4680BD00BF3010010805
:103DF0005810010808000020AC0F010880B586B0FB
:103E000000AFF860B9607A60084B1B68184601F093
:103E100072FF0346FB82FB8A1A460549F86807F0E1
:103E20001FFA00BF1837BD4680BD00BF0800002044
:103E30008C10010880B588B000AFF860B9607A6076
:103E4000B86806F0DDF80346BB61BB69042B04D0FB
:103E50003149F86807F004FA5BE0304B1B681846FC
:103E600002F0A2F90346FB750023FB614AE0FB69FF
:103E70009BB201339BB21946B86806F08BF8034633
:103E8000184609F055FC0346D9B207F11002FB6948
:103E900013440A461A7007F11002FB6913441B7899
:103EA000012B05D9FA691E49F86807F0D9F930E005
:103EB00007F11002FB6913441B78002B08D1174B44
:103EC0001B68FA69D2B21146184602F0A8F916E04A
:103ED000FB7DFA699A4205D1FA691249F86807F040
:103EE000BFF90CE00D4B1B68FA69D2B211461846B7
:103EF00002F074F9FA690C49F86807F0B1F9FB6946
:103F00000133FB61FB69032BB1D90849F86807F05D
:103F1000A7F92037BD4680BDB01001080800002079
:103F2000D4100108FC10010820110108AC0F010891
:103F300080B586B000AFF860B9607A60134B1B683B
:103F4000184602F08FF90346FB7400237B6115E0ED
:103F5000FA7C7B6942FA03F303F00103002B05D0DE
:103F60007A690B49F86807F07BF904E07A69094936
:103F7000F86807F075F97B6901337B617B69032B76
:103F8000E6D900BF00BF1837BD4680BD080000203D
:103F9000201101083811010880B58CB000AFF8601D
:103FA000B9607A60354B1B68184601F0F9FF03468B
:103FB00083F00103DBB2002B04D03149F86807F02D
:103FC0004FF958E0B86806F01BF80346FB62FB6A3D
:103FD000032B04D02B49F86807F042F94BE001218C
:103FE000B86805F0D7FFB862B86A09F0A1FB0346CC
:103FF0007B627B6A032B04D92349F86807F030F908
:1040000039E00221B86805F0C5FF3862386A09F066
:104010008FFB0346FB61FB69012B04D91B49F86840
:1040200007F01EF927E00321B86805F0B3FFB86177
:10403000B86909F07DFB0346FB82FB8A40F6B83283
:10404000934204D91249F86807F00AF913E00B4BC0
:104050001868FB8AFA69796A02F0E1F938613B690C
:10406000002B04D00B49F86807F0FAF803E00A497E
:10407000F86807F0F5F83037BD4680BD080000202D
:104080005011010874110108A0110108C4110108A0
:10409000E8110108B40F0108AC0F010880B58AB01F
:1040A00000AFF860B9607A602A4B1B68184601F0CF
:1040B00077FF034683F00103DBB2002B04D02649CF
:1040C000F86807F0CDF841E0B86805F099FF0346BD
:1040D0007B627B6A022B04D02049F86807F0C0F8A5
:1040E00034E00121B86805F055FF3862386A09F0FC
:1040F0001FFB0346FB61FB69032B04D91849F868D1
:1041000007F0AEF822E00221B86805F043FFB8617D
:10411000B86909F00DFB03467B610E4B18687B699B
:10412000002B14BF01230023DBB21A46F96901F00A
:1041300012FF38613B69002B04D00A49F86807F088
:104140008FF803E00849F86807F08AF82837BD4679
:1041500080BD00BF080000205011010814120108A2
:10416000A0110108B40F0108AC0F010880B58AB096
:1041700000AFF860B9607A60B86805F041FF0346A7
:104180003B623B6A022B04D03549F86807F068F8B7
:1041900062E00121B86805F0FDFEF861314B1B6853
:1041A000184602F05FF80346FB76FB691B786F2B1D
:1041B00007D1042387F827302B49F86807F050F817
:1041C0001EE0FB691B782F2B1AD9FB691B78332B58
:1041D00016D8F86909F0ACFA034687F82730FA7E5A
:1041E00097F8273042FA03F303F00103002B07D0BE
:1041F00097F827301A461D49F86807F031F82BE088
:104200000221B86805F0C6FE7861786909F090FA75
:1042100003463B613B69B3F5FA7F04D33B6940F643
:10422000B832934204D91249F86807F019F813E03C
:104230000C4B1B6897F827201146184601F0C4FE66
:10424000084B1B683A6992B21146184601F0D2FE3B
:104250000849F86807F004F82837BD4680BD00BF5C
:1042600034120108080000205C12010874120108D1
:1042700058100108AC0F010880B584B000AFF86099
:10428000B9607A60064B1B68184601F0D6FE0549F6
:10429000F86806F0E5FF00BF1037BD4680BD00BFDF
:1042A00008000020AC0F010880B584B000AFF860B2
:1042B000B9607A60064B1B68184601F04FFF05494C
:1042C000F86806F0CDFF00BF1037BD4680BD00BFC7
:1042D00008000020AC0F010880B586B000AFF86080
:1042E000B9607A600F4B1B68184601F05DFF03460A
:1042F000FB750C4B1B68184601F063FF0346BB823D
:10430000FB7D042B04D10849F86806F0A9FF05E0FD
:10431000FA7DBB8A0549F86806F0A2FF1837BD464A
:1043200080BD00BF080000205C120108981201083F
:1043300080B588B000AFF860B9607A60B86805F001
:104340005FFE0346FB61FB69012B04D01249F8684C
:1043500006F086FF1CE00121B86805F01BFEB8617D
:10436000B86909F0E5F90346FB75FB7D642B04D9B8
:104370000A49F86806F074FF0AE0094B1B68FA7DE9
:104380001146184601F097FF0649F86806F068FFE5
:104390002037BD4680BD00BFC4120108E8120108E5
:1043A00008000020AC0F010880B586B000AFF860AF
:1043B000B9607A60084B1B68184601F092FF03460B
:1043C000FB75FB7D1A460549F86806F049FF00BFFA
:1043D0001837BD4680BD00BF080000200C1301083F
:1043E00080B588B000AFF860B9607A60B86805F051
:1043F00007FE0346BB61BB69042B04D02649F8685D
:1044000006F02EFF45E00023FB613BE0FB699BB219
:1044100001339BB21946B86805F0BCFD0346184647
:1044200009F086F90346D9B207F11402FB69134477
:104430000A461A7007F11402FB6913441B78012B1A
:1044400005D9FA691549F86806F00AFF21E007F175
:104450001402FB6913441B78002B08D1104B1B6816
:10446000FA69D2B21146184601F069FF07E00C4B19
:104470001B68FA69D2B21146184601F03FFFFB698A
:104480000133FB61FB69032BC0D90649F86806F0CC
:10449000E7FE2037BD4680BD28130108D41001086F
:1044A00008000020AC0F010880B586B000AFF860AE
:1044B000B9607A60124B1B68184601F063FF03462F
:1044C000FB7400237B6113E0FA7C7B6942FA03F3FF
:1044D00003F00103002B04D00A49F86806F0C0FE7F
:1044E00003E00949F86806F0BBFE7B6901337B6194
:1044F0007B69032BE8D900BF00BF1837BD4680BDDC
:1045000008000020501301086813010880B588B026
:1045100000AFF860B9607A60B86805F071FD0346D5
:10452000FB61FB69012B04D00E49F86806F098FE88
:1045300015E00121B86805F02DFDB861B86909F0F2
:10454000F7F80346FB82084B1B68B7F916201146A3
:10455000184601F03AFF0549F86806F081FE203759
:10456000BD4680BD8413010808000020AC0F01087F
:1045700080B586B000AFF860B9607A600E4B1B68FA
:10458000184601F032FF0346FB82B7F9163007EEFA
:10459000903AB8EEE77AF2EE046AC7EE267AB7EE02
:1045A000E77A53EC172B0549F86806F059FE00BF6F
:1045B0001837BD4680BD00BF08000020AC130108BD
:1045C00080B588B000AFF860B9607A60B86805F06F
:1045D00017FD0346FB61FB69012B04D01249F86803
:1045E00006F03EFE1DE00121B86805F0D3FCB8617D
:1045F000B86909F09DF803467B617B69072B04D9F4
:104600000A49F86806F02CFE0BE0094B1B687A6932
:10461000D2B21146184601F0C2FE0649F86806F00B
:104620001FFE2037BD4680BDD0130108E8130108E6
:1046300008000020AC0F010880B586B000AFF8601C
:10464000B9607A600023FB75084B1B68184601F0BF
:10465000D9FE0346FB75FB7D1A460549F86806F04E
:10466000FFFD00BF1837BD4680BD00BF0800002019
:104670000814010880B584B000AFF860B9607A60B2
:10468000064B1B68184601F043FB0549F86806F025
:10469000E7FD00BF1037BD4680BD00BF0800002009
:1046A000AC0F010880B584B000AFF860B9607A60E3
:1046B000064B1B68184601F047FB0549F86806F0F1
:1046C000CFFD00BF1037BD4680BD00BF08000020F1
:1046D000AC0F010880B588B000AFF860B9607A60AF
:1046E000B86805F08DFC0346FB61FB69012B04D023
:1046F0001349F86806F0B4FD1EE00121B86805F022
:1047000049FCB861B86909F013F80346FB82B7F9B0
:104710001630642B04DD0B49F86806F0A1FD0BE0B0
:10472000094B1B68B7F9162000211846FFF722F83D
:104730000649F86806F094FD2037BD4680BD00BFED
:1047400018140108401401080C000020AC0F0108E7
:1047500080B588B000AFF860B9607A60B86805F0DD
:104760004FFC0346FB61FB69012B04D01349F86839
:1047700006F076FD1EE00121B86805F00BFCB8617B
:10478000B86908F0D5FF0346FB82B7F91630642BF1
:1047900004DD0B49F86806F063FD0BE0094B1B686C
:1047A000B7F9162001211846FEF7E4FF0649F8681C
:1047B00006F056FD2037BD4680BD00BF64140108D9
:1047C000401401080C000020AC0F010880B588B02F
:1047D00000AFF860B9607A600023BB83B86805F069
:1047E0000FFC0346FB76FB7E012B04D02749F868BB
:1047F00006F036FD46E00121B86805F0CBFB786194
:104800007B691B78612B1AD10023FB7713E0FB7FB8
:104810001846FEF7A1FC0346BB83FB7F002B01D1AA
:104820001B4A00E01B4ABB8B1B49F86806F018FDC9
:10483000FB7F0133FB77FB7F012BE8D922E07B690B
:104840001B782F2B1AD97B691B78312B16D87869E6
:1048500008F06EFF0346FB74FB7C1846FEF77CFCF9
:104860000346BB83FB7C002B01D1094A00E0094AC7
:10487000BB8B0949F86806F0F3FC03E00749F868C8
:1048800006F0EEFC2037BD4680BD00BF040F0108D6
:10489000AC140108B0140108B41401084C0F01084D
:1048A00080B588B000AFF860B9607A60B86805F08C
:1048B000A7FB0346FB61FB69012B04D01349F86891
:1048C00006F0CEFC1EE00121B86805F063FBB8617C
:1048D000B86908F02DFF78617B69242B02DC7B69C5
:1048E000002B04DC0A49F86806F0BAFC0AE0094B20
:1048F0001B687A6911461846FEF767FF0649F86893
:1049000006F0AEFC2037BD4680BD00BFD0140108C4
:10491000F41401080C000020AC0F010880B588B029
:1049200000AFF860B9607A60B86805F069FB0346CB
:10493000FB61FB69012B04D01349F86806F090FC79
:104940001EE00121B86805F025FBB861B86908F0E0
:10495000EFFE78617B69082B02DC7B69002B04DCAD
:104960000A49F86806F07CFC0AE0094B1B687A6982
:1049700011461846FEF767FF0649F86806F070FC16
:104980002037BD4680BD00BF181501083C15010841
:104990000C000020AC0F010880B584B000AFF860B7
:1049A000B9607A60064B1B681846FEF731FF05496F
:1049B000F86806F055FC00BF1037BD4680BD00BF4B
:1049C0000C000020AC0F010880B584B000AFF86087
:1049D000B9607A60064B1B681846FEF757FF054919
:1049E000F86806F03DFC00BF1037BD4680BD00BF33
:1049F0000C000020AC0F010880B592B000AFF86049
:104A0000B9607A60B86805F0FBFA03467B647B6C9A
:104A1000062B04D06949F86806F022FCCBE001219E
:104A2000B86805F0B7FA0346184608F081FE034659
:104A30003B643B6CB3F57A7F03D33B6C604A934293
:104A400004D96049F86806F00BFCB4E03B6C5E4AA0
:104A5000A2FB03239B093B640221B86805F09AFA84
:104A60000346184608F064FE0346FB63FB6B002B0D
:104A700002D0FB6B242B04D95449F86806F0F0FBF4
:104A800099E00321B86805F085FA0346184608F056
:104A90004FFE0346BB63BB6B642B04D94C49F868DB
:104AA00006F0DEFB87E00421B86805F073FA0346E0
:104AB000184608F03DFE03467B637B6B002B04D158
:104AC0004449F86806F0CCFB75E07B6B4FF47A72D2
:104AD00002FB03F37B630521B86805F05BFA03462C
:104AE000184608F025FE03463B633B6B002B04D1C0
:104AF0003949F86806F0B4FB5DE03B6B4FF47A721D
:104B000002FB03F33B630621B86805F043FA034652
:104B1000184608F00DFE0346FB62FB6A002B04D129
:104B20002E49F86806F09CFB45E0FB6A4FF47A7268
:104B300002FB03F3FB627A6B3B6B1A44FB6A134480
:104B40003A6C02FB03F3264AA2FB03239B0CBB62D5
:104B5000BB6AB3F5006F04D92249F86806F080FB00
:104B600029E03B6C9BB23B82FB6BDBB2BB74BB6B43
:104B7000DBB2FB747B6B7B613B6BBB61FB6AFB61F4
:104B8000BB6A3B62184A3B6CB2FBF3F37B62174B88
:104B90001B6807F1100211461846FEF7B6FE0346E1
:104BA000002B04D11249F86806F05AFB03E01149C2
:104BB000F86806F055FB4837BD4680BD5C15010816
:104BC00000350C00BC150108D34D6210E415010836
:104BD0000016010820160108441601086C16010889
:104BE00083DE1B439016010840420F000C0000209A
:104BF000AC0F0108B40F0108F0B591B006AFF86032
:104C0000B9607A60184B1B6807F11002114618460C
:104C1000FEF7B9FE3B8A1A464FF47A7303FB02F49F
:104C2000BB7C1E46FB7C1D467B69104AA2FB03230E
:104C30009B09BA690D49A1FB02129209F9690B4857
:104C4000A0FB01018909386A049003910292019343
:104C50000095334622460649F86806F001FB00BF7E
:104C60002C37BD46F0BD00BF0C000020D34D6210B4
:104C7000B816010880B584B000AFF860B9607A60FA
:104C8000094B1B681846FEF793FE0346002B04D021
:104C90000649F86806F0E4FA02E0054B01221A70B2
:104CA00000BF1037BD4680BD0C000020541701081E
:104CB0000C65002080B588B000AFF860B9607A60FC
:104CC000B86805F09DF90346FB61FB69032B04D02E
:104CD0003349F86806F0C4FA5FE0324B1B6893F87A
:104CE0005030052B10D02F4B1B6893F85030032BFE
:104CF0000AD02C4B1B6893F85030042B04D02A495F
:104D0000F86806F0ADFA48E00121B86805F042F90C
:104D10000346184608F00CFD0346BB61BB69B3F5BA
:104D2000001F04D32149F86806F09AFA35E0022101
:104D3000B86805F02FF90346184608F0F9FC034659
:104D40007B61BB69C3F500137A699A4203D87B691A
:104D5000B3F5007F08D2BB69C3F500131A461449A6
:104D6000F86806F07DFA18E00321B86805F012F93A
:104D70000346184608F0DCFC0346FB74FB7C012B61
:104D800004D90C49F86806F06BFA06E0054B186880
:104D9000FB7C7A69B969FEF79DFC2037BD4680BD72
:104DA000741701080C000020AC170108CC1701088B
:104DB000F81701082418010880B584B000AFF86026
:104DC000B9607A60084B1B78002B05D0074B1B6835
:104DD0001846FEF7A7FC04E00549F86806F040FA1B
:104DE00000BF1037BD4680BD0C6500200C000020C0
:104DF0005C18010880B400AF024B1846BD465DF850
:104E0000047B7047E01A010880B400AF27231846DE
:104E1000BD465DF8047B704780B483B000AF786016
:104E20007B68DB6903F02003202B01D1012300E024
:104E3000002318460C37BD465DF8047B704780B4EC
:104E400083B000AF78607B685B6ADBB218460C37D2
:104E5000BD465DF8047B704780B500AF4FF48062BB
:104E60000849094806F06CFD4FF48052074908488C
:104E700006F066FD064B044A0649074806F0E7FAC5
:104E800000BF80BDE8650020C0650020E869002003
:104E9000D465002000140140B0650020B0B588B092
:104EA00000AF1B4B3C1D1D460FCD0FC495E80700FE
:104EB00084E80700FFF79EFF0346BB61FFF7A4FFEE
:104EC0000346BB833B1D184604F06BFE0346114AA4
:104ED0001360104B1B68002B05D101210E4801F017
:104EE00061FB012310E00B4B1B680C4A1A60094B55
:104EF0001C683B1D184604F023FE03461A46084969
:104F0000204606F0ADF9002318462037BD46B0BD57
:104F1000A0180108EC790020881E0108254F000820
:104F20008018010880B582B000AF78600B46FB7036
:104F3000FB781946034806F00DFB00BF0837BD4655
:104F400080BD00BFB065002080B584B002AF78603E
:104F500039607B68002B03D10021154801F022FB4A
:104F600078683B68DA683B681B6900931346114A0E
:104F7000114906F03BFE7B6820337A68062118460B
:104F800006F0A0FE3B685A687B68DA613B689A6865
:104F90007B689A613B681A687B685A617B6820333A
:104FA000184606F0D1FE00BF0837BD4680BD00BFE1
:104FB000881E01087D5000084150000880B588B067
:104FC00002AFFFF749FF022300931E233C220D4945
:104FD0000D4806F08FFBFFF761FF0C4B7B600C4B1D
:104FE0001B68BB600B4BFB600B4B3B61064B7B6153
:104FF0003B1D19460948FFF7A7FF00BF1837BD46FC
:1050000080BD00BF5865002094650020C550000891
:10501000EC790020B0650020546500201065002068
:1050200080B582B000AF0346FB71FB791946034897
:1050300006F0F6FD00BF0837BD4680BD10650020B4
:1050400080B582B000AF786039607B68002B03D1F7
:105050000721094801F0A6FA7B689B69184606F00B
:1050600012FA7B6820330A220A21184606F04CFE09
:1050700000BF0837BD4680BD881E010880B584B0DA
:1050800000AF786039607B685B69FB607B685B6957
:105090003968786898470346FB72FB7A002B08D181
:1050A000FB680649786898477B685B6904497868BB
:1050B000984700BF1037BD4680BD00BF941E010851
:1050C000901E010880B582B000AF786039607B68BF
:1050D000002B03D10321244801F064FA3B68002B24
:1050E00003D10421204801F05DFA3B681B88013B95
:1050F000072B34D801A252F823F000BF1D5100083D
:105100005F5100082F5100085F5100085F510008EF
:105110003D5100084B510008555100087B68203371
:105120000A220A21184606F0EFFD012318E07B68E9
:105130002033184606F008FE012311E00B4B1B68D4
:10514000184604F0DDFD01230AE07B68084A5A6135
:10515000002305E07B68074A5A61002300E0022330
:1051600018460837BD4680BD881E0108EC7900202E
:10517000095200081953000880B582B000AF0B48EF
:10518000FFF74AFE0346002B0BD00848FFF757FEF7
:105190000346FB71064B1B68FA791146184604F06A
:1051A0008CFD00BF0837BD4680BD00BF0014014024
:1051B000EC79002080B584B000AF78607B689B6993
:1051C000184606F064FAF860FB68002B08D0064B1E
:1051D0001B78002B04D07B680449184606F04AFD72
:1051E00000BF1037BD4680BDE8790020981E010839
:1051F00080B500AFFFF7C0FF0248FFF7DBFF00BF3D
:1052000080BD00BF1065002080B584B000AF78601D
:1052100039600023FB603B681B88012B27D0092BDA
:1052200046D074E0786800F00BFA1BE07B689A695E
:105230007B6893F83D3019467B680B4493F838300F
:105240001946104606F086F9F860FB68002B01D07D
:1052500001235DE07B6893F83D300133DAB27B686F
:1052600083F83D207B6893F83D30042BDED97B68C2
:105270005B6B002BD6D11BE07B689A697B6893F847
:105280003D3019467B680B4493F838301946104678
:1052900006F060F9F860FB68002B01D0012337E0CD
:1052A0007B6893F83D300133DAB27B6883F83D20A8
:1052B0007B6893F83D30042BDED924E0786800F059
:1052C000BFF91BE07B689A697B6893F83D3019460B
:1052D0007B680B4493F838301946104606F03AF9CB
:1052E000F860FB68002B01D0012311E07B6893F884
:1052F0003D300133DAB27B6883F83D207B6893F858
:105300003D30042BDED97B685B6B002BD6D10223AA
:1053100018461037BD4680BD80B586B000AF7860B6
:1053200039603B681B88013B0A2B00F2FD8001A21B
:1053300052F823F061530008295500082955000848
:105340002955000829550008295500082955000845
:10535000295500086954000809540008DF54000862
:10536000744B1B6C5B00744A1A40744B13433B61D3
:105370003B691B0CDBB23B733B691B0ADBB27B73E3
:105380003B69DBB2BB730023FB750DE07B689A6958
:10539000FB7D18333B4413F80C3C1946104606F0CD
:1053A000D9F8FB7D0133FB75FB7D022BEED96449F7
:1053B000604806F05FFC0123B7E0786800F015F95B
:1053C0001DE07B689A697B6893F8403019467B68DA
:1053D0000B4493F83E301946104606F0BBF80346DE
:1053E000002B04D0574B01221A7001239DE07B68EB
:1053F00093F840300133DAB27B6883F840207B6851
:1054000093F84030012BDCD97B685B6B002BD4D147
:105410004D49484806F02EFC012386E07B689A69D6
:105420007B6893F8403019467B680B4493F83E3014
:105430001946104606F08EF80346002B01D00123D2
:1054400073E07B6893F840300133DAB27B6883F80D
:1054500040207B685B6B002B06D13A4B00221A7010
:105460003949344806F006FC7B6893F84030012B3C
:10547000D4D92EE0786800F0B8F81AE07B689A6911
:105480007B6893F8403019467B680B4493F83E30B4
:105490001946104606F05EF80346002B01D00123A2
:1054A00043E07B6893F840300133DAB27B6883F8DD
:1054B00040207B6893F84030012BDFD97B685B6B21
:1054C000002B06D11F4B00221A701F49194806F005
:1054D000D1FB7B685B6B002BCCD1012325E07B6883
:1054E000B3F842301B0A9BB2DBB23B737B68B3F864
:1054F0004230DBB27B730023BB750DE07B689A6999
:10550000BB7D18333B4413F80C3C1946104606F09B
:1055100021F8BB7D0133BB75BB7D012BEED97B68C8
:105520000A4A5A61002300E0022318461837BD4694
:1055300080BD00BF0C440020FEFF3F000000C0FF04
:10554000A41E0108E8790020B81E0108C550000813
:1055500080B485B000AF78600B467B807B881B0AE7
:105560009BB2DBB23B737B88DBB27B730023FB73A4
:1055700031E07B681B881AB2FB7B10333B4413F885
:10558000043C1BB21B021BB253401BB29AB27B6895
:105590001A800023BB7318E07B681B881BB2002BAA
:1055A0000ADA7B681B881BB25B001AB241F2210346
:1055B00053401BB29BB203E07B681B885B009BB22D
:1055C0007A681380BB7B0133BB73BB7B072BE3D9AA
:1055D000FB7B0133FB73FB7B012BCAD900BF00BFF0
:1055E0001437BD465DF8047B704780B584B000AFCA
:1055F00078607B681B6B991C7A6811631B88FB8140
:105600007B685B6B5A1E7B685A637B684233FA89FE
:1056100011461846FFF79CFFFB891B0A9BB2DAB2C2
:105620007B6883F83E20FB89DAB27B6883F83F20F1
:105630007B68002283F8402000BF1037BD4680BD44
:10564000B0B588B000AF78602A4B07F10C041D4656
:105650000FCD0FC42B6823707B681B6B991C7A6875
:1056600011631B88FB837B685B6B5A1E7B685A63E4
:10567000FB8B1B0B9BB203F00F0320333B4413F84F
:10568000142C7B6883F83820FB8B1B0A9BB203F039
:105690000F0320333B4413F8142C7B6883F8392024
:1056A000FB8B1B099BB203F00F0320333B4413F821
:1056B000142C7B6883F83A20FB8B03F00F03203314
:1056C0003B4413F8142C7B6883F83B207B68202232
:1056D00083F83C207B68002283F83D207B685B6B6D
:1056E000002B03D10449054806F0C4FA00BF203757
:1056F000BD46B0BDBC180108B81E01080C4400200E
:1057000080B584B000AFF860B9607A60FB70FB6868
:10571000BA681A63FB687A685A63FB78002B05D075
:10572000FB680749184606F0A5FA04E0FB6805493E
:10573000184606F09FFA00BF1037BD4680BD00BF77
:10574000A01E01089C1E010880B582B000AF7860E1
:10575000396002F0C1FA7B68012283F83020786852
:1057600000F0BEFB786800F09FFB786800F0ADFAAF
:105770007B682033184606F0E7FA00BF0837BD46BD
:1057800080BD000080B584B000AF786039607B6870
:105790005B69FB607B685B6939687868984703469A
:1057A000FB72FB7A002B08D1FB68064978689847A2
:1057B0007B685B6904497868984700BF1037BD462D
:1057C00080BD00BFEC1E0108D81E010880B586B060
:1057D00002AF786039607B68002B03D10021254837
:1057E00000F0E0FE78683B685A683B689B6800936D
:1057F0001346214A214906F0F9F97B6820337A687B
:105800001121184606F05EFA3B681A687B685A61F7
:105810007B68002283F830207B68002283F84420D4
:105820007B68002283F847207B68002283F84820A9
:105830007B68042283F84E200023FB600EE03A6868
:10584000FB6802339B0013445A687968FB680C3389
:105850009B000B445A60FB680133FB60FB68032B21
:10586000EDD97B682033184606F06EFA00BF10377A
:10587000BD4680BDCC1E0108855700084957000869
:10588000B0B58AB002AF12230093022324220B4941
:105890000B4805F02FFF0B4B3C1D1D460FCD0FC4D1
:1058A00095E8070084E807003B1D19460648FFF706
:1058B0008DFF00BF2037BD46B0BD00BF588A002015
:1058C0007C8A0020D0180108F089002080B582B0C1
:1058D00000AF0346FB71FB791946034806F0A0F9B7
:1058E00000BF0837BD4680BDF089002080B584B078
:1058F00000AF786039603B681B88012B02D0122B07
:105900000ED041E07B682033184606F01DFA786817
:1059100000F0CAFA786800F0D8F97B6801229A6131
:105920003B689B78042B2DD17B6893F83030002B9B
:1059300009D10121786800F0F2FD786800F0D0FA12
:10594000786800F0B1FA7B6893F846301846FDF7A6
:1059500015FC0346FB817B68B3F94A30B7F90E208A
:105960009A4203DD7B680B4A5A6102E07B680A4A6F
:105970005A617B68203364226421184606F0C4F91A
:10598000002302E0022300E0012318461037BD4641
:1059900080BD00BF9D590008295A000880B584B019
:1059A00000AF786039603B681B88122B28D0122B1F
:1059B00031DC012B02D0112B0CD02CE07B680022B3
:1059C000DA610021786800F0DBF9786800F01CF9F2
:1059D000012321E07B6893F846301846FDF7CEFBA3
:1059E0000346FB817B68B3F94A30B7F90E209A422F
:1059F00001DD012310E07B68094A5A6100230BE0B6
:105A00003B689B78052B04D17B68064A5A610023CA
:105A100002E0022300E0022318461037BD4680BD95
:105A2000295A0008ED58000880B584B000AF7860AE
:105A300039603B681B88122B3CD0122B45DC012BB4
:105A400002D0112B0BD040E07B680022DA6178682D
:105A500000F02AFA786800F038F9012336E07B6814
:105A600093F846301846FDF789FB0346FB817B68B7
:105A7000B3F94A30B7F90E209A4204DD7B68154A23
:105A80005A61002322E07B68DB695A1C7B68DA617B
:105A90007B68DB691D2B08D87B68B3F94A301A464E
:105AA000B7F90E30D31A0A2B04DD7B680A4A5A6113
:105AB00000230BE03B689B78052B04D17B68074AE9
:105AC0005A61002302E0022300E002231846103747
:105AD000BD4680BD9D590008E15A0008ED580008F8
