:020000040800F2
:1000000000000820952F0008852D00088D2D000880
:10001000952D00089D2D0008A52D0008000000006A
:10002000000000000000000000000000AD2D0008EE
:10003000BB2D000800000000C92D0008D72D0008C6
:10004000E52F0008E52F0008E52F0008E52F000840
:10005000E52F0008E52F0008E52F0008E52F000830
:10006000E52F0008E52F0008E52F0008E52F000820
:1000700059770008E52F0008E52F0008E52F000854
:10008000E52F0008E52F0008E52F0008E52F000800
:10009000E52F0008E52F0008E52F0008E52F0008F0
:1000A000E52F00089D780008E52F0008E52F0008DF
:1000B000E9780008E52F0008E52F0008E52F000883
:1000C000E52F0008E52F0008E52F0008E52F0008C0
:1000D000E52F0008E52F0008E52F0008E52F0008B0
:1000E000E52F0008E52F0008E52F0008E52F0008A0
:1000F000E52F0008E52F0008E52F0008E52F000890
:10010000E52F0008E52F0008E52F0008E52F00087F
:10011000E52F0008E52F0008E52F0008E52F00086F
:10012000E96D0008E52F00089D6C0008E52F000828
:10013000E52F0008E52F0008E52F0008E52F00084F
:10014000E52F0008E52F0008E52F0008E52F00083F
:10015000E52F0008957A0008E52F0008D150000827
:10016000E52F0008E52F0008E52F0008E52F00081F
:10017000E52F0008E52F0008E52F0008000000002B
:10018000E52F0008E52F00086D390008E52F00086D
:10019000E52F0008E52F0008E52F0008E52F0008EF
:1001A0000000000000000000E52F0008E52F000817
:1001B000E52F0008E52F0008E52F0008E52F0008CF
:1001C000E52F0008E52F000800000000E52F0008DB
:1001D000E52F0008E52F0008E52F0008E52F0008AF
:1001E000E52F0008E52F0008E52F0008E52F00089F
:0801F00000000000E52F0008EB
:1002000010B5054C237833B9044B13B10448AFF350
:1002100000800123237010BDA043002000000000D7
:100220006803010808B5034B1BB103490348AFF34A
:10023000008008BD00000000A443002068030108FE
:1002400010F8012B11F8013B012A28BF9A42F7D080
:10025000D01A7047000000000000000000000000FD
:1002600001F0FF01102A2BDB10F0070F08D010F867
:10027000013B013A8B422DD010F0070F42B3F6D16B
:10028000F0B441EA012141EA014122F007047FF084
:1002900000070023F0E80256083C85EA010586EADB
:1002A000010685FA47F5A3FA87F586FA47F6A5FA17
:1002B00087F68EB9EED1F0BC01F0FF0102F0070223
:1002C00032B110F8013B013A83EA010313B1F8D1CE
:1002D0000020704701387047002D06BF35460338AF
:1002E000073815F0010F07D1013015F4807F02BFE8
:1002F000013015F4C03F0130F0BC0138704700BF39
:10030000034613F8012B002AFBD1181A0138704755
:100310007BB972B90029BEBF00204FF0004106E052
:1003200008BF00281CBF6FF000414FF0FF3000F005
:10033000BBB9ADF1080C6DE904CE002909DB002B37
:100340001ADB00F035F8DDF804E0DDE9022304B043
:100350007047404261EB4101002B1BDB00F028F8A5
:10036000DDF804E0DDE9022304B0404261EB410125
:10037000524263EB43037047524263EB430300F086
:1003800017F8DDF804E0DDE9022304B0404261EB38
:1003900041017047524263EB430300F009F8DDF876
:1003A00004E0DDE9022304B0524263EB43037047EB
:1003B0002DE9F047089D8E4604468846002B4AD119
:1003C0008A42174662D9B2FA82F64EB1C6F12003CC
:1003D00001FA06F820FA03F3B74043EA0808B440EC
:1003E0004FEA174E1FFA87FCB8FBFEF1230C0EFBF9
:1003F000118843EA084301FB0CF29A4209D9FB1821
:1004000001F1FF3080F0EA809A4240F2E780023941
:100410003B449A1AA3B2B2FBFEF00EFB102243EA51
:10042000024300FB0CFC9C4509D9FB1800F1FF328C
:1004300080F0D6809C4540F2D3803B44023840EAAD
:100440000140A3EB0C0300211DB1F3400022C5E9DC
:100450000032BDE8F0878B4205D90DB1C5E9000136
:1004600000210846F5E7B3FA83F1002946D1734528
:1004700002D3824200F20581841A6EEB030201204E
:100480009046002DE5D0C5E90048E2E7002A00F0DB
:100490009080B2FA82F6002E40F0A4808A1A030CF3
:1004A0004FEA174E80B2BCB20121B2FBFEFC0EFB3C
:1004B0001C2243EA024304FB0CF29A4207D9FB18C0
:1004C0000CF1FF3802D29A4200F2E080C4469B1A37
:1004D000B3FBFEF20EFB123340EA034302FB04F4CB
:1004E0009C4207D9FB1802F1FF3002D29C4200F275
:1004F000CA8002461B1B42EA0C40A5E7C1F1200658
:100500008B4022FA06F71F430EFA01F420FA06F395
:100510002EFA06FE4FEA1749234300FA01F81FFAA4
:1005200087FCBEFBF9F01C0C09FB10EE44EA0E44FC
:1005300000FB0CFEA64502FA01F209D93C1900F1B4
:10054000FF3A80F09C80A64540F2998002383C44F6
:10055000A4EB0E041FFA83FEB4FBF9F309FB13446A
:100560004EEA044403FB0CFCA44508D93C1903F1F2
:10057000FF3E80F08280A4457FD9023B3C4443EAA1
:100580000040A4EB0C04A0FB02EC64457346E1467A
:1005900062D35FD05DB1B8EB030264EB090404FAE7
:1005A00006F622FA01F31E43CC40C5E9006400219F
:1005B0004FE7B1FBF2FC010C41EA0E4180B240EA88
:1005C00001423B4638463C46B846BE462026B1FB73
:1005D000F7F1A2EB080241EA0C4166E7014618E791
:1005E00010462CE7C6F120022EFA02F3B740B140C4
:1005F00020FA02F24FEA174E0A43B3FBFEF8BCB2F0
:100600000EFB1833110C41EA034108FB04F9B0401A
:1006100089454FEA104380B23ED9791808F1FF3C72
:1006200001D289451FD8A1EB0901B1FBFEF909FBF5
:1006300004F80EFB191192B242EA0142424529D256
:10064000BA1809F1FF31C4D24245C2D2A9F1020160
:100650003A44BEE7F0459DD2BEEB02036CEB070CBB
:100660000138E14696E7A7EB09094944A8F1020CD5
:10067000B1FBFEF909FB04F8DBE773467FE7504660
:1006800066E70846FDE63B44023A33E7ACF1020C6C
:100690003B441CE749469CE7A1EB0901C446B1FB7A
:1006A000FEF909FB04F8C4E7704700BF80B485B0C9
:1006B00000AF78607B6803F00703FB600B4BDB68DF
:1006C000BB60BA684FF6FF031340BB60FB681A02B9
:1006D000BB681A43064B1343BB60044ABB68D36034
:1006E00000BF1437BD465DF8047B704700ED00E0A5
:1006F0000000FA0580B400AF044BDB681B0A03F06E
:1007000007031846BD465DF8047B704700ED00E026
:1007100080B483B000AF0346FB7197F90730002B1C
:100720000BDBFB7903F01F02074997F907305B09E0
:10073000012000FA02F241F8232000BF0C37BD4629
:100740005DF8047B704700BF00E100E080B483B037
:1007500000AF03463960FB7197F90730002B0ADBC5
:100760003B68DAB20C4997F907301201D2B20B4458
:1007700083F800230AE03B68DAB20849FB7903F00A
:100780000F03043B1201D2B20B441A7600BF0C37A0
:10079000BD465DF8047B704700E100E000ED00E03D
:1007A00080B489B000AFF860B9607A60FB6803F08C
:1007B0000703FB61FB69C3F10703042B28BF042374
:1007C000BB61FB690433062B02D9FB69033B00E0E4
:1007D00000237B614FF0FF32BB6902FA03F3DA4377
:1007E000BB681A407B699A404FF0FF317B6901FA80
:1007F00003F3D9437B680B40134318462437BD46A7
:100800005DF8047B704780B489B000AFF860B960D0
:100810007A60FB682C331946BB6803F440734FF4CD
:100820004072BA61BA6992FAA2F27A617A69B2FA4E
:1008300082F2D2B2D3409B000B44FB61FB691A6881
:10084000BB6803F01F031F2101FA03F3DB431A40C7
:100850007B6803F01F01BB6803F01F0301FA03F379
:100860001A43FB691A6000BF2437BD465DF8047B5C
:10087000704780B483B000AF786039607B689B6854
:1008800023F480623B681A437B689A6000BF0C3790
:10089000BD465DF8047B704780B48DB000AFF86052
:1008A000B9607A60FB680C331946BB6803F00073CB
:1008B0004FF00072BA61BA6992FAA2F27A617A696B
:1008C000B2FA82F2D2B2D3409B000B44FB62FB6AC5
:1008D0001A68BB6803F0F8734FF0F8713962396A2F
:1008E00091FAA1F1F961F969B1FA81F1C9B2CB408C
:1008F000072101FA03F3DB431A40BB6803F0F873E6
:100900004FF0F871B962B96A91FAA1F17962796A26
:10091000B1FA81F1C9B2CB40796801FA03F31A4305
:10092000FB6A1A6000BF3437BD465DF8047B704730
:1009300080B485B000AFF860B9607A600D4ABB68DA
:1009400013441B781A46FB6813441B6823F0C0024B
:100950000849BB680B441B781946FB680B441946D1
:100960007B6813430B6000BF1437BD465DF8047B02
:10097000704700BFBC17010880B485B000AFF860B5
:10098000B9607A600D4ABB6813441B781A46FB684D
:1009900013441B6823F490720849BB680B441B780E
:1009A0001946FB680B4419467B6813430B6000BF74
:1009B0001437BD465DF8047B704700BFBC170108C3
:1009C00080B485B000AFF860B9607A600D4ABB684A
:1009D00013441B781A46FB6813441B6823F4007207
:1009E0000849BB680B441B781946FB680B44194641
:1009F0007B6813430B6000BF1437BD465DF8047B72
:100A0000704700BFBC17010880B485B000AFF86024
:100A1000B9607A600D4ABB6813441B781A46FB68BC
:100A200013441B6823F480620849BB680B441B789D
:100A30001946FB680B4419467B6813430B6000BFE3
:100A40001437BD465DF8047B704700BFBC17010832
:100A500080B485B000AFF860B9607A600D4ABB68B9
:100A600013441B781A46FB6813441B6823F4C052D6
:100A70000849BB680B441B781946FB680B441946B0
:100A80007B6813430B6000BF1437BD465DF8047BE1
:100A9000704700BFBC17010880B485B000AFF86094
:100AA000B9607A600D4ABB6813441B781A46FB682C
:100AB00013441B6823F4C0420849BB680B441B78ED
:100AC0001946FB680B4419467B6813430B6000BF53
:100AD0001437BD465DF8047B704700BFBC170108A2
:100AE00080B485B000AFF860B9607A600D4ABB6829
:100AF00013441B781A46FB6813441B6823F44032E6
:100B00000849BB680B441B781946FB680B4419461F
:100B10007B6813430B6000BF1437BD465DF8047B50
:100B2000704700BFBC17010880B485B000AFF86003
:100B3000B9607A600D4ABB6813441B781A46FB689B
:100B400013441B6823F0F0520849BB680B441B7820
:100B50001946FB680B4419467B6813430B6000BFC2
:100B60001437BD465DF8047B704700BFBC17010811
:100B700080B483B000AF786039600C4A3B6813449E
:100B80001B781A467B6813445B6908493A680A4433
:100B9000127811467A680A4423F00403536100BFB7
:100BA0000C37BD465DF8047B704700BFBC170108D9
:100BB00080B483B000AF78607B681B6843F00102AB
:100BC0007B681A6000BF0C37BD465DF8047B704738
:100BD00080B483B000AF78607B681B6823F4003278
:100BE0007B681A6000BF0C37BD465DF8047B704718
:100BF00080B483B000AF78607B681B6823F4002268
:100C00007B681A6000BF0C37BD465DF8047B7047F7
:100C100080B485B000AFF860B9607A60FB68DA68CC
:100C2000064B1340B9687A680A431A43FB68DA60D6
:100C300000BF1437BD465DF8047B704701F8FFFF25
:100C400080B483B000AF78607B68DB6823F4004237
:100C50007B68DA6000BF0C37BD465DF8047B7047E7
:100C600080B483B000AF78607B685B6843F000724B
:100C70007B685A6000BF0C37BD465DF8047B704747
:100C800080B400AF054B1B68044A43F48033136003
:100C900000BFBD465DF8047B704700BF00380240CE
:100CA00080B400AF074B1B6803F40033B3F5003F7B
:100CB0000CBF01230023DBB21846BD465DF8047B60
:100CC000704700BF0038024080B483B000AF786046
:100CD000064B9B6823F0030204497B6813438B6037
:100CE00000BF0C37BD465DF8047B704700380240FA
:100CF00080B400AF044B9B6803F00C031846BD465C
:100D00005DF8047B704700BF0038024080B483B0B8
:100D100000AF7860064B9B6823F0F00204497B68C3
:100D200013438B6000BF0C37BD465DF8047B7047F2
:100D30000038024080B483B000AF7860064B9B68F7
:100D400023F4E05204497B6813438B6000BF0C37E7
:100D5000BD465DF8047B70470038024080B483B024
:100D600000AF7860064B9B6823F4604204497B68BF
:100D700013438B6000BF0C37BD465DF8047B7047A2
:100D80000038024080B483B000AF7860094BD3F8DC
:100D900090207B681B0CDB431A407B689BB20549A3
:100DA0001343C1F8903000BF0C37BD465DF8047B9B
:100DB000704700BF0038024080B483B000AF786055
:100DC000094BD3F890207B681B0CDB431A407B68EF
:100DD0009BB205491343C1F8903000BF0C37BD46A4
:100DE0005DF8047B704700BF0038024080B483B0D8
:100DF00000AF7860094BD3F890207968084B0B401E
:100E0000DB431A407B681B0404491343C1F890304C
:100E100000BF0C37BD465DF8047B704700380240C8
:100E20000000FFFF80B483B000AF7860074BD3F8B9
:100E30008C3023F0807205497B681343C1F88C30F5
:100E400000BF0C37BD465DF8047B70470038024098
:100E500080B400AF054B1B68044A43F080731360F5
:100E600000BFBD465DF8047B704700BF00380240FC
:100E700080B400AF074B1B6803F00073B3F1007F31
:100E80000CBF01230023DBB21846BD465DF8047B8E
:100E9000704700BF0038024080B485B000AFF860F2
:100EA000B9607A603B600A4B5A680A4B1340F96894
:100EB000BA6811437A68920111433A680A430449B7
:100EC00013434B6000BF1437BD465DF8047B704789
:100ED000003802400080BCFF80B485B000AF78606D
:100EE000084B1A6B07497B6813430B63054B1A6B5E
:100EF0007B681340FB60FB6800BF1437BD465DF89C
:100F0000047B70470038024080B485B000AF786041
:100F1000084B1A6C07497B6813430B64054B1A6C2A
:100F20007B681340FB60FB6800BF1437BD465DF86B
:100F3000047B70470038024080B485B000AF786011
:100F4000084B5A6C07497B6813434B64054B5A6C3A
:100F50007B681340FB60FB6800BF1437BD465DF83B
:100F6000047B70470038024080B483B000AF7860E3
:100F7000064B1B6823F00F0204497B6813430B6088
:100F800000BF0C37BD465DF8047B7047003C024053
:100F900080B400AF044B1B6803F00F031846BD4636
:100FA0005DF8047B704700BF003C024080B400AF96
:100FB000054B1B68044A43F48033136000BFBD46F1
:100FC0005DF8047B704700BF0070004080B483B0C0
:100FD00000AF7860064B1B6823F4404204497B68ED
:100FE00013430B6000BF0C37BD465DF8047B7047B0
:100FF0000070004080B400AF074B5B6803F480438F
:10100000B3F5804F0CBF01230023DBB21846BD4669
:101010005DF8047B704700BF0070004080B483B06F
:1010200000AF78607B681B6843F040027B681A6001
:1010300000BF0C37BD465DF8047B704780B483B0B9
:1010400000AF786039607B685B6823F010023B6812
:101050001A437B685A6000BF0C37BD465DF8047BBD
:10106000704780B483B000AF78607B685B6843F002
:1010700008027B685A6000BF0C37BD465DF8047BF0
:10108000704780B483B000AF78607B685B6823F002
:1010900008027B685A6000BF0C37BD465DF8047BD0
:1010A000704780B483B000AF78607B681B6823F022
:1010B00080027B681A6000BF0C37BD465DF8047B78
:1010C0007047000080B485B000AF786039603B683D
:1010D000012B28D03B68042B23D03B68102B1ED05B
:1010E0003B68402B19D03B68B3F5807F13D03B6839
:1010F000B3F5806F0DD03B68B3F5805F07D03B68D8
:10110000B3F5803F01D107230EE008230CE006234E
:101110000AE0052308E0042306E0032304E0022399
:1011200002E0012300E00023FB737B6818331946BB
:10113000FB7B0B4AD35C0B44BB60BB681A68FB7B30
:101140000849CB5C194604238B40DB431A40BB683B
:101150001A6000BF1437BD465DF8047B704700BFBE
:10116000C4170108D017010880B485B000AF7860BB
:1011700039603B68012B28D03B68042B23D03B68A7
:10118000102B1ED03B68402B19D03B68B3F5807FF5
:1011900013D03B68B3F5806F0DD03B68B3F5805F2B
:1011A00007D03B68B3F5803F01D107230EE0082349
:1011B0000CE006230AE0052308E0042306E00323ED
:1011C00004E0022302E0012300E00023FB737B68BC
:1011D00018331946FB7B0A4AD35C0B44BB60BB68DF
:1011E0001A68FB7B0749CB5C194608238B401A43DE
:1011F000BB681A6000BF1437BD465DF8047B7047BA
:10120000C4170108D017010880B483B000AF78601C
:1012100039607B689A68064B13403A681A437B68CA
:101220009A6000BF0C37BD465DF8047B704700BF75
:10123000F8BFFEFF80B483B000AF786039607B6890
:101240005B6823F070023B681A437B685A6000BFFA
:101250000C37BD465DF8047B704780B483B000AFA7
:10126000786039607B685B6823F470023B681A43DE
:101270007B685A6000BF0C37BD465DF8047B704741
:1012800080B483B000AF78607B689B6823F08002F5
:101290007B689A6000BF0C37BD465DF8047B7047E1
:1012A00080B483B000AF78607B681B6843F00102B4
:1012B0007B681A6000BF0C37BD465DF8047B704741
:1012C00080B483B000AF786039607B681B6823F41A
:1012D000F8123B681B041A437B681A6000BF0C3786
:1012E000BD465DF8047B704780B483B000AF786082
:1012F00039607B681B6823F078723B685B051A4392
:101300007B681A6000BF0C37BD465DF8047B7047F0
:1013100080B483B000AF78607B689B6843F4804200
:101320007B689A6000BF0C37BD465DF8047B704750
:1013300080B483B000AF786039607B689B6823F429
:1013400000423B681A437B689A6000BF0C37BD4679
:101350005DF8047B704780B483B000AF78607B6831
:101360005B6823F490427B685A607B689B6823F03B
:101370002A027B689A6000BF0C37BD465DF8047B8B
:10138000704780B483B000AF786039607B683A689A
:101390009A6100BF0C37BD465DF8047B704780B48E
:1013A00083B000AF786039603B681A047B689A614B
:1013B00000BF0C37BD465DF8047B704780B500AFB9
:1013C0004FF08050FFF7A0FD4FF48040FFF7B4FDD1
:1013D0000320FFF76BF9FFF78DF9034600220F2179
:1013E0001846FFF7DDF9034619464FF0FF30FFF7C7
:1013F000ADF900F02DF801F00FFA01F0B1F900F0AD
:10140000DDFA00F04FFB00F0C1FB00F04BFC00F0F8
:10141000FBFC00F06DF800F075FD00F055FF01F0E9
:101420002DF800F0EDFD01F09FF801F025F900F036
:10143000B3F900F061FA00F0BFFE00F003FF01F025
:10144000AFFE01F0B9FE01F0C7FE00BFFDE70000EE
:1014500080B500AF0620FFF787FD00BFFFF798FDBE
:101460000346062BFAD14FF44040FFF7AFFDFFF7DC
:101470009DFDFFF705FC00BFFFF712FC0346012BA3
:10148000FAD10023C0220C214FF48000FFF704FDA5
:10149000FFF7DEFC00BFFFF7EBFC0346012BFAD1A0
:1014A00000BFFFF7A7FD0346002BFAD00020FFF78F
:1014B0002DFC4FF4A050FFF73DFC4FF40040FFF728
:1014C0004DFC0220FFF700FC00BFFFF711FC0346B4
:1014D000082BFAD105480BF0E9FF04480CF01AF884
:1014E0000020FFF79FFC00BF80BD00BF00C2EB0BD8
:1014F00080B592B000AF07F13C0300221A605A6039
:101500009A6007F1280300221A605A609A60DA6034
:101510001A6107F1180300221A605A609A60DA60B3
:101520003B4600221A605A609A60DA601A615A617A
:101530004FF48070FFF700FD0420FFF7CDFC022080
:10154000FFF7CAFC01233B6003237B6000233B6160
:101550003B46194684480AF052FD02233B600323B0
:101560007B6000233B613B4619467F480AF047FDFC
:1015700004233B6003237B6000233B613B46194609
:1015800079480AF03CFD08233B6003237B6000237D
:101590003B613B46194674480AF031FD10233B601D
:1015A00003237B6000233B613B4619466E480AF0EB
:1015B00026FD20233B6003237B6000233B613B46E9
:1015C000194669480AF01BFD01233B6003237B6039
:1015D00000233B613B46194664480AF010FD022394
:1015E0003B6003237B6000233B613B4619465F4819
:1015F0000AF005FD002200215D48FFF795FA002260
:1016000000215B48FFF794F9002200215848FFF7BA
:1016100067FA4FF4807200215548FFF7ADF90022B8
:1016200000215348FFF7CCF94FF480620021504865
:10163000FFF7EAF94FF4006200214D48FFF708FA7E
:101640004FF4005200214A48FFF726FA002148488B
:10165000FFF78EFA0023FB6300233B644FF4807393
:101660007B6407F13C03194642480AF04FFB002314
:10167000BB624FF4E003FB6200233B6300237B6308
:101680004FF44073BB6307F12803194639480AF049
:1016900069FB00213748FFF7ECF84FF48033BB615A
:1016A0000023FB6107F11803194633480AF0E6FAF4
:1016B0000A224FF400712F48FFF7A5F801220A21F2
:1016C0002C48FFF7E9F82D4A40F205212948FFF799
:1016D0009AF8012229492748FFF7DEF8284A40F204
:1016E0000A212448FFF78FF8012225492148FFF7F6
:1016F000D3F8244A40F20F211E48FFF784F8012254
:1017000020491C48FFF7C8F81F4A4FF405711948D3
:10171000FFF779F801221C491648FFF7BDF81B4A6C
:1017200040F219211348FFF76EF8012217491148BA
:10173000FFF7B2F8164A4FF480710E48FFF763F8CE
:10174000012213490B48FFF7A7F8124A40F205118E
:101750000848FFF758F801220E490648FFF79CF8A1
:1017600000BF4837BD4680BD00080240000402406B
:101770000064024000200140002301400B003000C3
:101780000C0060000D0090000E00C0000F00F00083
:10179000080080030900B00380B58EB000AF07F1E8
:1017A0002C0300221A605A609A6007F11803002285
:1017B0001A605A609A60DA601A613B4600221A6029
:1017C0005A609A60DA601A615A614FF40070FFF74C
:1017D000B3FB0120FFF780FB04233B6003237B6006
:1017E00000233B613B4619463E480AF008FC0823AB
:1017F0003B6003237B6000233B613B46194639482D
:101800000AF0FDFB4FF0007202213748FFF78CF918
:10181000002202213448FFF78BF8002202213248CF
:10182000FFF75EF94FF4807202212F48FFF7A4F80A
:10183000002202212C48FFF7C3F84FF480620221F6
:101840002948FFF7E1F84FF4006202212648FFF72C
:10185000FFF84FF4005202212348FFF71DF902213F
:101860002148FFF785F90023FB6200233B634FF417
:1018700080737B6307F12C0319461C480AF046FA73
:101880000023BB614FF48013FB6100233B62002304
:101890007B624FF44073BB6207F11803194613488B
:1018A0000AF060FA4FF480611048FEF7E2FF104A38
:1018B0004FF400710D48FEF7A6FF01220C490B48BA
:1018C000FEF7EAFF0B4A40F205210848FEF79BFFAE
:1018D000012208490548FEF7DFFF00BF3837BD4643
:1018E00080BD00BF000002400064024000210140B2
:1018F000030090020200600280B58EB000AF07F1D5
:101900002C0300221A605A609A6007F11803002223
:101910001A605A609A60DA601A613B4600221A60C7
:101920005A609A60DA601A615A614FF48060FFF77A
:1019300003FB0120FFF7D0FA02233B6003237B6007
:1019400000233B613B46194619480AF058FB002327
:10195000FB6200233B6300237B6307F12C031946E2
:1019600014480AF0D3F90023BB610023FB61002374
:101970003B6200237B620023BB6207F11803194618
:101980000C480AF0EFF94FF480610A48FEF771FF46
:10199000094A4FF400710748FEF735FF0022064957
:1019A0000448FEF779FF00BF3837BD4680BD00BF51
:1019B00000000240002201400100300280B58EB0DC
:1019C00000AF07F11C0300221A605A609A60DA60C7
:1019D0001A615A619A613B1D00221A605A609A602E
:1019E000DA601A615A614FF44030FFF7FFF90220C4
:1019F000FFF772FA40237B600223BB600323FB6086
:101A000001233B6100237B610423BB613B1D19461D
:101A100021480AF0F4FA80237B600223BB60032391
:101A2000FB6001233B6100237B610423BB613B1D01
:101A3000194619480AF0E3FA4FF40010FFF764FA68
:101A40001648FFF70DF9002200211448FFF7E0F8CF
:101A50001248FFF7F5F81148FFF7CAF80F48FFF7EB
:101A6000B7F80023FB610E4B3B6200237B6200232F
:101A7000BB620023FB6200233B6300237B6307F10F
:101A80001C03194605480AF0D1FB0448FFF790F8FB
:101A900000BF3837BD4680BD0004024000540040FE
:101AA000FF63106080B58EB000AF07F11C03002209
:101AB0001A605A609A60DA601A615A619A613B1D35
:101AC00000221A605A609A60DA601A615A614FF413
:101AD0004020FFF78BF90220FFF7FEF94FF48063F7
:101AE0007B600223BB600323FB6001233B61002377
:101AF0007B610423BB613B1D194621480AF07FFA34
:101B00004FF400637B600223BB600323FB6001236F
:101B10003B6100237B610423BB613B1D19461848D0
:101B20000AF06DFA4FF48000FFF7EEF91548FFF761
:101B300097F8002200211348FFF76AF81148FFF7D1
:101B40007FF81048FFF754F80E48FFF741F80023DC
:101B5000FB610D4B3B6200237B620023BB620023D1
:101B6000FB6200233B6300237B6307F11C031946E0
:101B700004480AF05BFB00BF3837BD4680BD00BF9C
:101B80000004024000580040FFEAC00080B590B059
:101B900000AF07F118032822002118460CF028FC9A
:101BA0003B4600221A605A609A60DA601A615A61F4
:101BB0004FF48050FFF7C0F90120FFF78DF9102393
:101BC0003B6002237B600323BB600023FB60002398
:101BD0003B6105237B613B46194630480AF00FFA0A
:101BE00020233B6002237B600323BB600023FB6058
:101BF00000233B6105237B613B46194627480AF0D9
:101C0000FEF940233B6002237B600323BB6000237B
:101C1000FB6000233B6105237B613B4619461F485F
:101C20000AF0EDF980233B6002237B600323BB6055
:101C30000023FB6000233B6105237B613B46194683
:101C400016480AF0DCF90023BB614FF48273FB6194
:101C50004FF4E0633B6200237B620023BB620023FE
:101C6000FB6200233B6300237B630023BB630723EA
:101C7000FB6307F11803194609480AF0AFFE00217B
:101C80000748FFF7DBF90648FFF7EBF90448FFF7D1
:101C9000C5F900BF4037BD4680BD00BF000002400F
:101CA0000030014080B590B000AF07F11803282242
:101CB000002118460CF09CFB3B4600221A605A603B
:101CC0009A60DA601A615A614FF48040FFF71CF99C
:101CD0000220FFF701F94FF400533B6002237B60C1
:101CE0000323BB600023FB6000233B6105237B6172
:101CF0003B46194641480AF082F94FF480433B6065
:101D000002237B600323BB600023FB6000233B6155
:101D100005237B613B46194638480AF070F94FF4B9
:101D200000433B6002237B600323BB600023FB6016
:101D300000233B6105237B613B4619462F480AF08F
:101D40005EF94FF0905201212D48FEF7EDFE002282
:101D500001212B48FEF7ECFD4FF4403201212848C9
:101D6000FEF7BEFE4FF4807201212548FEF704FE07
:101D7000002201212248FEF723FE4FF48062012158
:101D80001F48FEF741FE4FF4006201211C48FEF798
:101D90005FFE4FF4005201211948FEF77DFE01213C
:101DA0001748FEF7E5FE0023BB614FF48273FB6129
:101DB0004FF470633B6200237B620023BB624FF4ED
:101DC0000073FB6200233B6300237B630023BB6340
:101DD0000723FB6307F1180319460A480AF0FEFDC2
:101DE00000210848FFF72AF90648FFF73AF90548A5
:101DF000FFF714F900BF4037BD4680BD0004024024
:101E0000006002400038004080B590B000AF07F19C
:101E100018032822002118460CF0EAFA3B4600225B
:101E20001A605A609A60DA601A615A614FF4004091
:101E3000FFF76AF80420FFF74FF84FF480633B6028
:101E400002237B600323BB600023FB6000233B6114
:101E500006237B613B46194628480AF0D0F84FF428
:101E600000633B6002237B600323BB600023FB60B5
:101E700000233B6106237B613B4619461F480AF05D
:101E8000BEF84FF480533B6002237B600323BB60AA
:101E90000023FB6000233B6106237B613B46194620
:101EA00016480AF0ACF80023BB614FF48273FB6163
:101EB0004FF4E0633B6200237B620023BB624FF47C
:101EC0000073FB6200233B6300237B630023BB633F
:101ED0000723FB6307F11803194609480AF07EFD42
:101EE00000210748FFF7AAF80548FFF7BAF80448A9
:101EF000FFF794F800BF4037BD4680BD00080240A0
:101F0000003C004080B590B000AF07F118032822D4
:101F1000002118460CF06CFA3B4600221A605A6009
:101F20009A60DA601A615A614FF40050FFF704F8C2
:101F30001020FEF7D1FF4FF480533B6002237B60FB
:101F40000323BB600023FB6000233B6105237B610F
:101F50003B46194628480AF052F84FF400533B60BC
:101F600002237B600323BB600023FB6000233B61F3
:101F700005237B613B4619461F480AF040F84FF4A1
:101F800080433B6002237B600323BB600023FB6034
:101F900000233B6105237B613B46194616480AF046
:101FA0002EF80023BB614FF48273FB614FF4E063B2
:101FB0003B6200237B620123BB624FF40073FB6230
:101FC00020233B6300237B630023BB630723FB6366
:101FD00007F11803194609480AF000FD00210748D7
:101FE000FFF72CF80548FFF74CF80448FFF716F800
:101FF00000BF4037BD4680BD0010024000340140A4
:1020000080B590B000AF07F11803282200211846D0
:102010000CF0EEF93B4600221A605A609A60DA60D2
:102020001A615A614FF40010FEF786FF0220FEF796
:1020300053FF08233B6002237B600323BB60002324
:10204000FB6000233B6108237B613B4619465748F0
:1020500009F0D5FF10233B6002237B600323BB60A4
:102060000023FB6000233B6108237B613B4619464C
:102070004E4809F0C4FF20233B6002237B6003230A
:10208000BB600023FB6000233B6108237B613B4670
:102090001946464809F0B3FF4FF000720521444845
:1020A000FEF742FD402205214148FEF741FC4FF476
:1020B000403205213E48FEF713FD002205213C4831
:1020C000FEF75AFC002205213948FEF779FC4FF44F
:1020D000806205213648FEF797FC0022052134482E
:1020E000FEF7B6FC002205213148FEF7D5FC05219C
:1020F0002F48FEF73DFD4FF0007206212C48FEF7F9
:1021000013FD002206212A48FEF712FC4FF440324C
:1021100006212748FEF7E4FC002206212448FEF7AA
:102120002BFC002206212248FEF74AFC4FF4806275
:1021300006211F48FEF768FC002206211C48FEF716
:1021400087FC002206211A48FEF7A6FC0621184843
:10215000FEF70EFD0023BB614FF48273FB614FF469
:10216000E0633B6200237B620023BB624FF4007399
:10217000FB6200233B6300237B630023BB630723D5
:10218000FB6307F1180319460A480AF027FC0021EF
:102190000848FEF753FF0748FEF763FF0548FEF7C0
:1021A0003DFF00BF4037BD4680BD00BF0004024078
:1021B000006402400054014080B586B000AF3B1D72
:1021C00000221A605A609A60DA601A610120FEF7F4
:1021D000B3FEFEF78FFA0346002200211846FEF7F1
:1021E000DFFA034619461920FEF7B0FA1920FEF768
:1021F0008FFA0023BB800023BB604FF6FF73FB60A8
:1022000000233B6100237B613B1D19460C480AF00B
:10221000D9FC0B48FEF745FF00210948FEF7F4FF03
:1022200000210748FFF706F800210548FFF715F8D9
:102230000348FFF725F800BF1837BD4680BD00BF33
:102240000000014080B586B000AF3B1D00221A603F
:102250005A609A60DA601A610120FEF755FEFEF7B7
:1022600049FA0346002202211846FEF799FA03466E
:1022700019461C20FEF76AFA1C20FEF749FA0023D3
:10228000BB800023BB604FF0FF33FB6000233B614A
:102290003B1D19464FF080400AF094FC4FF08040FF
:1022A000FEF7FFFE00214FF08040FEF7ADFF00215A
:1022B0004FF08040FEF7BEFF4FF08040FEF7E0FF9A
:1022C00000BF1837BD4680BD80B594B000AF07F1A0
:1022D0003C0300221A605A609A60DA601A6107F1C2
:1022E0001C032022002118460CF082F83B1D00221E
:1022F0001A605A609A60DA601A615A610420FEF727
:1023000003FE0A23BB8700233B644CF250337B64FB
:102310004FF40073BB6407F13C03194655480AF0BB
:1023200051FC5448FEF7BDFE00215248FEF76CFFF9
:1023300001215048FEF718FF6023FB6100233B6238
:1023400000237B620023BB620023FB6207F11C03B6
:102350001A46012147480AF0CFFC01214548FEF703
:10236000B1FE10214348FEF7FFFE07F11C031A4699
:10237000102140480AF0C0FC10213E48FEF7A2FEA2
:102380004FF480713B48FEF7EFFE07F11C031A463D
:102390004FF4807137480AF0AFFC4FF48071354834
:1023A000FEF790FE4FF480513248FEF7DDFE07F154
:1023B0001C031A464FF480512E480AF09DFC4FF43E
:1023C00080512C48FEF77EFE00212A48FEF732FF9E
:1023D0002848FEF755FF0820FEF77EFD4FF4805396
:1023E0007B600223BB600023FB6000233B61002372
:1023F0007B610223BB613B1D19461F4809F0FFFDAD
:102400004FF400537B600223BB600023FB6000237A
:102410003B6100237B610223BB613B1D19461648CB
:1024200009F0EDFD4FF480437B600223BB60002385
:10243000FB6000233B6100237B610223BB613B1DEA
:1024400019460D4809F0DBFD4FF400437B60022381
:10245000BB600023FB6000233B6100237B61022300
:10246000BB613B1D1946044809F0C9FD00BF503748
:10247000BD4680BD00080040000C024080B58EB013
:1024800000AF07F11C0300221A605A609A60DA60FC
:102490001A615A619A613B1D00221A605A609A6063
:1024A000DA601A615A614FF04050FEF785FC4FF038
:1024B0008040FEF729FD1020FEF70EFD80237B6093
:1024C0000223BB600323FB6000233B6100237B618D
:1024D0000823BB613B1D1946214809F090FD4FF4CC
:1024E00080737B600223BB600323FB6000233B619E
:1024F00000237B610823BB613B1D1946184809F086
:102500007EFDFEF7F7F8034600220B211846FEF782
:1025100047F9034619465220FEF718F95220FEF7F4
:10252000F7F84FF4E133FB6100233B6200237B6249
:102530000023BB620C23FB6200233B6300237B630D
:1025400007F11C03194607480AF0F6FE0548FEF796
:1025500002FF0448FEF7A4FE00BF3837BD4680BD29
:10256000001002400078004080B58EB000AF07F147
:102570001C0300221A605A609A60DA601A615A617C
:102580009A613B1D00221A605A609A60DA601A61F3
:102590005A614FF44030FEF7F5FB1020FEF7CCFCFB
:1025A0000120FEF799FC4FF400737B600223BB60AF
:1025B0000323FB6000233B6100237B610723BB6196
:1025C0003B1D19462A4809F01AFD4FF480637B60D1
:1025D0000223BB600323FB6000233B6100237B617C
:1025E0000723BB613B1D1946214809F008FD4FF444
:1025F00080537B600223BB600323FB6000233B61AD
:1026000000237B610723BB613B1D1946184809F075
:10261000F6FC4FF4E133FB6100233B6200237B6255
:102620000023BB620C23FB6200233B6300237B631C
:1026300007F11C0319460F480AF07EFE0D48FEF70D
:1026400067FE00210B48FEF773FE00210948FEF7E4
:102650004BFE00210748FEF733FE0648FEF77BFEDF
:102660000448FEF71DFE00BF3837BD4680BD00BFE1
:10267000000002400010014080B58EB000AF07F1AD
:102680001C0300221A605A609A60DA601A615A616B
:102690009A613B1D00221A605A609A60DA601A61E2
:1026A0005A614FF04060FEF76DFB2020FEF744FCBE
:1026B0000420FEF711FC40237B600223BB60032350
:1026C000FB6000233B6100237B610823BB613B1D52
:1026D0001946214809F093FC80237B600223BB60EC
:1026E0000323FB6000233B6100237B610823BB6164
:1026F0003B1D1946184809F082FCFDF7FBFF034615
:1027000000220B211846FEF74BF8034619464720D6
:10271000FEF71CF84720FDF7FBFF4FF46123FB6138
:1027200000233B6200237B620023BB620C23FB621D
:1027300000233B6300237B6307F11C031946074812
:102740000AF0FAFD0548FEF706FE0448FEF7A8FD6C
:1027500000BF3837BD4680BD00080240001401406C
:1027600080B500AF4FF48000FEF7B6FB4FF40010C9
:10277000FEF7B2FBFDF7BEFF03460022002118461C
:10278000FEF70EF8034619460C20FDF7DFFF0C207C
:10279000FDF7BEFFFDF7AEFF034600220A211846F3
:1027A000FDF7FEFF034619463820FDF7CFFF38201E
:1027B000FDF7AEFFFDF79EFF034600220A211846F3
:1027C000FDF7EEFF034619463A20FDF7BFFF3A201A
:1027D000FDF79EFFFDF78EFF0346002209211846F4
:1027E000FDF7DEFF034619464420FDF7AFFF442006
:1027F000FDF78EFFFDF77EFF0346002201211846FC
:10280000FDF7CEFF034619464520FDF79FFF452003
:10281000FDF77EFF00BF80BD80B586B000AF3B46B0
:1028200000221A605A609A60DA601A615A611020B8
:10283000FEF752FB0420FEF74FFB8020FEF74CFB17
:102840000120FEF749FB0220FEF746FB0820FEF7B9
:1028500043FB0421BF48FEF7A2FD0821BD48FEF757
:102860009EFD1021BB48FEF79AFD2021B948FEF7D6
:1028700096FD4021B748FEF792FD4FF40051B6484F
:10288000FEF78DFD4FF48041B348FEF788FD4FF40D
:102890000041B148FEF783FD4FF40061AD48FEF7FB
:1028A0007EFD4FF40061AD48FEF779FD4FF4004125
:1028B000AA48FEF774FD0121A948FEF770FD022128
:1028C000A748FEF76CFD1021A548FEF768FD202102
:1028D000A348FEF764FD4021A148FEF760FD0421F6
:1028E000A048FEF74EFD4FF480619A48FEF749FD7F
:1028F0004FF400419748FEF744FD4FF4805199484A
:10290000FEF73FFD4FF480719548FEF73AFD4FF416
:1029100000719348FEF735FD4FF480619048FEF753
:1029200030FD04218E48FEF72CFD80218C48FEF7F7
:1029300028FD4FF480718B48FEF723FD4FF40071A2
:102940008848FEF71EFD01218248FEF71AFD02218C
:102950008048FEF716FD04233B6001237B600023C3
:10296000BB600023FB6000233B613B46194679486E
:1029700009F045FB08233B6001237B600023BB601B
:102980000023FB6000233B613B461946714809F078
:1029900036FB10233B6001237B600023BB600023D8
:1029A000FB6000233B613B4619466A4809F027FB60
:1029B00020233B6001237B600023BB600023FB607E
:1029C00000233B613B461946624809F018FB40234F
:1029D0003B6001237B600023BB600023FB6000237E
:1029E0003B613B4619465B4809F009FB4FF4005335
:1029F0003B6001237B600023BB600023FB6000235E
:102A00003B613B461946544809F0F9FA4FF48043BC
:102A10003B6001237B600023BB600023FB6000233D
:102A20003B613B4619464C4809F0E9FA4FF4004334
:102A30003B6001237B600023BB600023FB6000231D
:102A40003B613B461946444809F0D9FA04233B60F0
:102A500001237B600023BB600023FB6000233B61FC
:102A60003B4619463F4809F0CAFA4FF480633B6081
:102A700001237B600023BB600023FB6000233B61DC
:102A80003B461946334809F0BAFA4FF400633B60FD
:102A900001237B600023BB600023FB6000233B61BC
:102AA0003B4619462B4809F0AAFA4FF400433B6015
:102AB00001237B600023BB600023FB6000233B619C
:102AC0003B461946234809F09AFA4FF480533B607D
:102AD00001237B600023BB600023FB6000233B617C
:102AE0003B4619461F4809F08AFA4FF480733B6051
:102AF00001237B600323BB600023FB6000233B6159
:102B00003B461946164809F07AFA4FF400733B60C9
:102B100001237B600323BB600023FB6000233B6138
:102B20003B4619460E4809F06AFA4FF480633B6051
:102B300001237B600323BB600023FB6000233B6118
:102B40003B461946064809F05AFA4FF400633B60C9
:102B50000AE000BF001002400008024000000240EE
:102B6000000C02400004024000237B6000233B6114
:102B70003B4619467E4809F042FA4FF480733B60A9
:102B800000237B6000233B613B461946794809F0EE
:102B900036FA4FF400733B6000237B6000233B61F7
:102BA0003B461946734809F02AFA4FF480733B609C
:102BB00000237B6000233B613B4619466E4809F0C9
:102BC0001EFA4FF400633B6001237B600023BB606F
:102BD0000023FB6000233B613B461946664809F031
:102BE0000EFA4FF400433B6001237B600023BB607F
:102BF0000023FB6000233B613B4619465E4809F019
:102C0000FEF901233B6001237B600023BB600023AE
:102C1000FB6000233B613B461946554809F0EFF93C
:102C200002233B6001237B600023BB600023FB6029
:102C300000233B613B4619464D4809F0E0F9042367
:102C40003B6001237B600023BB600023FB6000230B
:102C50003B613B461946464809F0D1F908233B60E1
:102C600000237B6000233B613B461946404809F046
:102C7000C6F910233B6001237B600023BB60002367
:102C8000FB6000233B613B461946394809F0B7F920
:102C900020233B6001237B600023BB600023FB609B
:102CA00000233B613B461946314809F0A8F940230F
:102CB0003B6001237B600023BB600023FB6000239B
:102CC0003B613B4619462A4809F099F980233B604D
:102CD00001237B600023BB600023FB6000233B617A
:102CE0003B461946224809F08AF94FF480733B604D
:102CF00001237B600023BB600023FB6000233B615A
:102D00003B4619461D4809F07AF94FF400733B60C1
:102D100001237B600023BB600023FB6000233B6139
:102D20003B461946154809F06AF901233B60012327
:102D30007B600023BB600023FB6000233B613B46BC
:102D400019460F4809F05BF902233B6001237B60C1
:102D50000023BB600023FB6000233B613B46194618
:102D6000074809F04CF900BF1837BD4680BD00BFC9
:102D7000000C024000080240000002400004024033
:102D80000010024080B400AF00BFFDE780B400AF88
:102D900000BFFDE780B400AF00BFFDE780B400AF27
:102DA00000BFFDE780B400AF00BFFDE780B400AF17
:102DB00000BFBD465DF8047B704780B400AF00BF24
:102DC000BD465DF8047B704780B400AF00BFBD46D0
:102DD0005DF8047B704780B500AF08F0DBFE00BFF4
:102DE00080BD80B400AF01231846BD465DF8047B6A
:102DF000704780B582B000AF786039600BF058FB47
:102E0000034616221A604FF0FF3318460837BD46B6
:102E100080BD80B582B000AF78604FF0FF31786838
:102E2000FFF7E7FF00BFFDE780B586B000AFF860B1
:102E3000B9607A6000237B610AE0AFF3008001464D
:102E4000BB685A1CBA60CAB21A707B6901337B61D5
:102E50007A697B689A42F0DB7B6818461837BD4672
:102E600080BD80B586B000AFF860B9607A6000239D
:102E70007B6109E0BB685A1CBA601B781846AFF347
:102E800000807B6901337B617A697B689A42F1DB60
:102E90007B6818461837BD4680BD80B483B000AF4C
:102EA00078604FF0FF3318460C37BD465DF8047B61
:102EB000704780B483B000AF786039603B684FF4EE
:102EC00000525A60002318460C37BD465DF8047B5B
:102ED000704780B483B000AF7860012318460C3788
:102EE000BD465DF8047B704780B485B000AFF860E4
:102EF000B9607A60002318461437BD465DF8047B3C
:102F00007047000080B586B000AF7860144A154B5A
:102F1000D31A7B617B693B61134B1B68002B02D189
:102F2000114B124A1A60104B1A687B6813443A69B5
:102F30009A4207D20BF0BCFA03460C221A604FF0FB
:102F4000FF3309E0084B1B68FB60074B1A687B687E
:102F50001344054A1360FB6818461837BD4680BD08
:102F60000000082000040000BC430020300E0120B7
:102F700080B400AF064BD3F88830054A43F47003A1
:102F8000C2F8883000BFBD465DF8047B704700BFC3
:102F900000ED00E0DFF834D0FFF7EAFF0C480D4900
:102FA0000D4A002302E0D458C4500433C4188C42A4
:102FB000F9D30A4A0A4C002301E013600432A2420A
:102FC000FBD30BF07BFAFEF7F9F9704700000820FD
:102FD00000000020A043002078200108A04300202A
:102FE0002C0E0120FEE780B582B000AF786039601A
:102FF00003F0D8FE03F004FE7B6814330A220A2192
:10300000184608F083FD00BF0837BD4680BD0000AC
:1030100080B584B002AF786039607B68002B03D143
:1030200000210E4803F01CFA78683B685A683B6838
:103030009B68009313460A4A0A4908F0D9FC7B684A
:1030400014337A681321184608F03EFD3B681A686D
:103050007B685A6200BF0837BD4680BDF41701087F
:10306000CD300008E72F000880B586B002AF0223FC
:103070000093042308220949094808F03DFA094A47
:103080003B1D07CA83E807003B1D19460648FFF7AA
:10309000BFFF00BF1037BD4680BD00BF0044002009
:1030A0000844002080030108C043002080B582B09E
:1030B00000AF0346FB71FB791946034808F0B2FCE8
:1030C00000BF0837BD4680BDC043002090B585B025
:1030D00000AF786039603B681B88132B06D0132B38
:1030E00035DC112B08D0122B1DD030E003F064FE2C
:1030F00003F0CAFD01232BE00023FB730EE0FB7BF2
:10310000FC7B184603F05EFE034619467B6804F11B
:10311000140223F81210FB7B0133FB73FB7B072B9C
:10312000EDD9012314E00023BB730DE0BB7B1846EF
:1031300003F052FD0346BA7B19B27B681C3223F8B8
:103140001210BB7B0133BB73BB7B012BEED9022377
:1031500018461437BD4690BD80B483B000AF786088
:10316000054A7B681C3332F9133018460C37BD46CC
:103170005DF8047B704700BFC043002080B483B07B
:1031800000AF7860054A7B68143332F91330184673
:103190000C37BD465DF8047B704700BFC04300207C
:1031A00080B500AF01F080FE02F0DCFAFFF75CFFB3
:1031B00000F08AF800BF80BD80B500AF012000F0AC
:1031C000A5F8042001F0A2FE022002F0F1FA03208B
:1031D000FFF76CFF00BF80BD80B500AF08F0BAFB01
:1031E00000BF80BD80B582B000AF7860396003F069
:1031F00035FC04F001FC04F0BBF87B68012283F885
:1032000051207B68002283F8562000BF0837BD4656
:1032100080BD000080B584B000AF786039607B6805
:103220005B69FB607B685B6939687868984703462F
:10323000FB72FB7A002B08D1FB6806497868984737
:103240007B685B6904497868984700BF1037BD46C2
:1032500080BD00BF241801081018010880B584B093
:1032600002AF786039607B68002B03D100211348DE
:1032700003F0F6F878683B685A683B689B680093EF
:1032800013460F4A0F4908F0B3FB3B681A687B6886
:103290005A617B6818337A681421184608F014FCC8
:1032A0007B681833184608F051FC3B681A7B7B6832
:1032B00083F84C2000BF0837BD4680BD00180108C8
:1032C00015320008E531000890B587B002AF12232F
:1032D0000093022324220949094808F00DF9094BFB
:1032E0003C460FCB84E80F003B4619460648FFF7E3
:1032F000B5FF00BF1437BD4690BD00BFA0640020DD
:10330000C46400208C0301082444002080B582B0EE
:1033100000AF0346FB71FB791946034808F082FBB6
:1033200000BF0837BD4680BD2444002080B582B070
:1033300000AF786039603B681B88162B12D0162BC3
:1033400015DC012B02D0152B07D010E07B68183359
:10335000184608F0FBFB01230AE07B68064A5A6125
:10336000002305E07B68054A5A61002300E0022340
:1033700018460837BD4680BD813300083D3500083A
:1033800080B58CB002AF786039603B681B88013B28
:10339000182B00F2C18001A252F823F0013400087A
:1033A000193500087F340008193500081935000860
:1033B00019350008193500081935000819350008B5
:1033C00019350008193500081935000819350008A5
:1033D0001935000819350008193500081935000895
:1033E0001935000819350008073500081935000897
:1033F000193500088D340008AD340008CD340008BC
:10340000484B3B6280230093474B3A6A4749484800
:1034100008F00AF87B681833002244F62061184649
:1034200008F074FB7B6893F82A301946786800F03E
:10343000D0F9786800F0E6F97B68DB6AFB607B68AE
:103440001B6B3B617B685B6B7B617B681B8DBB612E
:103450007B6893F82A30FB617B6893F82B30184621
:1034600003F066FB07F10C03184603F049FF04F074
:1034700033F97B68002283F84C2001234DE07B6800
:103480001833184608F062FB012346E07B6893F886
:103490004C30002B04D17B68012283F84C2003E0E0
:1034A0007B68032283F84C20012336E07B6893F885
:1034B0004C30012B04D17B68022283F84C2003E0BE
:1034C0007B68032283F84C20012326E07B6893F875
:1034D0004C30022B04D17B68052283F84C2003E09A
:1034E0007B68032283F84C200E4B7B62B823009349
:1034F0000D4B7A6A0F490E4807F096FF7B680E4A1B
:103500005A61002309E07B68042283F84C207B6821
:10351000094A5A61002300E0022318462837BD46B5
:1035200080BD00BF9C030108A4030108CC0301086F
:103530009C660020EC0301082D33000880B582B0A2
:1035400000AF786039603B681B881B2B37D01B2B82
:1035500063DC012B02D01A2B24D05EE07B68183389
:10356000184608F0F3FA7B685B6C2E4A53607B6860
:103570001B6C2C4A13602B4B5B68B3F5FA6F28BFAA
:103580004FF4FA639AB2284B1A80264B1B685B00F3
:10359000254A128852001146244A184604F058FA67
:1035A00001233BE0224B18681F4B1B881A467B689F
:1035B00093F849301D4902F019F801232EE0194B08
:1035C0005B68194A12889B1A164A5360154B1B6890
:1035D000154A12881344134A1360124B5B68002B80
:1035E00016D0104B5B68B3F5FA6F28BF4FF4FA633F
:1035F0009AB20D4B1A800B4B1B685B000A4A12886B
:1036000052001146094A184604F022FA012305E047
:103610007B68084A5A61002300E0022318460837F5
:10362000BD4680BD7C440020886400208844002082
:10363000040000202D33000880B584B000AFF8608E
:10364000B9607A60FB70FB68BA681A64FB687A68D4
:103650005A64FB68FA7883F84920084B1B684FF6D8
:10366000FF72A3F84220FB680549184608F004FAE7
:10367000002318461037BD4680BD00BF040000205F
:103680004C18010880B584B000AFF860B9607A606A
:10369000BB68012B02D87B68642B01D9062318E094
:1036A000FB6893F85130002B06D0002003F092F90C
:1036B000FB68002283F851207968B86803F078FA33
:1036C0007B68D9B2FA68BB6813444D330A461A7056
:1036D000002318461037BD4680BD80B582B000AFCC
:1036E000786039603B68242B01D9062314E07B689D
:1036F00093F85130012B06D0012003F06BF97B6861
:10370000012283F85120386803F0DEF93B68DAB211
:103710007B6883F84F20002318460837BD4680BDDC
:1037200080B582B000AF78607B6893F85130012B90
:1037300006D0012003F04EF97B68012283F8512066
:1037400003F0D2F97B68FF2283F84F20002318464C
:103750000837BD4680BD80B582B000AF7860396063
:103760003B68082B01D9062314E07B6893F851309D
:10377000012B06D0012003F02DF97B68012283F88C
:103780005120386803F0BAF93B68DAB27B6883F8F5
:103790005020002318460837BD4680BD80B582B052
:1037A00000AF78607B6893F85130012B06D0012080
:1037B00003F010F97B68012283F8512003F0AEF981
:1037C0007B68FF2283F85020002318460837BD4647
:1037D00080BD80B582B000AF786039603B68242B33
:1037E00001D906230AE003F053FE386803F078FE9F
:1037F0003B68DAB27B6883F852200023184608370A
:10380000BD4680BD80B582B000AF786003F054FE45
:10381000002318460837BD4680BDB0B483B000AF62
:10382000786039603B681B88002B04D03B681B889C
:10383000B3F57A7F01D9062328E03B689B78002BFB
:1038400003D03B689B78242B01D906231EE03B68FC
:10385000DB78642B01D9062318E03B681B69B3F5BC
:10386000006F01D9062311E03B685B69002B01D191
:1038700006230BE07B683A6803F1280415460FCD58
:103880000FC495E8030084E80300002318460C37B2
:10389000BD46B0BC7047B0B483B000AF786039604B
:1038A0003A687B68154603F128040FCC0FC594E8ED
:1038B000030085E8030000BF0C37BD46B0BC70476D
:1038C00080B584B000AF78607B682833FB60FB680C
:1038D0001B88002B04D0FB681B88B3F57A7F01D9C5
:1038E00006231CE0FB689B78002B03D0FB689B78C9
:1038F000242B01D9062312E0FB68DB78642B01D965
:1039000006230CE0FB681B69B3F5006F01D90623A1
:1039100005E07B680449184608F0AEF80023184615
:103920001037BD4680BD00BF3818010880B483B091
:1039300000AF78607B68DB6903F02003202B01D1A6
:10394000012300E0002318460C37BD465DF8047BD8
:10395000704780B483B000AF78607B685B6ADBB28D
:1039600018460C37BD465DF8047B704780B500AF44
:1039700000F008F8024807F08CFD00BF80BD00BFD2
:103980001466002080B500AF0A48FFF7CFFF03465A
:10399000002B0DD00748FFF7DCFF03461A46064B05
:1039A0001A70064B01229A600449054808F064F831
:1039B00000BF80BD00780040146500200800002092
:1039C000E064002080B400AFBFF34F8F00BF064B10
:1039D000DB6803F4E0620449044B1343CB60BFF39C
:1039E0004F8F00BF00BFFDE700ED00E00400FA05C7
:1039F00080B588B000AFF860B9607A6007F1140351
:103A0000074A0A2118460AF06DFB07F1140319460C
:103A1000F86806F049F900BF2037BD4680BD00BFF9
:103A2000C40C010880B584B000AFF860B9607A605A
:103A3000FFF7C8FF80B588B000AFF860B9607A6062
:103A40000023BB610023FB82B86806F01DFA034621
:103A50007B757B7D012B04D02E49F86807F044FB71
:103A600054E00121B86806F0D9F938613B691B7848
:103A7000612B22D10023FB771BE0FB7F1846FFF769
:103A80007DFB0346FB82B7F9163013F5004F06D1D4
:103A9000FB7F1A462049F86807F026FB06E0FA7F0C
:103AA000B7F916301D49F86807F01EFBFB7F01339C
:103AB000FB77FB7F072BE0D928E03B691B782F2B96
:103AC00020D93B691B78372B1CD8386909F032FDA7
:103AD0000346BB61B869FFF751FB0346FB82B7F9A8
:103AE000163013F5004F05D1BA690B49F86807F095
:103AF000FBFA0BE0B7F91630BA690849F86807F025
:103B0000F3FA03E00649F86807F0EEFA2037BD46FD
:103B100080BD00BFCC0C0108EC0C0108000D0108B1
:103B2000140D010880B588B000AFF860B9607A6004
:103B3000B86806F0A9F90346FB61FB69012B04D0C4
:103B40001549F86807F0D0FA23E0144B1B681846B3
:103B500002F098F9034683F00103DBB2002B04D096
:103B60000F49F86807F0C0FA13E00121B86806F0C1
:103B700055F9B861B86909F0DDFC03467B61074B74
:103B80001B687969184602F027FC0649F86807F0B7
:103B9000ABFA2037BD4680BDCC0C010814000020D4
:103BA000280D0108740D010880B584B000AFF860DD
:103BB000B9607A600A4B1B68184602F026FC03467F
:103BC000002B04D00749F86807F08EFA03E0064995
:103BD000F86807F089FA00BF1037BD4680BD00BF06
:103BE00014000020740D01087C0D010880B588B018
:103BF00000AFF860B9607A60B86806F045F903462E
:103C0000BB61BB69012B04D03849F86807F06CFA36
:103C100069E0374B1B68184602F034F9034683F01D
:103C20000103DBB2002B04D03249F86807F05CFADC
:103C300059E00121B86806F0F1F8786100233B6192
:103C40007B691B78612B25D10023FB611EE0284B8B
:103C50001B68F969184602F0D0F838613B69002BFF
:103C60000CD1234B1B680022F969184602F0E5F8D5
:103C7000FA692149F86807F037FA04E0FA691F4940
:103C8000F86807F031FAFB690133FB61FB69032B2C
:103C9000DDD928E07B691B782F2B24D97B691B7821
:103CA000332B20D8786909F045FC0346FB61104BA3
:103CB0001B68F969184602F0A0F838613B69002BCF
:103CC0000CD10B4B1B680022F969184602F0B5F8BD
:103CD000FA690949F86807F007FA04E0FA69074940
:103CE000F86807F001FA2037BD4680BDCC0C01080A
:103CF00014000020840D0108CC0D0108E00D01081E
:103D000080B588B000AFF860B9607A60B86806F036
:103D1000BBF80346FB61FB69012B04D01549F86829
:103D200007F0E2F922E00121B86806F077F8B861FF
:103D3000B86909F0FFFB0346FB82FB8AB3F5FA7F03
:103D400004D3FB8A40F6B832934204D90A49F86892
:103D500007F0CAF90AE0094B1B68FA8A11461846AF
:103D600002F0EAF90649F86807F0BEF92037BD46C7
:103D700080BD00BFF80D0108200E010814000020CE
:103D8000740D010880B586B000AFF860B9607A6044
:103D9000084B1B68184601F020FF0346FB82FB8A94
:103DA0001A460549F86807F09FF900BF1837BD4665
:103DB00080BD00BF14000020540E010880B588B0FB
:103DC00000AFF860B9607A60B86806F05DF8034645
:103DD000BB61BB69042B04D02F49F86807F084F954
:103DE00057E02E4B1B68184602F03BF90346FB7563
:103DF0000023FB614AE0FB699BB201339BB2194689
:103E0000B86806F00BF80346184609F093FB034622
:103E1000D9B207F11002FB6913440A461A7007F180
:103E20001002FB6913441B78012B05D9FA691C4960
:103E3000F86807F059F92CE007F11002FB69134408
:103E40001B78002B08D1154B1B68FA69D2B21146BA
:103E5000184602F041F916E0FB7DFA699A4205D155
:103E6000FA691049F86807F03FF90CE00B4B1B6842
:103E7000FA69D2B21146184602F00DF9FA690A49F8
:103E8000F86807F031F9FB690133FB61FB69032B2B
:103E9000B1D92037BD4680BD780E0108140000203E
:103EA0009C0E0108C40E0108E80E010880B586B01A
:103EB00000AFF860B9607A60134B1B68184602F0D7
:103EC0002EF90346FB7400237B6115E0FA7C7B69C5
:103ED00042FA03F303F00103002B05D07A690B4982
:103EE000F86807F001F904E07A690949F86807F011
:103EF000FBF87B6901337B617B69032BE6D900BF4B
:103F000000BF1837BD4680BD14000020E80E010830
:103F1000000F010880B58CB000AFF860B9607A601E
:103F2000354B1B68184601F0ADFF034683F00103D3
:103F3000DBB2002B04D03149F86807F0D5F858E01F
:103F4000B86805F0A1FF0346FB62FB6A032B04D0AF
:103F50002B49F86807F0C8F84BE00121B86805F074
:103F60005DFFB862B86A09F0E5FA03467B627B6AD6
:103F7000032B04D92349F86807F0B6F839E0022189
:103F8000B86805F04BFF3862386A09F0D3FA034687
:103F9000FB61FB69012B04D91B49F86807F0A4F801
:103FA00027E00321B86805F039FFB861B86909F066
:103FB000C1FA0346FB82FB8A40F6B832934204D929
:103FC0001249F86807F090F813E00B4B1868FB8A69
:103FD000FA69796A02F080F938613B69002B04D0F4
:103FE0000B49F86807F080F803E00A49F86807F021
:103FF0007BF83037BD4680BD14000020180F010843
:104000003C0F0108680F01088C0F0108B00F010870
:104010007C0D0108740D010880B58AB000AFF8600E
:10402000B9607A602A4B1B68184601F02BFF0346E3
:1040300083F00103DBB2002B04D02649F86807F0B7
:1040400053F841E0B86805F01FFF03467B627B6AC6
:10405000022B04D02049F86807F046F834E001212B
:10406000B86805F0DBFE3862386A09F063FA034687
:10407000FB61FB69032B04D91849F86807F034F891
:1040800022E00221B86805F0C9FEB861B86909F0FC
:1040900051FA03467B610E4B18687B69002B14BFF5
:1040A00001230023DBB21A46F96901F0C6FE38612C
:1040B0003B69002B04D00A49F86807F015F803E0C3
:1040C0000849F86807F010F82837BD4680BD00BFE2
:1040D00014000020180F0108DC0F0108680F010808
:1040E0007C0D0108740D010880B58AB000AFF8603E
:1040F000B9607A60B86805F0C7FE03467B627B6AE8
:10410000022B04D02949F86806F0EEFF4AE00121AD
:10411000B86805F083FE3862386A09F00BFA034686
:10412000FB61234B1B68184601F0F9FF0346FB7641
:10413000FA7EFB6942FA03F303F00103002B05D07A
:10414000FA691C49F86806F0CFFF2BE00221B86835
:1041500005F064FE7861786909F0ECF903463B618B
:104160003B69B3F5FA7F04D33B6940F6B83293421A
:1041700004D91149F86806F0B7FF13E00C4B1B682F
:10418000FA69D2B21146184601F090FE084B1B683E
:104190003A6992B21146184601F09EFE0749F86846
:1041A00006F0A2FF2837BD4680BD00BFFC0F010806
:1041B0001400002024100108200E0108740D0108CD
:1041C00080B584B000AFF860B9607A60064B1B68B8
:1041D000184601F09DFE0549F86806F085FF00BF0E
:1041E0001037BD4680BD00BF14000020740D0108CB
:1041F00080B584B000AFF860B9607A60064B1B6888
:10420000184601F00FFF0549F86806F06DFF00BF82
:104210001037BD4680BD00BF14000020740D01089A
:1042200080B586B000AFF860B9607A600B4B1B6850
:10423000184601F016FF0346FB75084B1B6818462D
:1042400001F01CFF0346BB82FA7DBB8A0449F86873
:1042500006F04AFF00BF1837BD4680BD140000209D
:104260004810010880B588B000AFF860B9607A6086
:10427000B86805F009FE0346FB61FB69012B04D019
:104280001249F86806F030FF1CE00121B86805F01B
:10429000C5FDB861B86909F04DF90346FB75FB7DB2
:1042A000642B04D90A49F86806F01EFF0AE0094B9E
:1042B0001B68FA7D1146184601F05AFF0649F86856
:1042C00006F012FF2037BD4680BD00BF7410010804
:1042D0009810010814000020740D010880B586B004
:1042E00000AFF860B9607A60084B1B68184601F0AF
:1042F00055FF0346FB75FB7D1A460549F86806F035
:10430000F3FE00BF1837BD4680BD00BF140000207B
:10431000BC10010880B588B000AFF860B9607A6061
:10432000B86805F0B1FD0346BB61BB69042B04D03E
:104330002649F86806F0D8FE45E00023FB613BE023
:10434000FB699BB201339BB21946B86805F066FD64
:104350000346184609F0EEF80346D9B207F11402F5
:10436000FB6913440A461A7007F11402FB691344EF
:104370001B78012B05D9FA691549F86806F0B4FED7
:1043800021E007F11402FB6913441B78002B08D1CC
:10439000104B1B68FA69D2B21146184601F02CFF87
:1043A00007E00C4B1B68FA69D2B21146184601F0BF
:1043B00002FFFB690133FB61FB69032BC0D906498E
:1043C000F86806F091FE2037BD4680BDD810010880
:1043D0009C0E010814000020740D010880B586B001
:1043E00000AFF860B9607A60124B1B68184601F0A4
:1043F00026FF0346FB7400237B6113E0FA7C7B6994
:1044000042FA03F303F00103002B04D00A49F868D1
:1044100006F06AFE03E00949F86806F065FE7B696C
:1044200001337B617B69032BE8D900BF00BF1837DC
:10443000BD4680BD140000200011010818110108BC
:1044400080B588B000AFF860B9607A60B86805F0F0
:104450001BFD0346FB61FB69012B04D00E49F86884
:1044600006F042FE15E00121B86805F0D7FCB861FE
:10447000B86909F05FF80346FB82084B1B68B7F97F
:1044800016201146184601F0FDFE0549F86806F0B1
:104490002BFE2037BD4680BD3411010814000020DA
:1044A000740D010880B586B000AFF860B9607A601D
:1044B0000E4B1B68184601F0F5FE0346FB82B7F968
:1044C000163007EE903AB8EEE77AF2EE046AC7EEDD
:1044D000267AB7EEE77A53EC172B0549F86806F011
:1044E00003FE00BF1837BD4680BD00BF140000208A
:1044F0005C11010880B588B000AFF860B9607A60DF
:10450000B86805F0C1FC0346FB61FB69012B04D0D0
:104510001249F86806F0E8FD1DE00121B86805F0D1
:104520007DFCB861B86909F005F803467B617B69D9
:10453000072B04D90A49F86806F0D6FD0BE0094BB1
:104540001B687A69D2B21146184601F085FE064909
:10455000F86806F0C9FD2037BD4680BD801101080E
:104560009811010814000020740D010880B586B070
:1045700000AFF860B9607A600023FB75084B1B68D8
:10458000184601F09CFE0346FB75FB7D1A46054963
:10459000F86806F0A9FD00BF1837BD4680BD00BF12
:1045A00014000020B811010880B584B000AFF86095
:1045B000B9607A60064B1B68184601F01BFB054981
:1045C000F86806F091FD00BF1037BD4680BD00BF02
:1045D00014000020740D010880B584B000AFF860AD
:1045E000B9607A60064B1B68184601F01FFB05494D
:1045F000F86806F079FD00BF1037BD4680BD00BFEA
:1046000014000020740D010880B588B000AFF86078
:10461000B9607A60B86805F037FC0346FB61FB6956
:10462000012B04D01349F86806F05EFD1EE001215D
:10463000B86805F0F3FBB861B86908F07BFF034682
:10464000FB82B7F91630642B04DD0B49F86806F0DD
:104650004BFD0BE0094B1B68B7F9162000211846EB
:10466000FFF710F80649F86806F03EFD2037BD4612
:1046700080BD00BFC8110108F0110108180000201A
:10468000740D010880B588B000AFF860B9607A6039
:10469000B86805F0F9FB0346FB61FB69012B04D008
:1046A0001349F86806F020FD1EE00121B86805F006
:1046B000B5FBB861B86908F03DFF0346FB82B7F966
:1046C0001630642B04DD0B49F86806F00DFD0BE095
:1046D000094B1B68B7F9162001211846FEF7D2FFD7
:1046E0000649F86806F000FD2037BD4680BD00BFD2
:1046F00014120108F011010818000020740D0108BF
:1047000080B588B000AFF860B9607A600023BB83E1
:10471000B86805F0B9FB0346FB76FB7E012B04D09D
:104720002749F86806F0E0FC46E00121B86805F08A
:1047300075FB78617B691B78612B1AD10023FB77AD
:1047400013E0FB7F1846FEF707FD0346BB83FB7FA4
:10475000002B01D11B4A00E01B4ABB8B1B49F868A8
:1047600006F0C2FCFB7F0133FB77FB7F012BE8D90E
:1047700022E07B691B782F2B1AD97B691B78312BA0
:1047800016D8786908F0D6FE0346FB74FB7C184601
:10479000FEF7E2FC0346BB83FB7C002B01D1094AF8
:1047A00000E0094ABB8B0949F86806F09DFC03E06C
:1047B0000749F86806F098FC2037BD4680BD00BF69
:1047C000CC0C01085C120108601201086412010897
:1047D000140D010880B588B000AFF860B9607A6048
:1047E000B86805F051FB0346FB61FB69012B04D05F
:1047F0001349F86806F078FC1EE00121B86805F05E
:104800000DFBB861B86908F095FE78617B69242BCF
:1048100002DC7B69002B04DC0A49F86806F064FCC2
:104820000AE0094B1B687A6911461846FEF755FFE6
:104830000649F86806F058FC2037BD4680BD00BF29
:1048400080120108A412010818000020740D01084C
:1048500080B588B000AFF860B9607A60B86805F0DC
:1048600013FB0346FB61FB69012B04D01349F86875
:1048700006F03AFC1EE00121B86805F0CFFAB861F5
:10488000B86908F057FE78617B69082B02DC7B6908
:10489000002B04DC0A49F86806F026FC0AE0094B04
:1048A0001B687A6911461846FEF755FF0649F868F5
:1048B00006F01AFC2037BD4680BD00BFC8120108B3
:1048C000EC12010818000020740D010880B584B0B6
:1048D00000AFF860B9607A60064B1B681846FEF7B7
:1048E0001FFF0549F86806F0FFFB00BF1037BD4603
:1048F00080BD00BF18000020740D010880B584B091
:1049000000AFF860B9607A60064B1B681846FEF786
:1049100045FF0549F86806F0E7FB00BF1037BD46C4
:1049200080BD00BF18000020740D010880B592B052
:1049300000AFF860B9607A60B86805F0A5FA034680
:104940007B647B6C062B04D06949F86806F0CCFBCD
:10495000CBE00121B86805F061FA0346184608F07B
:10496000E9FD03463B643B6CB3F57A7F03D33B6CB4
:10497000604A934204D96049F86806F0B5FBB4E098
:104980003B6C5E4AA2FB03239B093B640221B8688F
:1049900005F044FA0346184608F0CCFD0346FB63D5
:1049A000FB6B002B02D0FB6B242B04D95449F86815
:1049B00006F09AFB99E00321B86805F02FFA034648
:1049C000184608F0B7FD0346BB63BB6B642B04D9E4
:1049D0004C49F86806F088FB87E00421B86805F0C8
:1049E0001DFA0346184608F0A5FD03467B637B6B62
:1049F000002B04D14449F86806F076FB75E07B6B28
:104A00004FF47A7202FB03F37B630521B86805F06B
:104A100005FA0346184608F08DFD03463B633B6BE1
:104A2000002B04D13949F86806F05EFB5DE03B6B72
:104A30004FF47A7202FB03F33B630621B86805F07A
:104A4000EDF90346184608F075FD0346FB62FB6A64
:104A5000002B04D12E49F86806F046FB45E0FB6ABE
:104A60004FF47A7202FB03F3FB627A6B3B6B1A44DE
:104A7000FB6A13443A6C02FB03F3264AA2FB0323AE
:104A80009B0CBB62BB6AB3F5006F04D92249F8687E
:104A900006F02AFB29E03B6C9BB23B82FB6BDBB24E
:104AA000BB74BB6BDBB2FB747B6B7B613B6BBB6131
:104AB000FB6AFB61BB6A3B62184A3B6CB2FBF3F3D7
:104AC0007B62174B1B6807F1100211461846FEF770
:104AD000A4FE0346002B04D11249F86806F004FB3B
:104AE00003E01149F86806F0FFFA4837BD4680BD7B
:104AF0000C13010800350C006C130108D34D621033
:104B000094130108B4130108D4130108F813010821
:104B10002014010883DE1B434414010840420F00A7
:104B200018000020740D01087C0D0108F0B591B04B
:104B300006AFF860B9607A60184B1B6807F1100285
:104B400011461846FEF7A7FE3B8A1A464FF47A73C1
:104B500003FB02F4BB7C1E46FB7C1D467B69104AAE
:104B6000A2FB03239B09BA690D49A1FB021292091A
:104B7000F9690B48A0FB01018909386A0490039187
:104B8000029201930095334622460649F86806F0E2
:104B9000ABFA00BF2C37BD46F0BD00BF18000020A7
:104BA000D34D62106C14010880B584B000AFF8607A
:104BB000B9607A60074B1B681846FEF781FE034612
:104BC000002B03D00449F86806F08EFA00BF1037B6
:104BD000BD4680BD180000200815010880B588B0CA
:104BE00000AFF860B9607A60B86805F04DF9034627
:104BF000FB61FB69032B04D03349F86806F074FAB3
:104C00005FE0324B1B6893F84C30052B10D02F4BD4
:104C10001B6893F84C30032B0AD02C4B1B6893F87D
:104C20004C30042B04D02A49F86806F05DFA48E0BD
:104C30000121B86805F0F2F80346184608F07AFC3E
:104C40000346BB61BB69B3F5001F04D32149F86873
:104C500006F04AFA35E00221B86805F0DFF80346AD
:104C6000184608F067FC03467B61BB69C3F5001377
:104C70007A699A4203D87B69B3F5007F08D2BB6991
:104C8000C3F500131A461449F86806F02DFA18E027
:104C90000321B86805F0C2F80346184608F04AFC3C
:104CA0000346FB74FB7C012B04D90C49F86806F021
:104CB0001BFA06E0054B1868FB7C7A69B969FEF7B8
:104CC000BBFC2037BD4680BD281501081800002018
:104CD0005815010878150108A4150108D015010818
:104CE00080B400AF024B1846BD465DF8047B7047A8
:104CF0006018010880B400AF26231846BD465DF851
:104D0000047B704780B483B000AF78607B68DB6958
:104D100003F02003202B01D1012300E000231846DB
:104D20000C37BD465DF8047B704780B483B000AF9C
:104D300078607B685B6ADBB218460C37BD465DF86D
:104D4000047B704780B500AF4FF480620849094882
:104D500006F0F8FC4FF480520749084806F0F2FCD0
:104D6000064B044A0649074806F095FA00BF80BD85
:104D7000D4660020AC660020D46A0020C066002003
:104D8000001401409C660020B0B588B000AF1B4BFA
:104D90003C1D1D460FCD0FC495E8070084E80700B1
:104DA000FFF79EFF0346BB61FFF7A4FF0346BB83EB
:104DB0003B1D184604F039FE0346114A1360104BA0
:104DC0001B68002B05D101210E4801F049FB01238E
:104DD00010E00B4B1B680C4A1A60094B1C683B1D0A
:104DE000184604F0F1FD03461A460849204606F02D
:104DF0007BF9002318462037BD46B0BD28160108B0
:104E0000D47A0020F01B0108114E00080816010892
:104E100080B582B000AF78600B46FB70FB78194616
:104E2000034806F0BBFA00BF0837BD4680BD00BF8F
:104E30009C66002080B584B002AF786039607B68E2
:104E4000002B03D10021154801F00AFB78683B686C
:104E5000DA683B681B6900931346114A114906F052
:104E6000C7FD7B6820337A680621184606F02CFEC1
:104E70003B685A687B68DA613B689A687B689A612C
:104E80003B681A687B685A617B682033184606F0D5
:104E90005DFE00BF0837BD4680BD00BFF01B0108A6
:104EA000694F00082D4F000880B588B002AFFFF7AA
:104EB00049FF022300930A2314220D490D4806F0EE
:104EC0001BFBFFF761FF0C4B7B600C4B1B68BB604F
:104ED0000B4BFB600B4B3B61064B7B613B1D19464B
:104EE0000948FFF7A7FF00BF1837BD4680BD00BFC8
:104EF0006C66002080660020B14F0008D47A002044
:104F00009C660020686600202466002080B582B080
:104F100000AF0346FB71FB791946034806F082FD9A
:104F200000BF0837BD4680BD2466002080B582B032
:104F300000AF786039607B68002B03D107210948F6
:104F400001F08EFA7B689B69184606F0C0F97B6811
:104F500020330A220A21184606F0D8FD00BF083780
:104F6000BD4680BDF01B010880B584B000AF7860FD
:104F700039607B685B69FB607B685B69396878686E
:104F800098470346FB72FB7A002B08D1FB68064961
:104F9000786898477B685B6904497868984700BFE0
:104FA0001037BD4680BD00BFFC1B0108F81B01087F
:104FB00080B582B000AF786039607B68002B03D188
:104FC0000321244801F04CFA3B68002B03D1042153
:104FD000204801F045FA3B681B88013B072B34D879
:104FE00001A252F823F000BF095000084B500008FE
:104FF0001B5000084B5000084B5000082950000877
:1050000037500008415000087B6820330A220A21EB
:10501000184606F07BFD012318E07B682033184614
:1050200006F094FD012311E00B4B1B68184604F0B9
:10503000ABFD01230AE07B68084A5A61002305E0C2
:105040007B68074A5A61002300E0022318460837AC
:10505000BD4680BDF01B0108D47A0020E95000084D
:105060001D52000880B582B000AF0B48FFF74AFE22
:105070000346002B0BD00848FFF757FE0346FB7191
:10508000064B1B68FA791146184604F05AFD00BF1A
:105090000837BD4680BD00BF00140140D47A00200F
:1050A00080B584B000AF78607B689B69184606F0D5
:1050B000F0F9F860FB68002B04D07B6803491846C0
:1050C00006F0DAFC00BF1037BD4680BD1C00002092
:1050D00080B500AFFFF7C6FF0248FFF7E1FF00BF52
:1050E00080BD00BF2466002080B584B000AF78602A
:1050F00039600023FB603B681B88012B27D0092BFC
:1051000051D084E0786800F011FA1BE07B689A695E
:105110007B6893F83D3019467B680B4493F8383030
:105120001946104606F03AF9F860FB68002B01D0EA
:1051300001236DE07B6893F83D300133DAB27B6880
:1051400083F83D207B6893F83D30042BDED97B68E3
:105150005B6B002BD6D17B682F4A5A617B6820336A
:105160000A220A21184606F0D1FC002350E07B6891
:105170009A697B6893F83D3019467B680B4493F835
:1051800038301946104606F009F9F860FB68002B24
:1051900001D001233CE07B6893F83D300133DAB263
:1051A0007B6883F83D207B6893F83D30042BDED983
:1051B00024E0786800F0BAF91BE07B689A697B68A4
:1051C00093F83D3019467B680B4493F83830194604
:1051D000104606F0E3F8F860FB68002B01D00123CD
:1051E00016E07B6893F83D300133DAB27B6883F8D0
:1051F0003D207B6893F83D30042BDED97B685B6BE8
:10520000002BD6D17B68044A5A61002300E00223B8
:1052100018461037BD4680BDB14F000880B586B036
:1052200000AF7860396000233B613B681B88012B2D
:1052300003D0092B00F09780E9E07B685A6B764B2E
:105240001343FB60FB681B0CDBB23B72FB681B0A61
:10525000DBB27B72FB68DBB2BB720023FB750DE037
:105260007B689A69FB7D18333B4413F8103C194660
:10527000104606F093F8FB7D0133FB75FB7D022B96
:10528000EED924E0786800F019F91BE07B689A6990
:105290007B6893F8403019467B680B4493F83E30A6
:1052A0001946104606F07AF838613B69002B01D0A8
:1052B0000123ADE07B6893F840300133DAB27B68BC
:1052C00083F840207B6893F84030012BDED97B685F
:1052D0005B6B002BD6D17B68B3F842301B0A9BB2C4
:1052E000DBB23B727B68B3F84230DBB27B720023E7
:1052F000BB750DE07B689A69BB7D18333B4413F89E
:10530000103C1946104606F049F8BB7D0133BB75C9
:10531000BB7D012BEED97B68404A5A617B68203304
:105320000A220A21184606F0F1FB002370E07B6890
:105330009A697B6893F8403019467B680B4493F870
:105340003E301946104606F029F838613B69002BBB
:1053500001D001235CE07B6893F840300133DAB27E
:105360007B6883F840207B6893F84030012BDED9BE
:1053700024E0786800F0A2F81BE07B689A697B68FB
:1053800093F8403019467B680B4493F83E30194639
:10539000104606F003F838613B69002B01D0012369
:1053A00036E07B6893F840300133DAB27B6883F8EB
:1053B00040207B6893F84030012BDED97B685B6B23
:1053C000002BD6D17B68B3F842301B0A9BB2DBB20C
:1053D0003B727B68B3F84230DBB27B7200237B7593
:1053E0000DE07B689A697B7D18333B4413F8103CD1
:1053F0001946104605F0D2FF7B7D01337B757B7D1E
:10540000012BEED97B68054A5A61002300E0022394
:1054100018461837BD4680BD0000F0FFB14F0008A8
:1054200080B485B000AF78600B467B807B881B0A18
:105430009BB2DBB23B737B88DBB27B730023FB73D5
:1054400031E07B681B881AB2FB7B10333B4413F8B6
:10545000043C1BB21B021BB253401BB29AB27B68C6
:105460001A800023BB7318E07B681B881BB2002BDB
:105470000ADA7B681B881BB25B001AB241F2210377
:1054800053401BB29BB203E07B681B885B009BB25E
:105490007A681380BB7B0133BB73BB7B072BE3D9DB
:1054A000FB7B0133FB73FB7B012BCAD900BF00BF21
:1054B0001437BD465DF8047B7047000080B584B0AA
:1054C00000AF78607B681B6B991C7A6811631B883E
:1054D000FB817B685B6B5A1E7B685A637B68423337
:1054E000FA8911461846FFF79BFFFB891B0A9BB2FE
:1054F000DAB27B6883F83E20FB89DAB27B6883F8F6
:105500003F207B68002283F840207B685B6B002B88
:1055100003D10449044806F0AFFA00BF1037BD4676
:1055200080BD00BF001C010824440020B0B588B035
:1055300000AF78602A4B07F10C041D460FCD0FC455
:105540002B6823707B681B6B991C7A6811631B881E
:10555000FB837B685B6B5A1E7B685A63FB8B1B0B60
:105560009BB203F00F0320333B4413F8142C7B68E9
:1055700083F83820FB8B1B0A9BB203F00F03203308
:105580003B4413F8142C7B6883F83920FB8B1B09F0
:105590009BB203F00F0320333B4413F8142C7B68B9
:1055A00083F83A20FB8B03F00F0320333B4413F8BE
:1055B000142C7B6883F83B207B68202283F83C20F6
:1055C0007B68002283F83D207B685B6B002B03D156
:1055D0000449054806F050FA00BF2037BD46B0BD6B
:1055E00044160108001C01082444002080B584B042
:1055F00000AFF860B9607A60FB70FB68BA681A6344
:10560000FB687A685A63FB78002B05D0FB68074972
:10561000184606F031FA04E0FB680549184606F022
:105620002BFA00BF1037BD4680BD00BF240000200C
:105630002000002080B582B000AF7860396002F0B1
:1056400091FA7B68012283F83020786800F0BAFB79
:10565000786800F09BFB786800F0A9FA7B6820333B
:10566000184606F073FA00BF0837BD4680BD00003B
:1056700080B584B000AF786039607B685B69FB609F
:105680007B685B693968786898470346FB72FB7AE8
:10569000002B08D1FB680649786898477B685B69EE
:1056A00004497868984700BF1037BD4680BD00BFE9
:1056B000341C0108201C010880B586B002AF786058
:1056C00039607B68002B03D10021234800F0C8FE1D
:1056D00078683B685A683B689B68009313461F4A8A
:1056E0001F4906F085F97B6820337A680F21184638
:1056F00006F0EAF93B681A687B685A617B68002209
:1057000083F830207B68002283F844207B680022E5
:1057100083F847207B68002283F848200023FB6041
:105720000EE03A68FB6802339B0013445A687968BC
:10573000FB680C339B000B445A60FB680133FB6031
:10574000FB68032BEDD97B682033184606F0FEF981
:1057500000BF1037BD4680BD141C010871560008FB
:1057600035560008B0B58AB002AF12230093022369
:1057700024220B490B4805F0BFFE0B4B3C1D1D4678
:105780000FCD0FC495E8070084E807003B1D1946BC
:105790000648FFF791FF00BF2037BD46B0BD00BFF0
:1057A000408B0020648B002058160108D88A002006
:1057B00080B582B000AF0346FB71FB791946034800
:1057C00006F030F900BF0837BD4680BDD88A0020FA
:1057D00080B584B000AF786039603B681B88012BCE
:1057E00002D0102B0ED041E07B682033184606F023
:1057F000ADF9786800F0CAFA786800F0D8F97B68EB
:1058000001229A613B689B78042B2DD17B6893F829
:105810003030002B09D10121786800F0DDFD786877
:1058200000F0D0FA786800F0B1FA7B6893F846305F
:105830001846FDF7A3FC0346FB817B68B3F94A30A9
:10584000B7F90E209A4203DD7B680B4A5A6102E0E9
:105850007B680A4A5A617B682033642264211846B7
:1058600006F054F9002302E0022300E00123184669
:105870001037BD4680BD00BF815800080D59000893
:1058800080B584B000AF786039603B681B88102B0E
:1058900028D0102B31DC012B02D00F2B0CD02CE0A8
:1058A0007B680022DA610021786800F0DBF9786813
:1058B00000F01CF9012321E07B6893F8463018467C
:1058C000FDF75CFC0346FB817B68B3F94A30B7F90E
:1058D0000E209A4201DD012310E07B68094A5A61DB
:1058E00000230BE03B689B78052B04D17B68064ABC
:1058F0005A61002302E0022300E002231846103719
:10590000BD4680BD0D590008D157000880B584B050
:1059100000AF786039603B681B88102B3CD0102B9F
:1059200045DC012B02D00F2B0BD040E07B6800221E
:10593000DA61786800F02AFA786800F038F9012313
:1059400036E07B6893F846301846FDF717FC0346AF
:10595000FB817B68B3F94A30B7F90E209A4204DD27
:105960007B68154A5A61002322E07B68DB695A1C78
:105970007B68DA617B68DB691D2B08D87B68B3F92B
:105980004A301A46B7F90E30D31A0A2B04DD7B6869
:105990000A4A5A6100230BE03B689B78052B04D12F
:1059A0007B68074A5A61002302E0022300E00223D9
:1059B00018461037BD4680BD81580008C5590008FB
:1059C000D157000880B584B000AF786039603B687B
:1059D0001B88102B24D0102B2DDC012B02D00F2B79
:1059E00008D028E07B680022DA61786800F0B1F81E
:1059F000012321E07B6893F846301846FDF7BEFB93
:105A00000346FB817B68B3F94A30B7F90E209A420E
:105A100001DA012310E07B68094A5A6100230BE098
:105A20003B689B78052B04D17B68064A5A610023AA
:105A300002E0022300E0022318461037BD4680BD75
:105A4000495A0008D157000880B584B000AF78608B
:105A500039603B681B88102B32D0102B3BDC012BAC
:105A600002D00F2B08D036E0786800F08FF9786804
:105A700000F09DF801232FE07B6893F8463018462C
:105A8000FDF77CFB0346FB817B68B3F94A30B7F92D
:105A90000E209A4204DA7B68114A5A6100231BE007
:105AA0007B68DB695A1C7B68DA617B68DB691D2BCC
:105AB00004D97B680B4A5A6100230DE001230BE0F7
:105AC0003B689B78052B04D17B68074A5A61002309
:105AD00002E0022300E0022318461037BD4680BDD5
