:020000040800F2
:1000000000000820812F0008652D00086D2D0008D4
:10001000752D00087D2D0008852D000800000000CA
:100020000000000000000000000000008D2D00080E
:100030009B2D000800000000A92D0008B72D000826
:10004000D12F0008D12F0008D12F0008D12F000890
:10005000D12F0008D12F0008D12F0008D12F000880
:10006000D12F0008D12F0008D12F0008D12F000870
:1000700051740008D12F0008D12F0008D12F00089B
:10008000D12F0008D12F0008D12F0008D12F000850
:10009000D12F0008D12F0008D12F0008D12F000840
:1000A000D12F00088D750008D12F0008D12F00082E
:1000B000D9750008D12F0008D12F0008D12F0008D2
:1000C000D12F0008D12F0008D12F0008D12F000810
:1000D000D12F0008D12F0008D12F0008D12F000800
:1000E000D12F0008D12F0008D12F0008D12F0008F0
:1000F000D12F0008D12F0008D12F0008D12F0008E0
:10010000D12F0008D12F0008D12F0008D12F0008CF
:10011000D12F0008D12F0008D12F0008D12F0008BF
:100120001D6B0008D12F0008D1690008D12F0008ED
:10013000D12F0008D12F0008D12F0008D12F00089F
:10014000D12F0008D12F0008D12F0008D12F00088F
:10015000D12F000885770008D12F0008C32D000893
:10016000D12F0008D12F0008D12F0008D12F00086F
:10017000D12F0008D12F0008D12F00080000000067
:10018000D12F0008D12F0008D12F0008D12F00084F
:10019000D12F0008D12F0008D12F0008D12F00083F
:1001A0000000000000000000D12F0008D12F00083F
:1001B000D12F0008D12F0008D12F0008D12F00081F
:1001C000D12F0008D12F000800000000D12F000817
:1001D000D12F0008D12F0008D12F0008D12F0008FF
:1001E000D12F0008D12F0008D12F0008D12F0008EF
:0801F00000000000D12F0008FF
:1002000010B5054C237833B9044B13B10448AFF350
:1002100000800123237010BD9843002000000000DF
:100220000C01010808B5034B1BB103490348AFF3A8
:10023000008008BD000000009C4300200C01010864
:1002400010F8012B11F8013B012A28BF9A42F7D080
:10025000D01A7047000000000000000000000000FD
:1002600001F0FF01102A2BDB10F0070F08D010F867
:10027000013B013A8B422DD010F0070F42B3F6D16B
:10028000F0B441EA012141EA014122F007047FF084
:1002900000070023F0E80256083C85EA010586EADB
:1002A000010685FA47F5A3FA87F586FA47F6A5FA17
:1002B00087F68EB9EED1F0BC01F0FF0102F0070223
:1002C00032B110F8013B013A83EA010313B1F8D1CE
:1002D0000020704701387047002D06BF35460338AF
:1002E000073815F0010F07D1013015F4807F02BFE8
:1002F000013015F4C03F0130F0BC0138704700BF39
:10030000034613F8012B002AFBD1181A0138704755
:100310007BB972B90029BEBF00204FF0004106E052
:1003200008BF00281CBF6FF000414FF0FF3000F005
:10033000BBB9ADF1080C6DE904CE002909DB002B37
:100340001ADB00F035F8DDF804E0DDE9022304B043
:100350007047404261EB4101002B1BDB00F028F8A5
:10036000DDF804E0DDE9022304B0404261EB410125
:10037000524263EB43037047524263EB430300F086
:1003800017F8DDF804E0DDE9022304B0404261EB38
:1003900041017047524263EB430300F009F8DDF876
:1003A00004E0DDE9022304B0524263EB43037047EB
:1003B0002DE9F047089D8E4604468846002B4AD119
:1003C0008A42174662D9B2FA82F64EB1C6F12003CC
:1003D00001FA06F820FA03F3B74043EA0808B440EC
:1003E0004FEA174E1FFA87FCB8FBFEF1230C0EFBF9
:1003F000118843EA084301FB0CF29A4209D9FB1821
:1004000001F1FF3080F0EA809A4240F2E780023941
:100410003B449A1AA3B2B2FBFEF00EFB102243EA51
:10042000024300FB0CFC9C4509D9FB1800F1FF328C
:1004300080F0D6809C4540F2D3803B44023840EAAD
:100440000140A3EB0C0300211DB1F3400022C5E9DC
:100450000032BDE8F0878B4205D90DB1C5E9000136
:1004600000210846F5E7B3FA83F1002946D1734528
:1004700002D3824200F20581841A6EEB030201204E
:100480009046002DE5D0C5E90048E2E7002A00F0DB
:100490009080B2FA82F6002E40F0A4808A1A030CF3
:1004A0004FEA174E80B2BCB20121B2FBFEFC0EFB3C
:1004B0001C2243EA024304FB0CF29A4207D9FB18C0
:1004C0000CF1FF3802D29A4200F2E080C4469B1A37
:1004D000B3FBFEF20EFB123340EA034302FB04F4CB
:1004E0009C4207D9FB1802F1FF3002D29C4200F275
:1004F000CA8002461B1B42EA0C40A5E7C1F1200658
:100500008B4022FA06F71F430EFA01F420FA06F395
:100510002EFA06FE4FEA1749234300FA01F81FFAA4
:1005200087FCBEFBF9F01C0C09FB10EE44EA0E44FC
:1005300000FB0CFEA64502FA01F209D93C1900F1B4
:10054000FF3A80F09C80A64540F2998002383C44F6
:10055000A4EB0E041FFA83FEB4FBF9F309FB13446A
:100560004EEA044403FB0CFCA44508D93C1903F1F2
:10057000FF3E80F08280A4457FD9023B3C4443EAA1
:100580000040A4EB0C04A0FB02EC64457346E1467A
:1005900062D35FD05DB1B8EB030264EB090404FAE7
:1005A00006F622FA01F31E43CC40C5E9006400219F
:1005B0004FE7B1FBF2FC010C41EA0E4180B240EA88
:1005C00001423B4638463C46B846BE462026B1FB73
:1005D000F7F1A2EB080241EA0C4166E7014618E791
:1005E00010462CE7C6F120022EFA02F3B740B140C4
:1005F00020FA02F24FEA174E0A43B3FBFEF8BCB2F0
:100600000EFB1833110C41EA034108FB04F9B0401A
:1006100089454FEA104380B23ED9791808F1FF3C72
:1006200001D289451FD8A1EB0901B1FBFEF909FBF5
:1006300004F80EFB191192B242EA0142424529D256
:10064000BA1809F1FF31C4D24245C2D2A9F1020160
:100650003A44BEE7F0459DD2BEEB02036CEB070CBB
:100660000138E14696E7A7EB09094944A8F1020CD5
:10067000B1FBFEF909FB04F8DBE773467FE7504660
:1006800066E70846FDE63B44023A33E7ACF1020C6C
:100690003B441CE749469CE7A1EB0901C446B1FB7A
:1006A000FEF909FB04F8C4E7704700BF80B485B0C9
:1006B00000AF78607B6803F00703FB600B4BDB68DF
:1006C000BB60BA684FF6FF031340BB60FB681A02B9
:1006D000BB681A43064B1343BB60044ABB68D36034
:1006E00000BF1437BD465DF8047B704700ED00E0A5
:1006F0000000FA0580B400AF044BDB681B0A03F06E
:1007000007031846BD465DF8047B704700ED00E026
:1007100080B483B000AF0346FB7197F90730002B1C
:100720000BDBFB7903F01F02074997F907305B09E0
:10073000012000FA02F241F8232000BF0C37BD4629
:100740005DF8047B704700BF00E100E080B483B037
:1007500000AF03463960FB7197F90730002B0ADBC5
:100760003B68DAB20C4997F907301201D2B20B4458
:1007700083F800230AE03B68DAB20849FB7903F00A
:100780000F03043B1201D2B20B441A7600BF0C37A0
:10079000BD465DF8047B704700E100E000ED00E03D
:1007A00080B489B000AFF860B9607A60FB6803F08C
:1007B0000703FB61FB69C3F10703042B28BF042374
:1007C000BB61FB690433062B02D9FB69033B00E0E4
:1007D00000237B614FF0FF32BB6902FA03F3DA4377
:1007E000BB681A407B699A404FF0FF317B6901FA80
:1007F00003F3D9437B680B40134318462437BD46A7
:100800005DF8047B704780B489B000AFF860B960D0
:100810007A60FB682C331946BB6803F440734FF4CD
:100820004072BA61BA6992FAA2F27A617A69B2FA4E
:1008300082F2D2B2D3409B000B44FB61FB691A6881
:10084000BB6803F01F031F2101FA03F3DB431A40C7
:100850007B6803F01F01BB6803F01F0301FA03F379
:100860001A43FB691A6000BF2437BD465DF8047B5C
:10087000704780B483B000AF786039607B689B6854
:1008800023F480623B681A437B689A6000BF0C3790
:10089000BD465DF8047B704780B48DB000AFF86052
:1008A000B9607A60FB680C331946BB6803F00073CB
:1008B0004FF00072BA61BA6992FAA2F27A617A696B
:1008C000B2FA82F2D2B2D3409B000B44FB62FB6AC5
:1008D0001A68BB6803F0F8734FF0F8713962396A2F
:1008E00091FAA1F1F961F969B1FA81F1C9B2CB408C
:1008F000072101FA03F3DB431A40BB6803F0F873E6
:100900004FF0F871B962B96A91FAA1F17962796A26
:10091000B1FA81F1C9B2CB40796801FA03F31A4305
:10092000FB6A1A6000BF3437BD465DF8047B704730
:1009300080B485B000AFF860B9607A600D4ABB68DA
:1009400013441B781A46FB6813441B6823F0C0024B
:100950000849BB680B441B781946FB680B441946D1
:100960007B6813430B6000BF1437BD465DF8047B02
:10097000704700BFDC19010880B485B000AFF86093
:10098000B9607A600D4ABB6813441B781A46FB684D
:1009900013441B6823F490720849BB680B441B780E
:1009A0001946FB680B4419467B6813430B6000BF74
:1009B0001437BD465DF8047B704700BFDC190108A1
:1009C00080B485B000AFF860B9607A600D4ABB684A
:1009D00013441B781A46FB6813441B6823F4007207
:1009E0000849BB680B441B781946FB680B44194641
:1009F0007B6813430B6000BF1437BD465DF8047B72
:100A0000704700BFDC19010880B485B000AFF86002
:100A1000B9607A600D4ABB6813441B781A46FB68BC
:100A200013441B6823F480620849BB680B441B789D
:100A30001946FB680B4419467B6813430B6000BFE3
:100A40001437BD465DF8047B704700BFDC19010810
:100A500080B485B000AFF860B9607A600D4ABB68B9
:100A600013441B781A46FB6813441B6823F4C052D6
:100A70000849BB680B441B781946FB680B441946B0
:100A80007B6813430B6000BF1437BD465DF8047BE1
:100A9000704700BFDC19010880B485B000AFF86072
:100AA000B9607A600D4ABB6813441B781A46FB682C
:100AB00013441B6823F4C0420849BB680B441B78ED
:100AC0001946FB680B4419467B6813430B6000BF53
:100AD0001437BD465DF8047B704700BFDC19010880
:100AE00080B485B000AFF860B9607A600D4ABB6829
:100AF00013441B781A46FB6813441B6823F44032E6
:100B00000849BB680B441B781946FB680B4419461F
:100B10007B6813430B6000BF1437BD465DF8047B50
:100B2000704700BFDC19010880B485B000AFF860E1
:100B3000B9607A600D4ABB6813441B781A46FB689B
:100B400013441B6823F0F0520849BB680B441B7820
:100B50001946FB680B4419467B6813430B6000BFC2
:100B60001437BD465DF8047B704700BFDC190108EF
:100B700080B483B000AF786039600C4A3B6813449E
:100B80001B781A467B6813445B6908493A680A4433
:100B9000127811467A680A4423F00403536100BFB7
:100BA0000C37BD465DF8047B704700BFDC190108B7
:100BB00080B483B000AF78607B681B6843F00102AB
:100BC0007B681A6000BF0C37BD465DF8047B704738
:100BD00080B483B000AF78607B681B6823F4003278
:100BE0007B681A6000BF0C37BD465DF8047B704718
:100BF00080B483B000AF78607B681B6823F4002268
:100C00007B681A6000BF0C37BD465DF8047B7047F7
:100C100080B485B000AFF860B9607A60FB68DA68CC
:100C2000064B1340B9687A680A431A43FB68DA60D6
:100C300000BF1437BD465DF8047B704701F8FFFF25
:100C400080B483B000AF78607B68DB6823F4004237
:100C50007B68DA6000BF0C37BD465DF8047B7047E7
:100C600080B483B000AF78607B685B6843F000724B
:100C70007B685A6000BF0C37BD465DF8047B704747
:100C800080B400AF054B1B68044A43F48033136003
:100C900000BFBD465DF8047B704700BF00380240CE
:100CA00080B400AF074B1B6803F40033B3F5003F7B
:100CB0000CBF01230023DBB21846BD465DF8047B60
:100CC000704700BF0038024080B483B000AF786046
:100CD000064B9B6823F0030204497B6813438B6037
:100CE00000BF0C37BD465DF8047B704700380240FA
:100CF00080B400AF044B9B6803F00C031846BD465C
:100D00005DF8047B704700BF0038024080B483B0B8
:100D100000AF7860064B9B6823F0F00204497B68C3
:100D200013438B6000BF0C37BD465DF8047B7047F2
:100D30000038024080B483B000AF7860064B9B68F7
:100D400023F4E05204497B6813438B6000BF0C37E7
:100D5000BD465DF8047B70470038024080B483B024
:100D600000AF7860064B9B6823F4604204497B68BF
:100D700013438B6000BF0C37BD465DF8047B7047A2
:100D80000038024080B483B000AF7860094BD3F8DC
:100D900090207B681B0CDB431A407B689BB20549A3
:100DA0001343C1F8903000BF0C37BD465DF8047B9B
:100DB000704700BF0038024080B483B000AF786055
:100DC000094BD3F890207B681B0CDB431A407B68EF
:100DD0009BB205491343C1F8903000BF0C37BD46A4
:100DE0005DF8047B704700BF0038024080B483B0D8
:100DF00000AF7860094BD3F890207968084B0B401E
:100E0000DB431A407B681B0404491343C1F890304C
:100E100000BF0C37BD465DF8047B704700380240C8
:100E20000000FFFF80B483B000AF7860074BD3F8B9
:100E30008C3023F0807205497B681343C1F88C30F5
:100E400000BF0C37BD465DF8047B70470038024098
:100E500080B400AF054B1B68044A43F080731360F5
:100E600000BFBD465DF8047B704700BF00380240FC
:100E700080B400AF074B1B6803F00073B3F1007F31
:100E80000CBF01230023DBB21846BD465DF8047B8E
:100E9000704700BF0038024080B485B000AFF860F2
:100EA000B9607A603B600A4B5A680A4B1340F96894
:100EB000BA6811437A68920111433A680A430449B7
:100EC00013434B6000BF1437BD465DF8047B704789
:100ED000003802400080BCFF80B485B000AF78606D
:100EE000084B1A6B07497B6813430B63054B1A6B5E
:100EF0007B681340FB60FB6800BF1437BD465DF89C
:100F0000047B70470038024080B485B000AF786041
:100F1000084B1A6C07497B6813430B64054B1A6C2A
:100F20007B681340FB60FB6800BF1437BD465DF86B
:100F3000047B70470038024080B485B000AF786011
:100F4000084B5A6C07497B6813434B64054B5A6C3A
:100F50007B681340FB60FB6800BF1437BD465DF83B
:100F6000047B70470038024080B483B000AF7860E3
:100F7000064B1B6823F00F0204497B6813430B6088
:100F800000BF0C37BD465DF8047B7047003C024053
:100F900080B400AF044B1B6803F00F031846BD4636
:100FA0005DF8047B704700BF003C024080B400AF96
:100FB000054B1B68044A43F48033136000BFBD46F1
:100FC0005DF8047B704700BF0070004080B483B0C0
:100FD00000AF7860064B1B6823F4404204497B68ED
:100FE00013430B6000BF0C37BD465DF8047B7047B0
:100FF0000070004080B400AF074B5B6803F480438F
:10100000B3F5804F0CBF01230023DBB21846BD4669
:101010005DF8047B704700BF0070004080B483B06F
:1010200000AF78607B681B6843F040027B681A6001
:1010300000BF0C37BD465DF8047B704780B483B0B9
:1010400000AF786039607B685B6823F010023B6812
:101050001A437B685A6000BF0C37BD465DF8047BBD
:10106000704780B483B000AF78607B685B6843F002
:1010700008027B685A6000BF0C37BD465DF8047BF0
:10108000704780B483B000AF78607B685B6823F002
:1010900008027B685A6000BF0C37BD465DF8047BD0
:1010A000704780B483B000AF78607B681B6823F022
:1010B00080027B681A6000BF0C37BD465DF8047B78
:1010C0007047000080B485B000AF786039603B683D
:1010D000012B28D03B68042B23D03B68102B1ED05B
:1010E0003B68402B19D03B68B3F5807F13D03B6839
:1010F000B3F5806F0DD03B68B3F5805F07D03B68D8
:10110000B3F5803F01D107230EE008230CE006234E
:101110000AE0052308E0042306E0032304E0022399
:1011200002E0012300E00023FB737B6818331946BB
:10113000FB7B0B4AD35C0B44BB60BB681A68FB7B30
:101140000849CB5C194604238B40DB431A40BB683B
:101150001A6000BF1437BD465DF8047B704700BFBE
:10116000E4190108F019010880B485B000AF786077
:1011700039603B68012B28D03B68042B23D03B68A7
:10118000102B1ED03B68402B19D03B68B3F5807FF5
:1011900013D03B68B3F5806F0DD03B68B3F5805F2B
:1011A00007D03B68B3F5803F01D107230EE0082349
:1011B0000CE006230AE0052308E0042306E00323ED
:1011C00004E0022302E0012300E00023FB737B68BC
:1011D00018331946FB7B0A4AD35C0B44BB60BB68DF
:1011E0001A68FB7B0749CB5C194608238B401A43DE
:1011F000BB681A6000BF1437BD465DF8047B7047BA
:10120000E4190108F019010880B483B000AF7860D8
:1012100039607B689A68064B13403A681A437B68CA
:101220009A6000BF0C37BD465DF8047B704700BF75
:10123000F8BFFEFF80B483B000AF786039607B6890
:101240005B6823F070023B681A437B685A6000BFFA
:101250000C37BD465DF8047B704780B483B000AFA7
:10126000786039607B685B6823F470023B681A43DE
:101270007B685A6000BF0C37BD465DF8047B704741
:1012800080B483B000AF78607B689B6823F08002F5
:101290007B689A6000BF0C37BD465DF8047B7047E1
:1012A00080B483B000AF78607B681B6843F00102B4
:1012B0007B681A6000BF0C37BD465DF8047B704741
:1012C00080B483B000AF786039607B681B6823F41A
:1012D000F8123B681B041A437B681A6000BF0C3786
:1012E000BD465DF8047B704780B483B000AF786082
:1012F00039607B681B6823F078723B685B051A4392
:101300007B681A6000BF0C37BD465DF8047B7047F0
:1013100080B483B000AF78607B689B6843F4804200
:101320007B689A6000BF0C37BD465DF8047B704750
:1013300080B483B000AF786039607B689B6823F429
:1013400000423B681A437B689A6000BF0C37BD4679
:101350005DF8047B704780B483B000AF78607B6831
:101360005B6823F490427B685A607B689B6823F03B
:101370002A027B689A6000BF0C37BD465DF8047B8B
:10138000704780B483B000AF786039607B683A689A
:101390009A6100BF0C37BD465DF8047B704780B48E
:1013A00083B000AF786039603B681A047B689A614B
:1013B00000BF0C37BD465DF8047B704780B500AFB9
:1013C0004FF08050FFF7A0FD4FF48040FFF7B4FDD1
:1013D0000320FFF76BF9FFF78DF9034600220F2179
:1013E0001846FFF7DDF9034619464FF0FF30FFF7C7
:1013F000ADF900F02DF801F0FFF901F0A1F900F0CE
:10140000DDFA00F04FFB00F0C1FB00F04BFC00F0F8
:10141000FBFC00F06DF800F075FD00F055FF01F0E9
:101420002DF800F0EDFD01F08FF801F015F900F056
:10143000B3F900F061FA00F0BFFE00F003FF01F025
:10144000A5FE01F0AFFE01F0BDFE00BFFDE700000C
:1014500080B500AF0620FFF787FD00BFFFF798FDBE
:101460000346062BFAD14FF44040FFF7AFFDFFF7DC
:101470009DFDFFF705FC00BFFFF712FC0346012BA3
:10148000FAD10023C0220C214FF48000FFF704FDA5
:10149000FFF7DEFC00BFFFF7EBFC0346012BFAD1A0
:1014A00000BFFFF7A7FD0346002BFAD00020FFF78F
:1014B0002DFC4FF4A050FFF73DFC4FF40040FFF728
:1014C0004DFC0220FFF700FC00BFFFF711FC0346B4
:1014D000082BFAD105480BF0BBFE04480BF0ECFEDC
:1014E0000020FFF79FFC00BF80BD00BF00C2EB0BD8
:1014F00080B592B000AF07F13C0300221A605A6039
:101500009A6007F1280300221A605A609A60DA6034
:101510001A6107F1180300221A605A609A60DA60B3
:101520003B4600221A605A609A60DA601A615A617A
:101530004FF48070FFF700FD0420FFF7CDFC022080
:10154000FFF7CAFC01233B6003237B6000233B6160
:101550003B46194684480AF024FC02233B600323DF
:101560007B6000233B613B4619467F480AF019FC2B
:1015700004233B6003237B6000233B613B46194609
:1015800079480AF00EFC08233B6003237B600023AC
:101590003B613B46194674480AF003FC10233B604C
:1015A00003237B6000233B613B4619466E480AF0EB
:1015B000F8FB20233B6003237B6000233B613B4619
:1015C000194669480AF0EDFB01233B6003237B6069
:1015D00000233B613B46194664480AF0E2FB0223C4
:1015E0003B6003237B6000233B613B4619465F4819
:1015F0000AF0D7FB002200215D48FFF795FA002290
:1016000000215B48FFF794F9002200215848FFF7BA
:1016100067FA4FF4807200215548FFF7ADF90022B8
:1016200000215348FFF7CCF94FF480620021504865
:10163000FFF7EAF94FF4006200214D48FFF708FA7E
:101640004FF4005200214A48FFF726FA002148488B
:10165000FFF78EFA0023FB6300233B644FF4807393
:101660007B6407F13C03194642480AF021FA002343
:10167000BB624FF4E003FB6200233B6300237B6308
:101680004FF44073BB6307F12803194639480AF049
:101690003BFA00213748FFF7ECF84FF48033BB6189
:1016A0000023FB6107F11803194633480AF0B8F923
:1016B0000A224FF400712F48FFF7A5F801220A21F2
:1016C0002C48FFF7E9F82D4A40F205212948FFF799
:1016D0009AF8012229492748FFF7DEF8284A40F204
:1016E0000A212448FFF78FF8012225492148FFF7F6
:1016F000D3F8244A40F20F211E48FFF784F8012254
:1017000020491C48FFF7C8F81F4A4FF405711948D3
:10171000FFF779F801221C491648FFF7BDF81B4A6C
:1017200040F219211348FFF76EF8012217491148BA
:10173000FFF7B2F8164A4FF480710E48FFF763F8CE
:10174000012213490B48FFF7A7F8124A40F205118E
:101750000848FFF758F801220E490648FFF79CF8A1
:1017600000BF4837BD4680BD00080240000402406B
:101770000064024000200140002301400B003000C3
:101780000C0060000D0090000E00C0000F00F00083
:10179000080080030900B00380B58EB000AF07F1E8
:1017A0002C0300221A605A609A6007F11803002285
:1017B0001A605A609A60DA601A613B4600221A6029
:1017C0005A609A60DA601A615A614FF40070FFF74C
:1017D000B3FB0120FFF780FB04233B6003237B6006
:1017E00000233B613B4619463E480AF0DAFA0823DB
:1017F0003B6003237B6000233B613B46194639482D
:101800000AF0CFFA4FF0007202213748FFF78CF947
:10181000002202213448FFF78BF8002202213248CF
:10182000FFF75EF94FF4807202212F48FFF7A4F80A
:10183000002202212C48FFF7C3F84FF480620221F6
:101840002948FFF7E1F84FF4006202212648FFF72C
:10185000FFF84FF4005202212348FFF71DF902213F
:101860002148FFF785F90023FB6200233B634FF417
:1018700080737B6307F12C0319461C480AF018F9A2
:101880000023BB614FF48013FB6100233B62002304
:101890007B624FF44073BB6207F11803194613488B
:1018A0000AF032F94FF480611048FEF7E2FF104A67
:1018B0004FF400710D48FEF7A6FF01220C490B48BA
:1018C000FEF7EAFF0B4A40F205210848FEF79BFFAE
:1018D000012208490548FEF7DFFF00BF3837BD4643
:1018E00080BD00BF000002400064024000210140B2
:1018F000030090020200600280B58EB000AF07F1D5
:101900002C0300221A605A609A6007F11803002223
:101910001A605A609A60DA601A613B4600221A60C7
:101920005A609A60DA601A615A614FF48060FFF77A
:1019300003FB0120FFF7D0FA02233B6003237B6007
:1019400000233B613B46194619480AF02AFA002356
:10195000FB6200233B6300237B6307F12C031946E2
:1019600014480AF0A5F80023BB610023FB610023A3
:101970003B6200237B620023BB6207F11803194618
:101980000C480AF0C1F84FF480610A48FEF771FF75
:10199000094A4FF400710748FEF735FF0022064957
:1019A0000448FEF779FF00BF3837BD4680BD00BF51
:1019B00000000240002201400100300280B58EB0DC
:1019C00000AF07F11C0300221A605A609A60DA60C7
:1019D0001A615A619A613B1D00221A605A609A602E
:1019E000DA601A615A614FF44030FFF7FFF90220C4
:1019F000FFF772FA40237B600223BB600323FB6086
:101A000001233B6100237B610423BB613B1D19461D
:101A100021480AF0C6F980237B600223BB600323C0
:101A2000FB6001233B6100237B610423BB613B1D01
:101A3000194619480AF0B5F94FF40010FFF764FA97
:101A40001648FFF70DF9002200211448FFF7E0F8CF
:101A50001248FFF7F5F81148FFF7CAF80F48FFF7EB
:101A6000B7F80023FB610E4B3B6200237B6200232F
:101A7000BB620023FB6200233B6300237B6307F10F
:101A80001C03194605480AF0A3FA0448FFF790F82A
:101A900000BF3837BD4680BD0004024000540040FE
:101AA000FF63106080B58EB000AF07F11C03002209
:101AB0001A605A609A60DA601A615A619A613B1D35
:101AC00000221A605A609A60DA601A615A614FF413
:101AD0004020FFF78BF90220FFF7FEF94FF48063F7
:101AE0007B600223BB600323FB6001233B61002377
:101AF0007B610423BB613B1D194621480AF051F963
:101B00004FF400637B600223BB600323FB6001236F
:101B10003B6100237B610423BB613B1D19461848D0
:101B20000AF03FF94FF48000FFF7EEF91548FFF790
:101B300097F8002200211348FFF76AF81148FFF7D1
:101B40007FF81048FFF754F80E48FFF741F80023DC
:101B5000FB610D4B3B6200237B620023BB620023D1
:101B6000FB6200233B6300237B6307F11C031946E0
:101B700004480AF02DFA00BF3837BD4680BD00BFCB
:101B80000004024000580040FFEAC00080B590B059
:101B900000AF07F118032822002118460CF0FCFAC8
:101BA0003B4600221A605A609A60DA601A615A61F4
:101BB0004FF48050FFF7C0F90120FFF78DF9102393
:101BC0003B6002237B600323BB600023FB60002398
:101BD0003B6105237B613B46194630480AF0E1F83A
:101BE00020233B6002237B600323BB600023FB6058
:101BF00000233B6105237B613B46194627480AF0D9
:101C0000D0F840233B6002237B600323BB600023AA
:101C1000FB6000233B6105237B613B4619461F485F
:101C20000AF0BFF880233B6002237B600323BB6084
:101C30000023FB6000233B6105237B613B46194683
:101C400016480AF0AEF80023BB614FF48273FB61C3
:101C50004FF4E0633B6200237B620023BB620023FE
:101C6000FB6200233B6300237B630023BB630723EA
:101C7000FB6307F11803194609480AF081FD0021AA
:101C80000748FFF7DBF90648FFF7EBF90448FFF7D1
:101C9000C5F900BF4037BD4680BD00BF000002400F
:101CA0000030014080B590B000AF07F11803282242
:101CB000002118460CF070FA3B4600221A605A6068
:101CC0009A60DA601A615A614FF48040FFF71CF99C
:101CD0000220FFF701F94FF400533B6002237B60C1
:101CE0000323BB600023FB6000233B6105237B6172
:101CF0003B46194641480AF054F84FF480433B6094
:101D000002237B600323BB600023FB6000233B6155
:101D100005237B613B46194638480AF042F84FF4E8
:101D200000433B6002237B600323BB600023FB6016
:101D300000233B6105237B613B4619462F480AF08F
:101D400030F84FF0905201212D48FEF7EDFE0022B1
:101D500001212B48FEF7ECFD4FF4403201212848C9
:101D6000FEF7BEFE4FF4807201212548FEF704FE07
:101D7000002201212248FEF723FE4FF48062012158
:101D80001F48FEF741FE4FF4006201211C48FEF798
:101D90005FFE4FF4005201211948FEF77DFE01213C
:101DA0001748FEF7E5FE0023BB614FF48273FB6129
:101DB0004FF470633B6200237B620023BB624FF4ED
:101DC0000073FB6200233B6300237B630023BB6340
:101DD0000723FB6307F1180319460A480AF0D0FCF1
:101DE00000210848FFF72AF90648FFF73AF90548A5
:101DF000FFF714F900BF4037BD4680BD0004024024
:101E0000006002400038004080B590B000AF07F19C
:101E100018032822002118460CF0BEF93B46002288
:101E20001A605A609A60DA601A615A614FF4004091
:101E3000FFF76AF80420FFF74FF84FF480633B6028
:101E400002237B600323BB600023FB6000233B6114
:101E500006237B613B461946284809F0A2FF4FF450
:101E600000633B6002237B600323BB600023FB60B5
:101E700000233B6106237B613B4619461F4809F05E
:101E800090FF4FF480533B6002237B600323BB60D1
:101E90000023FB6000233B6106237B613B46194620
:101EA000164809F07EFF0023BB614FF48273FB618B
:101EB0004FF4E0633B6200237B620023BB624FF47C
:101EC0000073FB6200233B6300237B630023BB633F
:101ED0000723FB6307F11803194609480AF050FC71
:101EE00000210748FFF7AAF80548FFF7BAF80448A9
:101EF000FFF794F800BF4037BD4680BD00080240A0
:101F0000003C004080B590B000AF07F118032822D4
:101F1000002118460CF040F93B4600221A605A6036
:101F20009A60DA601A615A614FF40050FFF704F8C2
:101F30001020FEF7D1FF4FF480533B6002237B60FB
:101F40000323BB600023FB6000233B6105237B610F
:101F50003B461946284809F024FF4FF400533B60E4
:101F600002237B600323BB600023FB6000233B61F3
:101F700005237B613B4619461F4809F012FF4FF4C9
:101F800080433B6002237B600323BB600023FB6034
:101F900000233B6105237B613B461946164809F047
:101FA00000FF0023BB614FF48273FB614FF4E063D9
:101FB0003B6200237B620123BB624FF40073FB6230
:101FC00020233B6300237B630023BB630723FB6366
:101FD00007F11803194609480AF0D2FB0021074807
:101FE000FFF72CF80548FFF74CF80448FFF716F800
:101FF00000BF4037BD4680BD0010024000340140A4
:1020000080B590B000AF07F11803282200211846D0
:102010000CF0C2F83B4600221A605A609A60DA60FF
:102020001A615A614FF40010FEF786FF0220FEF796
:1020300053FF08233B6002237B600323BB60002324
:10204000FB6000233B6108237B613B4619465748F0
:1020500009F0A7FE10233B6002237B600323BB60D3
:102060000023FB6000233B6108237B613B4619464C
:102070004E4809F096FE20233B6002237B60032339
:10208000BB600023FB6000233B6108237B613B4670
:102090001946464809F085FE4FF000720521444874
:1020A000FEF742FD402205214148FEF741FC4FF476
:1020B000403205213E48FEF713FD002205213C4831
:1020C000FEF75AFC002205213948FEF779FC4FF44F
:1020D000806205213648FEF797FC0022052134482E
:1020E000FEF7B6FC002205213148FEF7D5FC05219C
:1020F0002F48FEF73DFD4FF0007206212C48FEF7F9
:1021000013FD002206212A48FEF712FC4FF440324C
:1021100006212748FEF7E4FC002206212448FEF7AA
:102120002BFC002206212248FEF74AFC4FF4806275
:1021300006211F48FEF768FC002206211C48FEF716
:1021400087FC002206211A48FEF7A6FC0621184843
:10215000FEF70EFD0023BB614FF48273FB614FF469
:10216000E0633B6200237B620023BB624FF4007399
:10217000FB6200233B6300237B630023BB630723D5
:10218000FB6307F1180319460A480AF0F9FA00211F
:102190000848FEF753FF0748FEF763FF0548FEF7C0
:1021A0003DFF00BF4037BD4680BD00BF0004024078
:1021B000006402400054014080B586B000AF3B1D72
:1021C00000221A605A609A60DA601A610120FEF7F4
:1021D000B3FEFEF78FFA0346002200211846FEF7F1
:1021E000DFFA034619461920FEF7B0FA1920FEF768
:1021F0008FFA0023BB800023BB604FF6FF73FB60A8
:1022000000233B6100237B613B1D19460C480AF00B
:10221000ABFB0B48FEF745FF00210948FEF7F4FF32
:1022200000210748FFF706F800210548FFF715F8D9
:102230000348FFF725F800BF1837BD4680BD00BF33
:102240000000014080B586B000AF3B1D00221A603F
:102250005A609A60DA601A610120FEF755FEFEF7B7
:1022600049FA0346002202211846FEF799FA03466E
:1022700019461C20FEF76AFA1C20FEF749FA0023D3
:10228000BB800023BB604FF0FF33FB6000233B614A
:102290003B1D19464FF080400AF066FB4FF080402E
:1022A000FEF7FFFE00214FF08040FEF7ADFF00215A
:1022B0004FF08040FEF7BEFF4FF08040FEF7E0FF9A
:1022C00000BF1837BD4680BD80B594B000AF07F1A0
:1022D0003C0300221A605A609A60DA601A6107F1C2
:1022E0001C032022002118460BF056FF3B1D002244
:1022F0001A605A609A60DA601A615A610420FEF727
:1023000003FE0A23BB8700233B644CF250337B64FB
:102310004FF40073BB6407F13C03194655480AF0BB
:1023200023FB5448FEF7BDFE00215248FEF76CFF28
:1023300001215048FEF718FF6023FB6100233B6238
:1023400000237B620023BB620023FB6207F11C03B6
:102350001A46012147480AF0A1FB01214548FEF732
:10236000B1FE10214348FEF7FFFE07F11C031A4699
:10237000102140480AF092FB10213E48FEF7A2FED1
:102380004FF480713B48FEF7EFFE07F11C031A463D
:102390004FF4807137480AF081FB4FF48071354863
:1023A000FEF790FE4FF480513248FEF7DDFE07F154
:1023B0001C031A464FF480512E480AF06FFB4FF46D
:1023C00080512C48FEF77EFE00212A48FEF732FF9E
:1023D0002848FEF755FF0820FEF77EFD4FF4805396
:1023E0007B600223BB600023FB6000233B61002372
:1023F0007B610223BB613B1D19461F4809F0D1FCDC
:102400004FF400537B600223BB600023FB6000237A
:102410003B6100237B610223BB613B1D19461648CB
:1024200009F0BFFC4FF480437B600223BB600023B4
:10243000FB6000233B6100237B610223BB613B1DEA
:1024400019460D4809F0ADFC4FF400437B600223B0
:10245000BB600023FB6000233B6100237B61022300
:10246000BB613B1D1946044809F09BFC00BF503777
:10247000BD4680BD00080040000C024080B58EB013
:1024800000AF07F11C0300221A605A609A60DA60FC
:102490001A615A619A613B1D00221A605A609A6063
:1024A000DA601A615A614FF04050FEF785FC4FF038
:1024B0008040FEF729FD1020FEF70EFD80237B6093
:1024C0000223BB600323FB6000233B6100237B618D
:1024D0000823BB613B1D1946194809F062FC4FF403
:1024E00080737B600223BB600323FB6000233B619E
:1024F00000237B610823BB613B1D1946104809F08E
:1025000050FC4FF4E133FB6100233B6200237B620C
:102510000023BB620C23FB6200233B6300237B632D
:1025200007F11C03194607480AF0D8FD0548FEF7D5
:1025300012FF0448FEF7B4FE00BF3837BD4680BD29
:10254000001002400078004080B58EB000AF07F167
:102550001C0300221A605A609A60DA601A615A619C
:102560009A613B1D00221A605A609A60DA601A6113
:102570005A614FF44030FEF705FC1020FEF7DCFCFA
:102580000120FEF7A9FC4FF400737B600223BB60BF
:102590000323FB6000233B6100237B610723BB61B6
:1025A0003B1D19462A4809F0FCFB4FF480637B6011
:1025B0000223BB600323FB6000233B6100237B619C
:1025C0000723BB613B1D1946214809F0EAFB4FF484
:1025D00080537B600223BB600323FB6000233B61CD
:1025E00000237B610723BB613B1D1946184809F096
:1025F000D8FB4FF4E133FB6100233B6200237B6295
:102600000023BB620C23FB6200233B6300237B633C
:1026100007F11C0319460F480AF060FD0D48FEF74C
:1026200077FE00210B48FEF783FE00210948FEF7E4
:102630005BFE00210748FEF743FE0648FEF78BFECF
:102640000448FEF72DFE00BF3837BD4680BD00BFF1
:10265000000002400010014080B58EB000AF07F1CD
:102660001C0300221A605A609A60DA601A615A618B
:102670009A613B1D00221A605A609A60DA601A6102
:102680005A614FF04060FEF77DFB2020FEF754FCBE
:102690000420FEF721FC40237B600223BB60032360
:1026A000FB6000233B6100237B610823BB613B1D72
:1026B0001946214809F075FB80237B600223BB602B
:1026C0000323FB6000233B6100237B610823BB6184
:1026D0003B1D1946184809F064FBFEF70BF803464A
:1026E00000220B211846FEF75BF8034619464720E7
:1026F000FEF72CF84720FEF70BF84FF4E133FB61AF
:1027000000233B6200237B620023BB620C23FB623D
:1027100000233B6300237B6307F11C031946074832
:102720000AF0DCFC0548FEF716FE0448FEF7B8FD8B
:1027300000BF3837BD4680BD00080240001401408C
:1027400080B500AF4FF48000FEF7C6FB4FF40010D9
:10275000FEF7C2FBFDF7CEFF03460022002118461C
:10276000FEF71EF8034619460C20FDF7EFFF0C207C
:10277000FDF7CEFFFDF7BEFF034600220A211846F3
:10278000FEF70EF8034619463820FDF7DFFF382024
:10279000FDF7BEFFFDF7AEFF034600220A211846F3
:1027A000FDF7FEFF034619463A20FDF7CFFF3A201A
:1027B000FDF7AEFFFDF79EFF0346002209211846F4
:1027C000FDF7EEFF034619464420FDF7BFFF442006
:1027D000FDF79EFFFDF78EFF0346002201211846FC
:1027E000FDF7DEFF034619464520FDF7AFFF452004
:1027F000FDF78EFF00BF80BD80B586B000AF3B46C1
:1028000000221A605A609A60DA601A615A611020D8
:10281000FEF762FB0420FEF75FFB8020FEF75CFB07
:102820000120FEF759FB0220FEF756FB0820FEF7B9
:1028300053FB0421BF48FEF7B2FD0821BD48FEF757
:10284000AEFD1021BB48FEF7AAFD2021B948FEF7D6
:10285000A6FD4021B748FEF7A2FD4FF40051B6484F
:10286000FEF79DFD4FF48041B348FEF798FD4FF40D
:102870000041B148FEF793FD4FF40061AD48FEF70B
:102880008EFD4FF40061AD48FEF789FD4FF4004125
:10289000AA48FEF784FD0121A948FEF780FD022128
:1028A000A748FEF77CFD1021A548FEF778FD202102
:1028B000A348FEF774FD4021A148FEF770FD0421F6
:1028C000A048FEF75EFD4FF480619A48FEF759FD7F
:1028D0004FF400419748FEF754FD4FF4805199485A
:1028E000FEF74FFD4FF480719548FEF74AFD4FF417
:1028F00000719348FEF745FD4FF480619048FEF764
:1029000040FD04218E48FEF73CFD80218C48FEF7F7
:1029100038FD4FF480718B48FEF733FD4FF40071A2
:102920008848FEF72EFD01218248FEF72AFD02218C
:102930008048FEF726FD04233B6001237B600023D3
:10294000BB600023FB6000233B613B46194679488E
:1029500009F027FA08233B6001237B600023BB605A
:102960000023FB6000233B613B461946714809F098
:1029700018FA10233B6001237B600023BB60002317
:10298000FB6000233B613B4619466A4809F009FA9F
:1029900020233B6001237B600023BB600023FB609E
:1029A00000233B613B461946624809F0FAF940238F
:1029B0003B6001237B600023BB600023FB6000239E
:1029C0003B613B4619465B4809F0EBF94FF4005375
:1029D0003B6001237B600023BB600023FB6000237E
:1029E0003B613B461946544809F0DBF94FF48043FC
:1029F0003B6001237B600023BB600023FB6000235E
:102A00003B613B4619464C4809F0CBF94FF4004373
:102A10003B6001237B600023BB600023FB6000233D
:102A20003B613B461946444809F0BBF904233B602F
:102A300001237B600023BB600023FB6000233B611C
:102A40003B4619463F4809F0ACF94FF480633B60C0
:102A500001237B600023BB600023FB6000233B61FC
:102A60003B461946334809F09CF94FF400633B603C
:102A700001237B600023BB600023FB6000233B61DC
:102A80003B4619462B4809F08CF94FF400433B6054
:102A900001237B600023BB600023FB6000233B61BC
:102AA0003B461946234809F07CF94FF480533B60BC
:102AB00001237B600023BB600023FB6000233B619C
:102AC0003B4619461F4809F06CF94FF480733B6090
:102AD00001237B600323BB600023FB6000233B6179
:102AE0003B461946164809F05CF94FF400733B6009
:102AF00001237B600323BB600023FB6000233B6159
:102B00003B4619460E4809F04CF94FF480633B6090
:102B100001237B600323BB600023FB6000233B6138
:102B20003B461946064809F03CF94FF400633B6008
:102B30000AE000BF0010024000080240000002400E
:102B4000000C02400004024000237B6000233B6134
:102B50003B4619467E4809F024F94FF480733B60E8
:102B600000237B6000233B613B461946794809F00E
:102B700018F94FF400733B6000237B6000233B6136
:102B80003B461946734809F00CF94FF480733B60DB
:102B900000237B6000233B613B4619466E4809F0E9
:102BA00000F94FF400633B6001237B600023BB60AE
:102BB0000023FB6000233B613B461946664809F051
:102BC000F0F84FF400433B6001237B600023BB60BF
:102BD0000023FB6000233B613B4619465E4809F039
:102BE000E0F801233B6001237B600023BB600023EE
:102BF000FB6000233B613B461946554809F0D1F87C
:102C000002233B6001237B600023BB600023FB6049
:102C100000233B613B4619464D4809F0C2F80423A6
:102C20003B6001237B600023BB600023FB6000232B
:102C30003B613B461946464809F0B3F808233B6020
:102C400000237B6000233B613B461946404809F066
:102C5000A8F810233B6001237B600023BB600023A6
:102C6000FB6000233B613B461946394809F099F85F
:102C700020233B6001237B600023BB600023FB60BB
:102C800000233B613B461946314809F08AF840234E
:102C90003B6001237B600023BB600023FB600023BB
:102CA0003B613B4619462A4809F07BF880233B608C
:102CB00001237B600023BB600023FB6000233B619A
:102CC0003B461946224809F06CF84FF480733B608C
:102CD00001237B600023BB600023FB6000233B617A
:102CE0003B4619461D4809F05CF84FF400733B6001
:102CF00001237B600023BB600023FB6000233B615A
:102D00003B461946154809F04CF801233B60012366
:102D10007B600023BB600023FB6000233B613B46DC
:102D200019460F4809F03DF802233B6001237B6000
:102D30000023BB600023FB6000233B613B46194638
:102D4000074809F02EF800BF1837BD4680BD00BF08
:102D5000000C024000080240000002400004024053
:102D60000010024080B400AF00BFFDE780B400AFA8
:102D700000BFFDE780B400AF00BFFDE780B400AF47
:102D800000BFFDE780B400AF00BFFDE780B400AF37
:102D900000BFBD465DF8047B704780B400AF00BF44
:102DA000BD465DF8047B704780B400AF00BFBD46F0
:102DB0005DF8047B704780B500AF08F0BDFD00BF33
:102DC00080BD80B500AF02F043F900BF80BD80B484
:102DD00000AF01231846BD465DF8047B704780B5FF
:102DE00082B000AF786039600BF036FA03461622E5
:102DF0001A604FF0FF3318460837BD4680BD80B5D6
:102E000082B000AF78604FF0FF317868FFF7E7FFDE
:102E100000BFFDE780B586B000AFF860B9607A60AA
:102E200000237B610AE0AFF300800146BB685A1CB7
:102E3000BA60CAB21A707B6901337B617A697B68B8
:102E40009A42F0DB7B6818461837BD4680BD80B5D6
:102E500086B000AFF860B9607A6000237B6109E05A
:102E6000BB685A1CBA601B781846AFF300807B69B8
:102E700001337B617A697B689A42F1DB7B68184693
:102E80001837BD4680BD80B483B000AF78604FF086
:102E9000FF3318460C37BD465DF8047B704780B49D
:102EA00083B000AF786039603B684FF400525A60DD
:102EB000002318460C37BD465DF8047B704780B48C
:102EC00083B000AF7860012318460C37BD465DF82B
:102ED000047B704780B485B000AFF860B9607A6059
:102EE000002318461437BD465DF8047B7047000088
:102EF00080B586B000AF7860144A154BD31A7B6159
:102F00007B693B61134B1B68002B02D1114B124AAA
:102F10001A60104B1A687B6813443A699A4207D2C8
:102F20000BF09AF903460C221A604FF0FF3309E0C8
:102F3000084B1B68FB60074B1A687B681344054A03
:102F40001360FB6818461837BD4680BD0000082096
:102F500000040000B4430020E00C012080B400AF66
:102F6000064BD3F88830054A43F47003C2F8883022
:102F700000BFBD465DF8047B704700BF00ED00E078
:102F8000DFF834D0FFF7EAFF0C480D490D4A002363
:102F900002E0D458C4500433C4188C42F9D30A4A0E
:102FA0000A4C002301E013600432A242FBD30BF071
:102FB00059F9FEF703FA70470000082000000020CE
:102FC000984300209822010898430020DC0C01203F
:102FD000FEE780B582B000AF7860396003F07CFD19
:102FE00003F0A8FC7B6814330A220A21184608F073
:102FF0005FFC00BF0837BD4680BD000080B584B0CF
:1030000002AF786039607B68002B03D100210E4845
:1030100003F0C0F878683B685A683B689B68009387
:1030200013460A4A0A4908F0B5FB7B6814337A68EC
:103030001221184608F01AFC3B681A687B685A622D
:1030400000BF0837BD4680BD141A0108B93000081A
:10305000D32F000880B586B002AF0223009304236B
:1030600008220949094808F019F9094A3B1D07CA0D
:1030700083E807003B1D19460648FFF7BFFF00BF66
:103080001037BD4680BD00BFF8430020004400203B
:1030900028010108B843002080B582B000AF034684
:1030A000FB71FB791946034808F08EFB00BF083717
:1030B000BD4680BDB843002090B585B000AF7860B4
:1030C00039603B681B88122B06D0122B35DC102B85
:1030D00008D0112B1DD030E003F008FD03F06EFC8A
:1030E00001232BE00023FB730EE0FB7BFC7B1846E7
:1030F00003F002FD034619467B6804F1140223F82D
:103100001210FB7B0133FB73FB7B072BEDD90123F3
:1031100014E00023BB730DE0BB7B184603F0F6FB05
:103120000346BA7B19B27B681C3223F81210BB7BB2
:103130000133BB73BB7B012BEED902231846143736
:10314000BD4690BD80B483B000AF7860054A7B680F
:103150001C3332F9133018460C37BD465DF8047B3A
:10316000704700BFB843002080B483B000AF7860E0
:10317000054A7B68143332F9133018460C37BD46C4
:103180005DF8047B704700BFB843002080B500AFF6
:1031900001F052FE02F024F9FFF75CFF00F09CF80A
:1031A00000BF80BD80B500AF012000F0B7F804205B
:1031B00001F074FE022002F039F90320FFF76CFFE2
:1031C00000BF80BD80B500AF08F096FA00BF80BD9B
:1031D00080B586B002AF786039600E4BFB6030235B
:1031E00000930D4BFA680D490D4807F0EFFF03F00F
:1031F000CFFA04F079FA03F037FF7B68012283F8F5
:1032000051207B68002283F8562000BF1037BD464E
:1032100080BD00BF340101083C01010864010108C0
:103220004C65002080B584B000AF786039607B6861
:103230005B69FB607B685B6939687868984703461F
:10324000FB72FB7A002B08D1FB6806497868984727
:103250007B685B6904497868984700BF1037BD46B2
:1032600080BD00BF441A0108301A010880B584B03F
:1032700002AF786039607B68002B03D100211348CE
:1032800002F088FF78683B685A683B689B68009347
:1032900013460F4A0F4908F07DFA3B681A687B68AD
:1032A0005A617B6818337A681321184608F0DEFAF1
:1032B0007B681833184608F01BFB3B681A7B7B6859
:1032C00083F84C2000BF0837BD4680BD201A010896
:1032D00025320008D131000890B587B002AF122323
:1032E0000093022324220949094807F0D7FF094B1C
:1032F0003C460FCB84E80F003B4619460648FFF7D3
:10330000B5FF00BF1437BD4690BD00BF98640020D4
:10331000BC640020880101081C44002080B582B0F4
:1033200000AF0346FB71FB791946034808F04CFADD
:1033300000BF0837BD4680BD1C44002080B582B068
:1033400000AF786039603B681B88152B12D0152BB5
:1033500015DC012B02D0142B07D010E07B6818334A
:10336000184608F0C5FA01230AE07B68064A5A614C
:10337000002305E07B68054A5A61002300E0022330
:1033800018460837BD4680BD91330008D135000886
:1033900080B590B002AF786039603B681B88013B14
:1033A000172B00F2F98001A252F823F00D34000827
:1033B00099350008C334000899350008993500088C
:1033C00099350008993500089935000899350008A5
:1033D0009935000899350008993500089935000895
:1033E0009935000899350008993500089935000885
:1033F0009935000887350008993500089935000887
:10340000E5340008193500084D350008654B7B622E
:1034100080230093644B7A6A6449654807F0D6FEBE
:103420007B681833002242F21071184608F040FA07
:103430007B6893F82A301946786800F016FA594BE1
:103440003B627B6893F82A30019384230093564BA8
:103450003A6A5849564807F0B9FE786800F01EFAF3
:10346000504BFB617B6893F82A30019387230093CC
:103470004D4BFA6950494E4807F0A8FE7B68DB6A5D
:10348000BB607B681B6BFB607B685B6B3B617B6835
:103490001B8D7B617B6893F82A30BB617B6893F856
:1034A0002B30184603F0DEF907F10803184603F045
:1034B000A3FD03F08DFF7B68002283F84C200123DD
:1034C0006BE0384BBB6297230093374BBA6A3B499A
:1034D000374807F07BFE7B681833184608F008FA77
:1034E00001235AE02F4BFB629D2300932E4BFA6A77
:1034F00033492F4807F06AFE7B6893F84C30002B65
:1035000004D17B68012283F84C2003E07B6803220E
:1035100083F84C20012340E0224B3B63A823009317
:10352000214B3A6B2749224807F050FE7B6893F8FD
:103530004C30012B04D17B68022283F84C2003E03D
:103540007B68032283F84C20012326E07B6893F8F4
:103550004C30022B04D17B68052283F84C2003E019
:103560007B68032283F84C200E4B7B63B7230093C8
:103570000D4B7A6B14490E4807F028FE7B68134AFE
:103580005A61002309E07B68042283F84C207B68A1
:103590000E4A5A61002300E0022318463837BD4620
:1035A00080BD00BF340101083C01010898010108F9
:1035B0004C650020D4010108F4010108380201081B
:1035C00074020108A0020108C80201083D33000886
:1035D00080B586B002AF786039603B681B881A2BD3
:1035E0003ED01A2B6ADC012B02D0192B2ED065E0BD
:1035F000354BFB60CB230093344BFA683449354894
:1036000007F0E4FD7B681833184608F071F97B6811
:103610005B6C314A53607B681B6C2F4A13602E4BE6
:103620005B68B3F5FA6F28BF4FF4FA639AB22B4B7D
:103630001A80294B1B685B00284A128852001146E9
:10364000274A184604F07CF8012338E0254B1B6814
:10365000224A12882249184601F000FE01232EE07A
:103660001D4B5B681D4A12889B1A1B4A53601A4BFC
:103670001B681A4A12881344174A1360164B5B687A
:10368000002B16D0144B5B68B3F5FA6F28BF4FF4CC
:10369000FA639AB2114B1A800F4B1B685B000F4AFA
:1036A0001288520011460E4A184604F049F80123C8
:1036B00005E07B680C4A5A61002300E002231846AB
:1036C0001037BD4680BD00BF340101083C01010830
:1036D000E80201084C65002074440020806400204A
:1036E00080440020040000203D33000880B584B0F1
:1036F00000AFF860B9607A60FB68BA681A64FB686A
:103700007A685A64FB680449184608F087F8002371
:1037100018461037BD4680BD6C1A010880B584B0CC
:1037200000AFF860B9607A60BB68012B02D87B6893
:10373000642B01D9062318E0FB6893F85130002B65
:1037400006D0002002F0E0FFFB68002283F8512041
:103750007968B86803F0C6F87B68D9B2FA68BB68C4
:1037600013444D330A461A70002318461037BD46DD
:1037700080BD80B582B000AF786039603B68242B93
:1037800001D9062314E07B6893F85130012B06D051
:10379000012002F0B9FF7B68012283F851203868CC
:1037A00003F02CF83B68DAB27B6883F84F200023E3
:1037B00018460837BD4680BD80B582B000AF78603E
:1037C0007B6893F85130012B06D0012002F09CFF5A
:1037D0007B68012283F8512003F020F87B68FF22E8
:1037E00083F84F20002318460837BD4680BD80B5BA
:1037F00082B000AF786039603B68082B01D906239E
:1038000014E07B6893F85130012B06D0012002F0C0
:103810007BFF7B68012283F85120386803F008F8A9
:103820003B68DAB27B6883F85020002318460837DB
:10383000BD4680BD80B582B000AF78607B6893F8EC
:103840005130012B06D0012002F05EFF7B6801227F
:1038500083F8512002F0FCFF7B68FF2283F85020A0
:10386000002318460837BD4680BD80B582B000AF42
:10387000786039603B68242B01D906230AE003F005
:1038800083FC386803F0A8FC3B68DAB27B6883F8F5
:103890005220002318460837BD4680BD80B582B04F
:1038A00000AF786003F084FC002318460837BD465B
:1038B00080BDB0B483B000AF786039603B681B88CE
:1038C000002B04D03B681B88B3F57A7F01D906230F
:1038D00028E03B689B78002B03D03B689B78242B27
:1038E00001D906231EE03B68DB78642B01D906234F
:1038F00018E03B681B69B3F5006F01D9062311E09E
:103900003B685B69002B01D106230BE07B683A68BA
:1039100003F1280415460FCD0FC495E8030084E891
:103920000300002318460C37BD46B0BC7047B0B446
:1039300083B000AF786039603A687B68154603F160
:1039400028040FCC0FC594E8030085E8030000BFEE
:103950000C37BD46B0BC704780B584B000AF78600E
:103960007B682833FB60FB681B88002B04D0FB6856
:103970001B88B3F57A7F01D906231CE0FB689B788E
:10398000002B03D0FB689B78242B01D9062312E07F
:10399000FB68DB78642B01D906230CE0FB681B690C
:1039A000B3F5006F01D9062305E07B68044918468A
:1039B00007F034FF002318461037BD4680BD00BF16
:1039C000581A010880B400AFBFF34F8F00BF064BF9
:1039D000DB6803F4E0620449044B1343CB60BFF39C
:1039E0004F8F00BF00BFFDE700ED00E00400FA05C7
:1039F00080B588B000AFF860B9607A6007F1140351
:103A0000074A0A2118460AF041FA07F11403194639
:103A1000F86805F0C4FF00BF2037BD4680BD00BF79
:103A2000E00B010880B584B000AFF860B9607A603F
:103A3000FFF7C8FF80B588B000AFF860B9607A6062
:103A40000023BB610023FB82B86806F099F80346A7
:103A50007B757B7D012B04D02E49F86807F016FAA0
:103A600054E00121B86806F055F838613B691B78CD
:103A7000612B22D10023FB771BE0FB7F1846FFF769
:103A800073FB0346FB82B7F9163013F5004F06D1DE
:103A9000FB7F1A462049F86807F0F8F906E0FA7F3C
:103AA000B7F916301D49F86807F0F0F9FB7F0133CC
:103AB000FB77FB7F072BE0D928E03B691B782F2B96
:103AC00020D93B691B78372B1CD8386909F004FCD6
:103AD0000346BB61B869FFF747FB0346FB82B7F9B2
:103AE000163013F5004F05D1BA690B49F86807F095
:103AF000CDF90BE0B7F91630BA690849F86807F054
:103B0000C5F903E00649F86807F0C0F92037BD465B
:103B100080BD00BFE80B0108080C01081C0C01085F
:103B2000300C010880B588B000AFF860B9607A60E9
:103B3000B86806F025F80346FB61FB69012B04D049
:103B40001549F86807F0A2F923E0144B1B681846E2
:103B500002F032F8034683F00103DBB2002B04D0FD
:103B60000F49F86807F092F913E00121B86805F0F1
:103B7000D1FFB861B86909F0AFFB03467B61074B21
:103B80001B687969184602F0C1FA0649F86807F01F
:103B90007DF92037BD4680BDE80B010808000020F4
:103BA000440C0108900C010880B584B000AFF860A7
:103BB000B9607A600A4B1B68184602F0C0FA0346E7
:103BC000002B04D00749F86807F060F903E00649C4
:103BD000F86807F05BF900BF1037BD4680BD00BF35
:103BE00008000020980C0108A80C010880B588B0D6
:103BF00000AFF860B9607A60B86805F0C1FF0346AD
:103C0000BB61BB69012B04D03849F86807F03EF965
:103C100069E0374B1B68184601F0CEFF034683F07E
:103C20000103DBB2002B04D03249F86807F02EF90B
:103C300059E00121B86805F06DFF786100233B6110
:103C40007B691B78612B25D10023FB611EE0284B8B
:103C50001B68F969184601F06AFF38613B69002B5F
:103C60000CD1234B1B680022F969184601F07FFF35
:103C7000FA692149F86807F009F904E0FA691F496F
:103C8000F86807F003F9FB690133FB61FB69032B5B
:103C9000DDD928E07B691B782F2B24D97B691B7821
:103CA000332B20D8786909F017FB0346FB61104BD2
:103CB0001B68F969184601F03AFF38613B69002B2F
:103CC0000CD10B4B1B680022F969184601F04FFF1D
:103CD000FA690949F86807F0D9F804E0FA69074970
:103CE000F86807F0D3F82037BD4680BDE80B01081F
:103CF00008000020B80C0108000D0108140D01088F
:103D000080B588B000AFF860B9607A60B86805F037
:103D100037FF0346FB61FB69012B04D01549F868A6
:103D200007F0B4F822E00121B86805F0F3FEB861AD
:103D3000B86909F0D1FA0346FB82FB8AB3F5FA7F32
:103D400004D3FB8A40F6B832934204D90A49F86892
:103D500007F09CF80AE0094B1B68FA8A11461846DE
:103D600002F084F80649F86807F090F82037BD465D
:103D700080BD00BF2C0D0108540D01080800002073
:103D8000880D010880B586B000AFF860B9607A6030
:103D9000084B1B68184601F0BAFD0346FB82FB8AFC
:103DA0001A460549F86807F071F800BF1837BD4694
:103DB00080BD00BF08000020900D010880B588B0CC
:103DC00000AFF860B9607A60B86805F0D9FE0346C4
:103DD000BB61BB69042B04D02F49F86807F056F883
:103DE00057E02E4B1B68184601F0D5FF0346FB75C4
:103DF0000023FB614AE0FB699BB201339BB2194689
:103E0000B86805F087FE0346184609F065FA0346D0
:103E1000D9B207F11002FB6913440A461A7007F180
:103E20001002FB6913441B78012B05D9FA691C4960
:103E3000F86807F02BF82CE007F11002FB69134437
:103E40001B78002B08D1154B1B68FA69D2B21146BA
:103E5000184601F0DBFF16E0FB7DFA699A4205D1B6
:103E6000FA691049F86807F011F80CE00B4B1B6871
:103E7000FA69D2B21146184601F0A7FFFA690A4959
:103E8000F86807F003F8FB690133FB61FB69032B5A
:103E9000B1D92037BD4680BDB40D0108080000200F
:103EA000D80D0108000E0108240E010880B586B067
:103EB00000AFF860B9607A60154B1B68184601F0D6
:103EC000C8FF0346FB7400237B6115E0FA7C7B6925
:103ED00042FA03F303F00103002B05D07A690D4980
:103EE000F86806F0D3FF04E07A690B49F86806F039
:103EF000CDFF7B6901337B617B69032BE6D90749E1
:103F0000F86806F0C3FF00BF1837BD4680BD00BF8C
:103F100008000020240E01083C0E0108540E010880
:103F200080B58CB000AFF860B9607A60364B1B6822
:103F3000184601F041FE034683F00103DBB2002B7B
:103F400004D03249F86806F0A1FF5AE0B86805F0DD
:103F500017FE0346FB62FB6A032B04D02C49F8686A
:103F600006F094FF4DE00121B86805F0D3FDB8627A
:103F7000B86A09F0B1F903467B627B6A032B04D966
:103F80002449F86806F082FF3BE00221B86805F09A
:103F9000C1FD3862386A09F09FF90346FB61FB698D
:103FA000012B04D91C49F86806F070FF29E00321B1
:103FB000B86805F0AFFDB861B86909F08DF903463E
:103FC000FB82FB8A40F6B832934204D91349F86861
:103FD00006F05CFF15E00C4B1868FB8AFA69796AF9
:103FE00002F014F838613B69002B04D00C49F868E2
:103FF00006F04CFF05E0FB8A7A6A0A49F86806F089
:1040000045FF3037BD4680BD08000020580E01082E
:104010007C0E0108A80E0108CC0E0108F00E010864
:104020001C0F0108300F010880B58AB000AFF8609E
:10403000B9607A602F4B1B68184601F0BDFD03463E
:1040400083F00103DBB2002B04D02B49F86806F0A3
:104050001DFF4CE0B86805F093FD03467B627B6A68
:10406000022B04D02549F86806F010FF3FE001213B
:10407000B86805F04FFD3862386A09F02DF903463B
:10408000FB61FB69032B04D91D49F86806F0FEFEAD
:104090002DE00221B86805F03DFDB861B86909F06E
:1040A0001BF903467B61134B18687B69002B14BF17
:1040B00001230023DBB21A46F96901F058FD38618B
:1040C0003B69002B05D0FA690E49F86806F0DEFE60
:1040D0000DE07B69002B05D0FA690B49F86806F002
:1040E000D5FE04E0FA690949F86806F0CFFE2837E2
:1040F000BD4680BD08000020580E0108480F010889
:10410000A80E0108680F01088C0F0108A80F01080C
:1041100080B58AB000AFF860B9607A60B86805F021
:104120002FFD03467B627B6A022B04D02A49F86884
:1041300006F0ACFE4CE00121B86805F0EBFC3862FB
:10414000386A09F0C9F80346FB61244B1B6818461E
:1041500001F07FFE0346FB76FA7EFB6942FA03F329
:1041600003F00103002B05D0FA691D49F86806F039
:104170008DFE2DE00221B86805F0CCFC78617869ED
:1041800009F0AAF803463B613B69B3F5FA7F04D313
:104190003B6940F6B832934204D91249F86806F0F8
:1041A00075FE15E00D4B1B68FA69D2B21146184630
:1041B00001F016FD094B1B683A6992B21146184688
:1041C00001F024FD3B69FA690749F86806F05EFED4
:1041D0002837BD4680BD00BFC40F0108080000207D
:1041E000EC0F0108540D01081010010880B584B0CF
:1041F00000AFF860B9607A60044B1B68184601F0A4
:1042000021FD00BF1037BD4680BD00BF0800002063
:1042100080B584B000AFF860B9607A60044B1B6869
:10422000184601F099FD00BF1037BD4680BD00BFA4
:104230000800002080B586B000AFF860B9607A60F1
:104240000B4B1B68184601F0A6FD0346FB75084B97
:104250001B68184601F0ACFD0346BB82FA7DBB8AA1
:104260000449F86806F012FE00BF1837BD4680BD4D
:10427000080000201010010880B588B000AFF86079
:10428000B9607A60B86805F07BFC0346FB61FB69A6
:10429000012B04D01249F86806F0F8FD1CE001215A
:1042A000B86805F037FCB861B86909F015F803463D
:1042B000FB75FB7D642B04D90A49F86806F0E6FD1E
:1042C0000AE0094B1B68FA7D1146184601F0EAFD29
:1042D0000649F86806F0DAFD2037BD4680BD00BF0C
:1042E0003C1001086010010808000020880D01083A
:1042F00080B586B000AFF860B9607A60084B1B6883
:10430000184601F0E5FD0346FB75FB7D1A4605499D
:10431000F86806F0BBFD00BF1837BD4680BD00BF82
:10432000080000208410010880B588B000AFF86054
:10433000B9607A60B86805F023FC0346BB61BB69CD
:10434000042B04D02449F86806F0A0FD41E00023C6
:10435000FB613BE0FB699BB201339BB21946B86835
:1043600005F0D8FB0346184608F0B6FF0346D9B25D
:1043700007F11402FB6913440A461A7007F114028C
:10438000FB6913441B78012B05D9FA691349F868B6
:1043900006F07CFD1DE007F11402FB6913441B7855
:1043A000002B08D10E4B1B68FA69D2B21146184691
:1043B00001F0BCFD07E00A4B1B68FA69D2B2114656
:1043C000184601F092FDFB690133FB61FB69032B89
:1043D000C0D92037BD4680BDA0100108D80D010806
:1043E0000800002080B586B000AFF860B9607A6040
:1043F000144B1B68184601F0BCFD0346FB740023F8
:104400007B6113E0FA7C7B6942FA03F303F001035A
:10441000002B04D00C49F86806F038FD03E00B4986
:10442000F86806F033FD7B6901337B617B69032B00
:10443000E8D90749F86806F029FD00BF1837BD46DE
:1044400080BD00BF08000020C8100108E01001086E
:10445000540E010880B588B000AFF860B9607A608A
:10446000B86805F08DFB0346FB61FB69012B04D0A6
:104470001549F86806F00AFD23E00121B86805F047
:1044800049FBB861B86908F027FF0346FB820F4B70
:104490001B68B7F916201146184601F08DFDB7F9D3
:1044A000163007EE903AB8EEE77AF2EE046AC7EEFD
:1044B000267AB7EEE77A53EC172B0549F86806F031
:1044C000E5FC2037BD4680BDFC1001080800002037
:1044D0002411010880B586B000AFF860B9607A6039
:1044E0000E4B1B68184601F077FD0346FB82B7F9B7
:1044F000163007EE903AB8EEE77AF2EE046AC7EEAD
:10450000267AB7EEE77A53EC172B0549F86806F0E0
:10451000BDFC00BF1837BD4680BD00BF08000020AD
:104520004411010880B588B000AFF860B9607A60C6
:10453000B86805F025FB0346FB61FB69012B04D03D
:104540001049F86806F0A2FC19E00121B86805F0EE
:10455000E1FAB861B86908F0BFFE03467B617B6988
:10456000072B04D90849F86806F090FC07E0074BD0
:104570001B687A69D2B21146184601F007FD203750
:10458000BD4680BD681101088011010808000020A7
:1045900080B586B000AFF860B9607A600023FB7523
:1045A000084B1B68184601F024FD0346FB75FB7D94
:1045B0001A460549F86806F069FC00BF1837BD4681
:1045C00080BD00BF08000020A011010880B584B0A4
:1045D00000AFF860B9607A60064B1B68184601F0BE
:1045E000A3F90549F86806F051FC00BF1037BD4635
:1045F00080BD00BF08000020B011010880B584B064
:1046000000AFF860B9607A60064B1B68184601F08D
:10461000A7F90549F86806F039FC00BF1037BD4618
:1046200080BD00BF08000020C411010880B588B01B
:1046300000AFF860B9607A60B86805F0A1FA034687
:10464000FB61FB69012B04D01449F86806F01EFCDD
:1046500021E00121B86805F05DFAB861B86908F099
:104660003BFE0346FB82B7F91630642B04DD0C4990
:10467000F86806F00BFC0EE00A4B1B68B7F9162031
:1046800000211846FFF74AF8B7F916301A460649CE
:10469000F86806F0FBFB2037BD4680BDD811010845
:1046A000001201080C0000202412010880B588B017
:1046B00000AFF860B9607A60B86805F061FA034647
:1046C000FB61FB69012B04D01449F86806F0DEFB9E
:1046D00021E00121B86805F01DFAB861B86908F059
:1046E000FBFD0346FB82B7F91630642B04DD0C4951
:1046F000F86806F0CBFB0EE00A4B1B68B7F91620F2
:1047000001211846FFF70AF8B7F916301A4606498C
:10471000F86806F0BBFB2037BD4680BD4812010893
:10472000001201080C0000202412010880B588B096
:1047300000AFF860B9607A600023BB83B86805F009
:104740001FFA0346FB76FB7E012B04D02749F8684D
:1047500006F09CFB46E00121B86805F0DBF97861C2
:104760007B691B78612B1AD10023FB7713E0FB7F59
:104770001846FEF7E7FC0346BB83FB7F002B01D105
:104780001B4A00E01B4ABB8B1B49F86806F07EFB06
:10479000FB7F0133FB77FB7F012BE8D922E07B69AC
:1047A0001B782F2B1AD97B691B78312B16D8786987
:1047B00008F092FD0346FB74FB7C1846FEF7C2FC32
:1047C0000346BB83FB7C002B01D1094A00E0094A68
:1047D000BB8B0949F86806F059FB03E00749F86804
:1047E00006F054FB2037BD4680BD00BFE80B010832
:1047F000901201089412010898120108300C010867
:1048000080B588B000AFF860B9607A60B86805F02C
:10481000B7F90346FB61FB69012B04D01349F86823
:1048200006F034FB1FE00121B86805F073F9B861A8
:10483000B86908F051FD78617B69242B02DC7B6943
:10484000002B04DC0A49F86806F020FB0BE0094B5A
:104850001B687A6911461846FEF78BFF7A6906498C
:10486000F86806F013FB2037BD4680BDB41201087E
:10487000D81201080C000020FC12010880B588B095
:1048800000AFF860B9607A60B86805F079F903465E
:10489000FB61FB69012B04D01349F86806F0F6FAB6
:1048A0001FE00121B86805F035F9B861B86908F072
:1048B00013FD78617B69082B02DC7B69002B04DC2B
:1048C0000A49F86806F0E2FA0BE0094B1B687A69BE
:1048D00011461846FEF78BFF7A690649F86806F01C
:1048E000D5FA2037BD4680BD181301083C130108D6
:1048F0000C0000205C13010880B584B000AFF860A4
:10490000B9607A60044B1B681846FEF755FF00BF7C
:104910001037BD4680BD00BF0C00002080B584B0BC
:1049200000AFF860B9607A60044B1B681846FEF768
:1049300081FF00BF1037BD4680BD00BF0C000020C6
:1049400080B598B006AFF860B9607A60B86805F0D5
:1049500017F903467B647B6C062B04D06049F8682A
:1049600006F094FAB8E00121B86805F0D3F80346E0
:10497000184608F0B1FC03463B643B6C002B03D0A7
:104980003B6CB3F57A7F04D95649F86806F07EFA95
:10499000A2E00221B86805F0BDF80346184608F009
:1049A0009BFC0346FB63FB6B002B02D0FB6B242BB1
:1049B00004D94D49F86806F069FA8DE00321B8681A
:1049C00005F0A8F80346184608F086FC0346BB63CA
:1049D000BB6B642B04D94549F86806F057FA7BE0B5
:1049E0000421B86805F096F80346184608F074FCF0
:1049F00003467B637B6B002B04D13D49F86806F0CE
:104A000045FA69E00521B86805F084F803461846C0
:104A100008F062FC03463B633B6B002B04D1354935
:104A2000F86806F033FA57E00621B86805F072F826
:104A30000346184608F050FC0346FB62FB6A002B55
:104A400004D12D49F86806F021FA45E07A6B3B6BFA
:104A50001A44FB6A13443A6C02FB03F3274AA2FB95
:104A600003239B0CBB62BB6AB3F5006F04D92449D6
:104A7000F86806F00BFA2FE03B6C9BB23B82FB6BB5
:104A8000DBB2BB74BB6BDBB2FB747B6B7B613B6BE0
:104A9000BB61FB6AFB61BB6A3B621A4A3B6CB2FBBF
:104AA000F3F37B62184B1B6807F11002114618469E
:104AB000FEF7FFFE7B6A0593BB6A0493FB6A0393D0
:104AC0003B6B02937B6B0193BB6B0093FB6B3A6C6C
:104AD0000E49F86806F0DAF94837BD4680BD00BFD8
:104AE00078130108D81301080014010820140108E4
:104AF00040140108641401088C14010883DE1B4370
:104B0000B014010840420F000C000020D814010826
:104B1000F0B591B006AFF860B9607A60114B1B68D0
:104B200007F1100211461846FEF701FF3B8A1E46A8
:104B3000BB7C9C46FB7C1D467B69BA69F969386A77
:104B40007C6A059404900391029201930095634658
:104B500032460549F86806F099F900BF2C37BD4682
:104B6000F0BD00BF0C0000205C15010880B584B0CA
:104B700000AFF860B9607A600A4B1B681846FEF710
:104B8000EBFE0346002B04D00749F86806F07EF9D7
:104B900003E00649F86806F079F900BF1037BD4612
:104BA00080BD00BF0C000020D4150108F4150108D9
:104BB00080B588B000AFF860B9607A60B86804F07A
:104BC000DFFF0346FB61FB69022B04D02349F86831
:104BD00006F05CF93EE00121B86804F09BFF034653
:104BE000184608F079FB0346BB61BB69B3F5001FAB
:104BF00004D31B49F86806F049F92BE00221B86894
:104C000004F088FF0346184608F066FB03467B6104
:104C1000BB69C3F500137A699A4203D87B69B3F57F
:104C2000007F08D2BB69C3F500131A460D49F86826
:104C300006F02CF90EE00C49F86806F027F90B4B4A
:104C40001B687A69B9691846FEF750FD0649F8688D
:104C500006F01CF92037BD4680BD00BF0C160108C8
:104C60003C16010868160108540E01080C000020CB
:104C700080B400AF024B1846BD465DF8047B704718
:104C8000801A010880B400AF26231846BD465DF89F
:104C9000047B704780B483B000AF78607B68DB69C9
:104CA00003F02003202B01D1012300E0002318464C
:104CB0000C37BD465DF8047B704780B483B000AF0D
:104CC00078607B685B6ADBB218460C37BD465DF8DE
:104CD000047B704780B500AF4FF4806208490948F3
:104CE00006F002FC4FF480520749084806F0FCFB2E
:104CF000064B044A0649074806F09FF900BF80BDED
:104D0000846500205C6500208469002070650020B7
:104D1000001401404C650020B0B588B000AF1B4BBB
:104D20003C1D1D460FCD0FC495E8070084E8070021
:104D3000FFF79EFF0346BB61FFF7A4FF0346BB835B
:104D40003B1D184604F0E9FC0346114A1360104B62
:104D50001B68002B05D101210E4801F01BFA01232D
:104D600010E00B4B1B680C4A1A60094B1C683B1D7A
:104D7000184604F0A1FC03461A460849204606F0EE
:104D800085F8002318462037BD46B0BDB41601088B
:104D900084790020101E0108A14D00089416010816
:104DA00080B582B000AF78600B46FB70FB78194687
:104DB000034806F0C5F900BF0837BD4680BD00BFF7
:104DC0004C65002080B584B002AF786039607B68A4
:104DD000002B03D10021154801F0DCF978683B680D
:104DE000DA683B681B6900931346114A114906F0C3
:104DF000D1FC7B6820337A680621184606F036FD20
:104E00003B685A687B68DA613B689A687B689A619C
:104E10003B681A687B685A617B682033184606F045
:104E200067FD00BF0837BD4680BD00BF101E0108EA
:104E3000F94E0008BD4E000880B588B002AFFFF7FC
:104E400049FF022300930A2314220D490D4806F05E
:104E500025FAFFF761FF0C4B7B600C4B1B68BB60B6
:104E60000B4BFB600B4B3B61064B7B613B1D1946BB
:104E70000948FFF7A7FF00BF1837BD4680BD00BF38
:104E80001C65002030650020414F00088479002017
:104E90004C65002018650020D864002080B582B0E1
:104EA00000AF0346FB71FB791946034806F08CFC02
:104EB00000BF0837BD4680BDD864002080B582B0F1
:104EC00000AF786039607B68002B03D10721094867
:104ED00001F060F97B689B69184606F0CAF87B68A8
:104EE00020330A220A21184606F0E2FC00BF0837E8
:104EF000BD4680BD101E010880B584B000AF78604B
:104F000039607B685B69FB607B685B6939687868DE
:104F100098470346FB72FB7A002B08D1FB680649D1
:104F2000786898477B685B6904497868984700BF50
:104F30001037BD4680BD00BF1C1E0108181E0108A9
:104F400080B582B000AF786039607B68002B03D1F8
:104F50000321214801F01EF93B68002B03D10421F5
:104F60001D4801F017F93B681B88013B062B2DD823
:104F700001A252F823F000BF954F0008CD4F000862
:104F8000A74F0008CD4F0008CD4F0008B54F0008CF
:104F9000C34F00087B6820330A220A21184606F016
:104FA00087FC012313E07B682033184606F0A0FC41
:104FB00001230CE0094B1B68184604F060FC012338
:104FC00005E07B68064A5A61002300E00223184688
:104FD0000837BD4680BD00BF101E0108847900203F
:104FE0006950000880B582B000AF0B48FFF752FE51
:104FF0000346002B0BD00848FFF75FFE0346FB710A
:10500000064B1B68FA791146184604F015FC00BFE0
:105010000837BD4680BD00BF0014014084790020E0
:1050200080B584B000AF78607B689B69184606F055
:1050300002F9F860FB68002B04D07B68034918462E
:1050400006F0ECFB00BF1037BD4680BD100000200D
:1050500080B500AFFFF7C6FF0248FFF7E1FF00BFD2
:1050600080BD00BFD864002080B584B000AF7860F8
:1050700039600023FB603B681B88012B27D0082B7D
:1050800051D084E0786800F089F81BE07B689A6969
:105090007B6893F83D3019467B680B4493F83830B1
:1050A0001946104606F04CF8F860FB68002B01D05A
:1050B00001236DE07B6893F83D300133DAB27B6801
:1050C00083F83D207B6893F83D30042BDED97B6864
:1050D0005B6B002BD6D17B682F4A5A617B682033EB
:1050E0000A220A21184606F0E3FB002350E07B6801
:1050F0009A697B6893F83D3019467B680B4493F8B6
:1051000038301946104606F01BF8F860FB68002B93
:1051100001D001233CE07B6893F83D300133DAB2E3
:105120007B6883F83D207B6893F83D30042BDED903
:1051300024E0786800F032F81BE07B689A697B68AD
:1051400093F83D3019467B680B4493F83830194684
:10515000104605F0F5FFF860FB68002B01D0012335
:1051600016E07B6893F83D300133DAB27B6883F850
:105170003D207B6893F83D30042BDED97B685B6B68
:10518000002BD6D17B68044A5A61002300E0022339
:1051900018461037BD4680BD414F0008B0B588B0F5
:1051A00000AF78602A4B07F10C041D460FCD0FC4E9
:1051B0002B6823707B681B6B991C7A6811631B88B2
:1051C000FB837B685B6B5A1E7B685A63FB8B1B0BF4
:1051D0009BB203F00F0320333B4413F8142C7B687D
:1051E00083F83820FB8B1B0A9BB203F00F0320339C
:1051F0003B4413F8142C7B6883F83920FB8B1B0984
:105200009BB203F00F0320333B4413F8142C7B684C
:1052100083F83A20FB8B03F00F0320333B4413F851
:10522000142C7B6883F83B207B68202283F83C2089
:105230007B68002283F83D207B685B6B002B03D1E9
:105240000449054806F0EAFA00BF2037BD46B0BD64
:10525000D0160108201E01081C44002080B584B02F
:1052600000AFF860B9607A60FB68BA681A63FB68DF
:105270007A685A63FB680449184606F0CFFA00BF03
:105280001037BD4680BD00BF1400002080B586B039
:1052900002AF78603960114BFB6031230093104BF3
:1052A000FA681049104805F091FF02F0D3FA7B68C4
:1052B000012283F83020786800F01EFC786800F046
:1052C000FFFB786800F00DFB7B682033184606F082
:1052D0000FFB00BF1037BD4680BD00BFE4160108BC
:1052E000EC160108241701084C65002080B584B035
:1052F00000AF786039607B685B69FB607B685B69E5
:105300003968786898470346FB72FB7A002B08D10E
:10531000FB680649786898477B685B690449786848
:10532000984700BF1037BD4680BD00BF541E01081E
:10533000401E010880B586B002AF786039607B6896
:10534000002B03D10021234800F024FF78683B683C
:105350005A683B689B68009313461F4A1F4906F032
:1053600019FA7B6820337A680E21184606F07EFA17
:105370003B681A687B685A617B68002283F830209A
:105380007B68002283F844207B68002283F8472052
:105390007B68002283F848200023FB600EE03A6817
:1053A000FB6802339B0013445A687968FB680C332E
:1053B0009B000B445A60FB680133FB60FB68032BC6
:1053C000EDD97B682033184606F092FA00BF1037FB
:1053D000BD4680BD341E0108ED5200088D52000804
:1053E000B0B58AB002AF12230093022324220B49E6
:1053F0000B4805F053FF0B4B3C1D1D460FCD0FC452
:1054000095E8070084E807003B1D19460648FFF7AA
:1054100091FF00BF2037BD46B0BD00BFF08900201E
:10542000148A0020381701088889002080B582B0CE
:1054300000AF0346FB71FB791946034806F0C4F937
:1054400000BF0837BD4680BD8889002080B586B082
:1054500002AF786039603B681B88012B02D00F2BAC
:1054600018D04BE0284BFB606C230093274BFA6865
:105470002749284805F0AAFE7B682033184606F025
:1054800037FA786800F01CFB786800F02AFA7B682D
:1054900001229A613B689B78042B2DD17B6893F89D
:1054A0003030002B09D10121786800F02FFE786898
:1054B00000F022FB786800F003FB7B6893F846302D
:1054C0001846FDF751FE03467B817B68B3F94A30ED
:1054D000B7F90A209A4203DD7B680F4A5A6102E05D
:1054E0007B680E4A5A617B68203364226421184627
:1054F00006F0DEF9002302E0022300E00123184653
:105500001037BD4680BD00BFE4160108EC16010847
:10551000541701084C65002021550008D15500089A
:1055200080B586B002AF786039603B681B880F2B6E
:1055300032D00F2B3BDC012B02D00E2B16D036E0E5
:105540001D4BBB60952300931C4BBA681C491D483A
:1055500005F03CFE7B680022DA610021786800F0EB
:105560001BFA786800F05CF9012321E07B6893F86E
:1055700046301846FDF7F8FD0346FB817B68B3F91A
:105580004A30B7F90E209A4201DD012310E07B6812
:105590000D4A5A6100230BE03B689B78052B04D130
:1055A0007B680A4A5A61002302E0022300E00223DA
:1055B00018461037BD4680BDE4160108EC160108F8
:1055C000901701084C650020D15500084D54000883
:1055D00080B586B002AF786039603B681B880F2BBE
:1055E00046D00F2B4FDC012B02D00E2B15D04AE0FA
:1055F000274BBB60BA230093264BBA68264927483D
:1056000005F0E4FD7B680022DA61786800F058FA62
:10561000786800F066F9012336E07B6893F846303D
:105620001846FDF7A1FD0346FB817B68B3F94A30BC
:10563000B7F90E209A4204DD7B68194A5A610023AB
:1056400022E07B68DB695A1C7B68DA617B68DB6976
:105650001D2B08D87B68B3F94A301A46B7F90E30CB
:10566000D31A0A2B04DD7B680E4A5A6100230BE033
:105670003B689B78052B04D17B680B4A5A61002359
:1056800002E0022300E0022318461037BD4680BD29
:10569000E4160108EC160108CC1701084C6500203F
:1056A00021550008AD5600084D54000880B586B05D
:1056B00002AF786039603B681B880F2B2ED00F2B10
:1056C00037DC012B02D00E2B12D032E01B4BBB601B
:1056D000E02300931A4BBA681A491B4805F076FD7F
:1056E0007B680022DA61786800F0CDF8012321E0C0
:1056F0007B6893F846301846FDF736FD0346FB817C
:105700007B68B3F94A30B7F90E209A4201DA0123D7
:1057100010E07B680D4A5A6100230BE03B689B78E0
:10572000052B04D17B680A4A5A61002302E0022358
:1057300000E0022318461037BD4680BDE41601087C
:10574000EC160108101801084C6500205557000898
:105750004D54000880B586B002AF786039603B6870
:105760001B880F2B3DD00F2B46DC012B02D00E2BBC
:1057700013D041E0234BBB604FF481730093224B65
:10578000BA682249224805F021FD786800F098F9AE
:10579000786800F0A6F801232FE07B6893F8463084
:1057A0001846FDF7E1FC0346FB817B68B3F94A30FC
:1057B000B7F90E209A4204DA7B68164A5A61002330
:1057C0001BE07B68DB695A1C7B68DA617B68DB69FC
:1057D0001D2B04D97B68104A5A6100230DE0012378
:1057E0000BE03B689B78052B04D17B680B4A5A6120
:1057F000002302E0022300E0022318461037BD46D2
:1058000080BD00BFE4160108EC1601085418010819
:105810004C650020AD560008215500084D54000885
:1058200080B584B000AF78607B6893F84730BB7375
:105830000023FB731FE0BA7BFB7B42FA03F303F008
:105840000103002B0AD0FB7B7A680C339B001344C6
:105850005B680121184603F0AFF809E0FB7B7A682A
:105860000C339B0013445B680021184603F0A4F836
:10587000FB7B0133FB73FB7B032BDCD900BF00BF39
:105880001037BD4680BD80B584B000AF78607B68BE
:1058900093F84930BB737B6893F848307B730023DF
:1058A000FB7316E07A7BFB7B42FA03F303F0010300
:1058B000002B07D0FB7BBA7B92B21146184600F052
:1058C000ADFC03E0FB7B184600F0EAFCFB7B0133F8
:1058D000FB73FB7B032BE5D900BF00BF1037BD4630
:1058E00080BD80B584B000AF78600023FB7306E014
:1058F000FB7B184600F0D4FCFB7B0133FB73FB7B86
:10590000032BF5D900BF00BF1037BD4680BD80B462
:1059100083B000AF78607B68B3F84C3018460C3722
:10592000BD465DF8047B704780B588B000AF7860F5
:1059300007F10C0300221A605A609A60DA601A823A
:105940000F23BB810423BB737B6807F10C02114654
:10595000184605F063FF002318462037BD4680BD7A
:1059600080B588B000AF786007F10C0300221A60A0
:105970005A609A60DA601A820F23BB810523BB73D9
:105980007B6807F10C021146184605F047FF00231B
:1059900018462037BD4680BD2DE9F04F8DB000AFD1
:1059A000F861B961FB6993F8473087F82B30FB69E0
:1059B000B3F84C303B850023FB6278E097F82B204E
:1059C000FB6A42FA03F303F00103002B6CD0FA697F
:1059D000FB6A0C339B0013445B689B7E87F827307F
:1059E00097F82730DBB203F00103002B08D1FA69E6
:1059F000FB6A0C339B0013445B68184603F041F8C4
:105A0000FA69FB6A0C339B0013445B689B7E87F842
:105A10002730FA69FB6A0C339B0013445B687B6098
:105A2000BB69DEB23B8D00229A46934652465B46E6
:105A30004FF000004FF00001590141EAD2615001DE
:105A400002460B46B2EB0A0463EB0B054FF0000273
:105A50004FF000036B0243EAD453620214461D4622
:105A600014EB0A0845EB0B094FF000024FF000035E
:105A70004FEA891343EA98634FEA8812B2EB0801B0
:105A8000B96063EB0902FA60D7E90201024612EB42
:105A90000A023A610A4642EB0B027A61D7E9042313
:105AA0003146786803F0CCF8FB6A0133FB62FB6A8D
:105AB000032B83D900BF00BF3437BD46BDE8F08F4C
:105AC00080B584B000AF78600023FB600CE07A689A
:105AD000FB680C339B0013445B680021184602F0FE
