:020000040800F2
:1000000000000820952F0008852D00088D2D000880
:10001000952D00089D2D0008A52D0008000000006A
:10002000000000000000000000000000AD2D0008EE
:10003000BB2D000800000000C92D0008D72D0008C6
:10004000E52F0008E52F0008E52F0008E52F000840
:10005000E52F0008E52F0008E52F0008E52F000830
:10006000E52F0008E52F0008E52F0008E52F000820
:100070008D730008E52F0008E52F0008E52F000824
:10008000E52F0008E52F0008E52F0008E52F000800
:10009000E52F0008E52F0008E52F0008E52F0008F0
:1000A000E52F0008D1740008E52F0008E52F0008AF
:1000B0001D750008E52F0008E52F0008E52F000852
:1000C000E52F0008E52F0008E52F0008E52F0008C0
:1000D000E52F0008E52F0008E52F0008E52F0008B0
:1000E000E52F0008E52F0008E52F0008E52F0008A0
:1000F000E52F0008E52F0008E52F0008E52F000890
:10010000E52F0008E52F0008E52F0008E52F00087F
:10011000E52F0008E52F0008E52F0008E52F00086F
:100120001D6A0008E52F0008D1680008E52F0008C7
:10013000E52F0008E52F0008E52F0008E52F00084F
:10014000E52F0008E52F0008E52F0008E52F00083F
:10015000E52F0008C9760008E52F00082D5000089B
:10016000E52F0008E52F0008E52F0008E52F00081F
:10017000E52F0008E52F0008E52F0008000000002B
:10018000E52F0008E52F00080D390008E52F0008CD
:10019000E52F0008E52F0008E52F0008E52F0008EF
:1001A0000000000000000000E52F0008E52F000817
:1001B000E52F0008E52F0008E52F0008E52F0008CF
:1001C000E52F0008E52F000800000000E52F0008DB
:1001D000E52F0008E52F0008E52F0008E52F0008AF
:1001E000E52F0008E52F0008E52F0008E52F00089F
:0801F00000000000E52F0008EB
:1002000010B5054C237833B9044B13B10448AFF350
:1002100000800123237010BDA043002000000000D7
:10022000A8FE000808B5034B1BB103490348AFF310
:10023000008008BD00000000A4430020A8FE0008C4
:1002400010F8012B11F8013B012A28BF9A42F7D080
:10025000D01A7047000000000000000000000000FD
:1002600001F0FF01102A2BDB10F0070F08D010F867
:10027000013B013A8B422DD010F0070F42B3F6D16B
:10028000F0B441EA012141EA014122F007047FF084
:1002900000070023F0E80256083C85EA010586EADB
:1002A000010685FA47F5A3FA87F586FA47F6A5FA17
:1002B00087F68EB9EED1F0BC01F0FF0102F0070223
:1002C00032B110F8013B013A83EA010313B1F8D1CE
:1002D0000020704701387047002D06BF35460338AF
:1002E000073815F0010F07D1013015F4807F02BFE8
:1002F000013015F4C03F0130F0BC0138704700BF39
:10030000034613F8012B002AFBD1181A0138704755
:100310007BB972B90029BEBF00204FF0004106E052
:1003200008BF00281CBF6FF000414FF0FF3000F005
:10033000BBB9ADF1080C6DE904CE002909DB002B37
:100340001ADB00F035F8DDF804E0DDE9022304B043
:100350007047404261EB4101002B1BDB00F028F8A5
:10036000DDF804E0DDE9022304B0404261EB410125
:10037000524263EB43037047524263EB430300F086
:1003800017F8DDF804E0DDE9022304B0404261EB38
:1003900041017047524263EB430300F009F8DDF876
:1003A00004E0DDE9022304B0524263EB43037047EB
:1003B0002DE9F047089D8E4604468846002B4AD119
:1003C0008A42174662D9B2FA82F64EB1C6F12003CC
:1003D00001FA06F820FA03F3B74043EA0808B440EC
:1003E0004FEA174E1FFA87FCB8FBFEF1230C0EFBF9
:1003F000118843EA084301FB0CF29A4209D9FB1821
:1004000001F1FF3080F0EA809A4240F2E780023941
:100410003B449A1AA3B2B2FBFEF00EFB102243EA51
:10042000024300FB0CFC9C4509D9FB1800F1FF328C
:1004300080F0D6809C4540F2D3803B44023840EAAD
:100440000140A3EB0C0300211DB1F3400022C5E9DC
:100450000032BDE8F0878B4205D90DB1C5E9000136
:1004600000210846F5E7B3FA83F1002946D1734528
:1004700002D3824200F20581841A6EEB030201204E
:100480009046002DE5D0C5E90048E2E7002A00F0DB
:100490009080B2FA82F6002E40F0A4808A1A030CF3
:1004A0004FEA174E80B2BCB20121B2FBFEFC0EFB3C
:1004B0001C2243EA024304FB0CF29A4207D9FB18C0
:1004C0000CF1FF3802D29A4200F2E080C4469B1A37
:1004D000B3FBFEF20EFB123340EA034302FB04F4CB
:1004E0009C4207D9FB1802F1FF3002D29C4200F275
:1004F000CA8002461B1B42EA0C40A5E7C1F1200658
:100500008B4022FA06F71F430EFA01F420FA06F395
:100510002EFA06FE4FEA1749234300FA01F81FFAA4
:1005200087FCBEFBF9F01C0C09FB10EE44EA0E44FC
:1005300000FB0CFEA64502FA01F209D93C1900F1B4
:10054000FF3A80F09C80A64540F2998002383C44F6
:10055000A4EB0E041FFA83FEB4FBF9F309FB13446A
:100560004EEA044403FB0CFCA44508D93C1903F1F2
:10057000FF3E80F08280A4457FD9023B3C4443EAA1
:100580000040A4EB0C04A0FB02EC64457346E1467A
:1005900062D35FD05DB1B8EB030264EB090404FAE7
:1005A00006F622FA01F31E43CC40C5E9006400219F
:1005B0004FE7B1FBF2FC010C41EA0E4180B240EA88
:1005C00001423B4638463C46B846BE462026B1FB73
:1005D000F7F1A2EB080241EA0C4166E7014618E791
:1005E00010462CE7C6F120022EFA02F3B740B140C4
:1005F00020FA02F24FEA174E0A43B3FBFEF8BCB2F0
:100600000EFB1833110C41EA034108FB04F9B0401A
:1006100089454FEA104380B23ED9791808F1FF3C72
:1006200001D289451FD8A1EB0901B1FBFEF909FBF5
:1006300004F80EFB191192B242EA0142424529D256
:10064000BA1809F1FF31C4D24245C2D2A9F1020160
:100650003A44BEE7F0459DD2BEEB02036CEB070CBB
:100660000138E14696E7A7EB09094944A8F1020CD5
:10067000B1FBFEF909FB04F8DBE773467FE7504660
:1006800066E70846FDE63B44023A33E7ACF1020C6C
:100690003B441CE749469CE7A1EB0901C446B1FB7A
:1006A000FEF909FB04F8C4E7704700BF80B485B0C9
:1006B00000AF78607B6803F00703FB600B4BDB68DF
:1006C000BB60BA684FF6FF031340BB60FB681A02B9
:1006D000BB681A43064B1343BB60044ABB68D36034
:1006E00000BF1437BD465DF8047B704700ED00E0A5
:1006F0000000FA0580B400AF044BDB681B0A03F06E
:1007000007031846BD465DF8047B704700ED00E026
:1007100080B483B000AF0346FB7197F90730002B1C
:100720000BDBFB7903F01F02074997F907305B09E0
:10073000012000FA02F241F8232000BF0C37BD4629
:100740005DF8047B704700BF00E100E080B483B037
:1007500000AF03463960FB7197F90730002B0ADBC5
:100760003B68DAB20C4997F907301201D2B20B4458
:1007700083F800230AE03B68DAB20849FB7903F00A
:100780000F03043B1201D2B20B441A7600BF0C37A0
:10079000BD465DF8047B704700E100E000ED00E03D
:1007A00080B489B000AFF860B9607A60FB6803F08C
:1007B0000703FB61FB69C3F10703042B28BF042374
:1007C000BB61FB690433062B02D9FB69033B00E0E4
:1007D00000237B614FF0FF32BB6902FA03F3DA4377
:1007E000BB681A407B699A404FF0FF317B6901FA80
:1007F00003F3D9437B680B40134318462437BD46A7
:100800005DF8047B704780B489B000AFF860B960D0
:100810007A60FB682C331946BB6803F440734FF4CD
:100820004072BA61BA6992FAA2F27A617A69B2FA4E
:1008300082F2D2B2D3409B000B44FB61FB691A6881
:10084000BB6803F01F031F2101FA03F3DB431A40C7
:100850007B6803F01F01BB6803F01F0301FA03F379
:100860001A43FB691A6000BF2437BD465DF8047B5C
:10087000704780B483B000AF786039607B689B6854
:1008800023F480623B681A437B689A6000BF0C3790
:10089000BD465DF8047B704780B48DB000AFF86052
:1008A000B9607A60FB680C331946BB6803F00073CB
:1008B0004FF00072BA61BA6992FAA2F27A617A696B
:1008C000B2FA82F2D2B2D3409B000B44FB62FB6AC5
:1008D0001A68BB6803F0F8734FF0F8713962396A2F
:1008E00091FAA1F1F961F969B1FA81F1C9B2CB408C
:1008F000072101FA03F3DB431A40BB6803F0F873E6
:100900004FF0F871B962B96A91FAA1F17962796A26
:10091000B1FA81F1C9B2CB40796801FA03F31A4305
:10092000FB6A1A6000BF3437BD465DF8047B704730
:1009300080B485B000AFF860B9607A600D4ABB68DA
:1009400013441B781A46FB6813441B6823F0C0024B
:100950000849BB680B441B781946FB680B441946D1
:100960007B6813430B6000BF1437BD465DF8047B02
:10097000704700BF5812010880B485B000AFF8601E
:10098000B9607A600D4ABB6813441B781A46FB684D
:1009900013441B6823F490720849BB680B441B780E
:1009A0001946FB680B4419467B6813430B6000BF74
:1009B0001437BD465DF8047B704700BF581201082C
:1009C00080B485B000AFF860B9607A600D4ABB684A
:1009D00013441B781A46FB6813441B6823F4007207
:1009E0000849BB680B441B781946FB680B44194641
:1009F0007B6813430B6000BF1437BD465DF8047B72
:100A0000704700BF5812010880B485B000AFF8608D
:100A1000B9607A600D4ABB6813441B781A46FB68BC
:100A200013441B6823F480620849BB680B441B789D
:100A30001946FB680B4419467B6813430B6000BFE3
:100A40001437BD465DF8047B704700BF581201089B
:100A500080B485B000AFF860B9607A600D4ABB68B9
:100A600013441B781A46FB6813441B6823F4C052D6
:100A70000849BB680B441B781946FB680B441946B0
:100A80007B6813430B6000BF1437BD465DF8047BE1
:100A9000704700BF5812010880B485B000AFF860FD
:100AA000B9607A600D4ABB6813441B781A46FB682C
:100AB00013441B6823F4C0420849BB680B441B78ED
:100AC0001946FB680B4419467B6813430B6000BF53
:100AD0001437BD465DF8047B704700BF581201080B
:100AE00080B485B000AFF860B9607A600D4ABB6829
:100AF00013441B781A46FB6813441B6823F44032E6
:100B00000849BB680B441B781946FB680B4419461F
:100B10007B6813430B6000BF1437BD465DF8047B50
:100B2000704700BF5812010880B485B000AFF8606C
:100B3000B9607A600D4ABB6813441B781A46FB689B
:100B400013441B6823F0F0520849BB680B441B7820
:100B50001946FB680B4419467B6813430B6000BFC2
:100B60001437BD465DF8047B704700BF581201087A
:100B700080B483B000AF786039600C4A3B6813449E
:100B80001B781A467B6813445B6908493A680A4433
:100B9000127811467A680A4423F00403536100BFB7
:100BA0000C37BD465DF8047B704700BF5812010842
:100BB00080B483B000AF78607B681B6843F00102AB
:100BC0007B681A6000BF0C37BD465DF8047B704738
:100BD00080B483B000AF78607B681B6823F4003278
:100BE0007B681A6000BF0C37BD465DF8047B704718
:100BF00080B483B000AF78607B681B6823F4002268
:100C00007B681A6000BF0C37BD465DF8047B7047F7
:100C100080B485B000AFF860B9607A60FB68DA68CC
:100C2000064B1340B9687A680A431A43FB68DA60D6
:100C300000BF1437BD465DF8047B704701F8FFFF25
:100C400080B483B000AF78607B68DB6823F4004237
:100C50007B68DA6000BF0C37BD465DF8047B7047E7
:100C600080B483B000AF78607B685B6843F000724B
:100C70007B685A6000BF0C37BD465DF8047B704747
:100C800080B400AF054B1B68044A43F48033136003
:100C900000BFBD465DF8047B704700BF00380240CE
:100CA00080B400AF074B1B6803F40033B3F5003F7B
:100CB0000CBF01230023DBB21846BD465DF8047B60
:100CC000704700BF0038024080B483B000AF786046
:100CD000064B9B6823F0030204497B6813438B6037
:100CE00000BF0C37BD465DF8047B704700380240FA
:100CF00080B400AF044B9B6803F00C031846BD465C
:100D00005DF8047B704700BF0038024080B483B0B8
:100D100000AF7860064B9B6823F0F00204497B68C3
:100D200013438B6000BF0C37BD465DF8047B7047F2
:100D30000038024080B483B000AF7860064B9B68F7
:100D400023F4E05204497B6813438B6000BF0C37E7
:100D5000BD465DF8047B70470038024080B483B024
:100D600000AF7860064B9B6823F4604204497B68BF
:100D700013438B6000BF0C37BD465DF8047B7047A2
:100D80000038024080B483B000AF7860094BD3F8DC
:100D900090207B681B0CDB431A407B689BB20549A3
:100DA0001343C1F8903000BF0C37BD465DF8047B9B
:100DB000704700BF0038024080B483B000AF786055
:100DC000094BD3F890207B681B0CDB431A407B68EF
:100DD0009BB205491343C1F8903000BF0C37BD46A4
:100DE0005DF8047B704700BF0038024080B483B0D8
:100DF00000AF7860094BD3F890207968084B0B401E
:100E0000DB431A407B681B0404491343C1F890304C
:100E100000BF0C37BD465DF8047B704700380240C8
:100E20000000FFFF80B483B000AF7860074BD3F8B9
:100E30008C3023F0807205497B681343C1F88C30F5
:100E400000BF0C37BD465DF8047B70470038024098
:100E500080B400AF054B1B68044A43F080731360F5
:100E600000BFBD465DF8047B704700BF00380240FC
:100E700080B400AF074B1B6803F00073B3F1007F31
:100E80000CBF01230023DBB21846BD465DF8047B8E
:100E9000704700BF0038024080B485B000AFF860F2
:100EA000B9607A603B600A4B5A680A4B1340F96894
:100EB000BA6811437A68920111433A680A430449B7
:100EC00013434B6000BF1437BD465DF8047B704789
:100ED000003802400080BCFF80B485B000AF78606D
:100EE000084B1A6B07497B6813430B63054B1A6B5E
:100EF0007B681340FB60FB6800BF1437BD465DF89C
:100F0000047B70470038024080B485B000AF786041
:100F1000084B1A6C07497B6813430B64054B1A6C2A
:100F20007B681340FB60FB6800BF1437BD465DF86B
:100F3000047B70470038024080B485B000AF786011
:100F4000084B5A6C07497B6813434B64054B5A6C3A
:100F50007B681340FB60FB6800BF1437BD465DF83B
:100F6000047B70470038024080B483B000AF7860E3
:100F7000064B1B6823F00F0204497B6813430B6088
:100F800000BF0C37BD465DF8047B7047003C024053
:100F900080B400AF044B1B6803F00F031846BD4636
:100FA0005DF8047B704700BF003C024080B400AF96
:100FB000054B1B68044A43F48033136000BFBD46F1
:100FC0005DF8047B704700BF0070004080B483B0C0
:100FD00000AF7860064B1B6823F4404204497B68ED
:100FE00013430B6000BF0C37BD465DF8047B7047B0
:100FF0000070004080B400AF074B5B6803F480438F
:10100000B3F5804F0CBF01230023DBB21846BD4669
:101010005DF8047B704700BF0070004080B483B06F
:1010200000AF78607B681B6843F040027B681A6001
:1010300000BF0C37BD465DF8047B704780B483B0B9
:1010400000AF786039607B685B6823F010023B6812
:101050001A437B685A6000BF0C37BD465DF8047BBD
:10106000704780B483B000AF78607B685B6843F002
:1010700008027B685A6000BF0C37BD465DF8047BF0
:10108000704780B483B000AF78607B685B6823F002
:1010900008027B685A6000BF0C37BD465DF8047BD0
:1010A000704780B483B000AF78607B681B6823F022
:1010B00080027B681A6000BF0C37BD465DF8047B78
:1010C0007047000080B485B000AF786039603B683D
:1010D000012B28D03B68042B23D03B68102B1ED05B
:1010E0003B68402B19D03B68B3F5807F13D03B6839
:1010F000B3F5806F0DD03B68B3F5805F07D03B68D8
:10110000B3F5803F01D107230EE008230CE006234E
:101110000AE0052308E0042306E0032304E0022399
:1011200002E0012300E00023FB737B6818331946BB
:10113000FB7B0B4AD35C0B44BB60BB681A68FB7B30
:101140000849CB5C194604238B40DB431A40BB683B
:101150001A6000BF1437BD465DF8047B704700BFBE
:10116000601201086C12010880B485B000AF78608D
:1011700039603B68012B28D03B68042B23D03B68A7
:10118000102B1ED03B68402B19D03B68B3F5807FF5
:1011900013D03B68B3F5806F0DD03B68B3F5805F2B
:1011A00007D03B68B3F5803F01D107230EE0082349
:1011B0000CE006230AE0052308E0042306E00323ED
:1011C00004E0022302E0012300E00023FB737B68BC
:1011D00018331946FB7B0A4AD35C0B44BB60BB68DF
:1011E0001A68FB7B0749CB5C194608238B401A43DE
:1011F000BB681A6000BF1437BD465DF8047B7047BA
:10120000601201086C12010880B483B000AF7860EE
:1012100039607B689A68064B13403A681A437B68CA
:101220009A6000BF0C37BD465DF8047B704700BF75
:10123000F8BFFEFF80B483B000AF786039607B6890
:101240005B6823F070023B681A437B685A6000BFFA
:101250000C37BD465DF8047B704780B483B000AFA7
:10126000786039607B685B6823F470023B681A43DE
:101270007B685A6000BF0C37BD465DF8047B704741
:1012800080B483B000AF78607B689B6823F08002F5
:101290007B689A6000BF0C37BD465DF8047B7047E1
:1012A00080B483B000AF78607B681B6843F00102B4
:1012B0007B681A6000BF0C37BD465DF8047B704741
:1012C00080B483B000AF786039607B681B6823F41A
:1012D000F8123B681B041A437B681A6000BF0C3786
:1012E000BD465DF8047B704780B483B000AF786082
:1012F00039607B681B6823F078723B685B051A4392
:101300007B681A6000BF0C37BD465DF8047B7047F0
:1013100080B483B000AF78607B689B6843F4804200
:101320007B689A6000BF0C37BD465DF8047B704750
:1013300080B483B000AF786039607B689B6823F429
:1013400000423B681A437B689A6000BF0C37BD4679
:101350005DF8047B704780B483B000AF78607B6831
:101360005B6823F490427B685A607B689B6823F03B
:101370002A027B689A6000BF0C37BD465DF8047B8B
:10138000704780B483B000AF786039607B683A689A
:101390009A6100BF0C37BD465DF8047B704780B48E
:1013A00083B000AF786039603B681A047B689A614B
:1013B00000BF0C37BD465DF8047B704780B500AFB9
:1013C0004FF08050FFF7A0FD4FF48040FFF7B4FDD1
:1013D0000320FFF76BF9FFF78DF9034600220F2179
:1013E0001846FFF7DDF9034619464FF0FF30FFF7C7
:1013F000ADF900F02DF801F00FFA01F0B1F900F0AD
:10140000DDFA00F04FFB00F0C1FB00F04BFC00F0F8
:10141000FBFC00F06DF800F075FD00F055FF01F0E9
:101420002DF800F0EDFD01F09FF801F025F900F036
:10143000B3F900F061FA00F0BFFE00F003FF01F025
:10144000AFFE01F0B9FE01F0C7FE00BFFDE70000EE
:1014500080B500AF0620FFF787FD00BFFFF798FDBE
:101460000346062BFAD14FF44040FFF7AFFDFFF7DC
:101470009DFDFFF705FC00BFFFF712FC0346012BA3
:10148000FAD10023C0220C214FF48000FFF704FDA5
:10149000FFF7DEFC00BFFFF7EBFC0346012BFAD1A0
:1014A00000BFFFF7A7FD0346002BFAD00020FFF78F
:1014B0002DFC4FF4A050FFF73DFC4FF40040FFF728
:1014C0004DFC0220FFF700FC00BFFFF711FC0346B4
:1014D000082BFAD105480BF089FD04480BF0BAFD42
:1014E0000020FFF79FFC00BF80BD00BF00C2EB0BD8
:1014F00080B592B000AF07F13C0300221A605A6039
:101500009A6007F1280300221A605A609A60DA6034
:101510001A6107F1180300221A605A609A60DA60B3
:101520003B4600221A605A609A60DA601A615A617A
:101530004FF48070FFF700FD0420FFF7CDFC022080
:10154000FFF7CAFC01233B6003237B6000233B6160
:101550003B46194684480AF0F2FA02233B60032313
:101560007B6000233B613B4619467F480AF0E7FA5F
:1015700004233B6003237B6000233B613B46194609
:1015800079480AF0DCFA08233B6003237B600023E0
:101590003B613B46194674480AF0D1FA10233B6080
:1015A00003237B6000233B613B4619466E480AF0EB
:1015B000C6FA20233B6003237B6000233B613B464C
:1015C000194669480AF0BBFA01233B6003237B609C
:1015D00000233B613B46194664480AF0B0FA0223F7
:1015E0003B6003237B6000233B613B4619465F4819
:1015F0000AF0A5FA002200215D48FFF795FA0022C3
:1016000000215B48FFF794F9002200215848FFF7BA
:1016100067FA4FF4807200215548FFF7ADF90022B8
:1016200000215348FFF7CCF94FF480620021504865
:10163000FFF7EAF94FF4006200214D48FFF708FA7E
:101640004FF4005200214A48FFF726FA002148488B
:10165000FFF78EFA0023FB6300233B644FF4807393
:101660007B6407F13C03194642480AF0EFF8002377
:10167000BB624FF4E003FB6200233B6300237B6308
:101680004FF44073BB6307F12803194639480AF049
:1016900009F900213748FFF7ECF84FF48033BB61BC
:1016A0000023FB6107F11803194633480AF086F856
:1016B0000A224FF400712F48FFF7A5F801220A21F2
:1016C0002C48FFF7E9F82D4A40F205212948FFF799
:1016D0009AF8012229492748FFF7DEF8284A40F204
:1016E0000A212448FFF78FF8012225492148FFF7F6
:1016F000D3F8244A40F20F211E48FFF784F8012254
:1017000020491C48FFF7C8F81F4A4FF405711948D3
:10171000FFF779F801221C491648FFF7BDF81B4A6C
:1017200040F219211348FFF76EF8012217491148BA
:10173000FFF7B2F8164A4FF480710E48FFF763F8CE
:10174000012213490B48FFF7A7F8124A40F205118E
:101750000848FFF758F801220E490648FFF79CF8A1
:1017600000BF4837BD4680BD00080240000402406B
:101770000064024000200140002301400B003000C3
:101780000C0060000D0090000E00C0000F00F00083
:10179000080080030900B00380B58EB000AF07F1E8
:1017A0002C0300221A605A609A6007F11803002285
:1017B0001A605A609A60DA601A613B4600221A6029
:1017C0005A609A60DA601A615A614FF40070FFF74C
:1017D000B3FB0120FFF780FB04233B6003237B6006
:1017E00000233B613B4619463E480AF0A8F908230E
:1017F0003B6003237B6000233B613B46194639482D
:101800000AF09DF94FF0007202213748FFF78CF97A
:10181000002202213448FFF78BF8002202213248CF
:10182000FFF75EF94FF4807202212F48FFF7A4F80A
:10183000002202212C48FFF7C3F84FF480620221F6
:101840002948FFF7E1F84FF4006202212648FFF72C
:10185000FFF84FF4005202212348FFF71DF902213F
:101860002148FFF785F90023FB6200233B634FF417
:1018700080737B6307F12C0319461C4809F0E6FFCF
:101880000023BB614FF48013FB6100233B62002304
:101890007B624FF44073BB6207F11803194613488B
:1018A0000AF000F84FF480611048FEF7E2FF104A9A
:1018B0004FF400710D48FEF7A6FF01220C490B48BA
:1018C000FEF7EAFF0B4A40F205210848FEF79BFFAE
:1018D000012208490548FEF7DFFF00BF3837BD4643
:1018E00080BD00BF000002400064024000210140B2
:1018F000030090020200600280B58EB000AF07F1D5
:101900002C0300221A605A609A6007F11803002223
:101910001A605A609A60DA601A613B4600221A60C7
:101920005A609A60DA601A615A614FF48060FFF77A
:1019300003FB0120FFF7D0FA02233B6003237B6007
:1019400000233B613B46194619480AF0F8F800238A
:10195000FB6200233B6300237B6307F12C031946E2
:10196000144809F073FF0023BB610023FB610023CF
:101970003B6200237B620023BB6207F11803194618
:101980000C4809F08FFF4FF480610A48FEF771FFA1
:10199000094A4FF400710748FEF735FF0022064957
:1019A0000448FEF779FF00BF3837BD4680BD00BF51
:1019B00000000240002201400100300280B58EB0DC
:1019C00000AF07F11C0300221A605A609A60DA60C7
:1019D0001A615A619A613B1D00221A605A609A602E
:1019E000DA601A615A614FF44030FFF7FFF90220C4
:1019F000FFF772FA40237B600223BB600323FB6086
:101A000001233B6100237B610423BB613B1D19461D
:101A100021480AF094F880237B600223BB600323F3
:101A2000FB6001233B6100237B610423BB613B1D01
:101A3000194619480AF083F84FF40010FFF764FACA
:101A40001648FFF70DF9002200211448FFF7E0F8CF
:101A50001248FFF7F5F81148FFF7CAF80F48FFF7EB
:101A6000B7F80023FB610E4B3B6200237B6200232F
:101A7000BB620023FB6200233B6300237B6307F10F
:101A80001C03194605480AF071F90448FFF790F85D
:101A900000BF3837BD4680BD0004024000540040FE
:101AA000FF63106080B58EB000AF07F11C03002209
:101AB0001A605A609A60DA601A615A619A613B1D35
:101AC00000221A605A609A60DA601A615A614FF413
:101AD0004020FFF78BF90220FFF7FEF94FF48063F7
:101AE0007B600223BB600323FB6001233B61002377
:101AF0007B610423BB613B1D194621480AF01FF896
:101B00004FF400637B600223BB600323FB6001236F
:101B10003B6100237B610423BB613B1D19461848D0
:101B20000AF00DF84FF48000FFF7EEF91548FFF7C3
:101B300097F8002200211348FFF76AF81148FFF7D1
:101B40007FF81048FFF754F80E48FFF741F80023DC
:101B5000FB610D4B3B6200237B620023BB620023D1
:101B6000FB6200233B6300237B6307F11C031946E0
:101B700004480AF0FBF800BF3837BD4680BD00BFFF
:101B80000004024000580040FFEAC00080B590B059
:101B900000AF07F118032822002118460CF0C8F9FD
:101BA0003B4600221A605A609A60DA601A615A61F4
:101BB0004FF48050FFF7C0F90120FFF78DF9102393
:101BC0003B6002237B600323BB600023FB60002398
:101BD0003B6105237B613B461946304809F0AFFF66
:101BE00020233B6002237B600323BB600023FB6058
:101BF00000233B6105237B613B461946274809F0DA
:101C00009EFF40233B6002237B600323BB600023D5
:101C1000FB6000233B6105237B613B4619461F485F
:101C200009F08DFF80233B6002237B600323BB60B0
:101C30000023FB6000233B6105237B613B46194683
:101C4000164809F07CFF0023BB614FF48273FB61EF
:101C50004FF4E0633B6200237B620023BB620023FE
:101C6000FB6200233B6300237B630023BB630723EA
:101C7000FB6307F11803194609480AF04FFC0021DD
:101C80000748FFF7DBF90648FFF7EBF90448FFF7D1
:101C9000C5F900BF4037BD4680BD00BF000002400F
:101CA0000030014080B590B000AF07F11803282242
:101CB000002118460CF03CF93B4600221A605A609D
:101CC0009A60DA601A615A614FF48040FFF71CF99C
:101CD0000220FFF701F94FF400533B6002237B60C1
:101CE0000323BB600023FB6000233B6105237B6172
:101CF0003B461946414809F022FF4FF480433B60C0
:101D000002237B600323BB600023FB6000233B6155
:101D100005237B613B461946384809F010FF4FF414
:101D200000433B6002237B600323BB600023FB6016
:101D300000233B6105237B613B4619462F4809F090
:101D4000FEFE4FF0905201212D48FEF7EDFE0022DD
:101D500001212B48FEF7ECFD4FF4403201212848C9
:101D6000FEF7BEFE4FF4807201212548FEF704FE07
:101D7000002201212248FEF723FE4FF48062012158
:101D80001F48FEF741FE4FF4006201211C48FEF798
:101D90005FFE4FF4005201211948FEF77DFE01213C
:101DA0001748FEF7E5FE0023BB614FF48273FB6129
:101DB0004FF470633B6200237B620023BB624FF4ED
:101DC0000073FB6200233B6300237B630023BB6340
:101DD0000723FB6307F1180319460A480AF09EFB24
:101DE00000210848FFF72AF90648FFF73AF90548A5
:101DF000FFF714F900BF4037BD4680BD0004024024
:101E0000006002400038004080B590B000AF07F19C
:101E100018032822002118460CF08AF83B460022BD
:101E20001A605A609A60DA601A615A614FF4004091
:101E3000FFF76AF80420FFF74FF84FF480633B6028
:101E400002237B600323BB600023FB6000233B6114
:101E500006237B613B461946284809F070FE4FF483
:101E600000633B6002237B600323BB600023FB60B5
:101E700000233B6106237B613B4619461F4809F05E
:101E80005EFE4FF480533B6002237B600323BB6004
:101E90000023FB6000233B6106237B613B46194620
:101EA000164809F04CFE0023BB614FF48273FB61BE
:101EB0004FF4E0633B6200237B620023BB624FF47C
:101EC0000073FB6200233B6300237B630023BB633F
:101ED0000723FB6307F11803194609480AF01EFBA4
:101EE00000210748FFF7AAF80548FFF7BAF80448A9
:101EF000FFF794F800BF4037BD4680BD00080240A0
:101F0000003C004080B590B000AF07F118032822D4
:101F1000002118460CF00CF83B4600221A605A606B
:101F20009A60DA601A615A614FF40050FFF704F8C2
:101F30001020FEF7D1FF4FF480533B6002237B60FB
:101F40000323BB600023FB6000233B6105237B610F
:101F50003B461946284809F0F2FD4FF400533B6018
:101F600002237B600323BB600023FB6000233B61F3
:101F700005237B613B4619461F4809F0E0FD4FF4FD
:101F800080433B6002237B600323BB600023FB6034
:101F900000233B6105237B613B461946164809F047
:101FA000CEFD0023BB614FF48273FB614FF4E0630D
:101FB0003B6200237B620123BB624FF40073FB6230
:101FC00020233B6300237B630023BB630723FB6366
:101FD00007F11803194609480AF0A0FA002107483A
:101FE000FFF72CF80548FFF74CF80448FFF716F800
:101FF00000BF4037BD4680BD0010024000340140A4
:1020000080B590B000AF07F11803282200211846D0
:102010000BF08EFF3B4600221A605A609A60DA602D
:102020001A615A614FF40010FEF786FF0220FEF796
:1020300053FF08233B6002237B600323BB60002324
:10204000FB6000233B6108237B613B4619465748F0
:1020500009F075FD10233B6002237B600323BB6006
:102060000023FB6000233B6108237B613B4619464C
:102070004E4809F064FD20233B6002237B6003236C
:10208000BB600023FB6000233B6108237B613B4670
:102090001946464809F053FD4FF0007205214448A7
:1020A000FEF742FD402205214148FEF741FC4FF476
:1020B000403205213E48FEF713FD002205213C4831
:1020C000FEF75AFC002205213948FEF779FC4FF44F
:1020D000806205213648FEF797FC0022052134482E
:1020E000FEF7B6FC002205213148FEF7D5FC05219C
:1020F0002F48FEF73DFD4FF0007206212C48FEF7F9
:1021000013FD002206212A48FEF712FC4FF440324C
:1021100006212748FEF7E4FC002206212448FEF7AA
:102120002BFC002206212248FEF74AFC4FF4806275
:1021300006211F48FEF768FC002206211C48FEF716
:1021400087FC002206211A48FEF7A6FC0621184843
:10215000FEF70EFD0023BB614FF48273FB614FF469
:10216000E0633B6200237B620023BB624FF4007399
:10217000FB6200233B6300237B630023BB630723D5
:10218000FB6307F1180319460A480AF0C7F9002152
:102190000848FEF753FF0748FEF763FF0548FEF7C0
:1021A0003DFF00BF4037BD4680BD00BF0004024078
:1021B000006402400054014080B586B000AF3B1D72
:1021C00000221A605A609A60DA601A610120FEF7F4
:1021D000B3FEFEF78FFA0346002200211846FEF7F1
:1021E000DFFA034619461920FEF7B0FA1920FEF768
:1021F0008FFA0023BB800023BB604FF6FF73FB60A8
:1022000000233B6100237B613B1D19460C480AF00B
:1022100079FA0B48FEF745FF00210948FEF7F4FF65
:1022200000210748FFF706F800210548FFF715F8D9
:102230000348FFF725F800BF1837BD4680BD00BF33
:102240000000014080B586B000AF3B1D00221A603F
:102250005A609A60DA601A610120FEF755FEFEF7B7
:1022600049FA0346002202211846FEF799FA03466E
:1022700019461C20FEF76AFA1C20FEF749FA0023D3
:10228000BB800023BB604FF0FF33FB6000233B614A
:102290003B1D19464FF080400AF034FA4FF0804061
:1022A000FEF7FFFE00214FF08040FEF7ADFF00215A
:1022B0004FF08040FEF7BEFF4FF08040FEF7E0FF9A
:1022C00000BF1837BD4680BD80B594B000AF07F1A0
:1022D0003C0300221A605A609A60DA601A6107F1C2
:1022E0001C032022002118460BF022FE3B1D002279
:1022F0001A605A609A60DA601A615A610420FEF727
:1023000003FE0A23BB8700233B644CF250337B64FB
:102310004FF40073BB6407F13C03194655480AF0BB
:10232000F1F95448FEF7BDFE00215248FEF76CFF5C
:1023300001215048FEF718FF6023FB6100233B6238
:1023400000237B620023BB620023FB6207F11C03B6
:102350001A46012147480AF06FFA01214548FEF765
:10236000B1FE10214348FEF7FFFE07F11C031A4699
:10237000102140480AF060FA10213E48FEF7A2FE04
:102380004FF480713B48FEF7EFFE07F11C031A463D
:102390004FF4807137480AF04FFA4FF48071354896
:1023A000FEF790FE4FF480513248FEF7DDFE07F154
:1023B0001C031A464FF480512E480AF03DFA4FF4A0
:1023C00080512C48FEF77EFE00212A48FEF732FF9E
:1023D0002848FEF755FF0820FEF77EFD4FF4805396
:1023E0007B600223BB600023FB6000233B61002372
:1023F0007B610223BB613B1D19461F4809F09FFB0F
:102400004FF400537B600223BB600023FB6000237A
:102410003B6100237B610223BB613B1D19461648CB
:1024200009F08DFB4FF480437B600223BB600023E7
:10243000FB6000233B6100237B610223BB613B1DEA
:1024400019460D4809F07BFB4FF400437B600223E3
:10245000BB600023FB6000233B6100237B61022300
:10246000BB613B1D1946044809F069FB00BF5037AA
:10247000BD4680BD00080040000C024080B58EB013
:1024800000AF07F11C0300221A605A609A60DA60FC
:102490001A615A619A613B1D00221A605A609A6063
:1024A000DA601A615A614FF04050FEF785FC4FF038
:1024B0008040FEF729FD1020FEF70EFD80237B6093
:1024C0000223BB600323FB6000233B6100237B618D
:1024D0000823BB613B1D1946214809F030FB4FF42E
:1024E00080737B600223BB600323FB6000233B619E
:1024F00000237B610823BB613B1D1946184809F086
:102500001EFBFEF7F7F8034600220B211846FEF7E4
:1025100047F9034619465220FEF718F95220FEF7F4
:10252000F7F84FF4E133FB6100233B6200237B6249
:102530000023BB620C23FB6200233B6300237B630D
:1025400007F11C03194607480AF096FC0548FEF7F8
:1025500002FF0448FEF7A4FE00BF3837BD4680BD29
:10256000001002400078004080B58EB000AF07F147
:102570001C0300221A605A609A60DA601A615A617C
:102580009A613B1D00221A605A609A60DA601A61F3
:102590005A614FF44030FEF7F5FB1020FEF7CCFCFB
:1025A0000120FEF799FC4FF400737B600223BB60AF
:1025B0000323FB6000233B6100237B610723BB6196
:1025C0003B1D19462A4809F0BAFA4FF480637B6034
:1025D0000223BB600323FB6000233B6100237B617C
:1025E0000723BB613B1D1946214809F0A8FA4FF4A7
:1025F00080537B600223BB600323FB6000233B61AD
:1026000000237B610723BB613B1D1946184809F075
:1026100096FA4FF4E133FB6100233B6200237B62B7
:102620000023BB620C23FB6200233B6300237B631C
:1026300007F11C0319460F480AF01EFC0D48FEF76F
:1026400067FE00210B48FEF773FE00210948FEF7E4
:102650004BFE00210748FEF733FE0648FEF77BFEDF
:102660000448FEF71DFE00BF3837BD4680BD00BFE1
:10267000000002400010014080B58EB000AF07F1AD
:102680001C0300221A605A609A60DA601A615A616B
:102690009A613B1D00221A605A609A60DA601A61E2
:1026A0005A614FF04060FEF76DFB2020FEF744FCBE
:1026B0000420FEF711FC40237B600223BB60032350
:1026C000FB6000233B6100237B610823BB613B1D52
:1026D0001946214809F033FA80237B600223BB604E
:1026E0000323FB6000233B6100237B610823BB6164
:1026F0003B1D1946184809F022FAFDF7FBFF034677
:1027000000220B211846FEF74BF8034619464720D6
:10271000FEF71CF84720FDF7FBFF4FF46123FB6138
:1027200000233B6200237B620023BB620C23FB621D
:1027300000233B6300237B6307F11C031946074812
:102740000AF09AFB0548FEF706FE0448FEF7A8FDCE
:1027500000BF3837BD4680BD00080240001401406C
:1027600080B500AF4FF48000FEF7B6FB4FF40010C9
:10277000FEF7B2FBFDF7BEFF03460022002118461C
:10278000FEF70EF8034619460C20FDF7DFFF0C207C
:10279000FDF7BEFFFDF7AEFF034600220A211846F3
:1027A000FDF7FEFF034619463820FDF7CFFF38201E
:1027B000FDF7AEFFFDF79EFF034600220A211846F3
:1027C000FDF7EEFF034619463A20FDF7BFFF3A201A
:1027D000FDF79EFFFDF78EFF0346002209211846F4
:1027E000FDF7DEFF034619464420FDF7AFFF442006
:1027F000FDF78EFFFDF77EFF0346002201211846FC
:10280000FDF7CEFF034619464520FDF79FFF452003
:10281000FDF77EFF00BF80BD80B586B000AF3B46B0
:1028200000221A605A609A60DA601A615A611020B8
:10283000FEF752FB0420FEF74FFB8020FEF74CFB17
:102840000120FEF749FB0220FEF746FB0820FEF7B9
:1028500043FB0421BF48FEF7A2FD0821BD48FEF757
:102860009EFD1021BB48FEF79AFD2021B948FEF7D6
:1028700096FD4021B748FEF792FD4FF40051B6484F
:10288000FEF78DFD4FF48041B348FEF788FD4FF40D
:102890000041B148FEF783FD4FF40061AD48FEF7FB
:1028A0007EFD4FF40061AD48FEF779FD4FF4004125
:1028B000AA48FEF774FD0121A948FEF770FD022128
:1028C000A748FEF76CFD1021A548FEF768FD202102
:1028D000A348FEF764FD4021A148FEF760FD0421F6
:1028E000A048FEF74EFD4FF480619A48FEF749FD7F
:1028F0004FF400419748FEF744FD4FF4805199484A
:10290000FEF73FFD4FF480719548FEF73AFD4FF416
:1029100000719348FEF735FD4FF480619048FEF753
:1029200030FD04218E48FEF72CFD80218C48FEF7F7
:1029300028FD4FF480718B48FEF723FD4FF40071A2
:102940008848FEF71EFD01218248FEF71AFD02218C
:102950008048FEF716FD04233B6001237B600023C3
:10296000BB600023FB6000233B613B46194679486E
:1029700009F0E5F808233B6001237B600023BB607E
:102980000023FB6000233B613B461946714809F078
:10299000D6F810233B6001237B600023BB6000233B
:1029A000FB6000233B613B4619466A4809F0C7F8C3
:1029B00020233B6001237B600023BB600023FB607E
:1029C00000233B613B461946624809F0B8F84023B2
:1029D0003B6001237B600023BB600023FB6000237E
:1029E0003B613B4619465B4809F0A9F84FF4005398
:1029F0003B6001237B600023BB600023FB6000235E
:102A00003B613B461946544809F099F84FF480431E
:102A10003B6001237B600023BB600023FB6000233D
:102A20003B613B4619464C4809F089F84FF4004396
:102A30003B6001237B600023BB600023FB6000231D
:102A40003B613B461946444809F079F804233B6052
:102A500001237B600023BB600023FB6000233B61FC
:102A60003B4619463F4809F06AF84FF480633B60E3
:102A700001237B600023BB600023FB6000233B61DC
:102A80003B461946334809F05AF84FF400633B605F
:102A900001237B600023BB600023FB6000233B61BC
:102AA0003B4619462B4809F04AF84FF400433B6077
:102AB00001237B600023BB600023FB6000233B619C
:102AC0003B461946234809F03AF84FF480533B60DF
:102AD00001237B600023BB600023FB6000233B617C
:102AE0003B4619461F4809F02AF84FF480733B60B3
:102AF00001237B600323BB600023FB6000233B6159
:102B00003B461946164809F01AF84FF400733B602B
:102B100001237B600323BB600023FB6000233B6138
:102B20003B4619460E4809F00AF84FF480633B60B3
:102B300001237B600323BB600023FB6000233B6118
:102B40003B461946064808F0FAFF4FF400633B6025
:102B50000AE000BF001002400008024000000240EE
:102B6000000C02400004024000237B6000233B6114
:102B70003B4619467E4808F0E2FF4FF480733B6005
:102B800000237B6000233B613B461946794808F0EF
:102B9000D6FF4FF400733B6000237B6000233B6152
:102BA0003B461946734808F0CAFF4FF480733B60F8
:102BB00000237B6000233B613B4619466E4808F0CA
:102BC000BEFF4FF400633B6001237B600023BB60CA
:102BD0000023FB6000233B613B461946664808F032
:102BE000AEFF4FF400433B6001237B600023BB60DA
:102BF0000023FB6000233B613B4619465E4808F01A
:102C00009EFF01233B6001237B600023BB60002308
:102C1000FB6000233B613B461946554808F08FFF97
:102C200002233B6001237B600023BB600023FB6029
:102C300000233B613B4619464D4808F080FF0423C2
:102C40003B6001237B600023BB600023FB6000230B
:102C50003B613B461946464808F071FF08233B603C
:102C600000237B6000233B613B461946404808F047
:102C700066FF10233B6001237B600023BB600023C1
:102C8000FB6000233B613B461946394808F057FF7B
:102C900020233B6001237B600023BB600023FB609B
:102CA00000233B613B461946314808F048FF40236A
:102CB0003B6001237B600023BB600023FB6000239B
:102CC0003B613B4619462A4808F039FF80233B60A8
:102CD00001237B600023BB600023FB6000233B617A
:102CE0003B461946224808F02AFF4FF480733B60A8
:102CF00001237B600023BB600023FB6000233B615A
:102D00003B4619461D4808F01AFF4FF400733B601C
:102D100001237B600023BB600023FB6000233B6139
:102D20003B461946154808F00AFF01233B60012382
:102D30007B600023BB600023FB6000233B613B46BC
:102D400019460F4808F0FBFE02233B6001237B601D
:102D50000023BB600023FB6000233B613B46194618
:102D6000074808F0ECFE00BF1837BD4680BD00BF25
:102D7000000C024000080240000002400004024033
:102D80000010024080B400AF00BFFDE780B400AF88
:102D900000BFFDE780B400AF00BFFDE780B400AF27
:102DA00000BFFDE780B400AF00BFFDE780B400AF17
:102DB00000BFBD465DF8047B704780B400AF00BF24
:102DC000BD465DF8047B704780B400AF00BFBD46D0
:102DD0005DF8047B704780B500AF08F07BFC00BF56
:102DE00080BD80B400AF01231846BD465DF8047B6A
:102DF000704780B582B000AF786039600BF0F8F8AA
:102E0000034616221A604FF0FF3318460837BD46B6
:102E100080BD80B582B000AF78604FF0FF31786838
:102E2000FFF7E7FF00BFFDE780B586B000AFF860B1
:102E3000B9607A6000237B610AE0AFF3008001464D
:102E4000BB685A1CBA60CAB21A707B6901337B61D5
:102E50007A697B689A42F0DB7B6818461837BD4672
:102E600080BD80B586B000AFF860B9607A6000239D
:102E70007B6109E0BB685A1CBA601B781846AFF347
:102E800000807B6901337B617A697B689A42F1DB60
:102E90007B6818461837BD4680BD80B483B000AF4C
:102EA00078604FF0FF3318460C37BD465DF8047B61
:102EB000704780B483B000AF786039603B684FF4EE
:102EC00000525A60002318460C37BD465DF8047B5B
:102ED000704780B483B000AF7860012318460C3788
:102EE000BD465DF8047B704780B485B000AFF860E4
:102EF000B9607A60002318461437BD465DF8047B3C
:102F00007047000080B586B000AF7860144A154B5A
:102F1000D31A7B617B693B61134B1B68002B02D189
:102F2000114B124A1A60104B1A687B6813443A69B5
:102F30009A4207D20BF05CF803460C221A604FF05D
:102F4000FF3309E0084B1B68FB60074B1A687B687E
:102F50001344054A1360FB6818461837BD4680BD08
:102F60000000082000040000BC430020280E0120BF
:102F700080B400AF064BD3F88830054A43F47003A1
:102F8000C2F8883000BFBD465DF8047B704700BFC3
:102F900000ED00E0DFF834D0FFF7EAFF0C480D4900
:102FA0000D4A002302E0D458C4500433C4188C42A4
:102FB000F9D30A4A0A4C002301E013600432A2420A
:102FC000FBD30BF01BF8FEF7F9F97047000008205F
:102FD00000000020A0430020101B0108A043002097
:102FE000280E0120FEE780B582B000AF786039601E
:102FF00003F0F2FC03F01EFC7B6814330A220A2162
:10300000184608F023FB00BF0837BD4680BD00000E
:1030100080B584B002AF786039607B68002B03D143
:1030200000210E4803F036F878683B685A683B6820
:103030009B68009313460A4A0A4908F079FA7B68AC
:1030400014337A681221184608F0DEFA3B681A68D1
:103050007B685A6200BF0837BD4680BD90120108E8
:10306000CD300008E72F000880B586B002AF0223FC
:103070000093042308220949094807F0DDFF094AA3
:103080003B1D07CA83E807003B1D19460648FFF7AA
:10309000BFFF00BF1037BD4680BD00BF0044002009
:1030A00008440020C0FE0008C043002080B582B064
:1030B00000AF0346FB71FB791946034808F052FA4A
:1030C00000BF0837BD4680BDC043002090B585B025
:1030D00000AF786039603B681B88122B06D0122B3A
:1030E00035DC102B08D0112B1DD030E003F07EFC16
:1030F00003F0E4FB01232BE00023FB730EE0FB7BDA
:10310000FC7B184603F078FC034619467B6804F103
:10311000140223F81210FB7B0133FB73FB7B072B9C
:10312000EDD9012314E00023BB730DE0BB7B1846EF
:1031300003F06CFB0346BA7B19B27B681C3223F8A0
:103140001210BB7B0133BB73BB7B012BEED9022377
:1031500018461437BD4690BD80B483B000AF786088
:10316000054A7B681C3332F9133018460C37BD46CC
:103170005DF8047B704700BFC043002080B483B07B
:1031800000AF7860054A7B68143332F91330184673
:103190000C37BD465DF8047B704700BFC04300207C
:1031A00080B500AF01F036FE02F0F6F8FFF75CFFE5
:1031B00000F08AF800BF80BD80B500AF012000F0AC
:1031C000A5F8042001F058FE022002F00BF90320BC
:1031D000FFF76CFF00BF80BD80B500AF08F05AF963
:1031E00000BF80BD80B582B000AF7860396003F069
:1031F0004FFA04F01BFA03F0D5FE7B68012283F836
:1032000051207B68002283F8562000BF0837BD4656
:1032100080BD000080B584B000AF786039607B6805
:103220005B69FB607B685B6939687868984703462F
:10323000FB72FB7A002B08D1FB6806497868984737
:103240007B685B6904497868984700BF1037BD46C2
:1032500080BD00BFC0120108AC12010880B584B067
:1032600002AF786039607B68002B03D100211348DE
:1032700002F010FF78683B685A683B689B680093CF
:1032800013460F4A0F4908F053F93B681A687B68E8
:103290005A617B6818337A681321184608F0B4F92C
:1032A0007B681833184608F0F1F93B681A7B7B6895
:1032B00083F84C2000BF0837BD4680BD9C12010832
:1032C00015320008E531000890B587B002AF12232F
:1032D0000093022324220949094807F0ADFE094B57
:1032E0003C460FCB84E80F003B4619460648FFF7E3
:1032F000B5FF00BF1437BD4690BD00BFA0640020DD
:10330000C4640020CCFE00082444002080B582B0B4
:1033100000AF0346FB71FB791946034808F022F918
:1033200000BF0837BD4680BD2444002080B582B070
:1033300000AF786039603B681B88152B12D0152BC5
:1033400015DC012B02D0142B07D010E07B6818335A
:10335000184608F09BF901230AE07B68064A5A6187
:10336000002305E07B68054A5A61002300E0022340
:1033700018460837BD4680BD81330008FD3400087B
:1033800080B588B000AF786039603B681B88013B2E
:10339000172B00F2AB8001A252F823F0FD33000896
:1033A000ED34000867340008ED340008ED340008FF
:1033B000ED340008ED340008ED340008ED34000869
:1033C000ED340008ED340008ED340008ED34000859
:1033D000ED340008ED340008ED340008ED34000849
:1033E000ED340008DB340008ED340008ED3400084B
:1033F0007534000895340008B53400087B6818332C
:10340000002242F21071184608F020F97B6893F808
:103410002A301946786800F0ACF9786800F0C2F9F3
:103420007B68DB6AFB607B681B6B3B617B685B6B6B
:103430007B617B681B8DBB617B6893F82A30FB61E5
:103440007B6893F82B30184603F08CF907F10C03D6
:10345000184603F06FFD03F059FF7B68002283F8E4
:103460004C20012343E07B681833184608F00EF91E
:1034700001233CE07B6893F84C30002B04D17B683F
:10348000012283F84C2003E07B68032283F84C2060
:1034900001232CE07B6893F84C30012B04D17B682E
:1034A000022283F84C2003E07B68032283F84C203F
:1034B00001231CE07B6893F84C30022B04D17B681D
:1034C000052283F84C2003E07B68032283F84C201C
:1034D0007B68094A5A61002309E07B68042283F86B
:1034E0004C207B68044A5A61002300E002231846FE
:1034F0002037BD4680BD00BF2D33000880B582B0A7
:1035000000AF786039603B681B881A2B34D01A2BC7
:1035100060DC012B02D0192B24D05BE07B681833D0
:10352000184608F0B3F87B685B6C2D4A53607B68E3
:103530001B6C2B4A13602A4B5B68B3F5FA6F28BFEC
:103540004FF4FA639AB2274B1A80254B1B685B0035
:10355000244A128852001146234A184604F092F871
:10356000012338E0214B1B681E4A12881E49184669
:1035700001F062FE01232EE0194B5B68194A1288A4
:103580009B1A174A5360164B1B68164A128813443D
:10359000134A1360124B5B68002B16D0104B5B680C
:1035A000B3F5FA6F28BF4FF4FA639AB20D4B1A8045
:1035B0000B4B1B685B000B4A1288520011460A4AEB
:1035C000184604F05FF8012305E07B68084A5A6159
:1035D000002300E0022318460837BD4680BD00BF27
:1035E0007C440020886400208844002004000020DF
:1035F0002D33000880B584B000AFF860B9607A6000
:10360000FB68BA681A64FB687A685A64FB68044904
:10361000184607F0D1FF002318461037BD4680BD7D
:10362000E812010880B584B000AFF860B9607A6034
:10363000BB68012B02D87B68642B01D9062318E0F4
:10364000FB6893F85130002B06D0002002F0DCFF1D
:10365000FB68002283F851207968B86803F0C2F84B
:103660007B68D9B2FA68BB6813444D330A461A70B6
:10367000002318461037BD4680BD80B582B000AF2C
:10368000786039603B68242B01D9062314E07B68FD
:1036900093F85130012B06D0012002F0B5FF7B6872
:1036A000012283F85120386803F028F83B68DAB229
:1036B0007B6883F84F20002318460837BD4680BD3D
:1036C00080B582B000AF78607B6893F85130012BF1
:1036D00006D0012002F098FF7B68012283F8512078
:1036E00003F01CF87B68FF2283F84F200023184664
:1036F0000837BD4680BD80B582B000AF78603960C4
:103700003B68082B01D9062314E07B6893F85130FD
:10371000012B06D0012002F077FF7B68012283F89D
:103720005120386803F004F83B68DAB27B6883F80C
:103730005020002318460837BD4680BD80B582B0B2
:1037400000AF78607B6893F85130012B06D00120E0
:1037500002F05AFF7B68012283F8512002F0F8FF43
:103760007B68FF2283F85020002318460837BD46A7
:1037700080BD80B582B000AF786039603B68242B93
:1037800001D906230AE003F09DFC386803F0C2FC6F
:103790003B68DAB27B6883F852200023184608376A
:1037A000BD4680BD80B582B000AF786003F09EFC5E
:1037B000002318460837BD4680BDB0B483B000AFC3
:1037C000786039603B681B88002B04D03B681B88FD
:1037D000B3F57A7F01D9062328E03B689B78002B5C
:1037E00003D03B689B78242B01D906231EE03B685D
:1037F000DB78642B01D9062318E03B681B69B3F51D
:10380000006F01D9062311E03B685B69002B01D1F1
:1038100006230BE07B683A6803F1280415460FCDB8
:103820000FC495E8030084E80300002318460C3712
:10383000BD46B0BC7047B0B483B000AF78603960AB
:103840003A687B68154603F128040FCC0FC594E84D
:10385000030085E8030000BF0C37BD46B0BC7047CD
:1038600080B584B000AF78607B682833FB60FB686C
:103870001B88002B04D0FB681B88B3F57A7F01D925
:1038800006231CE0FB689B78002B03D0FB689B7829
:10389000242B01D9062312E0FB68DB78642B01D9C5
:1038A00006230CE0FB681B69B3F5006F01D9062302
:1038B00005E07B680449184607F07EFE00231846A1
:1038C0001037BD4680BD00BFD412010880B483B05C
:1038D00000AF78607B68DB6903F02003202B01D107
:1038E000012300E0002318460C37BD465DF8047B39
:1038F000704780B483B000AF78607B685B6ADBB2EE
:1039000018460C37BD465DF8047B704780B500AFA4
:1039100000F008F8024807F05CFB00BF80BD00BF64
:103920001466002080B500AF0A48FFF7CFFF0346BA
:10393000002B0DD00748FFF7DCFF03461A46064B65
:103940001A70064B01229A600449054807F034FEBC
:1039500000BF80BD007800401465002008000020F2
:10396000E064002080B400AFBFF34F8F00BF064B70
:10397000DB6803F4E0620449044B1343CB60BFF3FC
:103980004F8F00BF00BFFDE700ED00E00400FA0527
:1039900080B588B000AFF860B9607A6007F11403B1
:1039A000074A0A2118460AF03DF907F1140319469F
:1039B000F86805F095FF00BF2037BD4680BD00BF09
:1039C0009807010880B584B000AFF860B9607A60EC
:1039D000FFF7C8FF80B588B000AFF860B9607A60C3
:1039E0000023BB610023FB82B86806F069F8034638
:1039F0007B757B7D012B04D02E49F86807F090F988
:103A000054E00121B86806F025F838613B691B785D
:103A1000612B22D10023FB771BE0FB7F1846FFF7C9
:103A2000ADFB0346FB82B7F9163013F5004F06D104
:103A3000FB7F1A462049F86807F072F906E0FA7F22
:103A4000B7F916301D49F86807F06AF9FB7F0133B2
:103A5000FB77FB7F072BE0D928E03B691B782F2BF6
:103A600020D93B691B78372B1CD8386909F002FB39
:103A70000346BB61B869FFF781FB0346FB82B7F9D8
:103A8000163013F5004F05D1BA690B49F86807F0F5
:103A900047F90BE0B7F91630BA690849F86807F03A
:103AA0003FF903E00649F86807F03AF92037BD46C8
:103AB00080BD00BFA0070108C0070108D4070108A6
:103AC000E807010880B588B000AFF860B9607A6097
:103AD000B86805F0F5FF0346FB61FB69012B04D0D4
:103AE0001549F86807F01CF923E0144B1B681846C9
:103AF00001F0E2FF034683F00103DBB2002B04D0A8
:103B00000F49F86807F00CF913E00121B86805F0D7
:103B1000A1FFB861B86909F0ADFA03467B61074BB4
:103B20001B687969184602F071FA0649F86807F0CF
:103B3000F7F82037BD4680BDA0070108140000201B
:103B4000FC0701084808010880B584B000AFF860A0
:103B5000B9607A600A4B1B68184602F070FA034697
:103B6000002B04D00749F86807F0DAF803E00649AB
:103B7000F86807F0D5F800BF1037BD4680BD00BF1C
:103B800014000020480801085008010880B588B0DA
:103B900000AFF860B9607A60B86805F091FF03463D
:103BA000BB61BB69012B04D03849F86807F0B8F84D
:103BB00069E0374B1B68184601F07EFF034683F02F
:103BC0000103DBB2002B04D03249F86807F0A8F8F3
:103BD00059E00121B86805F03DFF786100233B61A1
:103BE0007B691B78612B25D10023FB611EE0284BEC
:103BF0001B68F969184601F01AFF38613B69002B10
:103C00000CD1234B1B680022F969184601F02FFFE5
:103C1000FA692149F86807F083F804E0FA691F4956
:103C2000F86807F07DF8FB690133FB61FB69032B42
:103C3000DDD928E07B691B782F2B24D97B691B7881
:103C4000332B20D8786909F015FA0346FB61104B35
:103C50001B68F969184601F0EAFE38613B69002BE0
:103C60000CD10B4B1B680022F969184601F0FFFECE
:103C7000FA690949F86807F053F804E0FA69074956
:103C8000F86807F04DF82037BD4680BDA007010851
:103C90001400002058080108A0080108B408010811
:103CA00080B588B000AFF860B9607A60B86805F098
:103CB00007FF0346FB61FB69012B04D01549F86837
:103CC00007F02EF822E00121B86805F0C3FEB861C4
:103CD000B86909F0CFF90346FB82FB8AB3F5FA7F96
:103CE00004D3FB8A40F6B832934204D90A49F868F3
:103CF00007F016F80AE0094B1B68FA8A11461846C5
:103D000002F034F80649F86807F00AF82037BD4693
:103D100080BD00BFCC080108F40801081400002091
:103D20004808010880B586B000AFF860B9607A60D5
:103D3000084B1B68184601F06AFD0346FB82FB8AAC
:103D40001A460549F86806F0EBFF00BF1837BD4674
:103D500080BD00BF140000202809010880B588B08C
:103D600000AFF860B9607A60B86805F0A9FE034654
:103D7000BB61BB69042B04D02F49F86806F0D0FF63
:103D800057E02E4B1B68184601F085FF0346FB7574
:103D90000023FB614AE0FB699BB201339BB21946E9
:103DA000B86805F057FE0346184609F063F9034664
:103DB000D9B207F11002FB6913440A461A7007F1E1
:103DC0001002FB6913441B78012B05D9FA691C49C1
:103DD000F86806F0A5FF2CE007F11002FB69134418
:103DE0001B78002B08D1154B1B68FA69D2B211461B
:103DF000184601F08BFF16E0FB7DFA699A4205D167
:103E0000FA691049F86806F08BFF0CE00B4B1B6851
:103E1000FA69D2B21146184601F057FFFA690A4909
:103E2000F86806F07DFFFB690133FB61FB69032B3A
:103E3000B1D92037BD4680BD4C09010814000020CF
:103E40007009010898090108BC09010880B586B00D
:103E500000AFF860B9607A60134B1B68184601F038
:103E600078FF0346FB7400237B6115E0FA7C7B69D5
:103E700042FA03F303F00103002B05D07A690B49E2
:103E8000F86806F04DFF04E07A690949F86806F021
:103E900047FF7B6901337B617B69032BE6D900BF58
:103EA00000BF1837BD4680BD14000020BC090108C2
:103EB000D409010880B58CB000AFF860B9607A60B1
:103EC000354B1B68184601F0F7FD034683F00103EC
:103ED000DBB2002B04D03149F86806F021FF58E02E
:103EE000B86805F0EDFD0346FB62FB6A032B04D0C6
:103EF0002B49F86806F014FF4BE00121B86805F083
:103F0000A9FDB862B86A09F0B5F803467B627B6A1E
:103F1000032B04D92349F86806F002FF39E0022197
:103F2000B86805F097FD3862386A09F0A3F80346CF
:103F3000FB61FB69012B04D91B49F86806F0F0FE10
:103F400027E00321B86805F085FDB861B86909F07C
:103F500091F80346FB82FB8A40F6B832934204D9BB
:103F60001249F86806F0DCFE13E00B4B1868FB8A78
:103F7000FA69796A01F0CAFF38613B69002B04D005
:103F80000B49F86806F0CCFE03E00A49F86806F031
:103F9000C7FE3037BD4680BD14000020EC09010883
:103FA000100A01083C0A0108600A0108840A010895
:103FB000500801084808010880B58AB000AFF860D1
:103FC000B9607A602A4B1B68184601F075FD0346FC
:103FD00083F00103DBB2002B04D02649F86806F019
:103FE0009FFE41E0B86805F06BFD03467B627B6A8B
:103FF000022B04D02049F86806F092FE34E001213B
:10400000B86805F027FD3862386A09F033F80346CE
:10401000FB61FB69032B04D91849F86806F080FEA0
:1040200022E00221B86805F015FDB861B86909F011
:1040300021F803467B610E4B18687B69002B14BF87
:1040400001230023DBB21A46F96901F010FD386143
:104050003B69002B04D00A49F86806F061FE03E0D2
:104060000849F86806F05CFE2837BD4680BD00BFF1
:1040700014000020EC090108B00A01083C0A0108FC
:10408000500801084808010880B58AB000AFF86000
:10409000B9607A60B86805F013FD03467B627B6AFD
:1040A000022B04D02949F86806F03AFE4AE00121C3
:1040B000B86805F0CFFC3862386A08F0DBFF0346C9
:1040C000FB61234B1B68184601F043FE0346FB7659
:1040D000FA7EFB6942FA03F303F00103002B05D0DB
:1040E000FA691C49F86806F01BFE2BE00221B8684B
:1040F00005F0B0FC7861786908F0BCFF03463B61CD
:104100003B69B3F5FA7F04D33B6940F6B83293427A
:1041100004D91149F86806F003FE13E00C4B1B6844
:10412000FA69D2B21146184601F0DAFC084B1B6856
:104130003A6992B21146184601F0E8FC0749F8685E
:1041400006F0EEFD2837BD4680BD00BFD00A01084D
:1041500014000020F80A0108F408010848080108C2
:1041600080B584B000AFF860B9607A60064B1B6818
:10417000184601F0E7FC0549F86806F0D1FD00BFDC
:104180001037BD4680BD00BF14000020480801085C
:1041900080B584B000AFF860B9607A60064B1B68E8
:1041A000184601F059FD0549F86806F0B9FD00BF51
:1041B0001037BD4680BD00BF14000020480801082C
:1041C00080B586B000AFF860B9607A600B4B1B68B1
:1041D000184601F060FD0346FB75084B1B68184646
:1041E00001F066FD0346BB82FA7DBB8A0449F8688C
:1041F00006F096FD00BF1837BD4680BD14000020B4
:104200001C0B010880B588B000AFF860B9607A6017
:10421000B86805F055FC0346FB61FB69012B04D02F
:104220001249F86806F07CFD1CE00121B86805F031
:1042300011FCB861B86908F01DFF0346FB75FB7DF2
:10424000642B04D90A49F86806F06AFD0AE0094BB4
:104250001B68FA7D1146184601F0A4FD0649F8686E
:1042600006F05EFD2037BD4680BD00BF480B01084B
:104270006C0B0108140000204808010880B586B0C6
:1042800000AFF860B9607A60084B1B68184601F00F
:104290009FFD0346FB75FB7D1A460549F86806F04D
:1042A0003FFD00BF1837BD4680BD00BF1400002091
:1042B000900B010880B588B000AFF860B9607A60F3
:1042C000B86805F0FDFB0346BB61BB69042B04D055
:1042D0002649F86806F024FD45E00023FB613BE039
:1042E000FB699BB201339BB21946B86805F0B2FB7B
:1042F0000346184608F0BEFE0346D9B207F1140281
:10430000FB6913440A461A7007F11402FB6913444F
:104310001B78012B05D9FA691549F86806F000FDEC
:1043200021E007F11402FB6913441B78002B08D12C
:10433000104B1B68FA69D2B21146184601F076FD9F
:1043400007E00C4B1B68FA69D2B21146184601F01F
:104350004CFDFB690133FB61FB69032BC0D90649A6
:10436000F86806F0DDFC2037BD4680BDAC0B0108C7
:1043700070090108140000204808010880B586B0C3
:1043800000AFF860B9607A60124B1B68184601F004
:1043900070FD0346FB7400237B6113E0FA7C7B69AC
:1043A00042FA03F303F00103002B04D00A49F86832
:1043B00006F0B6FC03E00949F86806F0B1FC7B6939
:1043C00001337B617B69032BE8D900BF00BF18373D
:1043D000BD4680BD14000020D40B0108EC0B010881
:1043E00080B588B000AFF860B9607A60B86805F051
:1043F00067FB0346FB61FB69012B04D00E49F8689B
:1044000006F08EFC15E00121B86805F023FBB861C9
:10441000B86908F02FFE0346FB82084B1B68B7F90A
:1044200016201146184601F047FD0549F86806F0C8
:1044300077FC2037BD4680BD080C01081400002021
:104440004808010880B586B000AFF860B9607A60AE
:104450000E4B1B68184601F03FFD0346FB82B7F97F
:10446000163007EE903AB8EEE77AF2EE046AC7EE3D
:10447000267AB7EEE77A53EC172B0549F86806F071
:104480004FFC00BF1837BD4680BD00BF14000020A0
:10449000300C010880B588B000AFF860B9607A6070
:1044A000B86805F00DFB0346FB61FB69012B04D0E6
:1044B0001249F86806F034FC1DE00121B86805F0E7
:1044C000C9FAB861B86908F0D5FD03467B617B691C
:1044D000072B04D90A49F86806F022FC0BE0094BC7
:1044E0001B687A69D2B21146184601F0CFFC064922
:1044F000F86806F015FC2037BD4680BD540C010855
:104500006C0C0108140000204808010880B586B032
:1045100000AFF860B9607A600023FB75084B1B6838
:10452000184601F0E6FC0346FB75FB7D1A4605497B
:10453000F86806F0F5FB00BF1837BD4680BD00BF28
:10454000140000208C0C010880B584B000AFF86026
:10455000B9607A60064B1B68184601F065F9054999
:10456000F86806F0DDFB00BF1037BD4680BD00BF18
:10457000140000204808010880B584B000AFF8603E
:10458000B9607A60064B1B68184601F069F9054965
:10459000F86806F0C5FB00BF1037BD4680BD00BF00
:1045A000140000204808010880B588B000AFF8600A
:1045B000B9607A60B86805F083FA0346FB61FB696D
:1045C000012B04D01349F86806F0AAFB1EE0012174
:1045D000B86805F03FFAB861B86908F04BFD0346CA
:1045E000FB82B7F91630642B04DD0B49F86806F03E
:1045F00097FB0BE0094B1B68B7F916200021184602
:10460000FFF710F80649F86806F08AFB2037BD4628
:1046100080BD00BF9C0C0108C40C010818000020DC
:104620004808010880B588B000AFF860B9607A60CA
:10463000B86805F045FA0346FB61FB69012B04D01D
:104640001349F86806F06CFB1EE00121B86805F01C
:1046500001FAB861B86908F00DFD0346FB82B7F9AD
:104660001630642B04DD0B49F86806F059FB0BE0AB
:10467000094B1B68B7F9162001211846FEF7D2FF37
:104680000649F86806F04CFB2037BD4680BD00BFE8
:10469000E80C0108C40C01081800002048080108B3
:1046A00080B588B000AFF860B9607A600023BB8342
:1046B000B86805F005FA0346FB76FB7E012B04D0B3
:1046C0002749F86806F02CFB46E00121B86805F0A0
:1046D000C1F978617B691B78612B1AD10023FB77C4
:1046E00013E0FB7F1846FEF737FD0346BB83FB7FD5
:1046F000002B01D11B4A00E01B4ABB8B1B49F86809
:1047000006F00EFBFB7F0133FB77FB7F012BE8D923
:1047100022E07B691B782F2B1AD97B691B78312B00
:1047200016D8786908F0A6FC0346FB74FB7C184693
:10473000FEF712FD0346BB83FB7C002B01D1094A27
:1047400000E0094ABB8B0949F86806F0E9FA03E082
:104750000749F86806F0E4FA2037BD4680BD00BF7F
:10476000A0070108300D0108340D0108380D0108BB
:10477000E807010880B588B000AFF860B9607A60DA
:10478000B86805F09DF90346FB61FB69012B04D075
:104790001349F86806F0C4FA1EE00121B86805F074
:1047A00059F9B861B86908F065FC78617B69242B18
:1047B00002DC7B69002B04DC0A49F86806F0B0FAD9
:1047C0000AE0094B1B687A6911461846FEF755FF47
:1047D0000649F86806F0A4FA2037BD4680BD00BF40
:1047E000540D0108780D0108180000204808010840
:1047F00080B588B000AFF860B9607A60B86805F03D
:104800005FF90346FB61FB69012B04D01349F8688B
:1048100006F086FA1EE00121B86805F01BF9B861C0
:10482000B86908F027FC78617B69082B02DC7B699A
:10483000002B04DC0A49F86806F072FA0AE0094B1A
:104840001B687A6911461846FEF755FF0649F86855
:1048500006F066FA2037BD4680BD00BF9C0D0108FA
:10486000C00D0108180000204808010880B584B078
:1048700000AFF860B9607A60064B1B681846FEF717
:104880001FFF0549F86806F04BFA00BF1037BD4618
:1048900080BD00BF180000204808010880B584B022
:1048A00000AFF860B9607A60064B1B681846FEF7E7
:1048B00045FF0549F86806F033FA00BF1037BD46DA
:1048C00080BD00BF180000204808010880B592B0E4
:1048D00000AFF860B9607A60B86805F0F1F8034697
:1048E0007B647B6C062B04D06949F86806F018FAE3
:1048F000CBE00121B86805F0ADF80346184608F092
:10490000B9FB03463B643B6CB3F57A7F03D33B6C46
:10491000604A934204D96049F86806F001FAB4E0AD
:104920003B6C5E4AA2FB03239B093B640221B868EF
:1049300005F090F80346184608F09CFB0346FB631D
:10494000FB6B002B02D0FB6B242B04D95449F86875
:1049500006F0E6F999E00321B86805F07BF8034614
:10496000184608F087FB0346BB63BB6B642B04D976
:104970004C49F86806F0D4F987E00421B86805F0DE
:1049800069F80346184608F075FB03467B637B6BAA
:10499000002B04D14449F86806F0C2F975E07B6B3E
:1049A0004FF47A7202FB03F37B630521B86805F0CC
:1049B00051F80346184608F05DFB03463B633B6B2A
:1049C000002B04D13949F86806F0AAF95DE03B6B89
:1049D0004FF47A7202FB03F33B630621B86805F0DB
:1049E00039F80346184608F045FB0346FB62FB6AAC
:1049F000002B04D12E49F86806F092F945E0FB6AD5
:104A00004FF47A7202FB03F3FB627A6B3B6B1A443E
:104A1000FB6A13443A6C02FB03F3264AA2FB03230E
:104A20009B0CBB62BB6AB3F5006F04D92249F868DE
:104A300006F076F929E03B6C9BB23B82FB6BDBB264
:104A4000BB74BB6BDBB2FB747B6B7B613B6BBB6191
:104A5000FB6AFB61BB6A3B62184A3B6CB2FBF3F337
:104A60007B62174B1B6807F1100211461846FEF7D0
:104A7000A4FE0346002B04D11249F86806F050F951
:104A800003E01149F86806F04BF94837BD4680BD90
:104A9000E00D010800350C00400E0108D34D6210F6
:104AA000680E0108880E0108A80E0108CC0E010846
:104AB000F40E010883DE1B43180F010840420F006B
:104AC000180000204808010850080108F0B591B00E
:104AD00006AFF860B9607A60184B1B6807F11002E6
:104AE00011461846FEF7A7FE3B8A1A464FF47A7322
:104AF00003FB02F4BB7C1E46FB7C1D467B69104A0F
:104B0000A2FB03239B09BA690D49A1FB021292097A
:104B1000F9690B48A0FB01018909386A04900391E7
:104B2000029201930095334622460649F86806F042
:104B3000F7F800BF2C37BD46F0BD00BF18000020BD
:104B4000D34D6210400F010880B584B000AFF8600B
:104B5000B9607A600A4B1B681846FEF781FE03466F
:104B6000002B04D00749F86806F0DAF803E006499C
:104B7000F86806F0D5F800BF1037BD4680BD00BF0D
:104B800018000020DC0F0108FC0F010880B588B078
:104B900000AFF860B9607A60B86804F091FF03462E
:104BA000FB61FB69022B04D02349F86806F0B8F8D2
:104BB0003EE00121B86804F04DFF0346184608F0B6
:104BC00059FA0346BB61BB69B3F5001F04D31B4907
:104BD000F86806F0A5F82BE00221B86804F03AFF67
:104BE0000346184608F046FA03467B61BB69C3F5E5
:104BF00000137A699A4203D87B69B3F5007F08D223
:104C0000BB69C3F500131A460D49F86806F088F829
:104C10000EE00C49F86806F083F80B4B1B687A69C4
:104C2000B9691846FEF7E6FC0649F86806F078F818
:104C30002037BD4680BD00BF18100108481001088C
:104C400074100108A01001081800002080B400AF03
:104C5000024B1846BD465DF8047B7047FC12010804
:104C600080B400AF26231846BD465DF8047B70472C
:104C700080B483B000AF78607B68DB6903F0200309
:104C8000202B01D1012300E0002318460C37BD463C
:104C90005DF8047B704780B483B000AF78607B68B8
:104CA0005B6ADBB218460C37BD465DF8047B704783
:104CB00080B500AF4FF480620849094806F0E2FA77
:104CC0004FF480520749084806F0DCFA064B044AC4
:104CD0000649074806F0FBF800BF80BDD0660020FB
:104CE000A8660020D06A0020BC66002000140140A5
:104CF00098660020B0B588B000AF1B4B3C1D1D4628
:104D00000FCD0FC495E8070084E80700FFF79EFF6A
:104D10000346BB61FFF7A4FF0346BB833B1D184658
:104D200004F09FFC0346114A1360104B1B68002BD4
:104D300005D101210E4801F0ADF9012310E00B4B24
:104D40001B680C4A1A60094B1C683B1D184604F08E
:104D500057FC03461A460849204605F0E1FF0023A8
:104D600018462037BD46B0BDC4100108D07A0020D7
:104D70008C1601087D4D0008A410010880B582B092
:104D800000AF78600B46FB70FB781946034806F0CD
:104D9000DAF800BF0837BD4680BD00BF9866002026
:104DA00080B584B002AF786039607B68002B03D196
:104DB0000021154801F06EF978683B68DA683B68B5
:104DC0001B6900931346114A114906F0B1FB7B6839
:104DD00020337A680621184606F016FC3B685A68AC
:104DE0007B68DA613B689A687B689A613B681A68FD
:104DF0007B685A617B682033184606F047FC00BF89
:104E00000837BD4680BD00BF8C160108D54E00088E
:104E1000994E000880B588B002AFFFF749FF022322
:104E200000930A2314220D490D4806F005F9FFF7F7
:104E300061FF0C4B7B600C4B1B68BB600B4BFB603A
:104E40000B4B3B61064B7B613B1D19460948FFF745
:104E5000A7FF00BF1837BD4680BD00BF68660020B1
:104E60007C6600201D4F0008D07A00209866002044
:104E7000646600202466002080B582B000AF03463F
:104E8000FB71FB791946034806F06CFB00BF08373D
:104E9000BD4680BD2466002080B582B000AF78603A
:104EA00039607B68002B03D10721094801F0F2F833
:104EB0007B689B69184606F026F87B6820330A2237
:104EC0000A21184606F0C2FB00BF0837BD4680BD68
:104ED0008C16010880B584B000AF786039607B68BB
:104EE0005B69FB607B685B69396878689847034653
:104EF000FB72FB7A002B08D1FB680649786898475B
:104F00007B685B6904497868984700BF1037BD46E5
:104F100080BD00BF981601089416010880B582B0C4
:104F200000AF786039607B68002B03D103212148F2
:104F300001F0B0F83B68002B03D104211D4801F0BB
:104F4000A9F83B681B88013B062B2DD801A252F81B
:104F500023F000BF714F0008A94F0008834F0008DD
:104F6000A94F0008A94F0008914F00089F4F000863
:104F70007B6820330A220A21184606F067FB0123CA
:104F800013E07B682033184606F080FB01230CE019
:104F9000094B1B68184604F013FC012305E07B68ED
:104FA000064A5A61002300E0022318460837BD462E
:104FB00080BD00BF8C160108D07A00204550000843
:104FC00080B582B000AF0B48FFF752FE0346002BBE
:104FD0000BD00848FFF75FFE0346FB71064B1B68CA
:104FE000FA791146184604F0C8FB00BF0837BD46E1
:104FF00080BD00BF00140140D07A002080B584B08D
:1050000000AF78607B689B69184605F0E2FFF860A6
:10501000FB68002B04D07B680349184606F0CCFAE5
:1050200000BF1037BD4680BD1C00002080B500AF1A
:10503000FFF7C6FF0248FFF7E1FF00BF80BD00BFDA
:105040002466002080B584B000AF7860396000230A
:10505000FB603B681B88012B27D0082B51D084E0D4
:10506000786800F089F81BE07B689A697B6893F8A0
:105070003D3019467B680B4493F83830194610468A
:1050800005F061FFF860FB68002B01D001236DE0A3
:105090007B6893F83D300133DAB27B6883F83D20BA
:1050A0007B6893F83D30042BDED97B685B6B002B6B
:1050B000D6D17B682F4A5A617B6820330A220A21A5
:1050C000184606F0C3FA002350E07B689A697B68B3
:1050D00093F83D3019467B680B4493F838301946F5
:1050E000104605F030FFF860FB68002B01D001236B
:1050F0003CE07B6893F83D300133DAB27B6883F89B
:105100003D207B6893F83D30042BDED924E078689D
:1051100000F032F81BE07B689A697B6893F83D30B9
:1051200019467B680B4493F838301946104605F051
:105130000AFFF860FB68002B01D0012316E07B68B2
:1051400093F83D300133DAB27B6883F83D207B6809
:1051500093F83D30042BDED97B685B6B002BD6D1F6
:105160007B68044A5A61002300E002231846103786
:10517000BD4680BD1D4F0008B0B588B000AF786057
:105180002A4B07F10C041D460FCD0FC42B6823706A
:105190007B681B6B991C7A6811631B88FB837B6897
:1051A0005B6B5A1E7B685A63FB8B1B0B9BB203F035
:1051B0000F0320333B4413F8142C7B6883F838200A
:1051C000FB8B1B0A9BB203F00F0320333B4413F805
:1051D000142C7B6883F83920FB8B1B099BB203F0EE
:1051E0000F0320333B4413F8142C7B6883F83A20D8
:1051F000FB8B03F00F0320333B4413F8142C7B6824
:1052000083F83B207B68202283F83C207B680022C7
:1052100083F83D207B685B6B002B03D10449054874
:1052200006F0CAF900BF2037BD46B0BDE010010846
:105230009C1601082444002080B584B000AFF860BB
:10524000B9607A60FB68BA681A63FB687A685A6367
:10525000FB680449184606F0AFF900BF1037BD4699
:1052600080BD00BF2000002080B582B000AF786014
:10527000396002F091FA7B68012283F83020786867
:1052800000F0BAFB786800F09BFB786800F0A9FAA0
:105290007B682033184606F0F9F900BF0837BD4691
:1052A00080BD000080B584B000AF786039607B6855
:1052B0005B69FB607B685B6939687868984703467F
:1052C000FB72FB7A002B08D1FB6806497868984787
:1052D0007B685B6904497868984700BF1037BD4612
:1052E00080BD00BFD0160108BC16010880B586B08D
:1052F00002AF786039607B68002B03D1002123481E
:1053000000F0C8FE78683B685A683B689B68009369
:1053100013461F4A1F4906F00BF97B6820337A6851
:105320000E21184606F070F93B681A687B685A61CE
:105330007B68002283F830207B68002283F84420B9
:105340007B68002283F847207B68002283F848208E
:105350000023FB600EE03A68FB6802339B001344B5
:105360005A687968FB680C339B000B445A60FB68F1
:105370000133FB60FB68032BEDD97B6820331846B3
:1053800006F084F900BF1037BD4680BDB016010895
:10539000A552000869520008B0B58AB002AF1223C6
:1053A0000093022324220B490B4805F045FE0B4BCA
:1053B0003C1D1D460FCD0FC495E8070084E807008B
:1053C0003B1D19460648FFF791FF00BF2037BD4639
:1053D000B0BD00BF3C8B0020608B0020F4100108A2
:1053E000D48A002080B582B000AF0346FB71FB7900
:1053F0001946034806F0B6F800BF0837BD4680BD21
:10540000D48A002080B584B000AF786039603B68F2
:105410001B88012B02D00F2B0ED041E07B6820337C
:10542000184606F033F9786800F0CAFA786800F098
:10543000D8F97B6801229A613B689B78042B2DD1B7
:105440007B6893F83030002B09D10121786800F097
:10545000DDFD786800F0D0FA786800F0B1FA7B687A
:1054600093F846301846FDF789FE0346FB817B68BA
:10547000B3F94A30B7F90E209A4203DD7B680B4A34
:105480005A6102E07B680A4A5A617B6820336422D1
:105490006421184606F0DAF8002302E0022300E057
:1054A000012318461037BD4680BD00BFB554000823
:1054B0004155000880B584B000AF786039603B6822
:1054C0001B880F2B28D00F2B31DC012B02D00E2B89
:1054D0000CD02CE07B680022DA610021786800F0B3
:1054E000DBF9786800F01CF9012321E07B6893F870
:1054F00046301846FDF742FE0346FB817B68B3F950
:105500004A30B7F90E209A4201DD012310E07B6892
:10551000094A5A6100230BE03B689B78052B04D1B4
:105520007B68064A5A61002302E0022300E002235E
:1055300018461037BD4680BD415500080554000887
:1055400080B584B000AF786039603B681B880F2B52
:105550003CD00F2B45DC012B02D00E2B0BD040E0B2
:105560007B680022DA61786800F02AFA786800F037
:1055700038F9012336E07B6893F846301846FDF78A
:10558000FDFD0346FB817B68B3F94A30B7F90E2075
:105590009A4204DD7B68154A5A61002322E07B6849
:1055A000DB695A1C7B68DA617B68DB691D2B08D8D4
:1055B0007B68B3F94A301A46B7F90E30D31A0A2B72
:1055C00004DD7B680A4A5A6100230BE03B689B7844
:1055D000052B04D17B68074A5A61002302E00223AD
:1055E00000E0022318461037BD4680BDB5540008C0
:1055F000F95500080554000880B584B000AF786004
:1056000039603B681B880F2B24D00F2B2DDC012B1E
:1056100002D00E2B08D028E07B680022DA6178687F
:1056200000F0B1F8012321E07B6893F8463018467A
:10563000FDF7A4FD0346FB817B68B3F94A30B7F957
:105640000E209A4201DA012310E07B68094A5A6170
:1056500000230BE03B689B78052B04D17B68064A4E
:105660005A61002302E0022300E0022318461037AB
:10567000BD4680BD7D5600080554000880B584B045
:1056800000AF786039603B681B880F2B32D00F2B3E
:105690003BDC012B02D00E2B08D036E0786800F0FE
:1056A0008FF9786800F09DF801232FE07B6893F86C
:1056B00046301846FDF762FD0346FB817B68B3F96F
:1056C0004A30B7F90E209A4204DA7B68114A5A61CF
:1056D00000231BE07B68DB695A1C7B68DA617B680E
:1056E000DB691D2B04D97B680B4A5A6100230DE04E
:1056F00001230BE03B689B78052B04D17B68074AAC
:105700005A61002302E0022300E00223184610370A
:10571000BD4680BDF9550008B55400080554000881
:1057200080B584B000AF78607B6893F84730BB7376
:105730000023FB731FE0BA7BFB7B42FA03F303F009
:105740000103002B0AD0FB7B7A680C339B001344C7
:105750005B680121184603F0D3F809E0FB7B7A6807
:105760000C339B0013445B680021184603F0C8F813
:10577000FB7B0133FB73FB7B032BDCD900BF00BF3A
:105780001037BD4680BD80B584B000AF78607B68BF
:1057900093F84930BB737B6893F848307B730023E0
:1057A000FB7316E07A7BFB7B42FA03F303F0010301
:1057B000002B07D0FB7BBA7B92B21146184600F053
:1057C000ADFC03E0FB7B184600F0EAFCFB7B0133F9
:1057D000FB73FB7B032BE5D900BF00BF1037BD4631
:1057E00080BD80B584B000AF78600023FB7306E015
:1057F000FB7B184600F0D4FCFB7B0133FB73FB7B87
:10580000032BF5D900BF00BF1037BD4680BD80B463
:1058100083B000AF78607B68B3F84C3018460C3723
:10582000BD465DF8047B704780B588B000AF7860F6
:1058300007F10C0300221A605A609A60DA601A823B
:105840000F23BB810423BB737B6807F10C02114655
:10585000184605F0B1FE002318462037BD4680BD2E
:1058600080B588B000AF786007F10C0300221A60A1
:105870005A609A60DA601A820F23BB810523BB73DA
:105880007B6807F10C021146184605F095FE0023CF
:1058900018462037BD4680BD2DE9F04F8DB000AFD2
:1058A000F861B961FB6993F8473087F82B30FB69E1
:1058B000B3F84C303B850023FB6278E097F82B204F
:1058C000FB6A42FA03F303F00103002B6CD0FA6980
:1058D000FB6A0C339B0013445B689B7E87F8273080
:1058E00097F82730DBB203F00103002B08D1FA69E7
:1058F000FB6A0C339B0013445B68184603F065F8A1
:10590000FA69FB6A0C339B0013445B689B7E87F843
:105910002730FA69FB6A0C339B0013445B687B6099
:10592000BB69DEB23B8D00229A46934652465B46E7
:105930004FF000004FF00001590141EAD2615001DF
:1059400002460B46B2EB0A0463EB0B054FF0000274
:105950004FF000036B0243EAD453620214461D4623
:1059600014EB0A0845EB0B094FF000024FF000035F
:105970004FEA891343EA98634FEA8812B2EB0801B1
:10598000B96063EB0902FA60D7E90201024612EB43
:105990000A023A610A4642EB0B027A61D7E9042314
:1059A0003146786803F0F0F8FB6A0133FB62FB6A6A
:1059B000032B83D900BF00BF3437BD46BDE8F08F4D
:1059C00080B584B000AF78600023FB600CE07A689B
:1059D000FB680C339B0013445B680021184602F0FF
:1059E0008FFFFB680133FB60FB68032BEFD900BF1F
:1059F00000BF1037BD4680BD80B584B000AF786071
:105A00000023FB600BE07A68FB680C339B001344B7
:105A10005B68184602F0D9FFFB680133FB60FB6846
:105A2000032BF0D900BF00BF1037BD4680BD80B545
:105A300084B000AF786039603B68032B01D906233E
:105A400011E07A683B680C339B0013445B6818468E
:105A500002F0BBFF0346FB7397F90F30002B01D018
:105A6000012300E0002318461037BD4680BD80B5F5
:105A700086B000AFF860B9601346FB71BB68032BBA
:105A800001D9062313E0FA68BB680C339B0013446A
:105A90005B68FA791146184602F032FF0346FB753F
:105AA00097F91730002B01D0012300E0002318469E
:105AB0001837BD4680BD000080B483B000AF786069
:105AC0007B685B69054A93420CBF01230023DBB26C
:105AD00018460C37BD465DF8047B70470554000836
