:020000040800F2
:1000000000000820812F0008652D00086D2D0008D4
:10001000752D00087D2D0008852D000800000000CA
:100020000000000000000000000000008D2D00080E
:100030009B2D000800000000A92D0008B72D000826
:10004000D12F0008D12F0008D12F0008D12F000890
:10005000D12F0008D12F0008D12F0008D12F000880
:10006000D12F0008D12F0008D12F0008D12F000870
:10007000C9740008D12F0008D12F0008D12F000823
:10008000D12F0008D12F0008D12F0008D12F000850
:10009000D12F0008D12F0008D12F0008D12F000840
:1000A000D12F00080D760008D12F0008D12F0008AD
:1000B00059760008D12F0008D12F0008D12F000851
:1000C000D12F0008D12F0008D12F0008D12F000810
:1000D000D12F0008D12F0008D12F0008D12F000800
:1000E000D12F0008D12F0008D12F0008D12F0008F0
:1000F000D12F0008D12F0008D12F0008D12F0008E0
:10010000D12F0008D12F0008D12F0008D12F0008CF
:10011000D12F0008D12F0008D12F0008D12F0008BF
:10012000596B0008D12F00080D6A0008D12F000874
:10013000D12F0008D12F0008D12F0008D12F00089F
:10014000D12F0008D12F0008D12F0008D12F00088F
:10015000D12F000805780008D12F0008C32D000812
:10016000D12F0008D12F0008D12F0008D12F00086F
:10017000D12F0008D12F0008D12F00080000000067
:10018000D12F0008D12F0008D12F0008D12F00084F
:10019000D12F0008D12F0008D12F0008D12F00083F
:1001A0000000000000000000D12F0008D12F00083F
:1001B000D12F0008D12F0008D12F0008D12F00081F
:1001C000D12F0008D12F000800000000D12F000817
:1001D000D12F0008D12F0008D12F0008D12F0008FF
:1001E000D12F0008D12F0008D12F0008D12F0008EF
:0801F00000000000D12F0008FF
:1002000010B5054C237833B9044B13B10448AFF350
:1002100000800123237010BD9843002000000000DF
:100220008C01010808B5034B1BB103490348AFF328
:10023000008008BD000000009C4300208C010108E4
:1002400010F8012B11F8013B012A28BF9A42F7D080
:10025000D01A7047000000000000000000000000FD
:1002600001F0FF01102A2BDB10F0070F08D010F867
:10027000013B013A8B422DD010F0070F42B3F6D16B
:10028000F0B441EA012141EA014122F007047FF084
:1002900000070023F0E80256083C85EA010586EADB
:1002A000010685FA47F5A3FA87F586FA47F6A5FA17
:1002B00087F68EB9EED1F0BC01F0FF0102F0070223
:1002C00032B110F8013B013A83EA010313B1F8D1CE
:1002D0000020704701387047002D06BF35460338AF
:1002E000073815F0010F07D1013015F4807F02BFE8
:1002F000013015F4C03F0130F0BC0138704700BF39
:10030000034613F8012B002AFBD1181A0138704755
:100310007BB972B90029BEBF00204FF0004106E052
:1003200008BF00281CBF6FF000414FF0FF3000F005
:10033000BBB9ADF1080C6DE904CE002909DB002B37
:100340001ADB00F035F8DDF804E0DDE9022304B043
:100350007047404261EB4101002B1BDB00F028F8A5
:10036000DDF804E0DDE9022304B0404261EB410125
:10037000524263EB43037047524263EB430300F086
:1003800017F8DDF804E0DDE9022304B0404261EB38
:1003900041017047524263EB430300F009F8DDF876
:1003A00004E0DDE9022304B0524263EB43037047EB
:1003B0002DE9F047089D8E4604468846002B4AD119
:1003C0008A42174662D9B2FA82F64EB1C6F12003CC
:1003D00001FA06F820FA03F3B74043EA0808B440EC
:1003E0004FEA174E1FFA87FCB8FBFEF1230C0EFBF9
:1003F000118843EA084301FB0CF29A4209D9FB1821
:1004000001F1FF3080F0EA809A4240F2E780023941
:100410003B449A1AA3B2B2FBFEF00EFB102243EA51
:10042000024300FB0CFC9C4509D9FB1800F1FF328C
:1004300080F0D6809C4540F2D3803B44023840EAAD
:100440000140A3EB0C0300211DB1F3400022C5E9DC
:100450000032BDE8F0878B4205D90DB1C5E9000136
:1004600000210846F5E7B3FA83F1002946D1734528
:1004700002D3824200F20581841A6EEB030201204E
:100480009046002DE5D0C5E90048E2E7002A00F0DB
:100490009080B2FA82F6002E40F0A4808A1A030CF3
:1004A0004FEA174E80B2BCB20121B2FBFEFC0EFB3C
:1004B0001C2243EA024304FB0CF29A4207D9FB18C0
:1004C0000CF1FF3802D29A4200F2E080C4469B1A37
:1004D000B3FBFEF20EFB123340EA034302FB04F4CB
:1004E0009C4207D9FB1802F1FF3002D29C4200F275
:1004F000CA8002461B1B42EA0C40A5E7C1F1200658
:100500008B4022FA06F71F430EFA01F420FA06F395
:100510002EFA06FE4FEA1749234300FA01F81FFAA4
:1005200087FCBEFBF9F01C0C09FB10EE44EA0E44FC
:1005300000FB0CFEA64502FA01F209D93C1900F1B4
:10054000FF3A80F09C80A64540F2998002383C44F6
:10055000A4EB0E041FFA83FEB4FBF9F309FB13446A
:100560004EEA044403FB0CFCA44508D93C1903F1F2
:10057000FF3E80F08280A4457FD9023B3C4443EAA1
:100580000040A4EB0C04A0FB02EC64457346E1467A
:1005900062D35FD05DB1B8EB030264EB090404FAE7
:1005A00006F622FA01F31E43CC40C5E9006400219F
:1005B0004FE7B1FBF2FC010C41EA0E4180B240EA88
:1005C00001423B4638463C46B846BE462026B1FB73
:1005D000F7F1A2EB080241EA0C4166E7014618E791
:1005E00010462CE7C6F120022EFA02F3B740B140C4
:1005F00020FA02F24FEA174E0A43B3FBFEF8BCB2F0
:100600000EFB1833110C41EA034108FB04F9B0401A
:1006100089454FEA104380B23ED9791808F1FF3C72
:1006200001D289451FD8A1EB0901B1FBFEF909FBF5
:1006300004F80EFB191192B242EA0142424529D256
:10064000BA1809F1FF31C4D24245C2D2A9F1020160
:100650003A44BEE7F0459DD2BEEB02036CEB070CBB
:100660000138E14696E7A7EB09094944A8F1020CD5
:10067000B1FBFEF909FB04F8DBE773467FE7504660
:1006800066E70846FDE63B44023A33E7ACF1020C6C
:100690003B441CE749469CE7A1EB0901C446B1FB7A
:1006A000FEF909FB04F8C4E7704700BF80B485B0C9
:1006B00000AF78607B6803F00703FB600B4BDB68DF
:1006C000BB60BA684FF6FF031340BB60FB681A02B9
:1006D000BB681A43064B1343BB60044ABB68D36034
:1006E00000BF1437BD465DF8047B704700ED00E0A5
:1006F0000000FA0580B400AF044BDB681B0A03F06E
:1007000007031846BD465DF8047B704700ED00E026
:1007100080B483B000AF0346FB7197F90730002B1C
:100720000BDBFB7903F01F02074997F907305B09E0
:10073000012000FA02F241F8232000BF0C37BD4629
:100740005DF8047B704700BF00E100E080B483B037
:1007500000AF03463960FB7197F90730002B0ADBC5
:100760003B68DAB20C4997F907301201D2B20B4458
:1007700083F800230AE03B68DAB20849FB7903F00A
:100780000F03043B1201D2B20B441A7600BF0C37A0
:10079000BD465DF8047B704700E100E000ED00E03D
:1007A00080B489B000AFF860B9607A60FB6803F08C
:1007B0000703FB61FB69C3F10703042B28BF042374
:1007C000BB61FB690433062B02D9FB69033B00E0E4
:1007D00000237B614FF0FF32BB6902FA03F3DA4377
:1007E000BB681A407B699A404FF0FF317B6901FA80
:1007F00003F3D9437B680B40134318462437BD46A7
:100800005DF8047B704780B489B000AFF860B960D0
:100810007A60FB682C331946BB6803F440734FF4CD
:100820004072BA61BA6992FAA2F27A617A69B2FA4E
:1008300082F2D2B2D3409B000B44FB61FB691A6881
:10084000BB6803F01F031F2101FA03F3DB431A40C7
:100850007B6803F01F01BB6803F01F0301FA03F379
:100860001A43FB691A6000BF2437BD465DF8047B5C
:10087000704780B483B000AF786039607B689B6854
:1008800023F480623B681A437B689A6000BF0C3790
:10089000BD465DF8047B704780B48DB000AFF86052
:1008A000B9607A60FB680C331946BB6803F00073CB
:1008B0004FF00072BA61BA6992FAA2F27A617A696B
:1008C000B2FA82F2D2B2D3409B000B44FB62FB6AC5
:1008D0001A68BB6803F0F8734FF0F8713962396A2F
:1008E00091FAA1F1F961F969B1FA81F1C9B2CB408C
:1008F000072101FA03F3DB431A40BB6803F0F873E6
:100900004FF0F871B962B96A91FAA1F17962796A26
:10091000B1FA81F1C9B2CB40796801FA03F31A4305
:10092000FB6A1A6000BF3437BD465DF8047B704730
:1009300080B485B000AFF860B9607A600D4ABB68DA
:1009400013441B781A46FB6813441B6823F0C0024B
:100950000849BB680B441B781946FB680B441946D1
:100960007B6813430B6000BF1437BD465DF8047B02
:10097000704700BFB418010880B485B000AFF860BC
:10098000B9607A600D4ABB6813441B781A46FB684D
:1009900013441B6823F490720849BB680B441B780E
:1009A0001946FB680B4419467B6813430B6000BF74
:1009B0001437BD465DF8047B704700BFB4180108CA
:1009C00080B485B000AFF860B9607A600D4ABB684A
:1009D00013441B781A46FB6813441B6823F4007207
:1009E0000849BB680B441B781946FB680B44194641
:1009F0007B6813430B6000BF1437BD465DF8047B72
:100A0000704700BFB418010880B485B000AFF8602B
:100A1000B9607A600D4ABB6813441B781A46FB68BC
:100A200013441B6823F480620849BB680B441B789D
:100A30001946FB680B4419467B6813430B6000BFE3
:100A40001437BD465DF8047B704700BFB418010839
:100A500080B485B000AFF860B9607A600D4ABB68B9
:100A600013441B781A46FB6813441B6823F4C052D6
:100A70000849BB680B441B781946FB680B441946B0
:100A80007B6813430B6000BF1437BD465DF8047BE1
:100A9000704700BFB418010880B485B000AFF8609B
:100AA000B9607A600D4ABB6813441B781A46FB682C
:100AB00013441B6823F4C0420849BB680B441B78ED
:100AC0001946FB680B4419467B6813430B6000BF53
:100AD0001437BD465DF8047B704700BFB4180108A9
:100AE00080B485B000AFF860B9607A600D4ABB6829
:100AF00013441B781A46FB6813441B6823F44032E6
:100B00000849BB680B441B781946FB680B4419461F
:100B10007B6813430B6000BF1437BD465DF8047B50
:100B2000704700BFB418010880B485B000AFF8600A
:100B3000B9607A600D4ABB6813441B781A46FB689B
:100B400013441B6823F0F0520849BB680B441B7820
:100B50001946FB680B4419467B6813430B6000BFC2
:100B60001437BD465DF8047B704700BFB418010818
:100B700080B483B000AF786039600C4A3B6813449E
:100B80001B781A467B6813445B6908493A680A4433
:100B9000127811467A680A4423F00403536100BFB7
:100BA0000C37BD465DF8047B704700BFB4180108E0
:100BB00080B483B000AF78607B681B6843F00102AB
:100BC0007B681A6000BF0C37BD465DF8047B704738
:100BD00080B483B000AF78607B681B6823F4003278
:100BE0007B681A6000BF0C37BD465DF8047B704718
:100BF00080B483B000AF78607B681B6823F4002268
:100C00007B681A6000BF0C37BD465DF8047B7047F7
:100C100080B485B000AFF860B9607A60FB68DA68CC
:100C2000064B1340B9687A680A431A43FB68DA60D6
:100C300000BF1437BD465DF8047B704701F8FFFF25
:100C400080B483B000AF78607B68DB6823F4004237
:100C50007B68DA6000BF0C37BD465DF8047B7047E7
:100C600080B483B000AF78607B685B6843F000724B
:100C70007B685A6000BF0C37BD465DF8047B704747
:100C800080B400AF054B1B68044A43F48033136003
:100C900000BFBD465DF8047B704700BF00380240CE
:100CA00080B400AF074B1B6803F40033B3F5003F7B
:100CB0000CBF01230023DBB21846BD465DF8047B60
:100CC000704700BF0038024080B483B000AF786046
:100CD000064B9B6823F0030204497B6813438B6037
:100CE00000BF0C37BD465DF8047B704700380240FA
:100CF00080B400AF044B9B6803F00C031846BD465C
:100D00005DF8047B704700BF0038024080B483B0B8
:100D100000AF7860064B9B6823F0F00204497B68C3
:100D200013438B6000BF0C37BD465DF8047B7047F2
:100D30000038024080B483B000AF7860064B9B68F7
:100D400023F4E05204497B6813438B6000BF0C37E7
:100D5000BD465DF8047B70470038024080B483B024
:100D600000AF7860064B9B6823F4604204497B68BF
:100D700013438B6000BF0C37BD465DF8047B7047A2
:100D80000038024080B483B000AF7860094BD3F8DC
:100D900090207B681B0CDB431A407B689BB20549A3
:100DA0001343C1F8903000BF0C37BD465DF8047B9B
:100DB000704700BF0038024080B483B000AF786055
:100DC000094BD3F890207B681B0CDB431A407B68EF
:100DD0009BB205491343C1F8903000BF0C37BD46A4
:100DE0005DF8047B704700BF0038024080B483B0D8
:100DF00000AF7860094BD3F890207968084B0B401E
:100E0000DB431A407B681B0404491343C1F890304C
:100E100000BF0C37BD465DF8047B704700380240C8
:100E20000000FFFF80B483B000AF7860074BD3F8B9
:100E30008C3023F0807205497B681343C1F88C30F5
:100E400000BF0C37BD465DF8047B70470038024098
:100E500080B400AF054B1B68044A43F080731360F5
:100E600000BFBD465DF8047B704700BF00380240FC
:100E700080B400AF074B1B6803F00073B3F1007F31
:100E80000CBF01230023DBB21846BD465DF8047B8E
:100E9000704700BF0038024080B485B000AFF860F2
:100EA000B9607A603B600A4B5A680A4B1340F96894
:100EB000BA6811437A68920111433A680A430449B7
:100EC00013434B6000BF1437BD465DF8047B704789
:100ED000003802400080BCFF80B485B000AF78606D
:100EE000084B1A6B07497B6813430B63054B1A6B5E
:100EF0007B681340FB60FB6800BF1437BD465DF89C
:100F0000047B70470038024080B485B000AF786041
:100F1000084B1A6C07497B6813430B64054B1A6C2A
:100F20007B681340FB60FB6800BF1437BD465DF86B
:100F3000047B70470038024080B485B000AF786011
:100F4000084B5A6C07497B6813434B64054B5A6C3A
:100F50007B681340FB60FB6800BF1437BD465DF83B
:100F6000047B70470038024080B483B000AF7860E3
:100F7000064B1B6823F00F0204497B6813430B6088
:100F800000BF0C37BD465DF8047B7047003C024053
:100F900080B400AF044B1B6803F00F031846BD4636
:100FA0005DF8047B704700BF003C024080B400AF96
:100FB000054B1B68044A43F48033136000BFBD46F1
:100FC0005DF8047B704700BF0070004080B483B0C0
:100FD00000AF7860064B1B6823F4404204497B68ED
:100FE00013430B6000BF0C37BD465DF8047B7047B0
:100FF0000070004080B400AF074B5B6803F480438F
:10100000B3F5804F0CBF01230023DBB21846BD4669
:101010005DF8047B704700BF0070004080B483B06F
:1010200000AF78607B681B6843F040027B681A6001
:1010300000BF0C37BD465DF8047B704780B483B0B9
:1010400000AF786039607B685B6823F010023B6812
:101050001A437B685A6000BF0C37BD465DF8047BBD
:10106000704780B483B000AF78607B685B6843F002
:1010700008027B685A6000BF0C37BD465DF8047BF0
:10108000704780B483B000AF78607B685B6823F002
:1010900008027B685A6000BF0C37BD465DF8047BD0
:1010A000704780B483B000AF78607B681B6823F022
:1010B00080027B681A6000BF0C37BD465DF8047B78
:1010C0007047000080B485B000AF786039603B683D
:1010D000012B28D03B68042B23D03B68102B1ED05B
:1010E0003B68402B19D03B68B3F5807F13D03B6839
:1010F000B3F5806F0DD03B68B3F5805F07D03B68D8
:10110000B3F5803F01D107230EE008230CE006234E
:101110000AE0052308E0042306E0032304E0022399
:1011200002E0012300E00023FB737B6818331946BB
:10113000FB7B0B4AD35C0B44BB60BB681A68FB7B30
:101140000849CB5C194604238B40DB431A40BB683B
:101150001A6000BF1437BD465DF8047B704700BFBE
:10116000BC180108C818010880B485B000AF7860C9
:1011700039603B68012B28D03B68042B23D03B68A7
:10118000102B1ED03B68402B19D03B68B3F5807FF5
:1011900013D03B68B3F5806F0DD03B68B3F5805F2B
:1011A00007D03B68B3F5803F01D107230EE0082349
:1011B0000CE006230AE0052308E0042306E00323ED
:1011C00004E0022302E0012300E00023FB737B68BC
:1011D00018331946FB7B0A4AD35C0B44BB60BB68DF
:1011E0001A68FB7B0749CB5C194608238B401A43DE
:1011F000BB681A6000BF1437BD465DF8047B7047BA
:10120000BC180108C818010880B483B000AF78602A
:1012100039607B689A68064B13403A681A437B68CA
:101220009A6000BF0C37BD465DF8047B704700BF75
:10123000F8BFFEFF80B483B000AF786039607B6890
:101240005B6823F070023B681A437B685A6000BFFA
:101250000C37BD465DF8047B704780B483B000AFA7
:10126000786039607B685B6823F470023B681A43DE
:101270007B685A6000BF0C37BD465DF8047B704741
:1012800080B483B000AF78607B689B6823F08002F5
:101290007B689A6000BF0C37BD465DF8047B7047E1
:1012A00080B483B000AF78607B681B6843F00102B4
:1012B0007B681A6000BF0C37BD465DF8047B704741
:1012C00080B483B000AF786039607B681B6823F41A
:1012D000F8123B681B041A437B681A6000BF0C3786
:1012E000BD465DF8047B704780B483B000AF786082
:1012F00039607B681B6823F078723B685B051A4392
:101300007B681A6000BF0C37BD465DF8047B7047F0
:1013100080B483B000AF78607B689B6843F4804200
:101320007B689A6000BF0C37BD465DF8047B704750
:1013300080B483B000AF786039607B689B6823F429
:1013400000423B681A437B689A6000BF0C37BD4679
:101350005DF8047B704780B483B000AF78607B6831
:101360005B6823F490427B685A607B689B6823F03B
:101370002A027B689A6000BF0C37BD465DF8047B8B
:10138000704780B483B000AF786039607B683A689A
:101390009A6100BF0C37BD465DF8047B704780B48E
:1013A00083B000AF786039603B681A047B689A614B
:1013B00000BF0C37BD465DF8047B704780B500AFB9
:1013C0004FF08050FFF7A0FD4FF48040FFF7B4FDD1
:1013D0000320FFF76BF9FFF78DF9034600220F2179
:1013E0001846FFF7DDF9034619464FF0FF30FFF7C7
:1013F000ADF900F02DF801F0FFF901F0A1F900F0CE
:10140000DDFA00F04FFB00F0C1FB00F04BFC00F0F8
:10141000FBFC00F06DF800F075FD00F055FF01F0E9
:101420002DF800F0EDFD01F08FF801F015F900F056
:10143000B3F900F061FA00F0BFFE00F003FF01F025
:10144000A5FE01F0AFFE01F0BDFE00BFFDE700000C
:1014500080B500AF0620FFF787FD00BFFFF798FDBE
:101460000346062BFAD14FF44040FFF7AFFDFFF7DC
:101470009DFDFFF705FC00BFFFF712FC0346012BA3
:10148000FAD10023C0220C214FF48000FFF704FDA5
:10149000FFF7DEFC00BFFFF7EBFC0346012BFAD1A0
:1014A00000BFFFF7A7FD0346002BFAD00020FFF78F
:1014B0002DFC4FF4A050FFF73DFC4FF40040FFF728
:1014C0004DFC0220FFF700FC00BFFFF711FC0346B4
:1014D000082BFAD105480BF0FBFE04480BF02CFF5B
:1014E0000020FFF79FFC00BF80BD00BF00C2EB0BD8
:1014F00080B592B000AF07F13C0300221A605A6039
:101500009A6007F1280300221A605A609A60DA6034
:101510001A6107F1180300221A605A609A60DA60B3
:101520003B4600221A605A609A60DA601A615A617A
:101530004FF48070FFF700FD0420FFF7CDFC022080
:10154000FFF7CAFC01233B6003237B6000233B6160
:101550003B46194684480AF064FC02233B6003239F
:101560007B6000233B613B4619467F480AF059FCEB
:1015700004233B6003237B6000233B613B46194609
:1015800079480AF04EFC08233B6003237B6000236C
:101590003B613B46194674480AF043FC10233B600C
:1015A00003237B6000233B613B4619466E480AF0EB
:1015B00038FC20233B6003237B6000233B613B46D8
:1015C000194669480AF02DFC01233B6003237B6028
:1015D00000233B613B46194664480AF022FC022383
:1015E0003B6003237B6000233B613B4619465F4819
:1015F0000AF017FC002200215D48FFF795FA00224F
:1016000000215B48FFF794F9002200215848FFF7BA
:1016100067FA4FF4807200215548FFF7ADF90022B8
:1016200000215348FFF7CCF94FF480620021504865
:10163000FFF7EAF94FF4006200214D48FFF708FA7E
:101640004FF4005200214A48FFF726FA002148488B
:10165000FFF78EFA0023FB6300233B644FF4807393
:101660007B6407F13C03194642480AF061FA002303
:10167000BB624FF4E003FB6200233B6300237B6308
:101680004FF44073BB6307F12803194639480AF049
:101690007BFA00213748FFF7ECF84FF48033BB6149
:1016A0000023FB6107F11803194633480AF0F8F9E3
:1016B0000A224FF400712F48FFF7A5F801220A21F2
:1016C0002C48FFF7E9F82D4A40F205212948FFF799
:1016D0009AF8012229492748FFF7DEF8284A40F204
:1016E0000A212448FFF78FF8012225492148FFF7F6
:1016F000D3F8244A40F20F211E48FFF784F8012254
:1017000020491C48FFF7C8F81F4A4FF405711948D3
:10171000FFF779F801221C491648FFF7BDF81B4A6C
:1017200040F219211348FFF76EF8012217491148BA
:10173000FFF7B2F8164A4FF480710E48FFF763F8CE
:10174000012213490B48FFF7A7F8124A40F205118E
:101750000848FFF758F801220E490648FFF79CF8A1
:1017600000BF4837BD4680BD00080240000402406B
:101770000064024000200140002301400B003000C3
:101780000C0060000D0090000E00C0000F00F00083
:10179000080080030900B00380B58EB000AF07F1E8
:1017A0002C0300221A605A609A6007F11803002285
:1017B0001A605A609A60DA601A613B4600221A6029
:1017C0005A609A60DA601A615A614FF40070FFF74C
:1017D000B3FB0120FFF780FB04233B6003237B6006
:1017E00000233B613B4619463E480AF01AFB08239A
:1017F0003B6003237B6000233B613B46194639482D
:101800000AF00FFB4FF0007202213748FFF78CF906
:10181000002202213448FFF78BF8002202213248CF
:10182000FFF75EF94FF4807202212F48FFF7A4F80A
:10183000002202212C48FFF7C3F84FF480620221F6
:101840002948FFF7E1F84FF4006202212648FFF72C
:10185000FFF84FF4005202212348FFF71DF902213F
:101860002148FFF785F90023FB6200233B634FF417
:1018700080737B6307F12C0319461C480AF058F962
:101880000023BB614FF48013FB6100233B62002304
:101890007B624FF44073BB6207F11803194613488B
:1018A0000AF072F94FF480611048FEF7E2FF104A27
:1018B0004FF400710D48FEF7A6FF01220C490B48BA
:1018C000FEF7EAFF0B4A40F205210848FEF79BFFAE
:1018D000012208490548FEF7DFFF00BF3837BD4643
:1018E00080BD00BF000002400064024000210140B2
:1018F000030090020200600280B58EB000AF07F1D5
:101900002C0300221A605A609A6007F11803002223
:101910001A605A609A60DA601A613B4600221A60C7
:101920005A609A60DA601A615A614FF48060FFF77A
:1019300003FB0120FFF7D0FA02233B6003237B6007
:1019400000233B613B46194619480AF06AFA002316
:10195000FB6200233B6300237B6307F12C031946E2
:1019600014480AF0E5F80023BB610023FB61002363
:101970003B6200237B620023BB6207F11803194618
:101980000C480AF001F94FF480610A48FEF771FF34
:10199000094A4FF400710748FEF735FF0022064957
:1019A0000448FEF779FF00BF3837BD4680BD00BF51
:1019B00000000240002201400100300280B58EB0DC
:1019C00000AF07F11C0300221A605A609A60DA60C7
:1019D0001A615A619A613B1D00221A605A609A602E
:1019E000DA601A615A614FF44030FFF7FFF90220C4
:1019F000FFF772FA40237B600223BB600323FB6086
:101A000001233B6100237B610423BB613B1D19461D
:101A100021480AF006FA80237B600223BB6003237F
:101A2000FB6001233B6100237B610423BB613B1D01
:101A3000194619480AF0F5F94FF40010FFF764FA57
:101A40001648FFF70DF9002200211448FFF7E0F8CF
:101A50001248FFF7F5F81148FFF7CAF80F48FFF7EB
:101A6000B7F80023FB610E4B3B6200237B6200232F
:101A7000BB620023FB6200233B6300237B6307F10F
:101A80001C03194605480AF0E3FA0448FFF790F8EA
:101A900000BF3837BD4680BD0004024000540040FE
:101AA000FF63106080B58EB000AF07F11C03002209
:101AB0001A605A609A60DA601A615A619A613B1D35
:101AC00000221A605A609A60DA601A615A614FF413
:101AD0004020FFF78BF90220FFF7FEF94FF48063F7
:101AE0007B600223BB600323FB6001233B61002377
:101AF0007B610423BB613B1D194621480AF091F923
:101B00004FF400637B600223BB600323FB6001236F
:101B10003B6100237B610423BB613B1D19461848D0
:101B20000AF07FF94FF48000FFF7EEF91548FFF750
:101B300097F8002200211348FFF76AF81148FFF7D1
:101B40007FF81048FFF754F80E48FFF741F80023DC
:101B5000FB610D4B3B6200237B620023BB620023D1
:101B6000FB6200233B6300237B6307F11C031946E0
:101B700004480AF06DFA00BF3837BD4680BD00BF8B
:101B80000004024000580040FFEAC00080B590B059
:101B900000AF07F118032822002118460CF03CFB87
:101BA0003B4600221A605A609A60DA601A615A61F4
:101BB0004FF48050FFF7C0F90120FFF78DF9102393
:101BC0003B6002237B600323BB600023FB60002398
:101BD0003B6105237B613B46194630480AF021F9F9
:101BE00020233B6002237B600323BB600023FB6058
:101BF00000233B6105237B613B46194627480AF0D9
:101C000010F940233B6002237B600323BB60002369
:101C1000FB6000233B6105237B613B4619461F485F
:101C20000AF0FFF880233B6002237B600323BB6044
:101C30000023FB6000233B6105237B613B46194683
:101C400016480AF0EEF80023BB614FF48273FB6183
:101C50004FF4E0633B6200237B620023BB620023FE
:101C6000FB6200233B6300237B630023BB630723EA
:101C7000FB6307F11803194609480AF0C1FD00216A
:101C80000748FFF7DBF90648FFF7EBF90448FFF7D1
:101C9000C5F900BF4037BD4680BD00BF000002400F
:101CA0000030014080B590B000AF07F11803282242
:101CB000002118460CF0B0FA3B4600221A605A6028
:101CC0009A60DA601A615A614FF48040FFF71CF99C
:101CD0000220FFF701F94FF400533B6002237B60C1
:101CE0000323BB600023FB6000233B6105237B6172
:101CF0003B46194641480AF094F84FF480433B6054
:101D000002237B600323BB600023FB6000233B6155
:101D100005237B613B46194638480AF082F84FF4A8
:101D200000433B6002237B600323BB600023FB6016
:101D300000233B6105237B613B4619462F480AF08F
:101D400070F84FF0905201212D48FEF7EDFE002271
:101D500001212B48FEF7ECFD4FF4403201212848C9
:101D6000FEF7BEFE4FF4807201212548FEF704FE07
:101D7000002201212248FEF723FE4FF48062012158
:101D80001F48FEF741FE4FF4006201211C48FEF798
:101D90005FFE4FF4005201211948FEF77DFE01213C
:101DA0001748FEF7E5FE0023BB614FF48273FB6129
:101DB0004FF470633B6200237B620023BB624FF4ED
:101DC0000073FB6200233B6300237B630023BB6340
:101DD0000723FB6307F1180319460A480AF010FDB0
:101DE00000210848FFF72AF90648FFF73AF90548A5
:101DF000FFF714F900BF4037BD4680BD0004024024
:101E0000006002400038004080B590B000AF07F19C
:101E100018032822002118460CF0FEF93B46002248
:101E20001A605A609A60DA601A615A614FF4004091
:101E3000FFF76AF80420FFF74FF84FF480633B6028
:101E400002237B600323BB600023FB6000233B6114
:101E500006237B613B461946284809F0E2FF4FF410
:101E600000633B6002237B600323BB600023FB60B5
:101E700000233B6106237B613B4619461F4809F05E
:101E8000D0FF4FF480533B6002237B600323BB6091
:101E90000023FB6000233B6106237B613B46194620
:101EA000164809F0BEFF0023BB614FF48273FB614B
:101EB0004FF4E0633B6200237B620023BB624FF47C
:101EC0000073FB6200233B6300237B630023BB633F
:101ED0000723FB6307F11803194609480AF090FC31
:101EE00000210748FFF7AAF80548FFF7BAF80448A9
:101EF000FFF794F800BF4037BD4680BD00080240A0
:101F0000003C004080B590B000AF07F118032822D4
:101F1000002118460CF080F93B4600221A605A60F6
:101F20009A60DA601A615A614FF40050FFF704F8C2
:101F30001020FEF7D1FF4FF480533B6002237B60FB
:101F40000323BB600023FB6000233B6105237B610F
:101F50003B461946284809F064FF4FF400533B60A4
:101F600002237B600323BB600023FB6000233B61F3
:101F700005237B613B4619461F4809F052FF4FF489
:101F800080433B6002237B600323BB600023FB6034
:101F900000233B6105237B613B461946164809F047
:101FA00040FF0023BB614FF48273FB614FF4E06399
:101FB0003B6200237B620123BB624FF40073FB6230
:101FC00020233B6300237B630023BB630723FB6366
:101FD00007F11803194609480AF012FC00210748C6
:101FE000FFF72CF80548FFF74CF80448FFF716F800
:101FF00000BF4037BD4680BD0010024000340140A4
:1020000080B590B000AF07F11803282200211846D0
:102010000CF002F93B4600221A605A609A60DA60BE
:102020001A615A614FF40010FEF786FF0220FEF796
:1020300053FF08233B6002237B600323BB60002324
:10204000FB6000233B6108237B613B4619465748F0
:1020500009F0E7FE10233B6002237B600323BB6093
:102060000023FB6000233B6108237B613B4619464C
:102070004E4809F0D6FE20233B6002237B600323F9
:10208000BB600023FB6000233B6108237B613B4670
:102090001946464809F0C5FE4FF000720521444834
:1020A000FEF742FD402205214148FEF741FC4FF476
:1020B000403205213E48FEF713FD002205213C4831
:1020C000FEF75AFC002205213948FEF779FC4FF44F
:1020D000806205213648FEF797FC0022052134482E
:1020E000FEF7B6FC002205213148FEF7D5FC05219C
:1020F0002F48FEF73DFD4FF0007206212C48FEF7F9
:1021000013FD002206212A48FEF712FC4FF440324C
:1021100006212748FEF7E4FC002206212448FEF7AA
:102120002BFC002206212248FEF74AFC4FF4806275
:1021300006211F48FEF768FC002206211C48FEF716
:1021400087FC002206211A48FEF7A6FC0621184843
:10215000FEF70EFD0023BB614FF48273FB614FF469
:10216000E0633B6200237B620023BB624FF4007399
:10217000FB6200233B6300237B630023BB630723D5
:10218000FB6307F1180319460A480AF039FB0021DE
:102190000848FEF753FF0748FEF763FF0548FEF7C0
:1021A0003DFF00BF4037BD4680BD00BF0004024078
:1021B000006402400054014080B586B000AF3B1D72
:1021C00000221A605A609A60DA601A610120FEF7F4
:1021D000B3FEFEF78FFA0346002200211846FEF7F1
:1021E000DFFA034619461920FEF7B0FA1920FEF768
:1021F0008FFA0023BB800023BB604FF6FF73FB60A8
:1022000000233B6100237B613B1D19460C480AF00B
:10221000EBFB0B48FEF745FF00210948FEF7F4FFF2
:1022200000210748FFF706F800210548FFF715F8D9
:102230000348FFF725F800BF1837BD4680BD00BF33
:102240000000014080B586B000AF3B1D00221A603F
:102250005A609A60DA601A610120FEF755FEFEF7B7
:1022600049FA0346002202211846FEF799FA03466E
:1022700019461C20FEF76AFA1C20FEF749FA0023D3
:10228000BB800023BB604FF0FF33FB6000233B614A
:102290003B1D19464FF080400AF0A6FB4FF08040EE
:1022A000FEF7FFFE00214FF08040FEF7ADFF00215A
:1022B0004FF08040FEF7BEFF4FF08040FEF7E0FF9A
:1022C00000BF1837BD4680BD80B594B000AF07F1A0
:1022D0003C0300221A605A609A60DA601A6107F1C2
:1022E0001C032022002118460BF096FF3B1D002204
:1022F0001A605A609A60DA601A615A610420FEF727
:1023000003FE0A23BB8700233B644CF250337B64FB
:102310004FF40073BB6407F13C03194655480AF0BB
:1023200063FB5448FEF7BDFE00215248FEF76CFFE8
:1023300001215048FEF718FF6023FB6100233B6238
:1023400000237B620023BB620023FB6207F11C03B6
:102350001A46012147480AF0E1FB01214548FEF7F2
:10236000B1FE10214348FEF7FFFE07F11C031A4699
:10237000102140480AF0D2FB10213E48FEF7A2FE91
:102380004FF480713B48FEF7EFFE07F11C031A463D
:102390004FF4807137480AF0C1FB4FF48071354823
:1023A000FEF790FE4FF480513248FEF7DDFE07F154
:1023B0001C031A464FF480512E480AF0AFFB4FF42D
:1023C00080512C48FEF77EFE00212A48FEF732FF9E
:1023D0002848FEF755FF0820FEF77EFD4FF4805396
:1023E0007B600223BB600023FB6000233B61002372
:1023F0007B610223BB613B1D19461F4809F011FD9B
:102400004FF400537B600223BB600023FB6000237A
:102410003B6100237B610223BB613B1D19461648CB
:1024200009F0FFFC4FF480437B600223BB60002374
:10243000FB6000233B6100237B610223BB613B1DEA
:1024400019460D4809F0EDFC4FF400437B60022370
:10245000BB600023FB6000233B6100237B61022300
:10246000BB613B1D1946044809F0DBFC00BF503737
:10247000BD4680BD00080040000C024080B58EB013
:1024800000AF07F11C0300221A605A609A60DA60FC
:102490001A615A619A613B1D00221A605A609A6063
:1024A000DA601A615A614FF04050FEF785FC4FF038
:1024B0008040FEF729FD1020FEF70EFD80237B6093
:1024C0000223BB600323FB6000233B6100237B618D
:1024D0000823BB613B1D1946194809F0A2FC4FF4C3
:1024E00080737B600223BB600323FB6000233B619E
:1024F00000237B610823BB613B1D1946104809F08E
:1025000090FC4FF4E133FB6100233B6200237B62CC
:102510000023BB620C23FB6200233B6300237B632D
:1025200007F11C03194607480AF018FE0548FEF794
:1025300012FF0448FEF7B4FE00BF3837BD4680BD29
:10254000001002400078004080B58EB000AF07F167
:102550001C0300221A605A609A60DA601A615A619C
:102560009A613B1D00221A605A609A60DA601A6113
:102570005A614FF44030FEF705FC1020FEF7DCFCFA
:102580000120FEF7A9FC4FF400737B600223BB60BF
:102590000323FB6000233B6100237B610723BB61B6
:1025A0003B1D19462A4809F03CFC4FF480637B60D0
:1025B0000223BB600323FB6000233B6100237B619C
:1025C0000723BB613B1D1946214809F02AFC4FF443
:1025D00080537B600223BB600323FB6000233B61CD
:1025E00000237B610723BB613B1D1946184809F096
:1025F00018FC4FF4E133FB6100233B6200237B6254
:102600000023BB620C23FB6200233B6300237B633C
:1026100007F11C0319460F480AF0A0FD0D48FEF70C
:1026200077FE00210B48FEF783FE00210948FEF7E4
:102630005BFE00210748FEF743FE0648FEF78BFECF
:102640000448FEF72DFE00BF3837BD4680BD00BFF1
:10265000000002400010014080B58EB000AF07F1CD
:102660001C0300221A605A609A60DA601A615A618B
:102670009A613B1D00221A605A609A60DA601A6102
:102680005A614FF04060FEF77DFB2020FEF754FCBE
:102690000420FEF721FC40237B600223BB60032360
:1026A000FB6000233B6100237B610823BB613B1D72
:1026B0001946214809F0B5FB80237B600223BB60EB
:1026C0000323FB6000233B6100237B610823BB6184
:1026D0003B1D1946184809F0A4FBFEF70BF803460A
:1026E00000220B211846FEF75BF8034619464720E7
:1026F000FEF72CF84720FEF70BF84FF4E133FB61AF
:1027000000233B6200237B620023BB620C23FB623D
:1027100000233B6300237B6307F11C031946074832
:102720000AF01CFD0548FEF716FE0448FEF7B8FD4A
:1027300000BF3837BD4680BD00080240001401408C
:1027400080B500AF4FF48000FEF7C6FB4FF40010D9
:10275000FEF7C2FBFDF7CEFF03460022002118461C
:10276000FEF71EF8034619460C20FDF7EFFF0C207C
:10277000FDF7CEFFFDF7BEFF034600220A211846F3
:10278000FEF70EF8034619463820FDF7DFFF382024
:10279000FDF7BEFFFDF7AEFF034600220A211846F3
:1027A000FDF7FEFF034619463A20FDF7CFFF3A201A
:1027B000FDF7AEFFFDF79EFF0346002209211846F4
:1027C000FDF7EEFF034619464420FDF7BFFF442006
:1027D000FDF79EFFFDF78EFF0346002201211846FC
:1027E000FDF7DEFF034619464520FDF7AFFF452004
:1027F000FDF78EFF00BF80BD80B586B000AF3B46C1
:1028000000221A605A609A60DA601A615A611020D8
:10281000FEF762FB0420FEF75FFB8020FEF75CFB07
:102820000120FEF759FB0220FEF756FB0820FEF7B9
:1028300053FB0421BF48FEF7B2FD0821BD48FEF757
:10284000AEFD1021BB48FEF7AAFD2021B948FEF7D6
:10285000A6FD4021B748FEF7A2FD4FF40051B6484F
:10286000FEF79DFD4FF48041B348FEF798FD4FF40D
:102870000041B148FEF793FD4FF40061AD48FEF70B
:102880008EFD4FF40061AD48FEF789FD4FF4004125
:10289000AA48FEF784FD0121A948FEF780FD022128
:1028A000A748FEF77CFD1021A548FEF778FD202102
:1028B000A348FEF774FD4021A148FEF770FD0421F6
:1028C000A048FEF75EFD4FF480619A48FEF759FD7F
:1028D0004FF400419748FEF754FD4FF4805199485A
:1028E000FEF74FFD4FF480719548FEF74AFD4FF417
:1028F00000719348FEF745FD4FF480619048FEF764
:1029000040FD04218E48FEF73CFD80218C48FEF7F7
:1029100038FD4FF480718B48FEF733FD4FF40071A2
:102920008848FEF72EFD01218248FEF72AFD02218C
:102930008048FEF726FD04233B6001237B600023D3
:10294000BB600023FB6000233B613B46194679488E
:1029500009F067FA08233B6001237B600023BB601A
:102960000023FB6000233B613B461946714809F098
:1029700058FA10233B6001237B600023BB600023D7
:10298000FB6000233B613B4619466A4809F049FA5F
:1029900020233B6001237B600023BB600023FB609E
:1029A00000233B613B461946624809F03AFA40234E
:1029B0003B6001237B600023BB600023FB6000239E
:1029C0003B613B4619465B4809F02BFA4FF4005334
:1029D0003B6001237B600023BB600023FB6000237E
:1029E0003B613B461946544809F01BFA4FF48043BB
:1029F0003B6001237B600023BB600023FB6000235E
:102A00003B613B4619464C4809F00BFA4FF4004332
:102A10003B6001237B600023BB600023FB6000233D
:102A20003B613B461946444809F0FBF904233B60EF
:102A300001237B600023BB600023FB6000233B611C
:102A40003B4619463F4809F0ECF94FF480633B6080
:102A500001237B600023BB600023FB6000233B61FC
:102A60003B461946334809F0DCF94FF400633B60FC
:102A700001237B600023BB600023FB6000233B61DC
:102A80003B4619462B4809F0CCF94FF400433B6014
:102A900001237B600023BB600023FB6000233B61BC
:102AA0003B461946234809F0BCF94FF480533B607C
:102AB00001237B600023BB600023FB6000233B619C
:102AC0003B4619461F4809F0ACF94FF480733B6050
:102AD00001237B600323BB600023FB6000233B6179
:102AE0003B461946164809F09CF94FF400733B60C9
:102AF00001237B600323BB600023FB6000233B6159
:102B00003B4619460E4809F08CF94FF480633B6050
:102B100001237B600323BB600023FB6000233B6138
:102B20003B461946064809F07CF94FF400633B60C8
:102B30000AE000BF0010024000080240000002400E
:102B4000000C02400004024000237B6000233B6134
:102B50003B4619467E4809F064F94FF480733B60A8
:102B600000237B6000233B613B461946794809F00E
:102B700058F94FF400733B6000237B6000233B61F6
:102B80003B461946734809F04CF94FF480733B609B
:102B900000237B6000233B613B4619466E4809F0E9
:102BA00040F94FF400633B6001237B600023BB606E
:102BB0000023FB6000233B613B461946664809F051
:102BC00030F94FF400433B6001237B600023BB607E
:102BD0000023FB6000233B613B4619465E4809F039
:102BE00020F901233B6001237B600023BB600023AD
:102BF000FB6000233B613B461946554809F011F93B
:102C000002233B6001237B600023BB600023FB6049
:102C100000233B613B4619464D4809F002F9042365
:102C20003B6001237B600023BB600023FB6000232B
:102C30003B613B461946464809F0F3F808233B60E0
:102C400000237B6000233B613B461946404809F066
:102C5000E8F810233B6001237B600023BB60002366
:102C6000FB6000233B613B461946394809F0D9F81F
:102C700020233B6001237B600023BB600023FB60BB
:102C800000233B613B461946314809F0CAF840230E
:102C90003B6001237B600023BB600023FB600023BB
:102CA0003B613B4619462A4809F0BBF880233B604C
:102CB00001237B600023BB600023FB6000233B619A
:102CC0003B461946224809F0ACF84FF480733B604C
:102CD00001237B600023BB600023FB6000233B617A
:102CE0003B4619461D4809F09CF84FF400733B60C1
:102CF00001237B600023BB600023FB6000233B615A
:102D00003B461946154809F08CF801233B60012326
:102D10007B600023BB600023FB6000233B613B46DC
:102D200019460F4809F07DF802233B6001237B60C0
:102D30000023BB600023FB6000233B613B46194638
:102D4000074809F06EF800BF1837BD4680BD00BFC8
:102D5000000C024000080240000002400004024053
:102D60000010024080B400AF00BFFDE780B400AFA8
:102D700000BFFDE780B400AF00BFFDE780B400AF47
:102D800000BFFDE780B400AF00BFFDE780B400AF37
:102D900000BFBD465DF8047B704780B400AF00BF44
:102DA000BD465DF8047B704780B400AF00BFBD46F0
:102DB0005DF8047B704780B500AF08F0FDFD00BFF3
:102DC00080BD80B500AF02F061F900BF80BD80B466
:102DD00000AF01231846BD465DF8047B704780B5FF
:102DE00082B000AF786039600BF076FA03461622A5
:102DF0001A604FF0FF3318460837BD4680BD80B5D6
:102E000082B000AF78604FF0FF317868FFF7E7FFDE
:102E100000BFFDE780B586B000AFF860B9607A60AA
:102E200000237B610AE0AFF300800146BB685A1CB7
:102E3000BA60CAB21A707B6901337B617A697B68B8
:102E40009A42F0DB7B6818461837BD4680BD80B5D6
:102E500086B000AFF860B9607A6000237B6109E05A
:102E6000BB685A1CBA601B781846AFF300807B69B8
:102E700001337B617A697B689A42F1DB7B68184693
:102E80001837BD4680BD80B483B000AF78604FF086
:102E9000FF3318460C37BD465DF8047B704780B49D
:102EA00083B000AF786039603B684FF400525A60DD
:102EB000002318460C37BD465DF8047B704780B48C
:102EC00083B000AF7860012318460C37BD465DF82B
:102ED000047B704780B485B000AFF860B9607A6059
:102EE000002318461437BD465DF8047B7047000088
:102EF00080B586B000AF7860144A154BD31A7B6159
:102F00007B693B61134B1B68002B02D1114B124AAA
:102F10001A60104B1A687B6813443A699A4207D2C8
:102F20000BF0DAF903460C221A604FF0FF3309E088
:102F3000084B1B68FB60074B1A687B681344054A03
:102F40001360FB6818461837BD4680BD0000082096
:102F500000040000B4430020E00C012080B400AF66
:102F6000064BD3F88830054A43F47003C2F8883022
:102F700000BFBD465DF8047B704700BF00ED00E078
:102F8000DFF834D0FFF7EAFF0C480D490D4A002363
:102F900002E0D458C4500433C4188C42F9D30A4A0E
:102FA0000A4C002301E013600432A242FBD30BF071
:102FB00099F9FEF703FA704700000820000000208E
:102FC000984300207021010898430020DC0C012068
:102FD000FEE780B582B000AF7860396003F09AFDFB
:102FE00003F0C6FC7B6814330A220A21184608F055
:102FF0009FFC00BF0837BD4680BD000080B584B08F
:1030000002AF786039607B68002B03D100210E4845
:1030100003F0DEF878683B685A683B689B68009369
:1030200013460A4A0A4908F0F5FB7B6814337A68AC
:103030001221184608F05AFC3B681A687B685A62ED
:1030400000BF0837BD4680BDEC180108B930000844
:10305000D32F000880B586B002AF0223009304236B
:1030600008220949094808F059F9094A3B1D07CACD
:1030700083E807003B1D19460648FFF7BFFF00BF66
:103080001037BD4680BD00BFF8430020004400203B
:10309000A8010108B843002080B582B000AF034604
:1030A000FB71FB791946034808F0CEFB00BF0837D7
:1030B000BD4680BDB843002090B585B000AF7860B4
:1030C00039603B681B88122B06D0122B35DC102B85
:1030D00008D0112B1DD030E003F026FD03F08CFC4E
:1030E00001232BE00023FB730EE0FB7BFC7B1846E7
:1030F00003F020FD034619467B6804F1140223F80F
:103100001210FB7B0133FB73FB7B072BEDD90123F3
:1031100014E00023BB730DE0BB7B184603F014FCE6
:103120000346BA7B19B27B681C3223F81210BB7BB2
:103130000133BB73BB7B012BEED902231846143736
:10314000BD4690BD80B483B000AF7860054A7B680F
:103150001C3332F9133018460C37BD465DF8047B3A
:10316000704700BFB843002080B483B000AF7860E0
:10317000054A7B68143332F9133018460C37BD46C4
:103180005DF8047B704700BFB843002080B500AFF6
:1031900001F070FE02F042F9FFF75CFF00F09CF8CE
:1031A00000BF80BD80B500AF012000F0B7F804205B
:1031B00001F092FE022002F057F90320FFF76CFFA6
:1031C00000BF80BD80B500AF08F0D6FA00BF80BD5B
:1031D00080B586B002AF786039600E4BFB6030235B
:1031E00000930D4BFA680D490D4808F02FF803F0D5
:1031F000EDFA04F0B9FA03F073FF7B68012283F85B
:1032000051207B68002283F8562000BF1037BD464E
:1032100080BD00BFB4010108BC010108E401010840
:103220004C65002080B584B000AF786039607B6861
:103230005B69FB607B685B6939687868984703461F
:10324000FB72FB7A002B08D1FB6806497868984727
:103250007B685B6904497868984700BF1037BD46B2
:1032600080BD00BF1C1901080819010880B584B091
:1032700002AF786039607B68002B03D100211348CE
:1032800002F0A6FF78683B685A683B689B68009329
:1032900013460F4A0F4908F0BDFA3B681A687B686D
:1032A0005A617B6818337A681321184608F01EFBB0
:1032B0007B681833184608F05BFB3B681A7B7B6819
:1032C00083F84C2000BF0837BD4680BDF8180108C0
:1032D00025320008D131000890B587B002AF122323
:1032E0000093022324220949094808F017F8094BE2
:1032F0003C460FCB84E80F003B4619460648FFF7D3
:10330000B5FF00BF1437BD4690BD00BF98640020D4
:10331000BC640020080201081C44002080B582B073
:1033200000AF0346FB71FB791946034808F08CFA9D
:1033300000BF0837BD4680BD1C44002080B582B068
:1033400000AF786039603B681B88152B12D0152BB5
:1033500015DC012B02D0142B07D010E07B6818334A
:10336000184608F005FB01230AE07B68064A5A610B
:10337000002305E07B68054A5A61002300E0022330
:1033800018460837BD4680BD91330008D135000886
:1033900080B590B002AF786039603B681B88013B14
:1033A000172B00F2F98001A252F823F00D34000827
:1033B00099350008C334000899350008993500088C
:1033C00099350008993500089935000899350008A5
:1033D0009935000899350008993500089935000895
:1033E0009935000899350008993500089935000885
:1033F0009935000887350008993500089935000887
:10340000E5340008193500084D350008654B7B622E
:1034100080230093644B7A6A6449654807F016FF7D
:103420007B681833002242F21071184608F080FAC7
:103430007B6893F82A301946786800F016FA594BE1
:103440003B627B6893F82A30019384230093564BA8
:103450003A6A5849564807F0F9FE786800F01EFAB3
:10346000504BFB617B6893F82A30019387230093CC
:103470004D4BFA6950494E4807F0E8FE7B68DB6A1D
:10348000BB607B681B6BFB607B685B6B3B617B6835
:103490001B8D7B617B6893F82A30BB617B6893F856
:1034A0002B30184603F0FCF907F10803184603F027
:1034B000DFFD03F0C9FF7B68002283F84C20012365
:1034C0006BE0384BBB6297230093374BBA6A3B499A
:1034D000374807F0BBFE7B681833184608F048FAF7
:1034E00001235AE02F4BFB629D2300932E4BFA6A77
:1034F00033492F4807F0AAFE7B6893F84C30002B25
:1035000004D17B68012283F84C2003E07B6803220E
:1035100083F84C20012340E0224B3B63A823009317
:10352000214B3A6B2749224807F090FE7B6893F8BD
:103530004C30012B04D17B68022283F84C2003E03D
:103540007B68032283F84C20012326E07B6893F8F4
:103550004C30022B04D17B68052283F84C2003E019
:103560007B68032283F84C200E4B7B63B7230093C8
:103570000D4B7A6B14490E4807F068FE7B68134ABE
:103580005A61002309E07B68042283F84C207B68A1
:103590000E4A5A61002300E0022318463837BD4620
:1035A00080BD00BFB4010108BC0101081802010878
:1035B0004C6500205402010874020108B802010899
:1035C000F402010820030108480301083D33000804
:1035D00080B586B002AF786039603B681B881A2BD3
:1035E0003ED01A2B6ADC012B02D0192B2ED065E0BD
:1035F000354BFB60CB230093344BFA683449354894
:1036000007F024FE7B681833184608F0B1F97B6890
:103610005B6C314A53607B681B6C2F4A13602E4BE6
:103620005B68B3F5FA6F28BF4FF4FA639AB22B4B7D
:103630001A80294B1B685B00284A128852001146E9
:10364000274A184604F0BCF8012338E0254B1B68D4
:10365000224A12882249184601F01EFE01232EE05C
:103660001D4B5B681D4A12889B1A1B4A53601A4BFC
:103670001B681A4A12881344174A1360164B5B687A
:10368000002B16D0144B5B68B3F5FA6F28BF4FF4CC
:10369000FA639AB2114B1A800F4B1B685B000F4AFA
:1036A0001288520011460E4A184604F089F8012388
:1036B00005E07B680C4A5A61002300E002231846AB
:1036C0001037BD4680BD00BFB4010108BC01010830
:1036D000680301084C6500207444002080640020C9
:1036E00080440020040000203D33000880B584B0F1
:1036F00000AFF860B9607A60FB68BA681A64FB686A
:103700007A685A64FB680449184608F0C7F8002331
:1037100018461037BD4680BD4419010880B584B0F5
:1037200000AFF860B9607A60BB68012B02D87B6893
:10373000642B01D9062318E0FB6893F85130002B65
:1037400006D0002002F0FEFFFB68002283F8512023
:103750007968B86803F0E4F87B68D9B2FA68BB68A6
:1037600013444D330A461A70002318461037BD46DD
:1037700080BD80B582B000AF786039603B68242B93
:1037800001D9062314E07B6893F85130012B06D051
:10379000012002F0D7FF7B68012283F851203868AE
:1037A00003F04AF83B68DAB27B6883F84F200023C5
:1037B00018460837BD4680BD80B582B000AF78603E
:1037C0007B6893F85130012B06D0012002F0BAFF3C
:1037D0007B68012283F8512003F03EF87B68FF22CA
:1037E00083F84F20002318460837BD4680BD80B5BA
:1037F00082B000AF786039603B68082B01D906239E
:1038000014E07B6893F85130012B06D0012002F0C0
:1038100099FF7B68012283F85120386803F026F86D
:103820003B68DAB27B6883F85020002318460837DB
:10383000BD4680BD80B582B000AF78607B6893F8EC
:103840005130012B06D0012002F07CFF7B68012261
:1038500083F8512003F01AF87B68FF2283F8502088
:10386000002318460837BD4680BD80B582B000AF42
:10387000786039603B68242B01D906230AE003F005
:10388000BFFC386803F0E4FC3B68DAB27B6883F87D
:103890005220002318460837BD4680BD80B582B04F
:1038A00000AF786003F0C0FC002318460837BD461F
:1038B00080BDB0B483B000AF786039603B681B88CE
:1038C000002B04D03B681B88B3F57A7F01D906230F
:1038D00028E03B689B78002B03D03B689B78242B27
:1038E00001D906231EE03B68DB78642B01D906234F
:1038F00018E03B681B69B3F5006F01D9062311E09E
:103900003B685B69002B01D106230BE07B683A68BA
:1039100003F1280415460FCD0FC495E8030084E891
:103920000300002318460C37BD46B0BC7047B0B446
:1039300083B000AF786039603A687B68154603F160
:1039400028040FCC0FC594E8030085E8030000BFEE
:103950000C37BD46B0BC704780B584B000AF78600E
:103960007B682833FB60FB681B88002B04D0FB6856
:103970001B88B3F57A7F01D906231CE0FB689B788E
:10398000002B03D0FB689B78242B01D9062312E07F
:10399000FB68DB78642B01D906230CE0FB681B690C
:1039A000B3F5006F01D9062305E07B68044918468A
:1039B00007F074FF002318461037BD4680BD00BFD6
:1039C0003019010880B400AFBFF34F8F00BF064B22
:1039D000DB6803F4E0620449044B1343CB60BFF39C
:1039E0004F8F00BF00BFFDE700ED00E00400FA05C7
:1039F00080B588B000AFF860B9607A6007F1140351
:103A0000074A0A2118460AF081FA07F114031946F9
:103A1000F86806F004F800BF2037BD4680BD00BF3F
:103A2000600C010880B584B000AFF860B9607A60BE
:103A3000FFF7C8FF80B588B000AFF860B9607A6062
:103A40000023BB610023FB82B86806F0D9F8034667
:103A50007B757B7D012B04D02E49F86807F056FA60
:103A600054E00121B86806F095F838613B691B788D
:103A7000612B22D10023FB771BE0FB7F1846FFF769
:103A800073FB0346FB82B7F9163013F5004F06D1DE
:103A9000FB7F1A462049F86807F038FA06E0FA7FFB
:103AA000B7F916301D49F86807F030FAFB7F01338B
:103AB000FB77FB7F072BE0D928E03B691B782F2B96
:103AC00020D93B691B78372B1CD8386909F044FC96
:103AD0000346BB61B869FFF747FB0346FB82B7F9B2
:103AE000163013F5004F05D1BA690B49F86807F095
:103AF0000DFA0BE0B7F91630BA690849F86807F013
:103B000005FA03E00649F86807F000FA2037BD46D9
:103B100080BD00BF680C0108880C01089C0C0108DE
:103B2000B00C010880B588B000AFF860B9607A6069
:103B3000B86806F065F80346FB61FB69012B04D009
:103B40001549F86807F0E2F923E0144B1B681846A2
:103B500002F050F8034683F00103DBB2002B04D0DF
:103B60000F49F86807F0D2F913E00121B86806F0B0
:103B700011F8B861B86909F0EFFB03467B61074BA8
:103B80001B687969184602F0DFFA0649F86807F001
:103B9000BDF92037BD4680BD680C01080800002033
:103BA000C40C0108100D010880B584B000AFF860A6
:103BB000B9607A600A4B1B68184602F0DEFA0346C9
:103BC000002B04D00749F86807F0A0F903E0064984
:103BD000F86807F09BF900BF1037BD4680BD00BFF5
:103BE00008000020100D0108180D010880B588B0EC
:103BF00000AFF860B9607A60B86806F001F8034673
:103C0000BB61BB69012B04D03849F86807F07EF925
:103C100069E0374B1B68184601F0ECFF034683F060
:103C20000103DBB2002B04D03249F86807F06EF9CB
:103C300059E00121B86805F0ADFF786100233B61D0
:103C40007B691B78612B25D10023FB611EE0284B8B
:103C50001B68F969184601F088FF38613B69002B41
:103C60000CD1234B1B680022F969184601F09DFF17
:103C7000FA692149F86807F049F904E0FA691F492F
:103C8000F86807F043F9FB690133FB61FB69032B1B
:103C9000DDD928E07B691B782F2B24D97B691B7821
:103CA000332B20D8786909F057FB0346FB61104B92
:103CB0001B68F969184601F058FF38613B69002B11
:103CC0000CD10B4B1B680022F969184601F06DFFFF
:103CD000FA690949F86807F019F904E0FA6907492F
:103CE000F86807F013F92037BD4680BD680C01085D
:103CF00008000020200D0108680D01087C0D010856
:103D000080B588B000AFF860B9607A60B86805F037
:103D100077FF0346FB61FB69012B04D01549F86866
:103D200007F0F4F822E00121B86805F033FFB8612C
:103D3000B86909F011FB0346FB82FB8AB3F5FA7FF1
:103D400004D3FB8A40F6B832934204D90A49F86892
:103D500007F0DCF80AE0094B1B68FA8A114618469E
:103D600002F0A2F80649F86807F0D0F82037BD46FF
:103D700080BD00BF940D0108BC0D010808000020A3
:103D8000100D010880B586B000AFF860B9607A60A8
:103D9000084B1B68184601F0D8FD0346FB82FB8ADE
:103DA0001A460549F86807F0B1F800BF1837BD4654
:103DB00080BD00BF08000020F00D010880B588B06C
:103DC00000AFF860B9607A60B86805F019FF034683
:103DD000BB61BB69042B04D02F49F86807F096F843
:103DE00057E02E4B1B68184601F0F3FF0346FB75A6
:103DF0000023FB614AE0FB699BB201339BB2194689
:103E0000B86805F0C7FE0346184609F0A5FA034650
:103E1000D9B207F11002FB6913440A461A7007F180
:103E20001002FB6913441B78012B05D9FA691C4960
:103E3000F86807F06BF82CE007F11002FB691344F7
:103E40001B78002B08D1154B1B68FA69D2B21146BA
:103E5000184601F0F9FF16E0FB7DFA699A4205D198
:103E6000FA691049F86807F051F80CE00B4B1B6831
:103E7000FA69D2B21146184601F0C5FFFA690A493B
:103E8000F86807F043F8FB690133FB61FB69032B1A
:103E9000B1D92037BD4680BD140E010808000020AE
:103EA000380E0108600E0108840E010880B586B046
:103EB00000AFF860B9607A60134B1B68184601F0D8
:103EC000E6FF0346FB7400237B6115E0FA7C7B6907
:103ED00042FA03F303F00103002B05D07A690B4982
:103EE000F86807F013F804E07A690949F86807F000
:103EF0000DF87B6901337B617B69032BE6D900BF39
:103F000000BF1837BD4680BD08000020840E0108A0
:103F10009C0E010880B58CB000AFF860B9607A6083
:103F2000354B1B68184601F065FE034683F001031C
:103F3000DBB2002B04D03149F86806F0E7FF58E007
:103F4000B86805F05DFE0346FB62FB6A032B04D0F4
:103F50002B49F86806F0DAFF4BE00121B86805F05C
:103F600019FEB862B86A09F0F7F903467B627B6A0A
:103F7000032B04D92349F86806F0C8FF39E0022171
:103F8000B86805F007FE3862386A09F0E5F90346BB
:103F9000FB61FB69012B04D91B49F86806F0B6FFE9
:103FA00027E00321B86805F0F5FDB861B86909F0AC
:103FB000D3F90346FB82FB8A40F6B832934204D918
:103FC0001249F86806F0A2FF13E00B4B1868FB8A51
:103FD000FA69796A02F038F838613B69002B04D03D
:103FE0000B49F86806F092FF03E00A49F86806F00A
:103FF0008DFF3037BD4680BD08000020B40E01089B
:10400000D80E0108040F0108280F01084C0F010801
:10401000180D0108100D010880B58AB000AFF860D6
:10402000B9607A602A4B1B68184601F0E3FD03462D
:1040300083F00103DBB2002B04D02649F86806F0B8
:1040400065FF41E0B86805F0DBFD03467B627B6AF3
:10405000022B04D02049F86806F058FF34E0012113
:10406000B86805F097FD3862386A09F075F90346BB
:10407000FB61FB69032B04D91849F86806F046FF79
:1040800022E00221B86805F085FDB861B86909F041
:1040900063F903467B610E4B18687B69002B14BFE4
:1040A00001230023DBB21A46F96901F07EFD386175
:1040B0003B69002B04D00A49F86806F027FF03E0AB
:1040C0000849F86806F022FF2837BD4680BD00BFCA
:1040D00008000020B40E0108780F0108040F010841
:1040E000180D0108100D010880B58AB000AFF86006
:1040F000B9607A60B86805F083FD03467B627B6A2D
:10410000022B04D02949F86806F000FF4AE001219B
:10411000B86805F03FFD3862386A09F01DF90346BA
:10412000FB61234B1B68184601F0B1FE0346FB768A
:10413000FA7EFB6942FA03F303F00103002B05D07A
:10414000FA691C49F86806F0E1FE2BE00221B86824
:1041500005F020FD7861786909F0FEF803463B61BF
:104160003B69B3F5FA7F04D33B6940F6B83293421A
:1041700004D91149F86806F0C9FE13E00C4B1B681E
:10418000FA69D2B21146184601F048FD084B1B6887
:104190003A6992B21146184601F056FD0749F8688F
:1041A00006F0B4FE2837BD4680BD00BF980F010859
:1041B00008000020C00F0108BC0D0108100D010807
:1041C00080B584B000AFF860B9607A60064B1B68B8
:1041D000184601F055FD0549F86806F097FE00BF46
:1041E0001037BD4680BD00BF08000020100D01083B
:1041F00080B584B000AFF860B9607A60064B1B6888
:10420000184601F0C7FD0549F86806F07FFE00BFBB
:104210001037BD4680BD00BF08000020100D01080A
:1042200080B586B000AFF860B9607A600B4B1B6850
:10423000184601F0CEFD0346FB75084B1B68184677
:1042400001F0D4FD0346BB82FA7DBB8A0449F868BD
:1042500006F05CFE00BF1837BD4680BD0800002098
:10426000E40F010880B588B000AFF860B9607A60EB
:10427000B86805F0C5FC0346FB61FB69012B04D05F
:104280001249F86806F042FE1CE00121B86805F00A
:1042900081FCB861B86909F05FF80346FB75FB7DE6
:1042A000642B04D90A49F86806F030FE0AE0094B8D
:1042B0001B68FA7D1146184601F012FE0649F8689F
:1042C00006F024FE2037BD4680BD00BF1010010857
:1042D0003410010808000020100D010880B586B0D8
:1042E00000AFF860B9607A60084B1B68184601F0AF
:1042F0000DFE0346FB75FB7D1A460549F86806F07E
:1043000005FE00BF1837BD4680BD00BF0800002075
:104310005810010880B588B000AFF860B9607A60C5
:10432000B86805F06DFC0346BB61BB69042B04D083
:104330002649F86806F0EAFD45E00023FB613BE012
:10434000FB699BB201339BB21946B86805F022FCA9
:104350000346184609F000F80346D9B207F11402E3
:10436000FB6913440A461A7007F11402FB691344EF
:104370001B78012B05D9FA691549F86806F0C6FDC6
:1043800021E007F11402FB6913441B78002B08D1CC
:10439000104B1B68FA69D2B21146184601F0E4FDD1
:1043A00007E00C4B1B68FA69D2B21146184601F0BF
:1043B000BAFDFB690133FB61FB69032BC0D90649D8
:1043C000F86806F0A3FD2037BD4680BD74100108D3
:1043D000380E010808000020100D010880B586B0D5
:1043E00000AFF860B9607A60124B1B68184601F0A4
:1043F000DEFD0346FB7400237B6113E0FA7C7B69DE
:1044000042FA03F303F00103002B04D00A49F868D1
:1044100006F07CFD03E00949F86806F077FD7B694A
:1044200001337B617B69032BE8D900BF00BF1837DC
:10443000BD4680BD080000209C100108B410010892
:1044400080B588B000AFF860B9607A60B86805F0F0
:10445000D7FB0346FB61FB69012B04D00E49F868CA
:1044600006F054FD15E00121B86805F093FBB86132
:10447000B86908F071FF0346FB82084B1B68B7F967
:1044800016201146184601F0B5FD0549F86806F0FA
:104490003DFD2037BD4680BDD0100108080000203A
:1044A000100D010880B586B000AFF860B9607A6081
:1044B0000E4B1B68184601F0ADFD0346FB82B7F9B1
:1044C000163007EE903AB8EEE77AF2EE046AC7EEDD
:1044D000267AB7EEE77A53EC172B0549F86806F011
:1044E00015FD00BF1837BD4680BD00BF0800002085
:1044F000F810010880B588B000AFF860B9607A6044
:10450000B86805F07DFB0346FB61FB69012B04D015
:104510001249F86806F0FAFC1DE00121B86805F0C0
:1045200039FBB861B86908F017FF03467B617B6906
:10453000072B04D90A49F86806F0E8FC0BE0094BA0
:104540001B687A69D2B21146184601F03DFD064952
:10455000F86806F0DBFC2037BD4680BD1C11010861
:104560003411010808000020100D010880B586B044
:1045700000AFF860B9607A600023FB75084B1B68D8
:10458000184601F054FD0346FB75FB7D1A460549AC
:10459000F86806F0BBFC00BF1837BD4680BD00BF01
:1045A000080000205411010880B584B000AFF86005
:1045B000B9607A60064B1B68184601F0D3F90549CB
:1045C000F86806F0A3FC00BF1037BD4680BD00BFF1
:1045D00008000020100D010880B584B000AFF8601D
:1045E000B9607A60064B1B68184601F0D7F9054997
:1045F000F86806F08BFC00BF1037BD4680BD00BFD9
:1046000008000020100D010880B588B000AFF860E8
:10461000B9607A60B86805F0F3FA0346FB61FB699C
:10462000012B04D01349F86806F070FC1EE001214C
:10463000B86805F0AFFAB861B86908F08DFE0346B6
:10464000FB82B7F91630642B04DD0B49F86806F0DD
:104650005DFC0BE0094B1B68B7F9162000211846DA
:10466000FFF75CF80649F86806F050FC2037BD46B5
:1046700080BD00BF641101088C1101080C000020EE
:10468000100D010880B588B000AFF860B9607A609D
:10469000B86805F0B5FA0346FB61FB69012B04D04D
:1046A0001349F86806F032FC1EE00121B86805F0F5
:1046B00071FAB861B86908F04FFE0346FB82B7F99A
:1046C0001630642B04DD0B49F86806F01FFC0BE084
:1046D000094B1B68B7F9162001211846FFF71EF891
:1046E0000649F86806F012FC2037BD4680BD00BFC1
:1046F000B01101088C1101080C000020100D0108F8
:1047000080B588B000AFF860B9607A600023BB83E1
:10471000B86805F075FA0346FB76FB7E012B04D0E2
:104720002749F86806F0F2FB46E00121B86805F079
:1047300031FA78617B691B78612B1AD10023FB77F2
:1047400013E0FB7F1846FEF7FDFC0346BB83FB7FAF
:10475000002B01D11B4A00E01B4ABB8B1B49F868A8
:1047600006F0D4FBFB7F0133FB77FB7F012BE8D9FD
:1047700022E07B691B782F2B1AD97B691B78312BA0
:1047800016D8786908F0E8FD0346FB74FB7C1846F0
:10479000FEF7D8FC0346BB83FB7C002B01D1094A02
:1047A00000E0094ABB8B0949F86806F0AFFB03E05B
:1047B0000749F86806F0AAFB2037BD4680BD00BF58
:1047C000680C0108F8110108FC1101080012010829
:1047D000B00C010880B588B000AFF860B9607A60AD
:1047E000B86805F00DFA0346FB61FB69012B04D0A4
:1047F0001349F86806F08AFB1EE00121B86805F04D
:10480000C9F9B861B86908F0A7FD78617B69242B04
:1048100002DC7B69002B04DC0A49F86806F076FBB1
:104820000AE0094B1B687A6911461846FEF7A1FF9A
:104830000649F86806F06AFB2037BD4680BD00BF18
:104840001C120108401201080C000020100D010884
:1048500080B588B000AFF860B9607A60B86805F0DC
:10486000CFF90346FB61FB69012B04D01349F868BB
:1048700006F04CFB1EE00121B86805F08BF9B86129
:10488000B86908F069FD78617B69082B02DC7B69F7
:10489000002B04DC0A49F86806F038FB0AE0094BF3
:1048A0001B687A6911461846FEF7A1FF0649F868A9
:1048B00006F02CFB2037BD4680BD00BF6412010806
:1048C000881201080C000020100D010880B584B08A
:1048D00000AFF860B9607A60064B1B681846FEF7B7
:1048E0006BFF0549F86806F011FB00BF1037BD46A5
:1048F00080BD00BF0C000020100D010880B584B001
:1049000000AFF860B9607A60064B1B681846FEF786
:1049100091FF0549F86806F0F9FA00BF1037BD4667
:1049200080BD00BF0C000020100D010880B592B0C2
:1049300000AFF860B9607A60B86805F061F90346C5
:104940007B647B6C062B04D06949F86806F0DEFABC
:10495000CBE00121B86805F01DF90346184608F0C0
:10496000FBFC03463B643B6CB3F57A7F03D33B6CA3
:10497000604A934204D96049F86806F0C7FAB4E087
:104980003B6C5E4AA2FB03239B093B640221B8688F
:1049900005F000F90346184608F0DEFC0346FB6309
:1049A000FB6B002B02D0FB6B242B04D95449F86815
:1049B00006F0ACFA99E00321B86805F0EBF803467D
:1049C000184608F0C9FC0346BB63BB6B642B04D9D3
:1049D0004C49F86806F09AFA87E00421B86805F0B7
:1049E000D9F80346184608F0B7FC03467B637B6B97
:1049F000002B04D14449F86806F088FA75E07B6B17
:104A00004FF47A7202FB03F37B630521B86805F06B
:104A1000C1F80346184608F09FFC03463B633B6B16
:104A2000002B04D13949F86806F070FA5DE03B6B61
:104A30004FF47A7202FB03F33B630621B86805F07A
:104A4000A9F80346184608F087FC0346FB62FB6A98
:104A5000002B04D12E49F86806F058FA45E0FB6AAD
:104A60004FF47A7202FB03F3FB627A6B3B6B1A44DE
:104A7000FB6A13443A6C02FB03F3264AA2FB0323AE
:104A80009B0CBB62BB6AB3F5006F04D92249F8687E
:104A900006F03CFA29E03B6C9BB23B82FB6BDBB23D
:104AA000BB74BB6BDBB2FB747B6B7B613B6BBB6131
:104AB000FB6AFB61BB6A3B62184A3B6CB2FBF3F3D7
:104AC0007B62174B1B6807F1100211461846FEF770
:104AD000F0FE0346002B04D11249F86806F016FADE
:104AE00003E01149F86806F011FA4837BD4680BD69
:104AF000A812010800350C0008130108D34D6210FC
:104B000030130108501301087013010894130108B1
:104B1000BC13010883DE1B43E013010840420F0071
:104B20000C000020100D0108180D0108F0B591B01F
:104B300006AFF860B9607A60184B1B6807F1100285
:104B400011461846FEF7F3FE3B8A1A464FF47A7375
:104B500003FB02F4BB7C1E46FB7C1D467B69104AAE
:104B6000A2FB03239B09BA690D49A1FB021292091A
:104B7000F9690B48A0FB01018909386A0490039187
:104B8000029201930095334622460649F86806F0E2
:104B9000BDF900BF2C37BD46F0BD00BF0C000020A2
:104BA000D34D62100814010880B584B000AFF860DE
:104BB000B9607A600A4B1B681846FEF7CDFE0346C3
:104BC000002B04D00749F86806F0A0F903E0064975
:104BD000F86806F09BF900BF1037BD4680BD00BFE6
:104BE0000C000020A4140108C414010880B588B08A
:104BF00000AFF860B9607A60B86805F001F8034664
:104C0000FB61FB69022B04D02349F86806F07EF9AA
:104C10003EE00121B86804F0BDFF0346184608F0E5
:104C20009BFB0346BB61BB69B3F5001F04D31B4963
:104C3000F86806F06BF92BE00221B86804F0AAFFCF
:104C40000346184608F088FB03467B61BB69C3F541
:104C500000137A699A4203D87B69B3F5007F08D2C2
:104C6000BB69C3F500131A460D49F86806F04EF902
:104C70000EE00C49F86806F049F90B4B1B687A699D
:104C8000B9691846FEF732FD0649F86806F03EF9A4
:104C90002037BD4680BD00BFE01401081015010893
:104CA0003C150108681501080C00002080B400AF15
:104CB000024B1846BD465DF8047B70475819010841
:104CC00080B400AF26231846BD465DF8047B7047CC
:104CD00080B483B000AF78607B68DB6903F02003A9
:104CE000202B01D1012300E0002318460C37BD46DC
:104CF0005DF8047B704780B483B000AF78607B6858
:104D00005B6ADBB218460C37BD465DF8047B704722
:104D100080B500AF4FF480620849094806F024FCD2
:104D20004FF480520749084806F01EFC064B044A1F
:104D30000649074806F0C1F900BF80BD8465002020
:104D40005C6500208469002070650020001401402B
:104D50004C650020B0B588B000AF1B4B3C1D1D4614
:104D60000FCD0FC495E8070084E80700FFF79EFF0A
:104D70000346BB61FFF7A4FF0346BB833B1D1846F8
:104D800004F00BFD0346114A1360104B1B68002B07
:104D900005D101210E4801F01BFA012310E00B4B55
:104DA0001B680C4A1A60094B1C683B1D184604F02E
:104DB000C3FC03461A460849204606F0A7F800231C
:104DC00018462037BD46B0BD8C15010884790020F7
:104DD000E81C0108DD4D00086C15010880B582B0A3
:104DE00000AF78600B46FB70FB781946034806F06D
:104DF000E7F900BF0837BD4680BD00BF4C65002005
:104E000080B584B002AF786039607B68002B03D135
:104E10000021154801F0DCF978683B68DA683B68E6
:104E20001B6900931346114A114906F0F3FC7B6895
:104E300020337A680621184606F058FD3B685A6808
:104E40007B68DA613B689A687B689A613B681A689C
:104E50007B685A617B682033184606F089FD00BFE5
:104E60000837BD4680BD00BFE81C0108354F00086B
:104E7000F94E000880B588B002AFFFF749FF022362
:104E800000930A2314220D490D4806F047FAFFF754
:104E900061FF0C4B7B600C4B1B68BB600B4BFB60DA
:104EA0000B4B3B61064B7B613B1D19460948FFF7E5
:104EB000A7FF00BF1837BD4680BD00BF1C6500209E
:104EC000306500207D4F0008847900204C6500206B
:104ED00018650020D864002080B582B000AF03467A
:104EE000FB71FB791946034806F0AEFC00BF08379A
:104EF000BD4680BDD864002080B582B000AF786028
:104F000039607B68002B03D10721094801F060F963
:104F10007B689B69184606F0ECF87B6820330A2210
:104F20000A21184606F004FD00BF0837BD4680BDC3
:104F3000E81C010880B584B000AF786039607B68F8
:104F40005B69FB607B685B693968786898470346F2
:104F5000FB72FB7A002B08D1FB68064978689847FA
:104F60007B685B6904497868984700BF1037BD4685
:104F700080BD00BFF41C0108F01C010880B582B0A0
:104F800000AF786039607B68002B03D10321214892
:104F900001F01EF93B68002B03D104211D4801F0EC
:104FA00017F93B681B88013B062B2DD801A252F84C
:104FB00023F000BFD14F000809500008E34F00085C
:104FC0000950000809500008F14F0008FF4F000881
:104FD0007B6820330A220A21184606F0A9FC012327
:104FE00013E07B682033184606F0C2FC01230CE076
:104FF000094B1B68184604F082FC012305E07B681E
:10500000064A5A61002300E0022318460837BD46CD
:1050100080BD00BFE81C010884790020A55000086D
:1050200080B582B000AF0B48FFF752FE0346002B5D
:105030000BD00848FFF75FFE0346FB71064B1B6869
:10504000FA791146184604F037FC00BF0837BD4610
:1050500080BD00BF001401408479002080B584B079
:1050600000AF78607B689B69184606F024F9F86009
:10507000FB68002B04D07B680349184606F00EFC41
:1050800000BF1037BD4680BD1000002080B500AFC6
:10509000FFF7C6FF0248FFF7E1FF00BF80BD00BF7A
:1050A000D864002080B584B000AF786039600023F8
:1050B000FB603B681B88012B27D0082B51D084E074
:1050C000786800F089F81BE07B689A697B6893F840
:1050D0003D3019467B680B4493F83830194610462A
:1050E00006F06EF8F860FB68002B01D001236DE03C
:1050F0007B6893F83D300133DAB27B6883F83D205A
:105100007B6893F83D30042BDED97B685B6B002B0A
:10511000D6D17B682F4A5A617B6820330A220A2144
:10512000184606F005FC002350E07B689A697B680E
:1051300093F83D3019467B680B4493F83830194694
:10514000104606F03DF8F860FB68002B01D0012303
:105150003CE07B6893F83D300133DAB27B6883F83A
:105160003D207B6893F83D30042BDED924E078683D
:1051700000F032F81BE07B689A697B6893F83D3059
:1051800019467B680B4493F838301946104606F0F0
:1051900017F8F860FB68002B01D0012316E07B684C
:1051A00093F83D300133DAB27B6883F83D207B68A9
:1051B00093F83D30042BDED97B685B6B002BD6D196
:1051C0007B68044A5A61002300E002231846103726
:1051D000BD4680BD7D4F0008B0B588B000AF786097
:1051E0002A4B07F10C041D460FCD0FC42B6823700A
:1051F0007B681B6B991C7A6811631B88FB837B6837
:105200005B6B5A1E7B685A63FB8B1B0B9BB203F0D4
:105210000F0320333B4413F8142C7B6883F83820A9
:10522000FB8B1B0A9BB203F00F0320333B4413F8A4
:10523000142C7B6883F83920FB8B1B099BB203F08D
:105240000F0320333B4413F8142C7B6883F83A2077
:10525000FB8B03F00F0320333B4413F8142C7B68C3
:1052600083F83B207B68202283F83C207B68002267
:1052700083F83D207B685B6B002B03D10449054814
:1052800006F00CFB00BF2037BD46B0BDA8150108D5
:10529000F81C01081C44002080B584B000AFF86001
:1052A000B9607A60FB68BA681A63FB687A685A6307
:1052B000FB680449184606F0F1FA00BF1037BD46F6
:1052C00080BD00BF1400002080B586B002AF7860BA
:1052D0003960114BFB6031230093104BFA68104981
:1052E000104805F0B3FF02F0F5FA7B68012283F85D
:1052F0003020786800F01EFC786800F0FFFB7868CA
:1053000000F00DFB7B682033184606F031FB00BF30
:105310001037BD4680BD00BFBC150108C41501088B
:10532000FC1501084C65002080B584B000AF7860A2
:1053300039607B685B69FB607B685B6939687868AA
:1053400098470346FB72FB7A002B08D1FB6806499D
:10535000786898477B685B6904497868984700BF1C
:105360001037BD4680BD00BF2C1D0108181D010867
:1053700080B586B002AF786039607B68002B03D1BE
:105380000021234800F024FF78683B685A683B6896
:105390009B68009313461F4A1F4906F03BFA7B683F
:1053A00020337A680E21184606F0A0FA3B681A6886
:1053B0007B685A617B68002283F830207B6800227A
:1053C00083F844207B68002283F847207B68002212
:1053D00083F848200023FB600EE03A68FB68023344
:1053E0009B0013445A687968FB680C339B000B449C
:1053F0005A60FB680133FB60FB68032BEDD97B68C7
:105400002033184606F0B4FA00BF1037BD4680BD01
:105410000C1D010829530008C9520008B0B58AB014
:1054200002AF12230093022324220B490B4805F0FC
:1054300075FF0B4B3C1D1D460FCD0FC495E80700B3
:1054400084E807003B1D19460648FFF791FF00BF9F
:105450002037BD46B0BD00BFF0890020148A00206F
:10546000101601088889002080B582B000AF03467D
:10547000FB71FB791946034806F0E6F900BF0837CF
:10548000BD4680BD8889002080B586B002AF7860B7
:1054900039603B681B88012B02D00F2B18D04BE0E2
:1054A000284BFB606C230093274BFA682749284858
:1054B00005F0CCFE7B682033184606F059FA786870
:1054C00000F01CFB786800F02AFA7B6801229A61E0
:1054D0003B689B78042B2DD17B6893F83030002BF0
:1054E00009D10121786800F02FFE786800F022FBD6
:1054F000786800F003FB7B6893F846301846FDF7A8
:1055000033FE03467B817B68B3F94A30B7F90A2042
:105510009A4203DD7B680F4A5A6102E07B680E4ABB
:105520005A617B68203364226421184606F000FA31
:10553000002302E0022300E0012318461037BD4695
:1055400080BD00BFBC150108C41501082C16010858
:105550004C6500205D5500080D56000880B586B0EA
:1055600002AF786039603B681B880F2B32D00F2B5D
:105570003BDC012B02D00E2B16D036E01D4BBB605E
:10558000952300931C4BBA681C491D4805F05EFE2C
:105590007B680022DA610021786800F01BFA7868E5
:1055A00000F05CF9012321E07B6893F8463018464F
:1055B000FDF7DAFD0346FB817B68B3F94A30B7F9A2
:1055C0000E209A4201DD012310E07B680D4A5A61EA
:1055D00000230BE03B689B78052B04D17B680A4ACB
:1055E0005A61002302E0022300E00223184610372C
:1055F000BD4680BDBC150108C41501086816010828
:105600004C6500200D5600088954000880B586B00E
:1056100002AF786039603B681B880F2B46D00F2B98
:105620004FDC012B02D00E2B15D04AE0274BBB607C
:10563000BA230093264BBA682649274805F006FE90
:105640007B680022DA61786800F058FA786800F028
:1056500066F9012336E07B6893F846301846FDF77B
:1056600083FD0346FB817B68B3F94A30B7F90E200E
:105670009A4204DD7B68194A5A61002322E07B6864
:10568000DB695A1C7B68DA617B68DB691D2B08D8F3
:105690007B68B3F94A301A46B7F90E30D31A0A2B91
:1056A00004DD7B680E4A5A6100230BE03B689B785F
:1056B000052B04D17B680B4A5A61002302E00223C8
:1056C00000E0022318461037BD4680BDBC15010816
:1056D000C4150108A41601084C6500205D5500089A
:1056E000E95600088954000880B586B002AF78609A
:1056F00039603B681B880F2B2ED00F2B37DC012B1A
:1057000002D00E2B12D032E01B4BBB60E023009383
:105710001A4BBA681A491B4805F098FD7B680022AD
:10572000DA61786800F0CDF8012321E07B6893F816
:1057300046301846FDF718FD0346FB817B68B3F938
:105740004A30B7F90E209A4201DA012310E07B6853
:105750000D4A5A6100230BE03B689B78052B04D16E
:105760007B680A4A5A61002302E0022300E0022318
:1057700018461037BD4680BDBC150108C415010888
:10578000E81601084C65002091570008895400086C
:1057900080B586B002AF786039603B681B880F2BFC
:1057A0003DD00F2B46DC012B02D00E2B13D041E055
:1057B000234BBB604FF481730093224BBA6822499C
:1057C000224805F043FD786800F098F9786800F009
:1057D000A6F801232FE07B6893F846301846FDF7C2
:1057E000C3FC0346FB817B68B3F94A30B7F90E204E
:1057F0009A4204DA7B68164A5A6100231BE07B68F0
:10580000DB695A1C7B68DA617B68DB691D2B04D974
:105810007B68104A5A6100230DE001230BE03B68CE
:105820009B78052B04D17B680B4A5A61002302E068
:10583000022300E0022318461037BD4680BD00BF9A
:10584000BC150108C41501082C1701084C6500207F
:10585000E95600085D5500088954000880B584B0F9
:1058600000AF78607B6893F84730BB730023FB730D
:105870001FE0BA7BFB7B42FA03F303F00103002B2A
:105880000AD0FB7B7A680C339B0013445B680121D0
:10589000184603F0D1F809E0FB7B7A680C339B00D3
:1058A00013445B680021184603F0C6F8FB7B013304
:1058B000FB73FB7B032BDCD900BF00BF1037BD4659
:1058C00080BD80B584B000AF78607B6893F84930C4
:1058D000BB737B6893F848307B730023FB7316E03F
:1058E0007A7BFB7B42FA03F303F00103002B07D022
:1058F000FB7BBA7B92B21146184600F0ADFC03E088
:10590000FB7B184600F0EAFCFB7B0133FB73FB7B5F
:10591000032BE5D900BF00BF1037BD4680BD80B561
:1059200084B000AF78600023FB7306E0FB7B184671
:1059300000F0D4FCFB7B0133FB73FB7B032BF5D91D
:1059400000BF00BF1037BD4680BD80B483B000AF3C
:1059500078607B68B3F84C3018460C37BD465DF86C
:10596000047B704780B588B000AF786007F10C0306
:1059700000221A605A609A60DA601A820F23BB8193
:105980000423BB737B6807F10C021146184605F02F
:1059900085FF002318462037BD4680BD80B588B0FE
:1059A00000AF786007F10C0300221A605A609A6019
:1059B000DA601A820F23BB810523BB737B6807F172
:1059C0000C021146184605F069FF002318462037DF
:1059D000BD4680BD2DE9F04F8DB000AFF861B961D3
:1059E000FB6993F8473087F82B30FB69B3F84C30EC
:1059F0003B850023FB6278E097F82B20FB6A42FA94
:105A000003F303F00103002B6CD0FA69FB6A0C333B
:105A10009B0013445B689B7E87F8273097F82730FC
:105A2000DBB203F00103002B08D1FA69FB6A0C33E7
:105A30009B0013445B68184603F063F8FA69FB6A3D
:105A40000C339B0013445B689B7E87F82730FA6910
:105A5000FB6A0C339B0013445B687B60BB69DEB25E
:105A60003B8D00229A46934652465B464FF000001B
:105A70004FF00001590141EAD261500102460B4644
:105A8000B2EB0A0463EB0B054FF000024FF000038A
:105A90006B0243EAD453620214461D4614EB0A0813
:105AA00045EB0B094FF000024FF000034FEA89135A
:105AB00043EA98634FEA8812B2EB0801B96063EBDE
:105AC0000902FA60D7E90201024612EB0A023A61C2
:105AD0000A4642EB0B027A61D7E904233146786823
